:020000040800F2
:10000000705D002009030008F73700082D33000851
:10001000F53700080B060008294C00080000000016
:10002000000000000000000000000000490200087D
:100030009D09000800000000A502000831430008E7
:1000400023030008230300082303000823030008F8
:1000500023030008230300082303000823030008E8
:1000600023030008230300082303000823030008D8
:1000700023030008230300082303000823030008C8
:10008000E1080008230300082303000823030008F5
:10009000490600082303000823030008230300087F
:1000A0002303000823030008230300082303000898
:1000B0002303000823030008230300082303000888
:1000C0002303000823030008230300082303000878
:1000D00023030008E14B0008054C00082303000837
:1000E0002303000823030008230300082303000858
:1000F0002303000805440008230300082303000825
:100100002303000823030008230300082303000837
:1001100023030008F5460008230300082303000812
:100120002303000823030008ED0800082303000848
:100130002303000800000000000000002303000863
:100140009106000823030008230300082303000886
:100150002303000823030008230300081D4C0008A4
:1001600023030008230300082303000823030008D7
:100170002303000823030008000000000000000023
:10018000230300082303000800F002F800F04CF8F5
:100190000AA090E8000C82448344AAF10107DA45E2
:1001A00001D100F041F8AFF2090EBAE80F0013F0E8
:1001B000010F18BFFB1A43F001031847A46D00009C
:1001C000C46D00000A4410F8014B14F00F0508BF7D
:1001D00010F8015B240908BF10F8014B6D1E05D013
:1001E00010F8013B6D1E01F8013BF9D1641E03D0EC
:1001F000641E01F8015BFBD19142E4D3704700001B
:100200000023002400250026103A28BF78C1FBD81F
:10021000520728BF30C148BF0B6070471FB506F0BA
:1002200073FC1FBD10B510BD00F0BAF91146FFF701
:10023000F5FF05F0A1FB00F0D8F903B4FFF7F2FFDA
:1002400003BC00F0DBF900002C4B19680868B0E82B
:10025000F04F80F30988BFF36F8F4FF0000080F3F9
:10026000118870470000000008480068006880F3AB
:1002700008884FF0000080F3148862B661B6BFF3BF
:100280004F8FBFF36F8F00DF00BF00BF08ED00E0AE
:10029000DFF80C00016841F470010160704700BF95
:1002A00088ED00E0EFF30980BFF36F8F134B1A68FE
:1002B0001EF0100F08BF20ED108A20E9F04F1060EB
:1002C00009B44FF0500080F31188BFF34F8FBFF394
:1002D0006F8F06F04BF84FF0000080F3118809BCD7
:1002E00019680868B0E8F04F1EF0100F08BFB0ECB6
:1002F000108A80F30988BFF36F8F70475001002088
:10030000EFF305807047000009488047094800471F
:10031000FEE7FEE7FEE7FEE7FEE7FEE7FEE7FEE7B5
:10032000FEE7FEE704480549054A064B7047000012
:10033000F543000889010008704D0020705D002021
:10034000705500207055002053EA020C00F06980BF
:100350002DE9F04B4FF00006002B1FBFB3FA83F5D9
:1003600003FA05F424FA05F65E4012BF1643B2FA0A
:1003700082F502FA05F4C5F120051EBF22FA05FC3C
:1003800044EA0C04203556EA044C4FEA144418BFE2
:10039000641C4FF000084FF00009904271EB030C11
:1003A00039D3002919BFB1FA81F701FA07F6B0FA7B
:1003B00080F700FA07F6C7F120071EBF20FA07FCF6
:1003C00046EA0C062037B6FBF4FCA7EB0507103F06
:1003D00007F01F0BCBF120060CFA0BFB2CFA06F6EC
:1003E00044BFB3460026202FA4BF5E464FF0000B4B
:1003F0005BEA060C08BF4FF0010B19EB0B09ABFBD6
:10040000027C48EB0608C01B06FB02CC0BFB03CCAE
:1004100071EB0C01C1E70B46024641464846BDE878
:10042000F08B13B54FF000004FF00001AFF30080E8
:10043000BDE81C407047032A40F2308010F0030CE6
:1004400000F0158011F8013BBCF1020F624498BF27
:1004500011F801CB00F8013B38BF11F8013BA2F1C4
:10046000040298BF00F801CB38BF00F8013B11F03F
:10047000030300F02580083AC0F0088051F8043BDF
:10048000083A51F804CBA0E80810F5E7121D5CBF4C
:1004900051F8043B40F8043BAFF30080D20724BF7F
:1004A00011F8013B11F801CB48BF11F8012B24BF13
:1004B00000F8013B00F801CB48BF00F8012B704762
:1004C00010B5203AC0F00B80B1E81850203AA0E8EF
:1004D0001850B1E81850A0E81850BFF4F5AF5FEA23
:1004E000027C24BFB1E81850A0E8185044BF18C9D6
:1004F00018C0BDE810405FEA827C24BF51F8043B7D
:1005000040F8043B08BF7047D20728BF31F8023BD0
:1005100048BF11F8012B28BF20F8023B48BF00F864
:10052000012B70474FF0000200B5134694469646E3
:10053000203922BFA0E80C50A0E80C50B1F12001F6
:10054000BFF4F7AF090728BFA0E80C5048BF0CC0A4
:100550005DF804EB890028BF40F8042B08BF704702
:1005600048BF20F8022B11F0804F18BF00F8012B74
:10057000704770477047704710B500F009F8006881
:1005800010BD10B5044600F003F8046010BD000073
:1005900000487047104D002000487047104D002063
:1005A0007546FFF7F9FFAE4605006946534620F051
:1005B0000700854618B020B5FFF7B4FEBDE820401F
:1005C0004FF000064FF000074FF000084FF0000B0F
:1005D00021F00701AC46ACE8C009ACE8C009ACE8C2
:1005E000C009ACE8C0098D46704710B50446AFF3AA
:1005F00000802046BDE81040FFF71FBE01491820CB
:10060000ABBEFEE7260002007047FEE700B58BB0E8
:100610000020012103900490CDE90601CDE90810E6
:1006200005900090019002906946064800F004FD94
:10063000044801F027F90221024800F0EBFC0BB05E
:1006400000BD0000240B0020014800F0F0BD0000B8
:10065000240B002000B58BB00E2005900020012156
:1006600003900490CDE90601CDE9081000900190B7
:1006700002906946054800F0DFFC044801F002F9E9
:100680000221024800F0C6FC0BB000BD4C0B00205C
:10069000014800F0CCBD00004C0B002010B5084C08
:1006A000002300BF03EBC30000EB031004EB80004A
:1006B00002F03DFE5B1C5BB2042BF3DB10BD0000BF
:1006C000C006002070B506463A480D463A4990EDFE
:1006D000000ADFED3A0A10EE100A394C884203DABC
:1006E0009FED381A30EE010A30EE600ADFED360A6F
:1006F00084ED090A20EE200ADFED340A84ED0A0AAF
:1007000020EE200A84ED080A04F072FB00EE906AE5
:10071000F8EEE00A20EE200A84ED040A94ED080ABF
:1007200004F0BEFA00EE906AF8EEE00A20EE200A2D
:1007300084ED050A94ED080A04F05AFB00EE905A85
:10074000F8EEE00A20EE200A84ED060A94ED080A8D
:1007500004F0A6FA00EE905A1E48F8EEE00A20EEE9
:10076000201A9FED1B0A84ED071AD4ED050AD4ED7B
:10077000061A70EEE10AD4ED041A31EE811A70EE19
:10078000811A70EE211AC0ED071A71EE601A70EE30
:10079000211AC0ED201A70EEC11AF1EE600A70EE57
:1007A000C10A70EE211A30EE200AC0ED391A80ED30
:1007B000520A70BDB408002000B0D54500B0D54540
:1007C000AC00002000F8FF45A005343DA7E78E3CB3
:1007D0000000FA43C00600203248DFED330A344AF5
:1007E00090ED000A314830EEC00ADFED320A10EE1B
:1007F000101A80ED0B0A914202DD30EE600A06E02D
:1008000010EE101A2C4A914203D930EE200A80EDE6
:100810000B0A0188294A2A4B012907D110EE101A28
:10082000914201DA994201D30021018010EE101AA1
:10083000914204DC994202D801210180704702886C
:10084000002AFBD11F4A914202DB9FED1F0A04E000
:100850001E4A914203D39FED1E0A80ED0B0ADFED85
:100860001D0AB0EE401A1C4881EE200A90ED071ACE
:10087000DFED1A0A00EE201A80ED071A90ED201A1B
:1008800000EE201A80ED201A90ED391A00EE201AA1
:1008900080ED391A90ED521A00EE201A80ED521AAE
:1008A00070470000B408002000B0D545AC0000201F
:1008B00000F07F450000004600F07FC50000484280
:1008C000000048C20000074400000744000007C4BD
:1008D000000007C40000FA43C006002000007A446C
:1008E000014801F05DB80000780F0020014801F0D8
:1008F00057B80000180F002001681823CAB2103A38
:10090000B2FBF3F2054B6FF30901032A9B5CC3654D
:1009100000D9091D8165084670470000D86E00089F
:1009200010B5014600208B698A6A4FF0C07453B13C
:10093000B3F5005F15D072B1012A0CD0022A0AD09B
:10094000032A09D104E01AB1012A06D0022A03D1F0
:10095000C96AC90100D5012010BDC96AA142FAD0F7
:1009600010BD002AF7D0012AF2D0022AF3D0032AC0
:10097000F3D010BD30B50468256825F480252560C6
:10098000046863608368402B036803D09960006843
:10099000C26030BD9A600068C16030BD7047000021
:1009A00000EBC00110B5114800EB810420686060C5
:1009B00005F05EFE2060E17C4A0603D521F040018F
:1009C000E174E060A06958B1804748B1E07C40F034
:1009D000A000E074206A002806D0BDE8104000475F
:1009E000E07C20F08000E07410BD0000D002002008
:1009F000F0B58DB0044630221B496846FFF760FD14
:100A000000221A4B10466D4602EB420602EBC20171
:100A100003EB810135F816C00F8A05EB46066CF32F
:100A20000B070F82B6F802C0B1F81170521C6CF3BC
:100A30000F17A1F811703779CE7C886167F34406EF
:100A4000C861086246F0E106CE7448610C604C60F3
:100A50008C60D2B2CC60082AD6D305499961054989
:100A6000D96118620DB0F0BD1C6B0008D0020020E7
:100A7000E53B0008456000082DE9F04105F0F8FD70
:100A8000374F384EB8600820387096F8330100258B
:100A900020F0600086F8330105EBC50006EB80040A
:100AA000E17CC80757D02268B868238A821AC3F34A
:100AB0000B039A4222D90DB905F0C7FAE07C8106F2
:100AC00004D440F06000E074B868A0603978E07C3D
:100AD00001EBC10106EB8101C0F34300C97CC1F306
:100AE0004301884200D93D7096F8330140F0600020
:100AF00086F83301E06970B380472CE0E268821A1F
:100B0000B4F81100B2EB101F21F0400003D240F006
:100B10002000E0741FE0E074010609D540F02000D9
:100B2000E074E06938B17968491C7960804702E077
:100B300020F02000E0742068616888420BD9401AD8
:100B400000EE100A9FED081AF8EE400A81EE200A26
:100B500010EE100A60616D1C082D9DDBBDE8F08170
:100B600074000020D002002000007A4404F0FEFA55
:100B7000FFF782FF392005F037FBF9E772B6FEE791
:100B80001A4800B501789FED1A0A1A48DFED1A0AD3
:100B9000012902D0022913D01CE018490978012943
:100BA00002D0032905D015E080ED070AC0ED200A28
:100BB00010E09FED130A80ED070A80ED200A09E09E
:100BC0001049CA891049012A01D14A685AB14968B5
:100BD0000129E9D0074804F079FE06485DF804EBE6
:100BE000643004F073BE01224A60DDE7000000209B
:100BF0000000FAC47C0900200000FA440100002033
:100C000000000000CC0100205800002070B5254CE9
:100C1000207801280DD124480078012814D002281A
:100C20003FD12248B0F900102148B0F90000FFF789
:100C300049FD2078022834D11E4A0021012354881E
:100C40001D48012C03D004E0FFF7C6FDF1E79588AD
:100C50001DB19588012D03D003E0C0E902310DE0FC
:100C60001CB18468012C03D004E0C0E902130FE03A
:100C7000C5681DB1C168012902D002E0416003E0EE
:100C800034B14068012804D0BDE87040FFF7A4BD2E
:100C90004360B2F91010B2F91200BDE87040FFF7DE
:100CA00011BD70BD000000200100002006000020E2
:100CB00008000020CC010020AC0000202DE9F0410C
:100CC0002F482DED028B04F09DFB2E4804F008FC0C
:100CD0002B4D2D4C2B4E95ED000A84ED010AB6F9F3
:100CE000020005F0FCFD9FED298B53EC182B05F05D
:100CF0000DFE05F093FD274F786095ED020A264D15
:100D000085ED010AB6F9040005F0E9FD53EC182B56
:100D100005F0FCFD05F082FD204EB3EE090A70607F
:100D2000184894ED001A1038D0ED000A30EE800A11
:100D3000B4EEC01AF1EE10FA08DABAEE0C0A30EE90
:100D4000800AB4EEC01AF1EE10FA01D884ED000A60
:100D5000114800F0BBF895ED090A104886ED000A2D
:100D600000F03EF8084800F0B1F894ED090A09488F
:100D700087ED000ABDEC028BBDE8F04100F030B811
:100D8000B002002068000020F80B00209A99999981
:100D90009999B93FA00B0020CC0B0020740B0020C8
:100DA00000B504F07BFC5DF804EB04F02DBC000002
:100DB00005F05EFC0949486003F0C8F8FFF77EFFC4
:100DC000FFF7DEFE03F0DAF904F0E8F902F014FDB3
:100DD00002480221001D05F02FFAEDE7DC0000209B
:100DE00090EC020A2D4A70EE600AC0ED060A90ED02
:100DF000020A30EE200A10EE101A80ED020A91422B
:100E000003DB9FED270A80ED020A10EE101A254A37
:100E1000914203D39FED240A80ED020A90ED030A6C
:100E200090ED041AD0ED021A20EE200A1F4A01EEBE
:100E3000210A90ED071AD0ED051A30EEC11A01EE25
:100E4000810A10EE101A80ED080AC0ED070A80ED45
:100E5000090A914203DB9FED160A80ED090A10EEA4
:100E6000101A144A914203D39FED130A80ED090A28
:100E7000816A032911D110EE101A104A914203DB46
:100E80009FED0F0A80ED090A10EE101A0D4A9142EB
:100E900003D39FED0D0A80ED090A70470050C34649
:100EA0000050C3460050C3C60050C3C60060EA46A7
:100EB0000060EA460060EAC60060EAC600401C46E0
:100EC00000401C4600401CC600401CC610B590ECFB
:100ED000020A70EE600AC0ED060A836A012B22D175
:100EE00010EE904A3C4A9FED3D1A3D4994420ADD7E
:100EF00010EE104A944206DC10EE104A8C4202D8E2
:100F000030EEC10A0DE010EE904A8C420BD910EE83
:100F1000104A944207DC10EE102A8A4203D830EEC1
:100F2000810A80ED060A90ED020AD0ED060A2D4AEC
:100F300030EE200A10EE101A80ED020A914203DB17
:100F40009FED290A80ED020A10EE101A274A9142FD
:100F500003D39FED270A80ED020A90ED030A90ED7E
:100F6000041AD0ED021A20EE200A224A01EE210ACC
:100F700090ED071AD0ED051A30EEC11A01EE810A84
:100F800010EE101A80ED080AC0ED070A80ED090A7C
:100F9000914203DB9FED180A80ED090A10EE101A4A
:100FA000164A914203D39FED160A80ED090A032BDE
:100FB00011D110EE101A134A914203DB9FED120A71
:100FC00080ED090A10EE101A104A914203D39FEDEA
:100FD000100A80ED090A10BD66E633430000B443F1
:100FE00066E633C30050C3460050C3460050C3C634
:100FF0000050C3C60060EA460060EA460060EAC6E8
:101000000060EAC60080BB450080BB450080BBC5D0
:101010000080BBC590F82020012A07D0022A05D005
:10102000416A41F4802141620120704700684269B1
:101030000A4342610020704710B590F82020012A31
:1010400007D0022A05D0416A41F480214162012083
:1010500010BD3B48D0F8002242F00102C0F8002247
:10106000D0F8002222F47C52C0F80022D0F80022EE
:101070004B6A42EA0322C0F800220A7D02F01F03F5
:1010800001229A40D0F81C329343C0F81C32CB693D
:10109000B3B9D0F80C329343C0F80C328C894B684A
:1010A00064F31F434C6900EBC404C4F840320C895C
:1010B0000B6864F31F434C6900EBC404C4F844326A
:1010C000CB69012B16D1D0F80C321343C0F80C3287
:1010D0000C884B6864F31F434C6900EBC404C4F8EC
:1010E00040320C89CB6864F31F434C6900EBC404A5
:1010F000C4F844328B69002BD0F804320ED013436D
:10110000C0F804320B69002BD0F8143208D0134316
:10111000C0F81432096A012904D008E09343EFE7CC
:101120009343F5E7D0F81C121143C0F81C12D0F815
:10113000001221F00101C0F80012002010BD0000D3
:1011400000640040704730B590F82040012C05D075
:10115000022C03D0416A41F480215DE0046800293B
:1011600055D02469A40754D04FF4D874056804EB13
:1011700001142D5915F00405956005682D594ED0C0
:10118000ED08556005682C5904F00204D4604FF452
:10119000DA74056804EB01142D5905F00F0515618B
:1011A00005682D59C5F30725956105682C59240C50
:1011B00054614FF4DC72046802EB0112A4581C70F5
:1011C0000468A458240A5C700468A458240C9C7019
:1011D0000468A258120EDA704FF4DE72046802EB53
:1011E0000112A4581C710468A458240A5C71046894
:1011F000A458240C9C710468A258120EDA7100687D
:1012000081B1016941F020010161002030BDE46835
:10121000A8E7416A41F400114162012030BD6D0D23
:101220001560AFE7C16841F02001C160EDE72DE92D
:10123000F05F0546006800244669D0F8049087688E
:10124000D0F80CB0D0F810A0D0F81880F10748D032
:10125000F90714D001218160B80703D5284600F0B2
:101260003EFB0CE0780702D54FF4006407E0380736
:1012700002D54FF4805402E0284600F02FFBF80519
:1012800016D529684FF480708860B80503D52846C4
:1012900000F027FB0CE0780502D544F4005407E089
:1012A000380502D544F4804402E0284600F018FBDB
:1012B000F80316D529684FF480308860B80303D549
:1012C000284600F010FB0CE0780302D544F40044FB
:1012D00007E0380302D544F4803402E0284600F0E9
:1012E00001FB300707D55FEACB6004D529681020E1
:1012F00044F40074C86070074FF0080707D55FEA30
:101300000B7004D52868C760284600F09BF9B00729
:1013100006D52868C068800702D0284600F094F9F6
:10132000700607D55FEACA6004D52968102044F426
:1013300080640861B00607D55FEA0A7004D52868A2
:101340000761284600F09AFAF00606D52868006979
:10135000800702D0284600F092FAB00308D55FEA71
:10136000C96005D5296810204860284600F088FA31
:10137000F00307D55FEA097004D52868476028465E
:1013800000F0B2FA300446D55FEA497040D5F00566
:1013900004D55FEAC87001D044F00104B00504D55B
:1013A0005FEA887001D544F00204700504D55FEA55
:1013B000487001D544F00404300529D518F0700FA9
:1013C00026D008F07000402815D006DC102809D07F
:1013D00020280AD0302816D10AE050280ED06028E4
:1013E00011D10EE044F008040DE044F010040AE0CE
:1013F00044F0200407E044F0400404E044F080049A
:1014000001E044F480742868816921F070018161F1
:10141000296804204860002C05D0686A204368626F
:101420002846FFF78FFEBDE8F09F70B5040003D09B
:1014300094F8200010B104E0012070BD204600F0B7
:1014400081F82068016841F00101016000F012FD9F
:101450000546052604E000F00DFD401B0A2811D8C2
:1014600020684068C007F6D02068016821F00201BA
:10147000016000F0FFFC05460BE000F0FBFC401BA8
:101480000A2806D9606A40F40030606284F820605F
:10149000D2E7206840688007EFD4207E01282068CA
:1014A00001683DD021F080010160607E0128206844
:1014B000016838D021F040010160A07E0128206839
:1014C000016833D021F020010160E07E012820680E
:1014D00001682ED041F010010160207F01282068B2
:1014E000016829D021F008010160607F012820688F
:1014F000016824D021F004010160D4E9020108430D
:10150000D4E90412114308436168491E0843216865
:10151000C86100206062012084F82000002070BDB6
:1015200041F08001C0E741F04001C5E741F02001F2
:10153000CAE721F01001CFE741F00801D4E741F0FC
:101540000401D9E7F0B587B0044614216846FEF7D8
:10155000E9FF374B3748DFF8D4E01968D4F800C00A
:10156000344A02250326092710300024491CF4457B
:1015700024D11960012907D1016841F0007101608F
:10158000006800F000700590106840F001001060E5
:10159000106802AB00F0010005904FF4C050CDE997
:1015A000000583E8D0006946234800F06BFB002269
:1015B0000821142000F0EAFC142033E0DFF87CE07E
:1015C000F44531D1D0F800C04CF0806CC0F800C0B8
:1015D000D0F800C001290CF0806CCDF814C019605F
:1015E00007D1016841F000710160006800F00070EF
:1015F0000590106840F002001060106802AB00F027
:10160000020005904FF44050CDE9000583E8D0007A
:1016100069460B4800F036FB00220721402000F00D
:10162000B5FC402000F0A4FC07B0F0BD0064004011
:1016300000010020303802400000024000680040F5
:10164000000402407047000030B505460068854937
:101650008FB0884236D1844B6A4600218348FFF719
:1016600072FD814B0098824C03F10801B0F5017FB7
:1016700045D008DCA0F5007001380DD0012822D03B
:1016800002287DD12DE0A0F50070053845D0A0F5E9
:101690008060613874D14FE07448783803F0FAFE06
:1016A000188840BA00B200EE100AB8EEC00A84ED05
:1016B000000A588840BA00B200EE100AB8EEC00A1C
:1016C00084ED0E0A5CE06948643803F0E3FE588854
:1016D00040BA00B200EE100AB8EEC00A84ED270A44
:1016E0004EE06248503803F0D5FE588840BA00B248
:1016F00000EE100AB8EEC00A84ED400A40E05B48F4
:101700003C3803F0C7FE588840BA00B200EE100A19
:10171000B8EEC00A84ED590A32E05448B43803F0F8
:1017200079FE188840BA00B200EE100A5148B8EEAF
:10173000C00A80ED000A23E0188840BA00B200EE2B
:10174000100A4A48B8EEC00AC43880ED000A598829
:1017500049BA09B200EE101AB8EEC00A80ED010ACB
:10176000998849BA09B200EE101AB8EEC00A80EDA5
:10177000020A997900EE101AB8EE400A80ED030AC9
:101780003D492868884231D1374B3848083307AA89
:1017900000212830FFF7D7FC334B364C079808332D
:1017A000C834A0F5007001383CD001284AD0052883
:1017B0001ED006281AD1194604F58E7003F06AFE71
:1017C000188840BA00B200EE100A04F1C800B8EE62
:1017D000C00A80ED000A588840BA00B200EE100A34
:1017E000A4F59670B8EEC00A80ED0E0A0FB030BDB9
:1017F0001D491E481031A03803F00CFE1D4864300E
:1018000090ED020A80ED030A90ED000A80ED020AD5
:10181000198849BA09B200EE101AB8EEC00A80ED74
:10182000000AE3E7104911480831283803F032FE76
:10183000588840BA00B200EE100AB8EEC00A84ED33
:101840000E0AD3E7084909480831143803F022FE8C
:10185000588840BA00B200EE100AB8EEC00A84ED13
:10186000270AC3E70064004024010020240B002065
:10187000C0060020B4080020006800407047704790
:101880007047000070B5044690F82000012804D08D
:10189000606A40F40020606218E0022084F82000B2
:1018A0002068016821F00101016000F0E3FA0546BB
:1018B0000EE000BF00F0DEFA401B0A2808D9606A7B
:1018C00040F400306062052084F82000012070BDE3
:1018D00020684068C007EDD1606270BD70477047F6
:1018E000704770477047704770472DE9F0410446D4
:1018F000876D00F0BFFA064694F8350000250228EF
:1019000006D08020606584F834500120BDE8F08165
:101910002068016821F0160101602068416921F00A
:1019200080014161206C08B9A06C20B12068016879
:1019300021F0080101602068016821F001010160C7
:101940000CE000F097FA801B052807D9202060657D
:10195000032084F8350084F83450D7E72068006805
:10196000C007EED194F85C103F208840B860012099
:1019700084F8350084F834500020C7E790F835101B
:10198000022903D08021416501207047052180F89C
:1019900035100068016821F00101016000207047E6
:1019A0002DE9F84304464FF00009CDF80090634854
:1019B0004FF41651A56D0068B0FBF1F72E6894F84E
:1019C0005C10082000FA01F131420FD021680A684A
:1019D00052070BD50A6822F004020A6094F85C10E2
:1019E0008840A860606D40F00100606594F85C106C
:1019F0004FF0010808FA01F0304208D02168496927
:101A0000090604D5A860606D40F00200606594F896
:101A10005C1004208840304208D02168096889079A
:101A200004D5A860606D40F00400606594F85C1017
:101A300010208840304218D021680968090714D561
:101A4000A86020680168490304D50068000308D530
:101A5000A16C07E00168C90503D4016821F0080101
:101A60000160216C09B12046884794F85C10202061
:101A70008840304231D021680968C9062DD5A86058
:101A800094F8350005282068016806D0490347D539
:101A9000006800031DD4616C1CE021F01601016098
:101AA0002068416921F080014161206C08B9A06C77
:101AB00020B12068016821F00801016094F85C10F1
:101AC0003F208840A86084F8358084F83490216DE8
:101AD0001FE0E16B09B120468847606D00282BD0DC
:101AE000606DC00714D0052084F8350020680168B7
:101AF00021F0010101600098401C0090B84203D819
:101B000020680068C007F6D184F8358084F83490E6
:101B1000E16C002910D001B02046BDE8F043084731
:101B20000168C905D5D4016821F01001016084F86D
:101B3000358084F83490CCE7BDE8F8834C01002070
:101B40002DE9F041044600F095F906465CB102200B
:101B500084F83500002584F834502068016821F0AD
:101B6000010101600DE00120BDE8F08100F082F983
:101B7000801B052805D920206065032084F83500E6
:101B8000F2E720680068C007F0D122681168204899
:101B90000140D4E901031843D4E903363343184321
:101BA00063691843A3691843E3691843236A184318
:101BB0000843616A042903D1D4E90B13194308438C
:101BC000106020684069666A20F0070130460E43C5
:101BD000012704280CD1A06A0643E06A40B12046E0
:101BE000FEF79EFE20B14020606584F83570BAE7AC
:101BF000206846612046FEF77FFE94F85C203F2176
:101C000091408160656584F835700020ACE7000084
:101C10003F8010F02DE9F0410446866D90F83400C5
:101C2000002501280DD0012084F8340094F8357087
:101C30000020012F07D084F8340002252846BDE893
:101C4000F0810220FBE7022784F8357060652046AA
:101C5000FEF790FE94F85C103F208840B06020684A
:101C6000016841F016010160206C20B12068016814
:101C700041F0080101602068016841F00101016044
:101C8000DCE700002DE9F84FDFF8BCA100220125B8
:101C900003264FF00F090AF1040BAAF1040E00BF4E
:101CA0000B6805FA02F42340A34270D10F7907F0C4
:101CB0000307012F01D0022F16D187684FEA42088F
:101CC00006FA08FC27EA0C07D1F80CC00CFA08FC4D
:101CD0004CEA070CC0F808C04768A7430C79C4F366
:101CE000001494403C4344600C79E443A4070AD0B8
:101CF000C4684FEA420C06FA0CF7BC438F6807FA37
:101D00000CF72743C7600C7904F00304022C12D1AE
:101D1000D40800EB840CDCF820405707FF0E09FACA
:101D200007F824EA0804D1F8108008FA07F848EA0E
:101D30000408CCF8208004684FEA420C06FA0CF73D
:101D4000BC430F7907F0030707FA0CF72743076036
:101D50004C6814F4403F70D03C4C276847F48047EF
:101D60002760246822F0030704F480440094384C70
:101D700007EB040CDCF8084897074FEA177809FAD4
:101D800008F7BC43334FB84202D1002724E054E0A7
:101D9000314FB84201D101271EE0304FB84201D186
:101DA000022719E02E4FB84201D1032714E02D4F2E
:101DB000B84201D104270FE02B4FB84201D10527CB
:101DC0000AE02A4FB84201D1062705E0284FB84261
:101DD00001D1072700E0082707FA08F72743CCF8C6
:101DE0000878DAF800405746D1F804C09C435FEA0F
:101DF000CC2C00D51C433C60DBF800405F46D1F89A
:101E000004C09C435FEA8C2C00D51C433C60DEF888
:101E100000407746D1F804C09C435FEA8C3C00D573
:101E20001C433C60084F083F3C68D1F804C09C4309
:101E30005FEACC3C00D51C433C60521C102AFFF4E6
:101E40002FAFBDE8F88F0000083C01404438024045
:101E5000003001400000024000040240000802403F
:101E6000000C024000100240001402400018024022
:101E7000001C0240014880687047000040010020BB
:101E80000248816802781144816070474001002057
:101E90000B4810B5016841F400710160016841F41C
:101EA00080610160016841F480710160032000F0ED
:101EB0008DF80F2000F006F800F03EF8002010BD6D
:101EC000003C024010B5014688B000222D2000F0F1
:101ED0005DF82D2000F04CF813480024016841F40F
:101EE00080710160006805A900F480700690684662
:101EF00000F018F900F036F90C494000B0FBF1F1A0
:101F00000C480B4A491E026040F2E732C0E9032444
:101F1000C0E9011400F0A2FB10B1012008B010BD0F
:101F2000044800F0E7FBF9E74038024040420F0068
:101F300000200040D80F00200C4882B0016841F416
:101F400080410160006800F4804000900748001F55
:101F5000016841F0805101600068002200F080506B
:101F600000900F21901E02B000F010B844380240DB
:101F7000002809DB00F01F02012191404009800088
:101F800000F1E020C0F8001170470000F0B40E4BE3
:101F90001B680C46C3F30223C3F10705042D00D9C7
:101FA0000425191D072901D2002300E0DB1E0126AC
:101FB00006FA05F1491E214099409E40761E1640C2
:101FC0003143F0BC02F05BBE0CED00E0064900F0CE
:101FD000070208684FF6FF03184040EA0220034A50
:101FE00010430860704700000CED00E00000FA05A7
:101FF0002DE9F0470E46050065D0DFF81481D8F8CA
:102000000000F7B200F00700B04207D288F8007075
:10201000D8F8000000F00700B04254D128683D4CC9
:10202000810712D5400703D5206840F4E0502060B6
:102030002878000703D5206840F4604020602068BD
:10204000A96820F0F000084320602878C0072DD050
:10205000304968680839012812D0022813D00328B3
:1020600011D00968890700292DDA216821F00301C0
:1020700001432160FFF7FEFE814641F2883A0EE0FF
:1020800009688903EFE709688901ECE7FFF7F2FEC9
:10209000A0EB0901514502D90320BDE8F087206873
:1020A000696800F00C00B0EB810FEFD1D8F8001098
:1020B000404601F00701B14207D90770006800F0FF
:1020C0000700B04201D00120E7E72878400705D596
:1020D0002068E96820F4E050084320602878000771
:1020E00006D52068296920F4604040EAC1002060DC
:1020F00000F058F82168084AC1F30311515CC84048
:102100000649086006480068FFF7DCFE0020C4E7C7
:10211000003C024008380240E06E00084C010020FC
:10212000440100200F2202600C4A136803F00303ED
:102130004360136803F0F0038360136803F4E05313
:10214000C36012684FF4E05303EAD202026104480C
:10215000006800F00700086070470000083802407F
:10216000003C02400448054900680968044AC1F37C
:102170008221515CC84070474C0100200838024061
:10218000F06E00080448054900680968044AC1F374
:102190004231515CC84070474C0100200838024071
:1021A000F06E0008154810B5006810F00C021448D5
:1021B00013D01449042A0FD0082A0ED10F4C241F23
:1021C0002268236802F03F025B0207D52068C0F353
:1021D0008810A0FB010106E0084610BD2168C1F38C
:1021E0008811A1FB00010023FEF7AEF82168C1F3BE
:1021F0000141491C4900B0FBF1F010BD0838024014
:102200000024F40040787D012DE9F84F04006ED0E1
:102210002078DFF84C93C007A9F104054AD009F1F2
:1022200004000168C1F38101012908D00068C0F3EE
:10223000810002280AD1D9F80000400206D528689A
:10224000800337D560680028E1D033E06068B0F5DE
:10225000803F10D0B0F5A02F286810D020F4803037
:102260002860286820F4802028606068A8B1FFF703
:1022700001FE06460DE0286840F48030F4E740F4A3
:1022800080202860F7E700BFFFF7F4FD801B64287B
:1022900073D828688003F7D50CE0FFF7EBFD0646FE
:1022A00005E000BFFFF7E6FD801B6428F0D8286832
:1022B0008003F7D42078DFF8AC8280074FF0000A63
:1022C0003ED5A748001D016811F00C0F08D000682A
:1022D000C0F3810002280BD1D9F80000400207D4D6
:1022E0002868800716D5E068012800D112E033E1A4
:1022F000E068B8B10120C8F80000FFF7BBFD064652
:1023000005E000BFFFF7B6FD801B0228C0D8286893
:102310008007F7D52868216920F0F80040EAC1005D
:1023200028600DE0C8F800A0FFF7A4FD064604E011
:10233000FFF7A0FD801B02281FD828688007F7D46C
:102340002078000722D5864F87486169703771B1C0
:1023500001210160FFF78EFD064604E0FFF78AFDCC
:10236000801B022809D838688007F7D50EE0C0F82E
:1023700000A0FFF77FFD064605E082E0FFF77AFD4B
:10238000801B02287DD838688007F7D42078400762
:1023900068D5DFF8CCB100270BF13C0BDBF800006F
:1023A000C0000BD4DBF8001041F08051CBF80010D6
:1023B000DBF80000012700F0805000906B4E306881
:1023C000C00510D4306840F480703060FFF752FDD3
:1023D000009005E0FFF74EFD0099401A022850D802
:1023E0003068C005F6D55E4EA0686C3601280FD067
:1023F0000528306810D020F001003060306820F0EF
:1024000004003060A068B8B1FFF734FD00900FE021
:10241000306840F00100F4E740F004003060F7E776
:10242000FFF728FD0099411A41F28830814266D8B1
:1024300030688007F4D50EE0FFF71CFD009007E040
:10244000FFF718FD0099411A41F28830814256D8B1
:1024500030688007F4D42FB1DBF8001021F08051F0
:10246000CBF80010A069C8B33D49091D0968C1F344
:10247000810102294AD00228504607D0C8F86000DE
:1024800000E03CE0FFF7F6FC04463BE04746C8F8B6
:102490006000FFF7EFFC064605E000BFFFF7EAFC2F
:1024A000801B02282BD828688001F7D4D4E90701C3
:1024B0000843A16A2E4A490802EB0141626A41EAD7
:1024C0008211084394F82C1040EA0161C9F8001009
:1024D00001203866FFF7CEFC044606E03EE000BF70
:1024E000FFF7C8FC001B022809D828688001F7D52F
:1024F00034E000BFFFF7BEFC001B022802D9032016
:10250000BDE8F88F28688001F4D427E00128F7D0CF
:10251000D9F80000E26900F4800191421CD1226ADE
:1025200000F03F01914217D147F6C071626A014045
:10253000B1EB821F10D1A26A4FF0FF3300F440319B
:1025400003EB5202B1EB024F06D194F82C1000F0CD
:102550007060B0EB016F01D00120D1E70020CFE720
:102560000438024000004742800E4742007000409D
:102570000000FFFF7047704710B590F83C20012A1B
:1025800022D0012280F83C20CA688C6822F4407274
:1025900022434C6822F4806222430C6822F40062D9
:1025A00022430C6922F4805222434C6922F40052E7
:1025B0002243C969002322F480420A4301684A6425
:1025C00080F83C30002010BD022010BD70B590F89E
:1025D0003C20012A32D0012480F83C40022280F8BD
:1025E0003D2003685A689D6822F070060A683243ED
:1025F0005A60134B02689A4214D0B2F1804F11D046
:10260000104B9A420ED0104B9A420BD00F4B9A426D
:1026100008D00F4B9A4205D00E4B9A4202D00E4B77
:102620009A4204D1496825F080031943916080F8EB
:102630003D40002180F83C10084670BD022070BD6E
:10264000000001400004004000080040000C004071
:1026500000040140004001400018004010B5040093
:1026600003D094F83D0010B107E0012010BD002018
:1026700084F83C00204600F01FF8022084F83D005A
:10268000211D206801F0CCFE012084F8460084F86A
:102690003E0084F83F0084F8400084F8410084F84C
:1026A000420084F8430084F8440084F8450084F82C
:1026B0003D00002010BD000008B500680B498842AD
:1026C00012D10B48016841F002010160006800224C
:1026D00000F0020000900F212D20FFF757FCBDE80D
:1026E00008402D20FFF744BC08BD00000004014055
:1026F0004438024090F83D10012901D00120704774
:10270000022180F83D100168CA6842F00102CA60E7
:1027100000681149884214D0B0F1804F11D00F49A0
:1027200088420ED00E4988420BD00E49884208D00C
:102730000D49884205D00D49884202D00C49884293
:1027400004D1816801F00701062903D0016841F036
:1027500001010160002070470000014000040040BA
:1027600000080040000C004000040140004001400F
:102770000018004070B5044690F83C000025012880
:1027800017D0012684F83C60022084F83D002068C0
:10279000826822F0770222F47F4282600868502823
:1027A00038D00DDC20284FD005DC90B3102811D193
:1027B0004AE0022070BD302846D040280AD13BE0D4
:1027C00060282FD070280DD0B0F5805F03D0B0F511
:1027D000005F12D0012584F83D60002084F83C00A1
:1027E000284670BDCB68D1E90121206801F089FE3F
:1027F0002068816841F0770109E0CB68D1E90121C7
:10280000206801F07EFE2068816841F4804181608B
:10281000E1E719E0CA684968206801F047FF5021E4
:10282000206806E0CA684968206801F050FF60210E
:10283000206801F070FECEE7CA684968206801F0A0
:1028400035FF40212068F4E7226801461046F0E792
:10285000704770B50446006801694FF00005C94330
:10286000890715D4C168C943890711D4E91E0161DC
:1028700001202077206880698007204602D0FFF77A
:10288000E7FF04E000F0C2F8204600F054F9257795
:1028900020680169C943490717D4C168C94349077A
:1028A00013D46FF004010161022020772068806951
:1028B00010F4407F204602D0FFF7CAFF04E000F08A
:1028C000A5F8204600F037F9257720680169C9434B
:1028D000090716D4C168C943090712D46FF008016B
:1028E0000161042020772068C0698007204602D05B
:1028F000FFF7AEFF04E000F089F8204600F01BF976
:10290000257720680169C943C90617D4C168C9433E
:10291000C90613D46FF010010161082020772068E8
:10292000C06910F4407F204602D0FFF791FF04E019
:1029300000F06CF8204600F0FEF825772068016969
:10294000C943C90708D1C168C943C90704D1891E51
:102950000161204600F054F920680169C943090665
:1029600009D4C168C943090605D46FF0800101612B
:102970002046FFF7FFFD20680169C943490609D4D5
:10298000C168C943490605D46FF040010161204682
:1029900000F040F920680169C94389060BD4C16879
:1029A000C943890607D46FF0200101612046BDE8C4
:1029B0007040FFF7E0BD70BD10B586B0044614212D
:1029C0006846FDF7AFFD0E492068884216D10D48D4
:1029D0000021026842F004020260006800F0040076
:1029E00005904FF4807000900220CDE90101032092
:1029F000CDE9031069460448FFF744F906B010BD5D
:102A0000000401403038024000080240704770B5B1
:102A1000044690F83C0000260D4601280FD0012006
:102A200084F83C006AB1042A1DD0082A2FD00C2A51
:102A30003FD00126002084F83C00304670BD0220C3
:102A400070BD206801F070FD2068816941F00801C7
:102A500081612068816921F00401816120688169B8
:102A60002A69114311E0206801F08EFD2068816918
:102A700041F4006181612068816921F48061816194
:102A8000206881692A6941EA02218161D2E72068D0
:102A900001F0B0FD2068C16941F00801C161206802
:102AA000C16921F00401C1612068C1692A6911432B
:102AB00011E0206801F0D2FD2068C16941F4006195
:102AC000C1612068C16921F48061C1612068C16968
:102AD0002A6941EA0221C161ACE710B5040003D0C4
:102AE00094F83D0010B107E0012010BD002084F8EB
:102AF0003C00204600F01EF8022084F83D00211D15
:102B0000206801F08DFC012084F8460084F83E0026
:102B100084F83F0084F8400084F8410084F84200C3
:102B200084F8430084F8440084F8450084F83D00AC
:102B3000002010BD7047704710B50446022249B10D
:102B400004290ED0082913D094F84100012816D08A
:102B5000012010BD94F83E000128F9D184F83E20F0
:102B60000FE094F83F000128F2D184F83F2008E0FC
:102B700094F840000128EBD184F8402001E084F86B
:102B800041200122206801F0AFFC16492068164A56
:102B9000884201D0904203D1436C43F40043436424
:102BA0002068884213D0B0F1804F10D00F4988427E
:102BB0000DD00F4988420AD00E49884207D0904272
:102BC00005D00D49884202D00C49884204D1816861
:102BD00001F00701062903D0016841F001010160FD
:102BE000002010BD0000014000040140000400402E
:102BF00000080040000C0040004001400018004068
:102C000000680349884201D1FFF73AB970470000D4
:102C1000002000407047704710B5044600684069C6
:102C200094F83D10C0F3C010212911D180B1206863
:102C3000143050E8001F21F0800140E80012002A03
:102C4000F5D1606B08B1FEF750FE204601F0FAFDA9
:102C50002068406994F83E10C0F38010222911D1F9
:102C600080B12068143050E8001F21F0400140E896
:102C70000012002AF5D1A06B08B1FEF736FE2046FF
:102C800001F0B9FD002010BD70470000F8B50168E3
:102C900004460868CA684B6910F00F0F4FF0000532
:102CA00059D003F0010602F49077374365D0C1078D
:102CB00005D0D10503D5216C41F001012164410704
:102CC00005D5D90703D0216C41F0020121648107A9
:102CD00005D5D90703D0216C41F004012164010717
:102CE00007D502F02001314303D0216C41F00801E7
:102CF0002164216C00293AD0800604D5900602D5C3
:102D0000204601F0E3FD20684069216CC0F380108B
:102D1000090700D460B3204601F06DFD20684069CA
:102D2000400621D52068143050E8001F21F04001F2
:102D300040E80012002AF5D1A06BA8B16C490165EA
:102D4000A06BFEF71BFE002811D0A06B016D01B037
:102D5000BDE8F040084783060FD593060DD5204601
:102D6000BDE8F84001F0B2BD2046FFF78DFFF8BD89
:102D70002046FFF789FF2564F8BD266B2023012E2E
:102D800079D1C60677D5D60675D50868486800900B
:102D90004869400640D5A16B086840680004000CF3
:102DA000EAD0A28D8242E7D9E085C869B0F5807F7C
:102DB0002DD020680C3050E8001F21F4807140E8CD
:102DC0000012002AF5D12068143050E8001F21F0CD
:102DD000010140E80012002AF5D12068143050E8C3
:102DE000001F21F0400140E80012002AF5D184F8CC
:102DF0003E30256320680C3050E8001F21F01001A0
:102E000040E80012002AF5D1A06BFEF76EFDA08D00
:102E1000E18D401A81B229E0A08DE18D401A81B286
:102E2000E08D0028A8D00029A6D020680C3050E8FA
:102E3000002F22F4907240E80026002EF5D1206881
:102E4000143050E8002F22F0010240E80026002E46
:102E5000F5D184F83E30256320680C3050E8002F0F
:102E600022F0100240E80023002BF5D12046FFF7A6
:102E7000D2FEF8BDFFE705062BD5150629D594F837
:102E80003D002128F5D1A068B0F5805F01D120690F
:102E9000B0B1206A411C2162216800784860E08C52
:102EA000401E0004000CE084E3D12068C16821F0DA
:102EB0008001C1602068C16841F04001C160D8E76D
:102EC000206A0088C0F308004860206A801C2062E5
:102ED000E5E74006CDD55006CBD5CA68204622F09E
:102EE0004002CA6084F83D3000F01FFAC1E70000DC
:102EF0000147000870B5040004D094F83D00002597
:102F000010B106E0012070BD84F83C50204600F06E
:102F100023F8242084F83D002068C16821F4005182
:102F2000C160204601F032FD2068016921F4904122
:102F300001612068416921F02A0141612068C1686E
:102F400041F40051C1602564202084F83D0084F8DC
:102F50003E00002070BD00002DE9F04F87B007460D
:102F600014216846FDF7DEFA8948884B3A68002448
:102F700087491038022503264FF008099A4233D1B9
:102F80000A6842F480120A60096801F48011059110
:102F9000016841F004010160016801F0040105913C
:102FA000016841F008010160006802AA00F0080011
:102FB00005909814CDE900054F4682E8D000694697
:102FC0007448FEF75FFE0420CDE9000502AA6946B9
:102FD00082E8D0007048FEF755FE0022052135201A
:102FE000FEF7D4FF352048E0DFF8B081DFF8A0C15C
:102FF0000723DFF8ACE10CF1040C4FF0006B424505
:1030000040D1DCF8001041F01001CCF80010DCF8E1
:10301000001001F010010591016841F0010101600B
:103020000068029400F0010005904FF4C060CDE903
:103030000005CDE9036369467046FEF723FE5A4D4D
:1030400058482860C5E901B40015C5E9034080105F
:103050006C61C5E906404FF44030C5E908042846D4
:10306000FEF76EFD08B1FDF789FDBD630022082162
:103070002520AF63FEF78AFF2520FEF779FF07B012
:10308000BDE8F08FDFF824814FF0010A424537D1C7
:103090000A6842F400320A60096801F400310591BF
:1030A000016841F0010101600068694600F001001B
:1030B00005900C208DE82104CDE903637046FEF7EE
:1030C000E1FD394D3A4860352860C5E901B4001585
:1030D000C5E903406C614FF44030AC61C5E907407D
:1030E00028466C62FEF72CFD08B1FDF747FDBD6375
:1030F000002207212620AF63FEF748FF2620BCE709
:103100002C4FBA421BD10A6842F480220A60096837
:1031100001F480210591016841F00201016000681D
:10312000029400F0020005904FF44060CDE90005E4
:10313000CDE9036369462048FEF7A4FD9FE71F49D8
:103140008A429CD1DCF8001041F02001CCF800103C
:10315000DCF8001001F020010591016841F0040144
:1031600001600068694600F004000590C0208DE809
:103170002104CDE903690748FEF784FD00220721F9
:103180004720FEF703FF472077E70000005000408C
:103190004038024000080240000C0240001001408C
:1031A0000000024040640240180F0020004400402C
:1031B00088600240004800400004024000140140C2
:1031C00090F83E30202B0ED159B152B190F83C30DE
:1031D000012B08D0012380F83C300023036301F069
:1031E0005BBC012070470220704790F83E30202BD6
:1031F0000ED159B152B190F83C30012B08D00123C7
:1032000080F83C300023036301F090BC012070473C
:103210000220704710B504460068114988420AD15F
:10322000104801F00BF80020FDF7BAFB12220D49FF
:103230000D48FFF7C5FF0D49206888420FD10C48A3
:103240004168491C4160407800F032FC084906485A
:103250000122491CBDE810408838FFF7C6BF10BDE9
:1032600000440040E40100204C0E002000500040CB
:1032700034010020704700002DE9F843044690F81F
:103280003D001F4616460D4620284CD1C5B1BEB1A3
:1032900094F83C00012846D0012084F83C004FF00F
:1032A0000008C4F84080212084F83D00FEF7E2FDCC
:1032B000A6848146E684A068B0F5805F03D004E070
:1032C0000120BDE8F883206928B12E465FF0000593
:1032D00084F83C800EE00026FAE78021204601F0C9
:1032E00042FCA0B9AEB116F8010B21684860E08C31
:1032F000401EE084E08C4B464FF00002009700280F
:10330000EBD14FF04001204601F02DFC30B10320FD
:10331000D7E735F8020BC0F30800E6E7202084F871
:103320003D000020CDE70220CBE77047FEE790ED9F
:10333000070AD0ED0E0AB0EE002A43F6982230EECE
:10334000600A80ED140A90ED131AD0ED0F1A70EE9A
:10335000410A60EEA10AD0ED101A41EE800AF0EEAB
:10336000401A41EE421A90ED122A71EE821A90ED47
:10337000112A42EE210AC0ED180A80ED121A80EDE2
:10338000130AB0F95C1000EE101AB8EEC00A30EE65
:10339000200ABDEEC00A10EE101A09B2A0F85C10A7
:1033A000914202DA5242914201DCA0F85C2070475F
:1033B00030B50C4D0C4A00204FF07E54B7EE000A99
:1033C000FFEE000A02EB80010B68A34201DB81EDF6
:1033D000000A0B68AB4201D3C1ED000A401C022871
:1033E000F0DB30BD000080BF20000020D0ED071AC8
:1033F000D0ED000A21EEA01A80ED011AD0ED080AE6
:1034000090ED052A41EE820AC0ED030AD0ED091ABB
:1034100030EEA12AC0EE821A30EE412AB0EE410A07
:10342000B7EE001AC0ED061A31EE611A01EE820AFB
:1034300061EE200A80ED020AC0ED040AC0ED050A23
:1034400080ED000A70470000104810B50E49016079
:103450000321416000214FF400228160C0E9031282
:103460004FF4401242610176012242768176C176A4
:1034700001774277FDF7D9FF002803D0BDE810405F
:10348000FDF77CBB10BD000000640040240B002051
:10349000104810B50E4901600321416000214FF42E
:1034A00000228160C0E903124FF4401242610176AC
:1034B000012242768176C17601774277FDF7B5FF2A
:1034C000002803D0BDE81040FDF758BB10BD000038
:1034D000006800404C0B0020114808B5016841F419
:1034E00000110160016801F400110091016841F4CC
:1034F000800101600068002200F480000090052136
:103500001020FEF743FD1020FEF732FD00220521BA
:103510003A20FEF73BFDBDE808403A20FEF728BD03
:103520003038024010B5A4B01C221C496846FCF794
:10353000C7FF0021684602F078FA194C17491C228F
:1035400020611C3107A8FCF7BBFF002107A802F08F
:103550006CFA124960611C2238310EA8FCF7B0FFEA
:1035600000210EA802F061FA0C49A0611C2254311E
:1035700015A8FCF7A5FF002115A802F056FA074987
:10358000E0611C2270311CA8FCF79AFF00211CA8E6
:1035900002F04BFA206224B010BD00004C6E00080F
:1035A000DC000020154808B5016841F08001016089
:1035B000016801F080010091016841F001010160A2
:1035C000016801F001010091016841F00201016010
:1035D000016801F002010091016841F004010160FD
:1035E000016801F004010091016841F008010160E7
:1035F000006800F00800009008BD0000303802406C
:1036000010B596B000240F94109411941294139452
:103610001C2108A81494FCF785FF20216846FCF7BC
:1036200081FF2A4828490160A721C0E9011444F616
:103630001F61C0E903148021C0E90541FFF70EF8BE
:1036400008B1FDF79BFA4FF480500F900FA91F4867
:10365000FFF790F808B1FDF791FA1C48FFF73DFA23
:1036600008B1FDF78BFA139413A918481494FEF7C8
:10367000ADFF08B1FDF782FA6020089040F62410F3
:10368000CDE909040B940C940D94082208A90F4865
:103690000E94FFF7BCF908B1FDF770FA00944FF4EF
:1036A0000050CDE904400294019403946946074810
:1036B0000794FEF761FF08B1FDF760FA0348FFF7D2
:1036C0007BF916B010BD0000000401407C0C002006
:1036D0000C4810B50A4901604FF461214160002196
:1036E00081600C22C160C0E904128161C161FFF7F1
:1036F00001FC002803D0BDE81040FDF73FBA10BD23
:1037000000500040C40D00200C4810B50A4901606B
:103710004FF4E1314160002181600C22C160C0E9B9
:1037200004128161C161FFF7E5FB002803D0BDE809
:103730001040FDF723BA10BD00100140080E002014
:103740000E4810B50C4901600D4941604FF480519D
:10375000816000214FF48062C0E903120C22C0E9AD
:103760000521C161FFF7C6FB002803D0BDE810406A
:10377000FDF704BA10BD0000004400404C0E0020CC
:10378000A08601000C4810B50A4901604FF4E131F0
:103790004160002181600C22C160C0E90412816196
:1037A000C161FFF7A7FB002803D0BDE81040FDF77B
:1037B000E5B910BD00480040900E00200C4810B53F
:1037C0000A4901604FF4E1314160002181600C221F
:1037D000C160C0E904128161C161FFF78BFB002861
:1037E00003D0BDE81040FDF7C9B910BD0014014079
:1037F000D40E0020FEE7FEE74C480168491C01603A
:103800004B48007803287CD100204A4B02469FEDAC
:103810004A0A00BF00EBC00101EB001103EB81017C
:10382000401C81ED070AA1F85C2081ED180A81EDAA
:10383000140A81ED130A40B281ED120A0428E9DB73
:103840003E48454B002180ED090A80ED020A80EDDB
:10385000080A80ED060A80ED070A394880ED090A5A
:1038600080ED000A80ED020A80ED080A80ED060A6C
:1038700080ED070A3348A0F85C2080ED0E0A80ED49
:10388000070A80ED180A80ED130A80ED120A2E480F
:1038900080ED090A80ED000A80ED020A80ED080A39
:1038A00080ED060A80ED070A284880ED090A80EDC0
:1038B000000A80ED020A80ED080A80ED060A80ED1C
:1038C000070A234880ED090A80ED000A80ED020A0C
:1038D00080ED080A80ED060A80ED070A1D4880ED9C
:1038E000090A80ED020A80ED070A80ED080A80EDE2
:1038F000000A80ED060A00BF01EBC10000EB0110D9
:1039000000E011E003EB8000491C80ED150AA0F8EF
:103910005C2080ED080A80ED160A80ED140A49B299
:1039200080ED130A0229E7DB7047000070000020D9
:1039300000000020C006002000000000500C002005
:10394000240C002050080020F80B0020CC0B002095
:10395000A00B0020740B00207C0900202DE9F04111
:103960000024051D494EB0F8847027E0285DC0286A
:103970003BD012DCA52829D008DC902822D0A02832
:1039800024D0A12822D0A22817D11FE0B02824D00B
:10399000B12822D0B22810D11FE0D1286BD006DC8C
:1039A000C12822D0C22820D0D02806D124E0D9288E
:1039B00055D0E02868D0F02866D0641CA742D5DC3A
:1039C000BDE8F08168783070A41CF7E7281950F83A
:1039D000011FB1608088B0813FE0281950F8011FB5
:1039E000C6F80E108088708237E0281950F8011F41
:1039F00071618088308330E02819DFED250A417835
:103A0000827801EB022109B200EE101A2149B8EECA
:103A1000C01A81EE200A81ED000AC2780379BDEE5A
:103A2000C00A02EB032212B201EE102AB8EEC11A4C
:103A3000C1EE201AF2EE040AC1ED011A86ED010A68
:103A40004279807902EB002000B200EE100AB8EE55
:103A5000C00A80EE201A81ED021AE41DAEE70D487F
:103A600029190C3851F8012FC2604A68026189682F
:103A70000D344161A2E70748291910220C30491C76
:103A8000FCF7D9FC113499E7641D97E72800002062
:103A90000000C8429402002000B502F0B9FC01F019
:103AA00045FCFDF77DF95DF804EB01F06FBC00000B
:103AB0002DE9F041384C014620462778D0E9032013
:103AC0000623A61D0025072F62D2DFE807F00408B1
:103AD0001A1F272A31005A295BD1012009E080F8FA
:103AE0008810A52904D0A62905D0A72951D105E021
:103AF000022020704DE0EAB3904749E00560237052
:103B000047E0A0F88410B1700320F2E730F8842F6A
:103B100042EA01220280F1700420EAE76180052078
:103B2000E7E7628842EA012161800560A580E6E757
:103B30000368061D5F1C0760995590F88810A72937
:103B400007D10168082904D30821A0F88410904700
:103B500025702069B0F884200168914219D390F84B
:103B60008800A52815D10C490422891D881E01F062
:103B7000E5FA00E00CE02169074804C9001D01F0E6
:103B8000DDFAA0886188884202D1D4E90310884711
:103B900025700020BDE8F0814400002070B5044D80
:103BA0000446E9608C21FCF7BDFC2C6170BD00006F
:103BB00044000020002801DC404200B270470000B1
:103BC000074800210322018041808180C180027268
:103BD000427241818181C181017441744182704787
:103BE000B801002070B5184CB4F90000FFF7E2FFEF
:103BF0004FF4FA55A84217DCB4F90200FFF7DAFFD8
:103C0000A84211DCB4F90400FFF7D4FFA8420BDC92
:103C1000B4F90600FFF7CEFFA84205DC207A18B100
:103C2000607A08B1002070BD002020806080A080F4
:103C3000E0800321217261726081A081E0812074A3
:103C400060746082012070BDB8010020012080F303
:103C50001388BFF34F8F05480168054A01F4E061FE
:103C600011430160BFF34F8F00BFFDE70CED00E093
:103C70000400FA052DE9F043AA4E0020DFF8A892CF
:103C80003178DFEDAA1AAA4D012913D002297DD17E
:103C90003081F0809FEDA72A284629880089A64F09
:103CA000DFF898829FEDA61A06F12004012928D09A
:103CB000E1B341E028829E496882E8821439A882F3
:103CC000B1F9020000EE100AB8EEC01ADFED9D0A4D
:103CD00081EE200A20EE210ABDEEC00A10EE100A85
:103CE000F080B1F9000000EE100AB8EEC00A80EED4
:103CF000201A21EE210ABDEEC00A10EE100A308112
:103D0000F2E094ED000A012830EE010A84ED000A89
:103D100012D130EE410A10EE100A84ED000AB842CA
:103D20000ADA10EE100A404506D200E002E084ED07
:103D3000002A01E00028F8D0FFF73AFB94ED000AD2
:103D400060EE210AFDEEE00A10EE900A2882288932
:103D5000DFED7D2A012806D130EE410A84ED000A0C
:103D60002988012902D02988F9B121E0B5EEC00ADD
:103D7000F1EE10FA03DD30EE410A84ED000A10EE98
:103D8000100AB84205DA404503D200E0AAE084ED0B
:103D9000002A94ED000AB5EEC00AF1EE10FA07D23F
:103DA00030EE220A84ED000A02E008B984ED002A10
:103DB000FFF7FEFA94ED000AB5F9101020EE210A83
:103DC000BDEEC00A10EE100A01FA80F02882688960
:103DD000012808D194ED010A30EE010A84ED010AB0
:103DE000E988012902D0E98879B110E030EE410A72
:103DF00010EE100A84ED010AB84208DA10EE100A3B
:103E0000404504D284ED012A01E00028FAD0FFF7F2
:103E1000CFFA94ED010AB5F9121060EE210AFDEE19
:103E2000E00A10EE900A01FA80F06882E888012822
:103E300006D130EE410A84ED010A6989012902D0D8
:103E40006989E9B11FE0B5EEC00AF1EE10FA03DDB1
:103E500030EE410A84ED010A10EE100AB84203DA8E
:103E6000404501D284ED012A94ED010AB5EEC00A65
:103E7000F1EE10FA07D230EE220A84ED010A02E0D8
:103E800008B984ED012AFFF793FA94ED010A20EEB8
:103E9000210ABDEEC00A10EE100A00B26882317825
:103EA000012921D002291DD1B5F91030C11800EE29
:103EB000101A1C1AC01AB8EEC00A89ED070A00EEE3
:103EC000104AB8EEC00A89ED200A00EE100A4842F6
:103ED000B8EEC00A89ED390A00EE100AB8EEC00A41
:103EE00089ED520ABDE8F0837278B6F90810B6F988
:103EF0000600022AF6D00B1800EE103A441A081AEF
:103F0000B8EEC00A89ED070A00EE104AB8EEC00A02
:103F100089ED200A00EE100A5842B8EEC00A89ED79
:103F2000390AD9E700000020C006002000007A44CA
:103F3000CC01002000000000CDCCCC3DCDCCCCBDD0
:103F40006F12833A000025446F12033B2DE9F04FB6
:103F5000774DDFF8E091DFF8E0A12DED028B97B00F
:103F600028789FED768ADFF8D8B1764E764C012816
:103F700064D002287ED1DFED758AF0EE680A9FEDED
:103F8000740A684601F08CFCF0EE680A9FED710A35
:103F90000BA801F085FCB6F90A0000EE100A68468D
:103FA000B8EEC00AFFF722FABDEEC00A10EE100A02
:103FB00007B2B6F90C0000EE100A0BA8B8EEC00A62
:103FC000FFF714FABDEEC00A10EE100A06B238462A
:103FD00002F085FC9FED601B53EC112B02F096FC68
:103FE00002F04EFC07B2304602F079FC9FED5C1BFC
:103FF00053EC112B02F08AFC02F042FC01B2784231
:1040000001EE100A94ED000AD5ED030AB8EEC11ACC
:10401000494201EE901A00EE810AF8EEE11A84EDB1
:10402000000A99ED001A10EE100A00EEA11A504590
:1040300089ED001A75DD30EE480A64E0B6F90670C5
:10404000AF80B6F904004FF42F7200F164015342BF
:10405000B0466880C82903D9904201DC984200DA52
:10406000002007F16401C82903D9974201DC9F426F
:1040700002DA00E049E0002702F031FC9FED3A1B34
:1040800053EC112B02F042FC02F0FAFB06B2384668
:1040900002F025FC9FED361B53EC112B02F036FC91
:1040A00002F0EEFB714200EE901A94ED000A95EDDD
:1040B000031AF8EEE00A00B201EE200A00EE900AC0
:1040C000F8EEE00A84ED000AD9ED001A10EE100AAD
:1040D00041EE201A5045C9ED001A02DD30EE480AC3
:1040E00005E010EE100A584503D930EE080A84EDB9
:1040F000000A98F8090001280CD003280ED00228E5
:1041000003D1BBEE0E0A84ED000A17B0BDEC028BA2
:10411000BDE8F08FB3EE0E0AF5E702E09FED160A58
:10412000F1E710EE100A5845EFD930EE080AEAE739
:1041300000000020F80B002066E633430000B44383
:1041400066E633C3B8010020CC0B00200000964384
:104150000000C84200004843333333333333D33F86
:104160009A9999999999B93F7B14AE47E17A943F0E
:10417000FA7E6ABC7493783F000000002DE9F0419C
:10418000274E284C0125356020780327012816D1B9
:10419000607801280BD12069401C2061012802D1E0
:1041A000214801F05DF92069032800DD27611E48E0
:1041B00001F0A0F96078032801D101F04DF82078D2
:1041C00002281AD100F0DEFFE0611848007C0128C7
:1041D00003D0A069012801D00FE0A5616069401CEF
:1041E0006061012802D1104801F03AF960690328A2
:1041F00000DD67610C4801F07DF93068022809D1C3
:1042000020780B49022807D0032803D19FED090A23
:1042100081ED070ABDE8F0819FED070AF8E700008D
:104220006400002000000020440A0020B8010020A3
:1042300050080020000000000000164410B50028BF
:1042400070D001880023C1F30A023749A2F58062C9
:104250000A800B32172A00D20B8042788478D20869
:1042600042EA4412C2F30A02A2F580624A800B328B
:10427000172A00D24B808278C478920942EA8402DD
:10428000047942EA8422C2F30A02A2F580628A809B
:104290000B32172A00D28B8002794479520842EA05
:1042A000C412C2F30A02A2F58062CA800B32172A36
:1042B00000D2CB80427992090A724379C3F3011389
:1042C0004B72C4884C8104898C814489CC81047BE5
:1042D0000C74447B4C74807B488214490A704B7088
:1042E00011494FF6FF7202EAC0331431DB0B0B8029
:1042F00002EA8033DB0B0B8102EA0033DB0B4B81DC
:1043000002EA4033DB0BCB8002EA4023DB0B4B801D
:10431000C3098B8002EAC023DB0B02EA80208B8179
:10432000C00BC88110BD0000B801002000000020B3
:1043300010B5502080F31188BFF34F8FBFF36F8FFC
:1043400002F09CF918B104494FF080500860002039
:1043500080F3118810BD000004ED00E030B593B08B
:1043600030216846FCF7DEF814210CA8FCF7DAF8D7
:104370001E480025016841F080510160006800F08E
:10438000805011901A48016841F480410160006832
:10439000022400F48040119001200090000401905C
:1043A0008001CDE90640192008904FF4A870CDE9AE
:1043B000090404200B906846FDF726FF08B172B689
:1043C000FEE70CA90F2081E831004FF4A0500F90B8
:1043D0004FF48050109005210CA8FDF709FE00282D
:1043E00001D072B6FEE713B030BD00004038024085
:1043F000007000400248016841F47001016070479C
:1044000088ED00E010B50448FEF723FABDE810403F
:104410000248FEF71EBA00007C0C0020D80F0020D6
:10442000F0B50268254C264D264E274F274B4FF0FE
:10443000804CA04209D0604507D0A84205D0B042C8
:1044400003D0B84201D0984204D122F0700E4A68DD
:1044500042EA0E02A0421BD0604519D0A84217D0F4
:10446000B04215D0B84213D0984211D0184DA8428E
:104470000ED0184DA8420BD0174DA84208D0174DAA
:10448000A84205D0164DA84202D0164DA84203D12D
:1044900022F44075CA682A434D6922F080022A43FB
:1044A00002608A68C2620A688262A04201D09842B1
:1044B00001D10969016301214161F0BD00000140A2
:1044C0000004004000080040000C004000040140CF
:1044D00000400140004401400048014000180040F5
:1044E000001C00400020004010B501F01F03012116
:1044F000046A99408C430462016A9A401143016244
:1045000010BD10B5846842EA032224F47F440A43B4
:104510002243826010BD826822F070020A4342F09A
:104520000701816070470000F0B5026A22F00102C5
:104530000262036A42688469124E24F073050C68B3
:104540002C4323F002058B682B430D4DA84201D06C
:10455000B04205D123F00807CB683B4323F00403A6
:10456000A84201D0B04205D14D6922F440721543F2
:104570008A692A4342608461496841630362F0BDED
:104580000000014000040140F0B5026A22F0100270
:104590000262026A436884690D6824F4E64444EACE
:1045A00005248D6822F0200242EA05120F4D104EBC
:1045B000A84201D0B04206D1CF6822F0800242EA80
:1045C000071222F04002A84201D0B04207D14D6943
:1045D00023F4406343EA85038D6943EA850343601E
:1045E0008461496881630262F0BD000000000140FF
:1045F00000040140F0B5026A22F480720262026A8D
:104600004368C46922F4007224F073050C68124EEA
:104610002C438D6842EA05220E4DA84201D0B042DB
:1046200006D1CF6822F4006242EA072222F48062B7
:10463000A84201D0B04207D14D6923F4405343EA68
:1046400005138D6943EA05134360C4614968C1637A
:104650000262F0BD000001400004014030B5026A72
:1046600022F480520262046A4268C3690D6823F42E
:10467000E64343EA05238D6824F4005444EA0534F4
:10468000084DA84202D0084DA84204D14D6922F439
:10469000804242EA85124260C36149680164046253
:1046A00030BD0000000001400004014010B5036A65
:1046B000046A24F001040462846924F0F00444EAEA
:1046C000021423F00A020A438461026210BD10B58D
:1046D000036A23F0100303628369046A23F47043BE
:1046E00043EA023224F0A00343EA0111826101622D
:1046F00010BD00000148FEF7C9BA0000C40D00203B
:1047000010B5806B0021C185C184FEF7BDFA10BDD4
:1047100070B5846B2068406994F83D10C0F3C010F8
:104720000025212904D118B1E584204600F08AF83B
:104730002068406994F83E10C0F38010222904D10B
:1047400018B1E585204600F056F8206C40F01000C6
:1047500020642046FEF798FA70BD10B50146806BC4
:1047600009680968C9052FD40021C18501680C3189
:1047700051E8002F22F4807241E80023002BF5D18C
:104780000168143151E8002F22F0010241E80023B2
:10479000002BF5D10168143151E8002F22F04002BE
:1047A00041E80023002BF5D1202180F83E10016B59
:1047B000012909D101680C3151E8002F22F01002C3
:1047C00041E80023002BF5D1016B012902D0FEF74F
:1047D00021FD10BD818DFEF71EFA10BD10B5806B56
:1047E000016B012902D0FEF745FD10BD818D4908FE
:1047F000FEF711FA10BD01680C3151E8002F22F4C8
:10480000907241E80023002BF5D10168143151E882
:10481000002F22F0010241E80023002BF5D1016BAB
:10482000012909D101680C3151E8002F22F0100252
:1048300041E80023002BF5D1202180F83E10002113
:104840000163704701680C3151E8002F22F0C0026B
:1048500041E80023002BF5D1202180F83D1070475E
:10486000F8B51649884227D1154CA068401CA060B5
:10487000086800250168406800901048FEF7CCF9F0
:10488000104800684068104EC0F1800081B261801D
:10489000207806EBC01000F015FF207808B12570D5
:1048A00001E0012020702078802206EBC011BDE8D5
:1048B000F8400248FEF784BCF8BD0000080E002056
:1048C00034010020180F0020C40C002008B590F817
:1048D0003E10222901D0022008BD82684FF4805387
:1048E0009A4201D1016921B1816A9A421BD04AB131
:1048F0000AE00268816A5268C2F308020A80816A8B
:10490000891C08E0026972B10268526802F07F02F5
:104910000A70816A491C8162C18D491E0904090C13
:10492000C18503D019E002685268F1E70168CA68DE
:1049300022F02002CA600168CA6822F48072CA604C
:1049400001684A6922F001024A61202180F83E1084
:10495000016B012903D0FEF75DFC002008BD00219A
:10496000016301680C3151E8002F22F0100241E888
:104970000023002BF5D101680A68D20602D50A6827
:1049800049680091818DFEF746F9E6E770B5044667
:1049900000680169E26821F4405111430161216915
:1049A000A068E26908436169114308432168CA6845
:1049B00049F20C639A430243CA6020684169A269C4
:1049C00021F440711143416131492068884202D08D
:1049D0003049884202D1FDF7D5FB01E0FDF7C2FB6B
:1049E000E2690023192164253226B2F5004F62687E
:1049F00028D0A0FB0101930F9200FBF7A5FC014614
:104A0000B0FBF5F06FF01802504301EB800006EBAD
:104A10000010B0FBF5F000F0F002B1FBF5F002EB96
:104A20000012B1FBF5F06FF01803584301EB800062
:104A300006EB0010B0FBF5F000F00F002168104409
:104A4000886070BDA0FB010192185B41FBF77CFC04
:104A50000146B0FBF5F00201B1FBF5F06FF0180371
:104A6000584301EB800006EBC000B0FBF5F000F00E
:104A7000F80002EB4002B1FBF5F0584301EB800077
:104A800006EBC000B0FBF5F000F00700D6E7000031
:104A9000001001400014014038B581628285002574
:104AA000134604460564222084F83E00A26B1C488D
:104AB000D063A26B1B481064A26B1B48D064A06B30
:104AC0000A4605652168A06B091DFDF7A3F820685B
:104AD00001684068009084F83C50206948B1206823
:104AE0000C3050E8001F41F4807140E80012002AA9
:104AF000F5D12068143050E8001F41F0010140E872
:104B00000012002AF5D12068143050E8001F41F04F
:104B1000400140E80012002AF5D1002038BD000015
:104B20005B470008DD470008114700088162828565
:104B3000C28500210164222280F83E2080F83C10CA
:104B4000016921B10168CA6842F48072CA600168D3
:104B50004A6942F001024A610068C16841F02001DF
:104B6000C160002070472DE9F041984617460E4677
:104B70000446069D27E0681C25D02DB1FDF77AF983
:104B8000A0EB0800A8421ED920680C3050E8001F96
:104B900021F4D07140E80012002AF5D120681430C9
:104BA00050E8001F21F0010140E80012002AF5D171
:104BB000202084F83D0084F83E00002084F83C006A
:104BC0000320BDE8F0812068006836EA000004D0C8
:104BD0000020B842CFD00020F3E70120F9E7000021
:104BE000074810B500680068C043C00602D40448F6
:104BF000FFF736FEBDE810400148FEF747B8000059
:104C0000080E0020044882B00068016840680090E7
:104C1000014802B0FEF73AB84C0E00200148FEF7FA
:104C200035B80000D40E0020FEE7000007480068F9
:104C3000C16841F01001C160064905488022097829
:104C400000EBC1110148FEF7BBBA0000080E0020BE
:104C5000C40C0020340100204100080218BF0420C9
:104C60000A0E18BF40F001004FF07F4232EA010106
:104C700008BF40F00200012808BF0520704709075F
:104C8000090E002804DB00F1E02080F800147047D2
:104C900000F00F0000F1E02080F8141D70470000C4
:104CA00010EE101A08B5444A6846B2EB410F28D9F5
:104CB0004FF0E640B0EB410F94BF00204FF0FF30C3
:104CC00000900098002861DB60EE000A10F0010FF0
:104CD00045D010F0020FDFED391A9FED391A00EEC2
:104CE000E11ADFED381A40EE811A21EEA01AF0EE3B
:104CF000400A40EE010A08BFF1EE600AB0EE600A19
:104D000008BD314B21F0004293423CD911F0004FD5
:104D1000DFED2E0A20EE201ADFED2D0A19BF31EE4D
:104D2000601A71EE200A31EE201A71EE600ABDEEB3
:104D3000E01A11EE100A9FED271A00F0030000EEB2
:104D4000C10A9FED251A009000EEC10A9FED231ABB
:104D500000EEC10A9FED221A00EEC10AB1E79FEDF5
:104D6000211A9FED210A10F0020F00EE810A9FED3B
:104D70001F1A00EE801AB7EE000A00EE810A18BF73
:104D8000B1EE400A08BD00F00FF99AE710EE100AE4
:104D90004000B0F17F4F3CBFB7EE000A08BD07D11D
:104DA0004FF00100FBF7EDFBBDE8084000F0ECB868
:104DB000BDE8084000F0E4B8B61F927E336D4C3970
:104DC000DA82083CA0AA2ABE490E494683F9223F4E
:104DD0000000004B0000C93F00A0FD390020A233B5
:104DE0001A61342CB93AB2BACA9F2A3DDDFFFFBE20
:104DF00000B510EE101A2DED028B81B0524A6846B4
:104E0000B2EB410F2ED94FF0E640B0EB410F94BF0B
:104E100000204FF0FF3000900098B0EE408A00284C
:104E20006ADB10F0010F4BD068EE080A9FED471ABD
:104E30009FED470A00EE810A9FED461A10F0020F1F
:104E400000EE801AB7EE000A00EE810A02BF01B040
:104E5000BDEC028B00BD00BF01B0B1EE400ABDEC5D
:104E6000028B00BD3C4B21F00042934241D911F02E
:104E7000004FDFED3A0A20EE201ADFED390A19BFA4
:104E800031EE601A71EE200A31EE201A71EE600ADE
:104E9000BDEEE01A11EE100A9FED321A00F0030089
:104EA00000EEC10A9FED301A009000EEC10A9FED9E
:104EB0002F1A00EEC10A9FED2E1A00EEC10AABE7D1
:104EC00028EE080A9FED2B1ADFED2B0A10F0020FD7
:104ED00040EE410A9FED291A00EE201A61EE000A09
:104EE000B0EE480A08EE200AB6D101B0BDEC028B44
:104EF00000BD00F059F88FE718EE100A4000B0F13D
:104F00007F4F0DD218EE100AFFF7A6FE042808BF47
:104F100000F042F8B0EE480A01B0BDEC028B00BDD3
:104F200009D10120FBF72DFB01B0BDEC028B5DF830
:104F300004EB00F029B801B0B0EE480ABDEC028BDA
:104F40005DF804EB00F01CB8B61F927EB93AB2BA15
:104F5000CA9F2A3DDDFFFFBE490E494683F9223F25
:104F60000000004B0000C93F00A0FD390020A23323
:104F70001A61342C336D4C39DA82083CA0AA2ABE5F
:104F800030EE000A70470000DFED020A80EEA00A52
:104F900070470000000000009FED020A20EE000AAA
:104FA00070470000000000102DE9F0014FF07F4233
:104FB000B2EB410F9FBF4FF0FF310160BDE8F00140
:104FC00070474FF0004242EA0123C1F3C752783ADA
:104FD000551112F01F0C434CCCF120067C44C1F358
:104FE000C752A2F178024FEA621204EB820254F82F
:104FF000254008BFD2E9015612D0556804FA0CF4D6
:1050000025FA06F73C43976805FA0CF527FA06F8E7
:10501000D26807FA0CFCF24045EA08054CEA0206A1
:10502000A4FB034CA5FB0352A6FB03631D449D4256
:1050300034BF012600261319334416B1934202D916
:1050400003E0934201D2012200E00022624402F117
:10505000200C9206DC0C42EA443200EE102A5B037C
:10506000DFED210AF8EEC01A00EE103A4FEA9C1C60
:1050700011F0004FB8EE400AC0F800C020EE201A30
:1050800000EE105ADFED190AB8EE400A20EE200AB1
:1050900071EE810A70EE800A10EE902A02F500622D
:1050A0006FF30B0200EE902A70EEE11A31EEC11A96
:1050B000DFED101A30EE411A9FED0D0A20EE800A46
:1050C00001EE210A9FED0C1A00EE810A04BFBDE833
:1050D000F0017047CCF180510160BDE8F001B1EE04
:1050E000400A7047181F0000000000360000802CA6
:1050F00022AAFD29DB0FC92F0000C92F01F0B8FA41
:1051000004498860FEF778FB02480221083001F06C
:1051100093F8F7E7DC00002001F0AAFA06490860DE
:10512000FEF7A8FDFBF772FDFBF7B8FA0221024873
:1051300001F082F8F4E70000DC000020F0B50388FD
:10514000002541F221070CE04C5D002683EA042390
:105150005C001B0400D57C40761C2346082EF7D348
:105160006D1C9542F0D30380F0BD000010B501F036
:105170007FFA0349C860BDE81040FBF739BC000066
:1051800074000020044904481B31808AC989401AF0
:10519000642190FBF1F0704734040020F0B5244EF8
:1051A000244C0120F060244D94ED040A234885ED41
:1051B000000A94ED030A224F85ED010A90ED0E0AD4
:1051C000284687ED010AFBF781FE95ED090A38466E
:1051D00087ED000AFBF704FE95ED010AD5ED000A04
:1051E000184930EE600AB0EEC00A10EE100A88428C
:1051F00014DA154900209FED170A0860134908606A
:105200001349086084ED030A84ED050A84ED040A5D
:1052100084ED010A84ED020A00F01EF8F06802280D
:1052200004D1BDE8F0400548FEF781B8F0BD0000AC
:1052300058000020440A0020500C00205008002094
:10524000240C002000002041180000201000002045
:1052500014000020000000000C4900209FED0C0A03
:1052600008600C48032180ED030A80ED050A80EDFB
:10527000040A094880ED000A80ED020A81620748AD
:1052800080ED000A80ED020A816270471000002064
:1052900000000000440A0020240C0020500C0020D4
:1052A0000F489FED0E0AF2EE040A80ED000A80ED31
:1052B000010AC0ED030ADFED0B0A0321C0ED040A69
:1052C00080ED050A80ED020A80ED090A816280ED19
:1052D000080A80ED060A80ED070A7047000000000A
:1052E000240C0020EC51B83D0E489FED0D0ADFED77
:1052F0000E0A80ED000A80ED010AC0ED030A80ED80
:10530000040A80ED050A80ED090A80ED020A80EDAD
:10531000080A80ED060A80ED070A032181627047C2
:1053200000000000500C00209A999940124800B5E6
:105330009FED101A9FED110A80ED071A80ED0E1AED
:1053400080ED0F0A9FED0E0A80ED100A9FED0D0A09
:1053500080ED110A80ED121A80ED141A80ED131AF7
:1053600080ED181AFFF79CFFFFF7BEFF064880ED9F
:10537000061A00BD00000000500800209A9959400C
:10538000F4FD543C8FC2753C440A00201949F1EEEB
:10539000040A9FED190AC1ED0F0A81ED100A9FED75
:1053A000170A002281ED110AC1ED280ADFED140A67
:1053B0004FEA0203C1ED290A81ED2A0A02EBC2007D
:1053C00000EB021001EB8000521C80ED160A80ED0C
:1053D0000E0A80ED070A80ED120A80ED130A80EDB7
:1053E000140A80ED150A80ED180AA0F85C30022A34
:1053F000E4DB70477C0900208FC2F53C0000000010
:105400000AD7A33C024B0ECB80E80E000020704769
:105410009402002090ED000A80ED040A0A8852BA36
:1054200012B200EE102AB8EEC00A80ED000A4A88D7
:1054300052BA00EE102AB8EE400A80ED010A8A88BE
:1054400052BA00EE102AB8EE400A80ED020A8979BD
:1054500000EE101AB8EE400A80ED030A7047000013
:1054600090ED000ADFED080A80ED050A30EEC00A73
:10547000DFED060A20EE200ADFED050A80EE201A95
:1054800080ED041A7047000000E385470000B44334
:1054900000F8FF4590ED000A80ED040A0A8852BA30
:1054A00012B200EE102AB8EEC00A80ED000A4A8857
:1054B00052BA00EE102AB8EE400A80ED010A8A883E
:1054C00052BA00EE102AB8EE400A80ED020A89793D
:1054D00000EE101AB8EE400A80ED030A7047000093
:1054E0000349D1F80E200260498A8180002070476C
:1054F0002800002010B590ED001AD0ED010ADFED74
:105500001F1A31EE600AB4EEE01ABDEEC00AF1EEE9
:1055100010FA02D231EE211A01E031EE611A10EEDA
:10552000101A71EE600AFDEEE00A10EE902A002AD1
:1055300001DD134600E05342002901DD0C4600E086
:105540004C42A34200DA11460D4A93680B44936023
:105550004FF4B472514341F6FF7291FBF2F100EE49
:10556000101AD0ED030AB8EEC00A30EE800A80EDC2
:10557000030A90ED000A80ED010A10BD000000460C
:10558000580000200E489FED0D0ADFED0E0A80ED59
:10559000000A80ED010AC0ED030AF7EE080AC0ED2B
:1055A000040AF2EE040AC0ED050A80ED020A80ED5D
:1055B000080A80ED060A80ED070A70470000000027
:1055C000A00B0020000011430E489FED0D0AF2EEE3
:1055D000040A80ED000A80ED010AC0ED030A80EDA7
:1055E000040A80ED050A80ED020A80ED080A80EDCC
:1055F000060A80ED070A0021816280ED090A7047E2
:1056000000000000F80B002000B5FFF7BBFF5DF8BD
:1056100004EBFFF7D9BF00000D489FED0C0ADFED4A
:105620000D0A80ED000A80ED010AC0ED030ADFEDEE
:105630000A0AC0ED040A80ED050A80ED020A80ED39
:10564000080A80ED060A80ED070A70470000000096
:10565000740B00200000344385EBD13E0E489FEDD3
:105660000D0AF2EE040A80ED000A80ED010AC0ED99
:10567000030A80ED040A80ED050A80ED020A80ED40
:10568000080A80ED060A80ED070A0121816280ED9B
:10569000090A704700000000CC0B002000B5FFF79E
:1056A000BBFF5DF804EBFFF7D9BF000010B503495D
:1056B0000348FEF773FA002010BD00005D390008B2
:1056C000080200202DE9F05FDFF8D0A1724E00251E
:1056D0000AF10E090446A6F11108A9F10A0BCF1E22
:1056E000D4E02078A5283ED10521204600F05CFCBE
:1056F000002879D0A0783060617841EA00213160DB
:10570000A079B0606279093142EA0020B060634854
:1057100010388160204600F029FC002864D02078F1
:1057200040F20221401C2070B068A0F202228842A0
:105730005BD009DC03280ED0A0F58070013813D0AF
:10574000B0F5807F0FD11DE0042A71D0052A7AD0F0
:10575000062A08D18EE05048B4F811104C38018068
:10576000B4F8211001828AE0E079A17A227A40EA35
:105770000160617A090441EA022108434749091F8F
:1057800008607CE0444A14F8070F2C3A10706078E7
:10579000507060885080A0889080E079A17908439B
:1057A0000002D0802089108160895081607B217B3C
:1057B000084300029081E089D081208A1082608AAB
:1057C0005082A08A9082E08AD082208B1083A17EB2
:1057D000907E4B0861F30000890863F3410061F398
:1057E00082009076E41F4AE04BE0B4F80700A8F886
:1057F0000000B4F80900A8F8020041460025504610
:105800006219D27A42556D1C042DF9DBDAF80000DA
:105810004860B4F80F000881B4F811004881B4F86A
:1058200013008881B4F81500C88128E000E00AE080
:105830001A49E07910390A7860F30302000960F32D
:1058400007120A701BE0E07989F80000207A89F8D5
:105850000100607A89F8020049460025584662191D
:10586000927A42556D1C042DF9DBDBF80000C9F873
:10587000030004E00949B4F8070008310880641CFB
:1058800003E02078401C04F8010B6D1CBD42FFF6BC
:1058900028AFBDE8F09F00006004002094000020C5
:1058A0009FED091A80ED001A80ED051A80ED080AB7
:1058B000C0ED090AB7EE000A80ED070A80ED0A0A7A
:1058C00080ED011A704700000000000090ED070A0B
:1058D000D0ED0E0A234A30EE600A80ED140AD0EDB6
:1058E000150A70EE800A10EE901AC0ED150A91426A
:1058F00003DBDFED1D0AC0ED150A10EE901A1B4AFE
:10590000914203D3DFED1A0AC0ED150AD0ED0F0A5C
:1059100090ED101AD0ED151A60EE800A43F6982229
:1059200041EE210A90ED131AD0ED111A30EE411A12
:1059300041EE810AC0ED160A80ED130ABDEEE00AC1
:1059400010EE101A09B2A0F85C10914201DBA0F829
:105950005C20B0F95C2007498A4201DCA0F85C10A9
:105960007047000000401C4600401C4600401CC61A
:1059700000401CC668C5FFFFFCF78AFAFEF7EEFC84
:10598000FDF710FEFDF7A8FDFDF75EFDFDF780FDBC
:10599000FDF7BAFEFDF7D4FEFDF79AFEFDF70EFF08
:1059A000FDF72EFEFDF7EEFEFEF776F8FAF72EFE77
:1059B000FAF750FEFFF73AF9FFF778FE08210D4895
:1059C000FDF7BAF801220C490C48FDF70EFC122233
:1059D0000B490C48FDF7F4FB0C490B488022097871
:1059E00000EBC1110A48FDF7EBFBFDF79BFD00F052
:1059F00017F8FEE77C0C002035010020C40D0020C4
:105A0000E40100204C0E0020C40C002034010020D2
:105A1000080E00200021842800D0C11C08467047D1
:105A200010B500F057FC002010BD30B585B004461D
:105A30000D466169B4F90800002910D0A16971B15F
:105A4000FFF7E8FF6269A1690192029100902B467D
:105A500022692168606800F0DBFD049010E0FFF728
:105A6000D9FF04A901910090208A2B4682B22168B7
:105A7000606800F097FD012802D005B0002030BD1D
:105A8000049805B030BD00002DE9F04104460F46F2
:105A9000194EF5683068001D00F0D9FA48B9306831
:105AA000012190F82C0001FA00F0316921EA000090
:105AB0003061B4F1FF3F07D137B13068BDE8F04144
:105AC000011D0E4800F009BB2C4430684460AC4214
:105AD00006D23068011DB06BBDE8F04100F0E2BABB
