:020000040800F2
:10000000B85F002029030008D3320008392E000809
:10001000D13200082B0600088D43000800000000C4
:10002000000000000000000000000000690200085D
:100030005D0A000800000000C5020008413B0008FE
:100040004303000843030008430300084303000878
:100050004303000843030008430300084303000868
:10006000430300084303000843030008890900080C
:1000700043030008950900084303000843030008F0
:10008000A1090008430300084303000843030008D4
:10009000B1060008430300084303000843030008B7
:1000A0004303000843030008430300084303000818
:1000B0004303000843030008430300084303000808
:1000C00043030008430300084303000843030008F8
:1000D0004303000851430008754300084303000828
:1000E00043030008430300084303000843030008D8
:1000F00043030008153C00084303000843030008BD
:1001000043030008430300084303000843030008B7
:100110007D3E0008A13E0008430300084303000899
:100120004303000843030008AD0900084303000827
:100130004303000800000000000000004303000823
:1001400015070008430300084303000843030008A1
:100150004303000843030008430300084303000867
:100160004303000843030008430300084303000857
:1001700043030008430300080000000000000000E3
:10018000430300084303000800F002F800F05CF8A5
:100190000AA090E8000C82448344AAF10107DA45E2
:1001A00001D100F051F8AFF2090EBAE80F0013F0D8
:1001B000010F18BFFB1A43F0010318471C5F000032
:1001C0003C5F00000A444FF0000C10F8013B13F0B4
:1001D000070408BF10F8014B1D1108BF10F8015BA0
:1001E000641E05D010F8016B641E01F8016BF9D193
:1001F00013F0080F1EBF10F8014BAD1C0C1B09D1EA
:100200006D1E58BF01F801CBFAD505E014F8016B5B
:1002100001F8016B6D1EF9D59142D6D370470000ED
:100220000023002400250026103A28BF78C1FBD8FF
:10023000520728BF30C148BF0B6070471FB505F09B
:100240002BFD1FBD10B510BD00F0BAF91146FFF728
:10025000F5FF04F0EDFD00F0D8F903B4FFF7F2FF6D
:1002600003BC00F0DBF900002C4B19680868B0E80B
:10027000F04F80F30988BFF36F8F4FF0000080F3D9
:10028000118870470000000008480068006880F38B
:1002900008884FF0000080F3148862B661B6BFF39F
:1002A0004F8FBFF36F8F00DF00BF00BF08ED00E08E
:1002B000DFF80C00016841F470010160704700BF75
:1002C00088ED00E0EFF30980BFF36F8F134B1A68DE
:1002D0001EF0100F08BF20ED108A20E9F04F1060CB
:1002E00009B44FF0500080F31188BFF34F8FBFF374
:1002F0006F8F05F071FA4FF0000080F3118809BC90
:1003000019680868B0E8F04F1EF0100F08BFB0EC95
:10031000108A80F30988BFF36F8F7047E4010020D3
:10032000EFF30580704700000948804709480047FF
:10033000FEE7FEE7FEE7FEE7FEE7FEE7FEE7FEE795
:10034000FEE7FEE704480549054A064B70470000F2
:10035000053C000889010008B84F0020B85F002064
:10036000B8570020B857002053EA020C00F069800B
:100370002DE9F04B4FF00006002B1FBFB3FA83F5B9
:1003800003FA05F424FA05F65E4012BF1643B2FAEA
:1003900082F502FA05F4C5F120051EBF22FA05FC1C
:1003A00044EA0C04203556EA044C4FEA144418BFC2
:1003B000641C4FF000084FF00009904271EB030CF1
:1003C00039D3002919BFB1FA81F701FA07F6B0FA5B
:1003D00080F700FA07F6C7F120071EBF20FA07FCD6
:1003E00046EA0C062037B6FBF4FCA7EB0507103FE6
:1003F00007F01F0BCBF120060CFA0BFB2CFA06F6CC
:1004000044BFB3460026202FA4BF5E464FF0000B2A
:100410005BEA060C08BF4FF0010B19EB0B09ABFBB5
:10042000027C48EB0608C01B06FB02CC0BFB03CC8E
:1004300071EB0C01C1E70B46024641464846BDE858
:10044000F08B13B54FF000004FF00001AFF30080C8
:10045000BDE81C407047032A40F2308010F0030CC6
:1004600000F0158011F8013BBCF1020F624498BF07
:1004700011F801CB00F8013B38BF11F8013BA2F1A4
:10048000040298BF00F801CB38BF00F8013B11F01F
:10049000030300F02580083AC0F0088051F8043BBF
:1004A000083A51F804CBA0E80810F5E7121D5CBF2C
:1004B00051F8043B40F8043BAFF30080D20724BF5F
:1004C00011F8013B11F801CB48BF11F8012B24BFF3
:1004D00000F8013B00F801CB48BF00F8012B704742
:1004E00010B5203AC0F00B80B1E81850203AA0E8CF
:1004F0001850B1E81850A0E81850BFF4F5AF5FEA03
:10050000027C24BFB1E81850A0E8185044BF18C9B5
:1005100018C0BDE810405FEA827C24BF51F8043B5C
:1005200040F8043B08BF7047D20728BF31F8023BB0
:1005300048BF11F8012B28BF20F8023B48BF00F844
:10054000012B70474FF0000200B5134694469646C3
:10055000203922BFA0E80C50A0E80C50B1F12001D6
:10056000BFF4F7AF090728BFA0E80C5048BF0CC084
:100570005DF804EB890028BF40F8042B08BF7047E2
:1005800048BF20F8022B11F0804F18BF00F8012B54
:10059000704770477047704710B500F009F8006861
:1005A00010BD10B5044600F003F8046010BD000053
:1005B00000487047584F002000487047584F0020AF
:1005C0007546FFF7F9FFAE4605006946534620F031
:1005D0000700854618B020B5FFF7B4FEBDE82040FF
:1005E0004FF000064FF000074FF000084FF0000BEF
:1005F00021F00701AC46ACE8C009ACE8C009ACE8A2
:10060000C009ACE8C0098D46704710B50446AFF389
:1006100000802046BDE81040FFF71FBE01491820AA
:10062000ABBEFEE7260002007047FEE730B587B09C
:100630004FF400740094002403940294082404945A
:100640000A4C050A25706070080AA070E170100A53
:1006500020716271180AA071E37101232246694674
:10066000034800F0ADFA07B030BD0000880100205B
:10067000480B002000B58BB00020012103900490AE
:10068000CDE90601CDE90810059000900190029097
:100690006946064800F002FB044800F00BFF022107
:1006A000024800F07BFA0BB000BD0000480B0020B0
:1006B000014800F0EEBB0000480B00200548B0F9EF
:1006C0008831B0F92421B0F9C010B0F95C00FFF70F
:1006D000ADBF0000E008002000B58BB00E200590F3
:1006E0000020012103900490CDE90601CDE9081016
:1006F0000090019002906946054800F0CFFA044846
:1007000000F0D8FE0221024800F048FA0BB000BD0C
:10071000700B0020014800F0BCBB0000700B0020F3
:100720007047000000B50E4802F087FB0C486430AB
:1007300002F083FB0A48C83002F07FFB094802F050
:100740007CFB07480849B0F85C200A80B0F8C0205C
:100750004A80B0F824218A80B0F88801C88000BDA2
:10076000E00800200C0A00207400002070B5064646
:100770003A480D463A4990ED000ADFED3A0A10EE8C
:10078000100A394C884203DA9FED381A30EE010A1C
:1007900030EE600ADFED360A84ED090A20EE200A09
:1007A000DFED340A84ED0A0A20EE200A84ED080AFF
:1007B00003F0D0FE00EE906AF8EEE00A20EE200A88
:1007C00084ED040A94ED080A03F01CFE00EE906A22
:1007D000F8EEE00A20EE200A84ED050A94ED080AFE
:1007E00003F0B8FE00EE905AF8EEE00A20EE200A80
:1007F00084ED060A94ED080A03F004FE00EE905A18
:100800001E48F8EEE00A60EE200A9FED1B0AC4EDD8
:10081000070A94ED051AD4ED061A31EE611AD4EDEB
:10082000041A71EEA00A70EEC11A70EE211AC0ED22
:10083000071AF1EE411A71EEE01A70EE211AC0EDBE
:10084000201A71EE601A71EE200A70EE211A30EE55
:10085000200AC0ED391A80ED520A70BD700A0020DE
:100860000080E7440080E7442001002000F8FF45B5
:10087000A005343DA7E78E3C00803B45E008002002
:100880003248DFED330A344A90ED000A314830EE49
:10089000C00ADFED320A10EE101A80ED0B0A914209
:1008A00002DD30EE600A06E010EE101A2C4A91428A
:1008B00003D930EE200A80ED0B0A0188294A2A4B21
:1008C000012907D110EE101A914201DA994201D3A1
:1008D0000021018010EE101A914204DC994202D8E6
:1008E0000121018070470288002AFBD11F4A9142F2
:1008F00002DB9FED1F0A04E01E4A914203D39FEDE5
:100900001E0A80ED0B0ADFED1D0AB0EE401A1C48EE
:1009100081EE200A90ED071ADFED1A0A00EE201A88
:1009200080ED071A90ED201A00EE201A80ED201AB3
:1009300090ED391A00EE201A80ED391A90ED521A16
:1009400000EE201A80ED521A70470000700A002055
:100950000080E7442001002000F07F4500000046B1
:1009600000F07FC500004842000048C20000074474
:1009700000000744000007C4000007C4000048430B
:10098000E008002000007A44014800F021BE000089
:1009900000110020014800F01BBE0000A010002044
:1009A000014800F015BE0000C0110020014800F011
:1009B0000FBE00006011002001681823CAB2103A6F
:1009C000B2FBF3F2054B6FF30901032A9B5CC3658D
:1009D00000D9091D81650846704700004C60000879
:1009E00010B5014600208B698A6A4FF0C07453B17C
:1009F000B3F5005F15D072B1012A0CD0022A0AD0DB
:100A0000032A09D104E01AB1012A06D0022A03D12F
:100A1000C96AC90100D5012010BDC96AA142FAD036
:100A200010BD002AF7D0012AF2D0022AF3D0032AFF
:100A3000F3D010BD30B50468256825F48025256005
:100A4000046863608368402B036803D09960006882
:100A5000C26030BD9A600068C16030BD7047000060
:100A600000EBC00110B5114800EB81042068606004
:100A700005F03CF82060E17C4A0603D521F04001F6
:100A8000E174E060A06958B1804748B1E07C40F073
:100A9000A000E074206A002806D0BDE8104000479E
:100AA000E07C20F08000E07410BD000058030020BE
:100AB00072B6FEE770B5264C207801280FD1254884
:100AC0000078012816D0032814D002283FD12248EC
:100AD000B0F900102148B0F90000FFF747FE207878
:100AE000022834D11E4A0023012154881D48012CBC
:100AF00003D004E0FFF7C4FEF1E795881DB19588A7
:100B0000012D03D003E0C0E902130DE01CB184689D
:100B1000012C03D004E0C0E902310FE0C5681DB12B
:100B2000C368012B02D002E0436003E034B14068A7
:100B3000012804D0BDE87040FFF7A2BE4160B2F9C1
:100B40001010B2F91200BDE87040FFF70FBE70BD83
:100B50000000002001000020060000200800002006
:100B6000600200202001002000B504F05FF85DF86D
:100B700004EB04F011B8000004F0B8FF0649486027
:100B800002F028FF03F0B6FE02F0A4FB02480221A7
:100B9000001D04F087FDF3E75001002090F82020AD
:100BA000012A07D0022A05D0416A41F4802141621E
:100BB00001207047006842690A4342610020704783
:100BC000F0B590F820500468A468012D05D0022DDE
:100BD00003D0416A41F480215DE014F0406F01D1FF
:100BE000E50055D5C4F30164022C03D9416A41F4F0
:100BF000000150E00125A5401D608D684FF4C073D1
:100C00009DB1CE6835434E6845EAC605066803EBDC
:100C10000417F5514FF4C275076805EB04150E690A
:100C20007E51097D012905D009E00E88CD6845EA8D
:100C30004655EBE701684E5946F480764E511179DE
:100C4000D579567941EA056195792D0445EA06255D
:100C500029434FF4C676056806EB0416A9511178AE
:100C6000D57841EA0561957852782D0445EA02224B
:100C700011434FF4C475026805EB04155151006827
:100C800003EB0411425842F0010242500020F0BD33
:100C9000416A41F4001141620120F0BD10B590F8A5
:100CA0002020012A07D0022A05D0416A41F4802180
:100CB0004162012010BD3B48D0F8002242F0010201
:100CC000C0F80022D0F8002222F47C52C0F80022A2
:100CD000D0F800224B6A42EA0322C0F800220A7DC3
:100CE00002F01F0301229A40D0F81C329343C0F84F
:100CF0001C32CB69B3B9D0F80C329343C0F80C3234
:100D00008C894B6864F31F434C6900EBC404C4F83E
:100D100040320C890B6864F31F434C6900EBC40438
:100D2000C4F84432CB69012B16D1D0F80C321343EE
:100D3000C0F80C320C884B6864F31F434C6900EB1D
:100D4000C404C4F840320C89CB6864F31F434C6977
:100D500000EBC404C4F844328B69002BD0F8043291
:100D60000ED01343C0F804320B69002BD0F81432B4
:100D700008D01343C0F81432096A012904D008E0EE
:100D80009343EFE79343F5E7D0F81C121143C0F803
:100D90001C12D0F8001221F00101C0F8001200204E
:100DA00010BD000000640040704730B590F820404E
:100DB000012C05D0022C03D0416A41F480215DE072
:100DC0000468002955D02469A40754D04FF4D8747E
:100DD000056804EB01142D5915F0040595600568AC
:100DE0002D594ED0ED08556005682C5904F00204C9
:100DF000D4604FF4DA74056804EB01142D5905F042
:100E00000F05156105682D59C5F30725956105681E
:100E10002C59240C54614FF4DC72046802EB01126B
:100E2000A4581C700468A458240A5C700468A45870
:100E3000240C9C700468A258120EDA704FF4DE7213
:100E4000046802EB0112A4581C710468A458240A17
:100E50005C710468A458240C9C710468A258120E9A
:100E6000DA71006881B1016941F02001016100205F
:100E700030BDE468A8E7416A41F4001141620120F5
:100E800030BD6D0D1560AFE7C16841F02001C16054
:100E9000EDE72DE9F05F0546006800244669D0F8CB
:100EA00004908768D0F80CB0D0F810A0D0F8188063
:100EB000F10748D0F90714D001218160B80703D5A4
:100EC000284600F024FB0CE0780702D54FF40064BC
:100ED00007E0380702D54FF4805402E0284600F0BE
:100EE00015FBF80516D529684FF480708860B805A1
:100EF00003D5284600F00DFB0CE0780502D544F43C
:100F0000005407E0380502D544F4804402E0284646
:100F100000F0FEFAF80316D529684FF48030886097
:100F2000B80303D5284600F0F6FA0CE0780302D5A2
:100F300044F4004407E0380302D544F4803402E06E
:100F4000284600F0E7FA300707D55FEACB6004D502
:100F50002968102044F40074C86070074FF0080737
:100F600007D55FEA0B7004D52868C760284600F0F3
:100F70009BF9B00706D52868C068800702D02846CC
:100F800000F094F9700607D55FEACA6004D52968B5
:100F9000102044F480640861B00607D55FEA0A7047
:100FA00004D528680761284600F080FAF00606D5C7
:100FB00028680069800702D0284600F078FAB0035C
:100FC00008D55FEAC96005D5296810204860284621
:100FD00000F06EFAF00307D55FEA097004D52868BF
:100FE0004760284600F098FA300446D55FEA497019
:100FF00040D5F00504D55FEAC87001D044F0010483
:10100000B00504D55FEA887001D544F0020470058C
:1010100004D55FEA487001D544F00404300529D5B1
:1010200018F0700F26D008F07000402815D006DCAC
:10103000102809D020280AD0302816D10AE05028DC
:101040000ED0602811D10EE044F008040DE044F009
:1010500010040AE044F0200407E044F0400404E0F7
:1010600044F0800401E044F480742868816921F030
:1010700070018161296804204860002C05D0686AED
:10108000204368622846FFF78FFEBDE8F09F70B5E9
:10109000040003D094F8200010B104E0012070BDDA
:1010A000204600F081F82068016841F001010160EC
:1010B00000F0F8FC0546052604E000F0F3FC401BB8
:1010C0000A2811D820684068C007F6D02068016857
:1010D00021F00201016000F0E5FC05460BE000F0A4
:1010E000E1FC401B0A2806D9606A40F400306062C7
:1010F00084F82060D2E7206840688007EFD4207E23
:101100000128206801683DD021F080010160607EE7
:1011100001282068016838D021F040010160A07EDC
:1011200001282068016833D021F020010160E07EB1
:101130000128206801682ED041F010010160207F55
:1011400001282068016829D021F008010160607F32
:1011500001282068016824D021F004010160D4E94D
:1011600002010843D4E90412114308436168491E8F
:1011700008432168C86100206062012084F82000D3
:10118000002070BD41F08001C0E741F04001C5E79B
:1011900041F02001CAE721F01001CFE741F008013A
:1011A000D4E741F00401D9E7F0B587B00446142133
:1011B0006846FFF7C7F9374B3748DFF8D4E01968BE
:1011C000D4F800C0344A0225032609271030002431
:1011D000491CF44524D11960012907D1016841F067
:1011E00000710160006800F000700590106840F028
:1011F00001001060106802AB00F0010005904FF490
:10120000C050CDE9000583E8D0006946234800F0CE
:1012100051FB00220721142000F0D0FC142033E001
:10122000DFF87CE0F44531D1D0F800C04CF0806CA0
:10123000C0F800C0D0F800C001290CF0806CCDF8D7
:1012400014C0196007D1016841F0007101600068A5
:1012500000F000700590106840F002001060106807
:1012600002AB00F0020005904FF44050CDE90005BC
:1012700083E8D00069460B4800F01CFB00220621E1
:10128000402000F09BFC402000F08AFC07B0F0BD3D
:10129000006400408001002030380240000002401D
:1012A000006800400004024070470000F0B50646A8
:1012B00000687749774C784D87B088423AD104F17D
:1012C00038036A46002105F1D800FFF76EFD00984B
:1012D00004F1380303F10801A5F5C877B0F5017FE3
:1012E00045D008DCA0F5007001380DD0012822D0CF
:1012F00002287FD12DE0A0F50070053845D0A0F57B
:101300008060613876D151E06348883003F0DFFBBC
:10131000188840BA00B200EE100AB8EEC00A87ED95
:10132000000A588840BA00B200EE100AB8EEC00AAF
:1013300087ED0E0A5EE058489C3003F0C8FB5888E1
:1013400040BA00B200EE100AB8EEC00A87ED270AD4
:1013500050E05148B03003F0BAFB588840BA00B2B0
:1013600000EE100AB8EEC00A87ED400A42E04A4893
:10137000C43003F0ACFB588840BA00B200EE100A4B
:10138000B8EEC00A87ED590A34E06068401C60601E
:101390004148743003F076FB188840BA00B200EE82
:1013A000100AB8EEC00A85ED000A23E0188840BA9A
:1013B00000B200EE100A3848B8EEC00A643080ED82
:1013C000000A598849BA09B200EE101AB8EEC00AEC
:1013D00080ED010A998849BA09B200EE101AB8EEF8
:1013E000C00A80ED020A997900EE101AB8EE400AA0
:1013F00080ED030A29493068884226D1254B284AC6
:1014000040330021A2F12800FFF7CFFC2448214BF4
:1014100001684033A1F50071053918D02148A1F5C4
:101420000071733926D0B1F5347F0ED1197801726D
:101430005978417299781C4A0174D9781160998859
:1014400049BA0180D98849BA418007B0F0BD6068C7
:101450001049401C606010484831743003F012FBA2
:10146000188840BA00B200EE100AB8EEC00A85ED46
:10147000000AEAE71978417459784182598849BAD3
:101480004181998849BA8180D98849BAC180DCE70D
:101490000064004080010020700A002000680040C5
:1014A000980B00204C020020140000207047704769
:1014B0007047000070B5044690F82000012804D061
:1014C000606A40F40020606218E0022084F8200086
:1014D0002068016821F00101016000F0E3FA05468F
:1014E0000EE000BF00F0DEFA401B0A2808D9606A4F
:1014F00040F400306062052084F82000012070BDB7
:1015000020684068C007EDD1606270BD70477047C9
:10151000704770477047704770472DE9F0410446A7
:10152000876D00F0BFFA064694F8350000250228C2
:1015300006D08020606584F834500120BDE8F08139
:101540002068016821F0160101602068416921F0DE
:1015500080014161206C08B9A06C20B1206801684D
:1015600021F0080101602068016821F0010101609B
:101570000CE000F097FA801B052807D92020606551
:10158000032084F8350084F83450D7E720680068D9
:10159000C007EED194F85C103F208840B86001206D
:1015A00084F8350084F834500020C7E790F83510EF
:1015B000022903D08021416501207047052180F870
:1015C00035100068016821F00101016000207047BA
:1015D0002DE9F84304464FF00009CDF80090634828
:1015E0004FF41651A56D0068B0FBF1F72E6894F822
:1015F0005C10082000FA01F131420FD021680A681E
:1016000052070BD50A6822F004020A6094F85C10B5
:101610008840A860606D40F00100606594F85C103F
:101620004FF0010808FA01F0304208D021684969FA
:10163000090604D5A860606D40F00200606594F86A
:101640005C1004208840304208D02168096889076E
:1016500004D5A860606D40F00400606594F85C10EB
:1016600010208840304218D021680968090714D535
:10167000A86020680168490304D50068000308D504
:10168000A16C07E00168C90503D4016821F00801D5
:101690000160216C09B12046884794F85C10202035
:1016A0008840304231D021680968C9062DD5A8602C
:1016B00094F8350005282068016806D0490347D50D
:1016C000006800031DD4616C1CE021F0160101606C
:1016D0002068416921F080014161206C08B9A06C4B
:1016E00020B12068016821F00801016094F85C10C5
:1016F0003F208840A86084F8358084F83490216DBC
:101700001FE0E16B09B120468847606D00282BD0AF
:10171000606DC00714D0052084F83500206801688A
:1017200021F0010101600098401C0090B84203D8EC
:1017300020680068C007F6D184F8358084F83490BA
:10174000E16C002910D001B02046BDE8F043084705
:101750000168C905D5D4016821F01001016084F841
:10176000358084F83490CCE7BDE8F883E0010020B0
:101770002DE9F041044600F095F906465CB10220DF
:1017800084F83500002584F834502068016821F081
:10179000010101600DE00120BDE8F08100F082F957
:1017A000801B052805D920206065032084F83500BA
:1017B000F2E720680068C007F0D12268116820486D
:1017C0000140D4E901031843D4E9033633431843F5
:1017D00063691843A3691843E3691843236A1843EC
:1017E0000843616A042903D1D4E90B131943084360
:1017F000106020684069666A20F0070130460E4399
:10180000012704280CD1A06A0643E06A40B12046B3
:10181000FFF7E6F820B14020606584F83570BAE73C
:10182000206846612046FFF7C7F894F85C203F2106
:1018300091408160656584F835700020ACE7000058
:101840003F8010F02DE9F0410446866D90F8340099
:10185000002501280DD0012084F8340094F835705B
:101860000020012F07D084F8340002252846BDE867
:10187000F0810220FBE7022784F83570606520467E
:10188000FFF7D8F894F85C103F208840B0602068DB
:10189000016841F016010160206C20B120680168E8
:1018A00041F0080101602068016841F00101016018
:1018B000DCE700002DE9F84FDFF8BCA1002201258C
:1018C00003264FF00F090AF1040BAAF1040E00BF22
:1018D0000B6805FA02F42340A34270D10F7907F098
:1018E0000307012F01D0022F16D187684FEA420863
:1018F00006FA08FC27EA0C07D1F80CC00CFA08FC21
:101900004CEA070CC0F808C04768A7430C79C4F339
:10191000001494403C4344600C79E443A4070AD08B
:10192000C4684FEA420C06FA0CF7BC438F6807FA0A
:101930000CF72743C7600C7904F00304022C12D182
:10194000D40800EB840CDCF820405707FF0E09FA9E
:1019500007F824EA0804D1F8108008FA07F848EAE2
:101960000408CCF8208004684FEA420C06FA0CF711
:10197000BC430F7907F0030707FA0CF7274307600A
:101980004C6814F4403F70D03C4C276847F48047C3
:101990002760246822F0030704F480440094384C44
:1019A00007EB040CDCF8084897074FEA177809FAA8
:1019B00008F7BC43334FB84202D1002724E054E07B
:1019C000314FB84201D101271EE0304FB84201D15A
:1019D000022719E02E4FB84201D1032714E02D4F02
:1019E000B84201D104270FE02B4FB84201D105279F
:1019F0000AE02A4FB84201D1062705E0284FB84235
:101A000001D1072700E0082707FA08F72743CCF899
:101A10000878DAF800405746D1F804C09C435FEAE2
:101A2000CC2C00D51C433C60DBF800405F46D1F86D
:101A300004C09C435FEA8C2C00D51C433C60DEF85C
:101A400000407746D1F804C09C435FEA8C3C00D547
:101A50001C433C60084F083F3C68D1F804C09C43DD
:101A60005FEACC3C00D51C433C60521C102AFFF4BA
:101A70002FAFBDE8F88F0000083C01404438024019
:101A80000030014000000240000402400008024013
:101A9000000C0240001002400014024000180240F6
:101AA000001C02400148806870470000D4010020FB
:101AB000024881680278114481607047D401002097
:101AC0000B4810B5016841F400710160016841F4F0
:101AD00080610160016841F480710160032000F0C1
:101AE0008DF80F2000F006F800F03EF8002010BD41
:101AF000003C024010B5014688B000222D2000F0C5
:101B00005DF82D2000F04CF813480024016841F4E2
:101B100080710160006805A900F480700690684635
:101B200000F018F900F036F90C494000B0FBF1F173
:101B30000C480B4A491E026040F2E732C0E9032418
:101B4000C0E9011400F0A2FB10B1012008B010BDE3
:101B5000044800F0C9FBF9E74038024040420F005A
:101B600000200040201200200C4882B0016841F49F
:101B700080410160006800F4804000900748001F29
:101B8000016841F0805101600068002200F080503F
:101B900000900F21901E02B000F010B844380240AF
:101BA000002809DB00F01F0201219140400980005C
:101BB00000F1E020C0F8001170470000F0B40E4BB7
:101BC0001B680C46C3F30223C3F10705042D00D99B
:101BD0000425191D072901D2002300E0DB1E012680
:101BE00006FA05F1491E214099409E40761E164096
:101BF0003143F0BC02F0F5BB0CED00E0064900F00B
:101C0000070208684FF6FF03184040EA0220034A23
:101C100010430860704700000CED00E00000FA057A
:101C20002DE9F0470E46050065D0DFF81481D8F89D
:101C30000000F7B200F00700B04207D288F8007049
:101C4000D8F8000000F00700B04254D128683D4C9D
:101C5000810712D5400703D5206840F4E05020608A
:101C60002878000703D5206840F460402060206891
:101C7000A96820F0F000084320602878C0072DD024
:101C8000304968680839012812D0022813D0032887
:101C900011D00968890700292DDA216821F0030194
:101CA00001432160FFF7FEFE814641F2883A0EE0D3
:101CB00009688903EFE709688901ECE7FFF7F2FE9D
:101CC000A0EB0901514502D90320BDE8F087206847
:101CD000696800F00C00B0EB810FEFD1D8F800106C
:101CE000404601F00701B14207D90770006800F0D3
:101CF0000700B04201D00120E7E72878400705D56A
:101D00002068E96820F4E050084320602878000744
:101D100006D52068296920F4604040EAC1002060AF
:101D200000F058F82168084AC1F30311515CC8401B
:101D30000649086006480068FFF7DCFE0020C4E79B
:101D4000003C02400838024054600008E0010020D6
:101D5000D80100200F2202600C4A136803F003032D
:101D60004360136803F0F0038360136803F4E053E7
:101D7000C36012684FF4E05303EAD20202610448E0
:101D8000006800F007000860704700000838024053
:101D9000003C02400448054900680968044AC1F350
:101DA0008221515CC8407047E001002008380240A1
:101DB000646000080448054900680968044AC1F3E2
:101DC0004231515CC8407047E001002008380240B1
:101DD00064600008154810B5006810F00C02144843
:101DE00013D01449042A0FD0082A0ED10F4C241FF7
:101DF0002268236802F03F025B0207D52068C0F327
:101E00008810A0FB010106E0084610BD2168C1F35F
:101E10008811A1FB00010023FEF7A6FA2168C1F397
:101E20000141491C4900B0FBF1F010BD08380240E7
:101E30000024F40040787D012DE9F84F04006ED0B5
:101E40002078DFF84C93C007A9F104054AD009F1C6
:101E500004000168C1F38101012908D00068C0F3C2
:101E6000810002280AD1D9F80000400206D528686E
:101E7000800337D560680028E1D033E06068B0F5B2
:101E8000803F10D0B0F5A02F286810D020F480300B
:101E90002860286820F4802028606068A8B1FFF7D7
:101EA00001FE06460DE0286840F48030F4E740F477
:101EB00080202860F7E700BFFFF7F4FD801B64284F
:101EC00073D828688003F7D50CE0FFF7EBFD0646D2
:101ED00005E000BFFFF7E6FD801B6428F0D8286806
:101EE0008003F7D42078DFF8AC8280074FF0000A37
:101EF0003ED5A748001D016811F00C0F08D00068FE
:101F0000C0F3810002280BD1D9F80000400207D4A9
:101F10002868800716D5E068012800D112E033E177
:101F2000E068B8B10120C8F80000FFF7BBFD064625
:101F300005E000BFFFF7B6FD801B0228C0D8286867
:101F40008007F7D52868216920F0F80040EAC10031
:101F500028600DE0C8F800A0FFF7A4FD064604E0E5
:101F6000FFF7A0FD801B02281FD828688007F7D440
:101F70002078000722D5864F87486169703771B194
:101F800001210160FFF78EFD064604E0FFF78AFDA0
:101F9000801B022809D838688007F7D50EE0C0F802
:101FA00000A0FFF77FFD064605E082E0FFF77AFD1F
:101FB000801B02287DD838688007F7D42078400736
:101FC00068D5DFF8CCB100270BF13C0BDBF8000043
:101FD000C0000BD4DBF8001041F08051CBF80010AA
:101FE000DBF80000012700F0805000906B4E306855
:101FF000C00510D4306840F480703060FFF752FDA7
:10200000009005E0FFF74EFD0099401A022850D8D5
:102010003068C005F6D55E4EA0686C3601280FD03A
:102020000528306810D020F001003060306820F0C2
:1020300004003060A068B8B1FFF734FD00900FE0F5
:10204000306840F00100F4E740F004003060F7E74A
:10205000FFF728FD0099411A41F28830814266D885
:1020600030688007F4D50EE0FFF71CFD009007E014
:10207000FFF718FD0099411A41F28830814256D885
:1020800030688007F4D42FB1DBF8001021F08051C4
:10209000CBF80010A069C8B33D49091D0968C1F318
:1020A000810102294AD00228504607D0C8F86000B2
:1020B00000E03CE0FFF7F6FC04463BE04746C8F88A
:1020C0006000FFF7EFFC064605E000BFFFF7EAFC03
:1020D000801B02282BD828688001F7D4D4E9070197
:1020E0000843A16A2E4A490802EB0141626A41EAAB
:1020F0008211084394F82C1040EA0161C9F80010DD
:1021000001203866FFF7CEFC044606E03EE000BF43
:10211000FFF7C8FC001B022809D828688001F7D502
:1021200034E000BFFFF7BEFC001B022802D90320E9
:10213000BDE8F88F28688001F4D427E00128F7D0A3
:10214000D9F80000E26900F4800191421CD1226AB2
:1021500000F03F01914217D147F6C071626A014019
:10216000B1EB821F10D1A26A4FF0FF3300F440316F
:1021700003EB5202B1EB024F06D194F82C1000F0A1
:102180007060B0EB016F01D00120D1E70020CFE7F4
:102190000438024000004742800E47420070004071
:1021A0000000FFFF7047704710B590F83C20012AEF
:1021B00022D0012280F83C20CA688C6822F4407248
:1021C00022434C6822F4806222430C6822F40062AD
:1021D00022430C6922F4805222434C6922F40052BB
:1021E0002243C969002322F480420A4301684A64F9
:1021F00080F83C30002010BD022010BD70B590F872
:102200003C20012A32D0012480F83C40022280F890
:102210003D2003685A689D6822F070060A683243C0
:102220005A60134B02689A4214D0B2F1804F11D019
:10223000104B9A420ED0104B9A420BD00F4B9A4241
:1022400008D00F4B9A4205D00E4B9A4202D00E4B4B
:102250009A4204D1496825F080031943916080F8BF
:102260003D40002180F83C10084670BD022070BD42
:10227000000001400004004000080040000C004045
:1022800000040140004001400018004010B5040067
:1022900003D094F83D0010B107E0012010BD0020EC
:1022A00084F83C00204600F01EF8022084F83D002F
:1022B000211D206801F0BCFC012084F8460084F850
:1022C0003E0084F83F0084F8400084F8410084F820
:1022D000420084F8430084F8440084F8450084F800
:1022E0003D00002010BD704790F83D10012901D03D
:1022F00001207047022180F83D100168CA6842F051
:102300000102CA6000681149884214D0B0F1804FC0
:1023100011D00F4988420ED00E4988420BD00E4989
:10232000884208D00D49884205D00D49884202D024
:102330000C49884204D1816801F00701062903D0C5
:10234000016841F001010160002070470000014078
:102350000004004000080040000C00400004014060
:102360000040014000180040704770B50446006806
:1023700001694FF00005C943890715D4C168C943F5
:10238000890711D4E91E0161012020772068806946
:102390008007204602D0FFF7E7FF04E000F0C2F814
:1023A000204600F071F9257720680169C943490783
:1023B00017D4C168C943490713D46FF00401016100
:1023C000022020772068806910F4407F204602D0E8
:1023D000FFF7CAFF04E000F0A5F8204600F054F92A
:1023E000257720680169C943090716D4C168C94324
:1023F000090712D46FF008010161042020772068DA
:10240000C0698007204602D0FFF7AEFF04E000F06D
:1024100089F8204600F038F9257720680169C9431A
:10242000C90617D4C168C943C90613D46FF0100197
:102430000161082020772068C06910F4407F2046A1
:1024400002D0FFF791FF04E000F06CF8204600F0A6
:102450001BF9257720680169C943C90708D1C168FC
:10246000C943C90704D1891E0161204600F00EF955
:1024700020680169C943090609D4C168C94309062E
:1024800005D46FF0800101612046FFF78BFE2068C4
:102490000169C943490609D4C168C943490605D43D
:1024A0006FF040010161204600F0FAF820680169F0
:1024B000C94389060BD4C168C943890607D46FF0A4
:1024C000200101612046BDE87040FFF76CBE70BD81
:1024D00010B586B0044614216846FEF733F80E495D
:1024E0002068884216D10D480021026842F004029B
:1024F0000260006800F0040005904FF480700090C6
:102500000220CDE901010320CDE90310694604480A
:10251000FFF7D0F906B010BD00040140303802408A
:1025200000080240704770B5044690F83C00002651
:102530000D4601280FD0012084F83C006AB1042A1E
:102540001DD0082A2FD00C2A3FD00126002084F865
:102550003C00304670BD022070BD206801F0CCFB0D
:102560002068816941F0080181612068816921F05A
:1025700004018161206881692A69114311E02068A2
:1025800001F0EAFB2068816941F400618161206803
:10259000816921F480618161206881692A6941EA49
:1025A00002218161D2E7206801F00CFC2068C1693A
:1025B00041F00801C1612068C16921F00401C161D5
:1025C0002068C1692A69114311E0206801F02EFCDE
:1025D0002068C16941F40061C1612068C16921F4CA
:1025E0008061C1612068C1692A6941EA0221C16133
:1025F000ACE710B5040003D094F83D0010B107E03B
:10260000012010BD002084F83C00204600F01EF898
:10261000022084F83D00211D206801F009FB012003
:1026200084F8460084F83E0084F83F0084F84000B7
:1026300084F8410084F8420084F8430084F84400A0
:1026400084F8450084F83D00002010BD08B50068FE
:102650000B49884212D10B48016841F00201016028
:102660000068002200F0020000900F212D20FFF7EB
:10267000A5FABDE808402D20FFF792BA08BD00007A
:1026800000040140443802407047000000680349DC
:10269000884201D1FFF70CBA7047000000200040CB
:1026A0007047704710B504460068406994F83D10C3
:1026B000C0F3C010212911D180B12068143050E836
:1026C000001F21F0800140E80012002AF5D1606B64
:1026D00008B1FEF722FF204601F08AFC206840691D
:1026E00094F83E10C0F38010222911D180B12068E7
:1026F000143050E8001F21F0400140E80012002A89
:10270000F5D1A06B08B1FEF708FF204601F049FCA7
:10271000002010BD70470000F8B501680446086845
:10272000CA684B6910F00F0F4FF0000559D003F045
:10273000010602F49077374365D0C10705D0D10573
:1027400003D5216C41F001012164410705D5D9076A
:1027500003D0216C41F002012164810705D5D9071E
:1027600003D0216C41F004012164010707D502F078
:102770002001314303D0216C41F008012164216C18
:1027800000293AD0800604D5900602D5204601F0F3
:1027900073FC20684069216CC0F38010090700D4E5
:1027A00060B3204601F0FDFB20684069400621D55A
:1027B0002068143050E8001F21F0400140E800126A
:1027C000002AF5D1A06BA8B16C490165A06BFEF79A
:1027D000EDFE002811D0A06B016D01B0BDE8F04006
:1027E000084783060FD593060DD52046BDE8F8406F
:1027F00001F042BC2046FFF78DFFF8BD2046FFF7F1
:1028000089FF2564F8BD266B2023012E79D1C606E9
:1028100077D5D60675D5086848680090486940069F
:1028200040D5A16B086840680004000CEAD0A28D76
:102830008242E7D9E085C869B0F5807F2DD0206855
:102840000C3050E8001F21F4807140E80012002A8B
:10285000F5D12068143050E8001F21F0010140E854
:102860000012002AF5D12068143050E8001F21F032
:10287000400140E80012002AF5D184F83E3025637B
:1028800020680C3050E8001F21F0100140E80012D1
:10289000002AF5D1A06BFEF740FEA08DE18D401A15
:1028A00081B229E0A08DE18D401A81B2E08D00282F
:1028B000A8D00029A6D020680C3050E8002F22F4C0
:1028C000907240E80026002EF5D12068143050E8C0
:1028D000002F22F0010240E80026002EF5D184F8F6
:1028E0003E30256320680C3050E8002F22F01002A3
:1028F00040E80023002BF5D12046FFF7D2FEF8BDBB
:10290000FFE705062BD5150629D594F83D002128AB
:10291000F5D1A068B0F5805F01D12069B0B1206A1F
:10292000411C2162216800784860E08C401E000450
:10293000000CE084E3D12068C16821F08001C1600F
:102940002068C16841F04001C160D8E7206A008872
:10295000C0F308004860206A801C2062E5E740065A
:10296000CDD55006CBD5CA68204622F04002CA60B9
:1029700084F83D3000F05FFAC1E70000AD3E00088A
:1029800070B5040004D094F83D00002510B106E0B5
:10299000012070BD84F83C50204600F023F824202C
:1029A00084F83D002068C16821F40051C1602046D0
:1029B00001F0C2FB2068016921F4904101612068A7
:1029C000416921F02A0141612068C16841F4005148
:1029D000C1602564202084F83D0084F83E0000207A
:1029E00070BD00002DE9F04F87B005461421684600
:1029F000FDF7A8FDB248DFF8C48210380222D5F8EE
:102A000000C00024AE4B0321DFF8B8E2960607159C
:102A10004FF4807B4FF44039C4453CD1D3F800C01B
:102A20004CF4002CC3F800C01B6803F4002305938A
:102A3000036843F001030360006800F001000590A3
:102A40008DE816000820CDE9031069467046FEF7B0
:102A500031FFDFF878829C494046C8F80010C0E991
:102A60000164C0E90347C8F82090C8F81440C8E9D9
:102A7000064BC8F82440FEF77BFE08B1FEF718F8B5
:102A8000C5F83880002208213420C8F83850FFF7F4
:102A900095F834205DE0DFF83882C4455ED1D3F884
:102AA00000C04CF4801CC3F800C01B6803F4801302
:102AB0000593036843F004030360036803F0040311
:102AC0000593036843F00803036000688A4600F03A
:102AD000080005904FF4805000904FF0080801AABC
:102AE0000220CDF8108082E8110469467948FEF78B
:102AF000E1FE0420009001AA0220CDF8108082E8B7
:102B0000110469467448FEF7D5FEDFF8C0816E49AE
:102B100008F1600830394046C8F80010C0E9016487
:102B2000C0E90347C8F82090C8F81440C8E9064B2C
:102B3000C8F82440FEF71CFE08B1FDF7B9FFC5F840
:102B40003880002205213520C8F83850FFF736F8C4
:102B50003520FFF725F807B0BDE8F08FDFF87C815E
:102B60004FF0070AC44543D1554B1B1DD3F800C095
:102B70004CF0100CC3F800C01B6803F01003059361
:102B8000036843F0010303600068CDE9024100F0EF
:102B9000010005904FF4C060CDE90002CDF810A00F
:102BA00069467046FEF786FEDFF820814C4908F141
:102BB000C0084046C8F80010C0E90164C0E90347F6
:102BC000C8F82090C8F81440C8E9064BC8F824405B
:102BD000FEF7CEFD08B1FDF76BFFC5F83880002287
:102BE00007212520C8F83850FEF7E8FF2520B0E778
:102BF000DFF8F080C44540D1D3F800C04CF4003C6D
:102C0000C3F800C01B6803F400330593036843F066
:102C10000103036000680DF1080800F00100059051
:102C20000C20CDE90002012088E8030469467046C3
:102C3000FEF740FE2449DFF8B08048314046C8F82E
:102C40000010C0E90164C0E90347C8F81440C8F89F
:102C50001840C8E90749C8F82440FEF789FD08B1C3
:102C6000FDF726FFC5F83880002207212620C8F886
:102C70003850FEF7A3FF26206BE71C4DAC457FF4D0
:102C80006AAF1D6845F480251D601B6803F480232E
:102C90000593036843F0020303600068CDE9024135
:102CA00000F0020005904FF44060CDE90002CDF83D
:102CB00010A069460E48FEF7FDFD4CE7004C0040B1
:102CC000403802400000024040600240A010002056
:102CD0000050004000080240000C0240001001407B
:102CE0004064024000440040C01100200048004001
:102CF0000004024090F83E30202B0ED159B152B161
:102D000090F83C30012B08D0012380F83C300023A0
:102D1000036301F097BA012070470220704700005A
:102D200010B504460068114988420AD1104800F0E5
:102D30008DFE0020FDF794FE12220D490D48FFF78D
:102D4000D9FF0D49206888420FD10C484168491CC1
:102D50004160407800F01AFC084906480122491CED
:102D6000BDE810408838FFF7C5BF10BD00440040E3
:102D7000780200201810002000500040C8010020F8
:102D8000704700002DE9F843044690F83D001F46C7
:102D900016460D4620284CD1C5B1BEB194F83C0072
:102DA000012846D0012084F83C004FF00008C4F808
:102DB0004080212084F83D00FEF774FEA684814601
:102DC000E684A068B0F5805F03D004E00120BDE890
:102DD000F883206928B12E465FF0000584F83C8016
:102DE0000EE00026FAE78021204601F075FAA0B92E
:102DF000AEB116F8010B21684860E08C401EE084FB
:102E0000E08C4B464FF0000200970028EBD14FF0CA
:102E10004001204601F060FA30B10320D7E735F8D1
:102E2000020BC0F30800E6E7202084F83D000020F4
:102E3000CDE70220CBE77047FEE790ED070AD0ED23
:102E40000E0AB0EE002A42F2107230EE600A80EDF7
:102E5000140A90ED131AD0ED0F1A70EE410A60EECD
:102E6000A10AD0ED101A41EE800AF0EE401A41EEB0
:102E7000421A90ED122A71EE821A90ED112A42EE5A
:102E8000210AC0ED180A80ED121A80ED130AB0F97C
:102E90005C1000EE101AB8EEC00A30EE200ABDEE4B
:102EA000C00A10EE101A09B2A0F85C10914202DAC2
:102EB0005242914201DCA0F85C20704730B50C4DC5
:102EC0000C4A00204FF07E54B7EE000AFFEE000AD5
:102ED00002EB80010B68A34201DB81ED000A0B6865
:102EE000AB4201D3C1ED000A401C0228F0DB30BD2B
:102EF000000080BF20000020104810B50E4901607E
:102F00000321416000214FF400228160C0E90312D7
:102F10004FF4401242610176012242768276C176F8
:102F200001774277FEF7B3F8002803D0BDE81040E0
:102F3000FDF7BEBD10BD000000640040480B00203E
:102F4000104810B50E4901600321416000214FF483
:102F500000228160C0E903124FF440124261017601
:102F6000012242768276C27601774277FEF78FF8A9
:102F7000002803D0BDE81040FDF79ABD10BD000049
:102F800000680040700B0020194808B5016841F442
:102F900000110160016801F400110091016841F421
:102FA000800101600068002200F48000009005218B
:102FB0000B20FEF703FE0B20FEF7F2FD0022052199
:102FC0000D20FEF7FBFD0D20FEF7EAFD0022052196
:102FD0001020FEF7F3FD1020FEF7E2FD0022052190
:102FE0003A20FEF7EBFDBDE808403A20FEF7D8BDD9
:102FF0003038024010B5AAB01C2221496846FDF7BE
:103000006FFA0021684601F066FF1E4C1C491C2225
:10301000A0611C3107A8FDF763FA002107A801F0A1
:103020005AFF1749E0611C2238310EA8FDF758FA03
:1030300000210EA801F04FFF114920621C225431DB
:1030400015A8FDF74DFA002115A801F044FF0C4921
:1030500060621C2270311CA8FDF742FA00211CA8F6
:1030600001F039FF0649A0621C228C3123A8FDF72C
:1030700037FA002123A801F02EFFE0622AB010BD2C
:10308000A45F00085001002000B587B014216846F5
:10309000FDF758FA19480021026842F080020260E8
:1030A000026802F080020592026842F001020260AA
:1030B000026802F001020592026842F00202026018
:1030C000026802F002020592026842F00402026005
:1030D000026802F004020592026842F008020260EF
:1030E0000068029100F0080005908020CDE9000101
:1030F00069460348FEF7DEFB07B000BD30380240EA
:103100000008024010B592B000240F941C2108A8BA
:103110001094FDF717FA20216846FDF713FA2248AC
:1031200020490160A721C0E9011444F61F61C0E9EC
:103130000314FA21416180218161FFF75AFA08B135
:10314000FDF7B6FC0F940FA917481094FFF756F837
:1031500008B1FDF7ADFC6020089040F62410CDE9E1
:1031600009040B940C940D94082208A90E480E949F
:10317000FFF7D9F908B1FDF79BFC00944FF400501C
:10318000CDE90440029401940394694606480794EB
:10319000FFF70AF808B1FDF78BFC0348FFF798F931
:1031A00012B010BD00040140040E00200C4810B500
:1031B0000A4901604FF4E1314160002181600C2235
:1031C000C160C0E904128161C161FFF7D9FB002829
:1031D00003D0BDE81040FDF76BBC10BD004C0040B3
:1031E0004C0F00200C4810B50A4901604FF46121D2
:1031F0004160002181600C22C160C0E9041281613C
:10320000C161FFF7BDFB002803D0BDE81040FDF70A
:103210004FBC10BD00500040900F00200C4810B56E
:103220000A4901604FF4E1314160002181600C22C4
:10323000C160C0E904128161C161FFF7A1FB0028F0
:1032400003D0BDE81040FDF733BC10BD00100140B5
:10325000D40F00200E4810B50C4901600D494160A3
:103260004FF48051816000214FF48062C0E9031265
:103270000C22C0E90521C161FFF782FB002803D0C1
:10328000BDE81040FDF714BC10BD00000044004034
:1032900018100020A08601000C4810B50A490160F2
:1032A0004FF4E1314160002181600C22C160C0E92E
:1032B00004128161C161FFF763FB002803D0BDE800
:1032C0001040FDF7F5BB10BD004800405C10002029
:1032D000FEE7FEE74C480168491C01604B48007856
:1032E00003287CD100204A4B02469FED4A0A00BFCA
:1032F00000EBC00101EB001103EB8101401C81EDEB
:10330000070AA1F85C2081ED180A81ED140A81ED0D
:10331000130A40B281ED120A0428E9DB3E48454B0E
:10332000002180ED090A80ED020A80ED080A80ED97
:10333000060A80ED070A394880ED090A80ED000A87
:1033400080ED020A80ED080A80ED060A80ED070A8A
:103350003348A0F85C2080ED0E0A80ED070A80ED6E
:10336000180A80ED130A80ED120A2E4880ED090A32
:1033700080ED000A80ED020A80ED080A80ED060A61
:1033800080ED070A284880ED090A80ED000A80EDEB
:10339000020A80ED080A80ED060A80ED070A23483C
:1033A00080ED090A80ED000A80ED020A80ED080A2E
:1033B00080ED060A80ED070A1D4880ED090A80EDC0
:1033C000020A80ED070A80ED080A80ED000A80ED10
:1033D000060A00BF01EBC10000EB011000E011E0A4
:1033E00003EB8000491C80ED150AA0F85C2080EDFD
:1033F000080A80ED160A80ED140A49B280ED130A1E
:103400000229E7DB70470000700000200000002068
:10341000E008002000000000D80D0020AC0D0020C6
:10342000B40B0020800D0020540D0020280D00203A
:10343000FC0C0020180C00202DE9F0410024051D93
:10344000494EB0F8847027E0285DC0283BD012DCDC
:10345000A52829D008DC902822D0A02824D0A12893
:1034600022D0A22817D11FE0B02824D0B12822D022
:10347000B22810D11FE0D1286BD006DCC12822D0A1
:10348000C22820D0D02806D124E0D92855D0E02861
:1034900068D0F02866D0641CA742D5DCBDE8F08176
:1034A00068783070A41CF7E7281950F8011FB16044
:1034B0008088B0813FE0281950F8011FC6F80E102F
:1034C0008088708237E0281950F8011F7161808868
:1034D000308330E02819DFED250A4178827801EB4E
:1034E000022109B200EE101A2149B8EEC01A81EE8D
:1034F000200A81ED000AC2780379BDEEC00A02EB12
:10350000032212B201EE102AB8EEC11AC1EE201A3F
:10351000F2EE040AC1ED011A86ED010A42798079C2
:1035200002EB002000B200EE100AB8EEC00A80EEF6
:10353000201A81ED021AE41DAEE70D4829190C3856
:1035400051F8012FC2604A68026189680D344161F7
:10355000A2E70748291910220C30491CFCF77BFF11
:10356000113499E7641D97E7280000200000C84245
:103570002803002000B502F081F901F00BFAFDF7F5
:10358000F3FA5DF804EB01F041BA00002DE9F041D7
:10359000384C014620462778D0E903200623A61D93
:1035A0000025072F62D2DFE807F004081A1F272A38
:1035B00031005A295BD1012009E080F88810A52943
:1035C00004D0A62905D0A72951D105E002202070FA
:1035D0004DE0EAB3904749E00560237047E0A0F86A
:1035E0008410B1700320F2E730F8842F42EA012200
:1035F0000280F1700420EAE761800520E7E7628835
:1036000042EA012161800560A580E6E70368061DA6
:103610005F1C0760995590F88810A72907D10168A9
:10362000082904D30821A0F8841090472570206948
:10363000B0F884200168914219D390F88800A52839
:1036400015D10C490422891D881E01F03BF900E0C8
:103650000CE02169074804C9001D01F033F9A08876
:103660006188884202D1D4E9031088472570002080
:10367000BDE8F0814400002070B5044D0446E960C7
:103680008C21FCF75FFF2C6170BD0000440000201E
:103690001448154A017A1170144A417A1170418A0E
:1036A0004FF6FF72124802EAC133DB0B038002EAD5
:1036B0008133DB0B038102EA0133DB0B438102EA36
:1036C0004133DB0BC38002EA4123DB0B4380CB0990
:1036D000838002EAC123DB0B02EA81218381C90BCB
:1036E000C18170474C020020000000200100002032
:1036F000600200202DE9F043AC4E0020DFF8B092CC
:103700003178DFEDAC1AAC4D012913D0022970D10C
:103710003081F0809FEDA92A284629880089A84F8A
:10372000DFF8A0829FEDA81A06F1200401292BD012
:10373000F1B344E03169491C316128829E496882B5
:10374000E8821439A882B1F9020000EE100AB8EE3E
:10375000C01ADFED9E0A81EE200A20EE210ABDEE9E
:10376000C00A10EE100AF080B1F9000000EE100A55
:10377000B8EEC00A80EE201A21EE210ABDEEC00A82
:1037800010EE100A3081F1E094ED000A012830EECD
:10379000010A84ED000A12D130EE410A10EE100A3F
:1037A00084ED000AB8420ADA10EE100A404500E043
:1037B00003E004D284ED002A01E00028FAD0FFF7EC
:1037C0007DFB94ED000A60EE210AFDEEE00A10EEAA
:1037D000900A28822889DFED7E2A012806D130EE62
:1037E000410A84ED000A2988012903D02988F1B112
:1037F00020E0B9E0B5EEC00AF1EE10FA03DD30EEDC
:10380000410A84ED000A10EE100AB84203DA40457E
:1038100001D284ED002A94ED000AB5EEC00AF1EE63
:1038200010FA07D230EE220A84ED000A02E008B94D
:1038300084ED002AFFF742FB94ED000AB5F9101061
:1038400020EE210ABDEEC00A10EE100A01FA80F047
:1038500028826889012808D194ED010A30EE010A16
:1038600084ED010AE988012902D0E98879B110E0E4
:1038700030EE410A10EE100A84ED010AB84208DA6F
:1038800010EE100A404504D284ED012A01E0002820
:10389000FAD0FFF713FB94ED010AB5F9121060EEB0
:1038A000210AFDEEE00A10EE900A01FA80F068822B
:1038B000E888012806D130EE410A84ED010A6989C1
:1038C000012902D06989E9B11FE0B5EEC00AF1EE25
:1038D00010FA03DD30EE410A84ED010A10EE100A01
:1038E000B84203DA404501D284ED012A94ED010A81
:1038F000B5EEC00AF1EE10FA07D230EE220A84EDDE
:10390000010A02E008B984ED012AFFF7D7FA94ED25
:10391000010A20EE210ABDEEC00A10EE100A00B224
:1039200068823178012921D002291DD1B5F91030E2
:10393000191A00EE101AC2185442B8EEC00AC01A82
:1039400089ED070A00EE104AB8EEC00A89ED200A98
:1039500000EE100AB8EEC00A89ED390A00EE102A0E
:10396000B8EEC00A89ED520ABDE8F0837078B6F966
:103970000820B6F906300228F6D0981A00EE100A90
:10398000D1184C42B8EEC00AD21A89ED070A00EEEF
:10399000104AB8EEC00A89ED200A00EE102AB8EEEF
:1039A000C00A89ED390A00EE101AD9E7000000209C
:1039B000E008002000C0DA4560020020000000009E
:1039C000CDCCCC3DCDCCCCBD6F12833A000025448C
:1039D0006F12033B10B518480224002304601748F7
:1039E0009FED170A17494278012A03D0032A15D1FF
:1039F000C36110E0C269DFED140A521CC261012AE2
:103A00000DD08269012A0CD0022A07D14269012A0D
:103A10000ED0002A02D181ED070A836110BD012278
:103A20008261426922B1012AF8D181ED070A8461DD
:103A3000C1ED070A10BD0000640000200000002056
:103A400000000000B40B00200000FA4410B500286C
:103A500070D001880023C1F30A023749A2F58062C1
:103A60000A80121D092A00D20B8042788478D2087D
:103A700042EA4412C2F30A02A2F580624A80121D91
:103A8000092A00D24B808278C478920942EA8402E3
:103A9000047942EA8422C2F30A02A2F580628A8093
:103AA000121D092A00D28B8002794479520842EA19
:103AB000C412C2F30A02A2F58062CA80121D092A4A
:103AC00000D2CB80427992090A724379C3F3011381
:103AD0004B72C4884C8104898C814489CC81047BDD
:103AE0000C74447B4C74807B488214490A704B7080
:103AF00011494FF6FF7202EAC0331431DB0B0B8021
:103B000002EA8033DB0B0B8102EA0033DB0B4B81D3
:103B100002EA4033DB0BCB8002EA4023DB0B4B8015
:103B2000C3098B8002EAC023DB0B02EA80208B8171
:103B3000C00BC88110BD00004C0200200000002016
:103B400010B5502080F31188BFF34F8FBFF36F8FF4
:103B500001F0D2FF18B104494FF0805008600020F6
:103B600080F3118810BD000004ED00E030B593B083
:103B700030216846FCF7E6FC14210CA8FCF7E2FCB7
:103B80001E480025016841F080510160006800F086
:103B9000805011901A48016841F48041016000682A
:103BA000022400F480401190012000900004019054
:103BB0008001CDE90640192008904FF4A870CDE9A6
:103BC000090404200B906846FEF736F908B172B676
:103BD000FEE70CA90F2081E831004FF4A0500F90B0
:103BE0004FF48050109005210CA8FEF719F800281A
:103BF00001D072B6FEE713B030BD0000403802407D
:103C0000007000400248016841F470010160704793
:103C100088ED00E010B50448FEF7A7FBBDE81040B2
:103C20000248FEF7A2BB0000040E00202012002074
:103C3000F0B50268254C264D264E274F274B4FF0F6
:103C4000804CA04209D0604507D0A84205D0B042C0
:103C500003D0B84201D0984204D122F0700E4A68D5
:103C600042EA0E02A0421BD0604519D0A84217D0EC
:103C7000B04215D0B84213D0984211D0184DA84286
:103C80000ED0184DA8420BD0174DA84208D0174DA2
:103C9000A84205D0164DA84202D0164DA84203D125
:103CA00022F44075CA682A434D6922F080022A43F3
:103CB00002608A68C2620A688262A04201D09842A9
:103CC00001D10969016301214161F0BD000001409A
:103CD0000004004000080040000C004000040140C7
:103CE00000400140004401400048014000180040ED
:103CF000001C004000200040F0B5026A22F00102E2
:103D00000262036A42688469124E24F073050C68EB
:103D10002C4323F002058B682B430D4DA84201D0A4
:103D2000B04205D123F00807CB683B4323F00403DE
:103D3000A84201D0B04205D14D6922F4407215432A
:103D40008A692A4342608461496841630362F0BD25
:103D50000000014000040140F0B5026A22F01002A8
:103D60000262026A436884690D6824F4E64444EA06
:103D700005248D6822F0200242EA05120F4D104EF4
:103D8000A84201D0B04206D1CF6822F0800242EAB8
:103D9000071222F04002A84201D0B04207D14D697B
:103DA00023F4406343EA85038D6943EA8503436056
:103DB0008461496881630262F0BD00000000014037
:103DC00000040140F0B5026A22F480720262026AC5
:103DD0004368C46922F4007224F073050C68124E23
:103DE0002C438D6842EA05220E4DA84201D0B04214
:103DF00006D1CF6822F4006242EA072222F48062F0
:103E0000A84201D0B04207D14D6923F4405343EAA0
:103E100005138D6943EA05134360C4614968C163B2
:103E20000262F0BD000001400004014030B5026AAA
:103E300022F480520262046A4268C3690D6823F466
:103E4000E64343EA05238D6824F4005444EA05342C
:103E5000084DA84202D0084DA84204D14D6922F471
:103E6000804242EA85124260C3614968016404628B
:103E700030BD00000000014000040140074810B5BB
:103E800000680068C043C00602D4044800F0BEF8D1
:103E9000BDE810400148FEF73FBC00004C0F002079
:103EA0000148FEF739BC0000900F002010B5806B70
:103EB0000021C185C184FEF72DFC10BD70B5846B57
:103EC0002068406994F83D10C0F3C01000252129F6
:103ED00004D118B1E584204600F08AF820684069D2
:103EE00094F83E10C0F38010222904D118B1E58562
:103EF000204600F056F8206C40F010002064204668
:103F0000FEF708FC70BD10B50146806B09680968B2
:103F1000C9052FD40021C18501680C3151E8002F5B
:103F200022F4807241E80023002BF5D1016814319E
:103F300051E8002F22F0010241E80023002BF5D1C7
:103F40000168143151E8002F22F0400241E80023BB
:103F5000002BF5D1202180F83E10016B012909D1F9
:103F600001680C3151E8002F22F0100241E80023D3
:103F7000002BF5D1016B012902D0FEF7D1FE10BD57
:103F8000818DFEF78EFB10BD10B5806B016B012992
:103F900002D0FEF7F5FE10BD818D4908FEF781FBCA
:103FA00010BD01680C3151E8002F22F4907241E8F5
:103FB0000023002BF5D10168143151E8002F22F0C5
:103FC000010241E80023002BF5D1016B012909D141
:103FD00001680C3151E8002F22F0100241E8002363
:103FE000002BF5D1202180F83E100021016370479D
:103FF00001680C3151E8002F22F0C00241E8002393
:10400000002BF5D1202180F83D107047F8B51649F6
:10401000884227D1154CA068401CA0600868002584
:104020000168406800901048FEF73CFB10480068AB
:104030004068104EC0F1800081B26180207806EBAC
:10404000C01000F007FE207808B1257001E00120C3
:1040500020702078802206EBC011BDE8F8400248AD
:10406000FEF748BEF8BD00004C0F0020C80100203C
:10407000A01000204C0E002008B590F83E10222918
:1040800001D0022008BD82684FF480539A4201D1CA
:10409000016921B1816A9A421BD04AB10AE00268E3
:1040A000816A5268C2F308020A80816A891C08E0AA
:1040B000026972B10268526802F07F020A70816A76
:1040C000491C8162C18D491E0904090CC18503D0B8
:1040D00019E002685268F1E70168CA6822F020021C
:1040E000CA600168CA6822F48072CA6001684A69BD
:1040F00022F001024A61202180F83E10016B012963
:1041000003D0FEF70DFE002008BD00210163016809
:104110000C3151E8002F22F0100241E80023002B5F
:10412000F5D101680A68D20602D50A68496800918B
:10413000818DFEF7B6FAE6E770B5044600680169BE
:10414000E26821F44051114301612169A068E269EC
:1041500008436169114308432168CA6849F20C6346
:104160009A430243CA6020684169A26921F4407100
:104170001143416131492068884202D03049884268
:1041800002D1FDF717FE01E0FDF704FEE26900230E
:10419000192164253226B2F5004F626828D0A0FBB1
:1041A0000101930F9200FCF7DFF80146B0FBF5F038
:1041B0006FF01802504301EB800006EB0010B0FBDB
:1041C000F5F000F0F002B1FBF5F002EB0012B1FBEC
:1041D000F5F06FF01803584301EB800006EB001078
:1041E000B0FBF5F000F00F0021681044886070BD4E
:1041F000A0FB010192185B41FCF7B6F80146B0FB49
:10420000F5F00201B1FBF5F06FF01803584301EB34
:10421000800006EBC000B0FBF5F000F0F80002EB08
:104220004002B1FBF5F0584301EB800006EBC00003
:10423000B0FBF5F000F00700D6E7000000100140E9
:104240000014014038B5816282850025134604467A
:104250000564222084F83E00A26B1C48D063A26B48
:104260001B481064A26B1B48D064A06B0A4605650E
:104270002168A06B091DFDF7E5FA20680168406818
:10428000009084F83C50206948B120680C3050E818
:10429000001F41F4807140E80012002AF5D1206827
:1042A000143050E8001F41F0010140E80012002ADC
:1042B000F5D12068143050E8001F41F0400140E87B
:1042C0000012002AF5D1002038BD0000073F000889
:1042D000893F0008BD3E00082DE9F0419846174689
:1042E0000E460446069D27E0681C25D02DB1FDF73B
:1042F000D9FBA0EB0800A8421ED920680C3050E87A
:10430000001F21F4D07140E80012002AF5D1206886
:10431000143050E8001F21F0010140E80012002A8B
:10432000F5D1202084F83D0084F83E00002084F878
:104330003C000320BDE8F0812068006836EA0000F8
:1043400004D00020B842CFD00020F3E70120F9E7E5
:10435000074810B500680068C043C00602D404488E
:10436000FFF754FEBDE810400148FEF7D5B9000044
:10437000D40F0020044882B00068016840680090B3
:10438000014802B0FEF7C8B918100020FEE700008F
:1043900007480068C16841F01001C160064905483E
:1043A0008022097800EBC1110148FEF7A3BC000090
:1043B0004C0F00204C0E0020C801002041000802D4
:1043C00018BF04200A0E18BF40F001004FF07F42D2
:1043D00032EA010108BF40F00200012808BF0520B1
:1043E00070470907090E002804DB00F1E02080F87F
:1043F0000014704700F00F0000F1E02080F8141D59
:104400007047000010EE101A08B5444A6846B2EB37
:10441000410F28D94FF0E640B0EB410F94BF002088
:104420004FF0FF3000900098002861DB60EE000A3A
:1044300010F0010F45D010F0020FDFED391A9FED9B
:10444000391A00EEE11ADFED381A40EE811A21EE3A
:10445000A01AF0EE400A40EE010A08BFF1EE600A31
:10446000B0EE600A08BD314B21F0004293423CD9C6
:1044700011F0004FDFED2E0A20EE201ADFED2D0A9D
:1044800019BF31EE601A71EE200A31EE201A71EE7A
:10449000600ABDEEE01A11EE100A9FED271A00F037
:1044A000030000EEC10A9FED251A009000EEC10A3C
:1044B0009FED231A00EEC10A9FED221A00EEC10AF9
:1044C000B1E79FED211A9FED210A10F0020F00EED7
:1044D000810A9FED1F1A00EE801AB7EE000A00EE67
:1044E000810A18BFB1EE400A08BD00F00FF99AE743
:1044F00010EE100A4000B0F17F4F3CBFB7EE000A4B
:1045000008BD07D14FF00100FCF74BF8BDE80840AB
:1045100000F0ECB8BDE8084000F0E4B8B61F927EA9
:10452000336D4C39DA82083CA0AA2ABE490E4946AE
:1045300083F9223F0000004B0000C93F00A0FD3975
:104540000020A2331A61342CB93AB2BACA9F2A3D6C
:10455000DDFFFFBE00B510EE101A2DED028B81B00D
:10456000524A6846B2EB410F2ED94FF0E640B0EB0D
:10457000410F94BF00204FF0FF3000900098B0EE44
:10458000408A00286ADB10F0010F4BD068EE080A61
:104590009FED471A9FED470A00EE810A9FED461AEC
:1045A00010F0020F00EE801AB7EE000A00EE810A4A
:1045B00002BF01B0BDEC028B00BD00BF01B0B1EE87
:1045C000400ABDEC028B00BD3C4B21F000429342FF
:1045D00041D911F0004FDFED3A0A20EE201ADFED4D
:1045E000390A19BF31EE601A71EE200A31EE201A35
:1045F00071EE600ABDEEE01A11EE100A9FED321A5C
:1046000000F0030000EEC10A9FED301A009000EEAA
:10461000C10A9FED2F1A00EEC10A9FED2E1A00EE7F
:10462000C10AABE728EE080A9FED2B1ADFED2B0A33
:1046300010F0020F40EE410A9FED291A00EE201AF9
:1046400061EE000AB0EE480A08EE200AB6D101B0C9
:10465000BDEC028B00BD00F059F88FE718EE100A90
:104660004000B0F17F4F0DD218EE100AFFF7A6FE02
:10467000042808BF00F042F8B0EE480A01B0BDECD3
:10468000028B00BD09D10120FBF78BFF01B0BDEC0F
:10469000028B5DF804EB00F029B801B0B0EE480AD7
:1046A000BDEC028B5DF804EB00F01CB8B61F927EE7
:1046B000B93AB2BACA9F2A3DDDFFFFBE490E49464C
:1046C00083F9223F0000004B0000C93F00A0FD39E4
:1046D0000020A2331A61342C336D4C39DA82083C45
:1046E000A0AA2ABE30EE000A70470000DFED020AE1
:1046F00080EEA00A70470000000000009FED020A53
:1047000020EE000A70470000000000102DE9F001C3
:104710004FF07F42B2EB410F9FBF4FF0FF3101607E
:10472000BDE8F00170474FF0004242EA0123C1F3B7
:10473000C752783A551112F01F0C434CCCF12006A9
:104740007C44C1F3C752A2F178024FEA621204EB33
:10475000820254F8254008BFD2E9015612D05568AC
:1047600004FA0CF425FA06F73C43976805FA0CF5B1
:1047700027FA06F8D26807FA0CFCF24045EA080569
:104780004CEA0206A4FB034CA5FB0352A6FB036301
:104790001D449D4234BF012600261319334416B12F
:1047A000934202D903E0934201D2012200E00022A9
:1047B000624402F1200C9206DC0C42EA443200EE24
:1047C000102A5B03DFED210AF8EEC01A00EE103A62
:1047D0004FEA9C1C11F0004FB8EE400AC0F800C030
:1047E00020EE201A00EE105ADFED190AB8EE400A4A
:1047F00020EE200A71EE810A70EE800A10EE902AF7
:1048000002F500626FF30B0200EE902A70EEE11ADF
:1048100031EEC11ADFED101A30EE411A9FED0D0A8C
:1048200020EE800A01EE210A9FED0C1A00EE810AAB
:1048300004BFBDE8F0017047CCF180510160BDE8D4
:10484000F001B1EE400A7047281900000000003660
:104850000000802C22AAFD29DB0FC92F0000C92FE0
:1048600001F044F906498860FEF734FDFBF726FFA6
:10487000FBF756FF02480521083000F013FFF3E76D
:104880005001002001F032F907490860FEF700FFEF
:10489000FEF730FFFCF70EF9FBF744FF0221024858
:1048A00000F000FFF2E700005001002001F01EF9C7
:1048B0000349086102486421103000F0F3FEF9E773
:1048C00050010020F0B50388002541F221070CE0DB
:1048D0004C5D002683EA04235C001B0400D57C4069
:1048E000761C2346082EF7D36D1C9542F0D3038027
:1048F000F0BD000002490220C8600248FEF79DBAE0
:1049000058000020B40B00200F489FED0E0AF2EE75
:104910000E0A80ED000A80ED010AC0ED030ADFED0A
:104920000B0A0321C0ED040A80ED050A80ED020A9E
:1049300080ED090A816280ED080A80ED060A80EDAB
:10494000070A704700000000AC0D00209A99993EBC
:104950000E489FED0D0ADFED0E0A80ED000A80ED96
:10496000010AC0ED030A80ED040A80ED050A80ED1E
:10497000090A80ED020A80ED080A80ED060A80ED42
:10498000070A03218162704700000000D80D002053
:104990009A99A940184800B59FED161AB1EE020A7F
:1049A00080ED071A80ED0E1A80ED0F0A9FED130AB5
:1049B000032180ED100A80ED110A80ED121A80EDBE
:1049C000141A80ED131A80ED181A0D4880ED001AA4
:1049D00080ED021A81620B4880ED001A80ED021A08
:1049E0008162FFF791FFFFF7B3FF074880ED061ADA
:1049F00000BD000000000000B40B00208FC2753C19
:104A0000AC0D0020D80D0020E00C00201949F1EE7B
:104A1000040A9FED190AC1ED0F0A81ED100A9FEDFE
:104A2000170A002281ED110AC1ED280ADFED140AF0
:104A30004FEA0203C1ED290A81ED2A0A02EBC20006
:104A400000EB021001EB8000521C80ED160A80ED95
:104A50000E0A80ED070A80ED120A80ED130A80ED40
:104A6000140A80ED150A80ED180AA0F85C30022ABD
:104A7000E4DB7047180C002096438B3C00000000DC
:104A80000AD7A33C90ED000A80ED040A0A8852BAC6
:104A900012B200EE102AB8EEC00A80ED000A4A8871
:104AA00052BA00EE102AB8EE400A80ED010A8A8858
:104AB00052BA00EE102AB8EE400A80ED020A897957
:104AC00000EE101AB8EE400A80ED030A704790ED30
:104AD000000A80ED040A0A8852BA12B200EE102AC7
:104AE000B8EEC00A80ED000A4A8852BA00EE102AD9
:104AF000B8EE400A80ED010A8A8852BA00EE102A08
:104B0000B8EE400A80ED020A897900EE101AB8EE7C
:104B1000400A80ED030A70470D489FED0C0ADFED57
:104B20000D0A80ED000A80ED010AC0ED030AF6EEE1
:104B3000080AC0ED040A80ED050A80ED020A80ED46
:104B4000080A80ED060A80ED070A704700000000A1
:104B5000280D00200000DC420E489FED0D0AF2EE09
:104B6000040A80ED000A80ED010AC0ED030A80ED21
:104B7000040A80ED050A80ED020A80ED080A80ED46
:104B8000060A80ED070A0021816280ED090A70475C
:104B900000000000800D002000B5FFF7BDFF5DF8AC
:104BA00004EBFFF7D9BF00000D489FED0C0ADFEDC5
:104BB0000D0A80ED000A80ED010AC0ED030ADFED69
:104BC0000A0AC0ED040A80ED050A80ED020A80EDB4
:104BD000080A80ED060A80ED070A70470000000011
:104BE000FC0C00200000DC426666263F0E489FED6C
:104BF0000D0AF2EE040A80ED000A80ED010AC0ED14
:104C0000030A80ED040A80ED050A80ED020A80EDBA
:104C1000080A80ED060A80ED070A0121816280ED15
:104C2000090A704700000000540D002000B5FFF78E
:104C3000BBFF5DF804EBFFF7D9BF000010B50349D7
:104C40000348FEF719FD002010BD000039340008AC
:104C50009C0200202DE9F05FDFF8D0A1724E002504
:104C60000AF10E090446A6F11108A9F10A0BCF1E9C
:104C7000D4E02078A5283ED10521204600F0EAFBAB
:104C8000002879D0A0783060617841EA0021316055
:104C9000A079B0606279093142EA0020B0606348CF
:104CA0001438C160204600F0B7FB002864D020789B
:104CB00040F20221401C2070B068A0F2022288421B
:104CC0005BD009DC03280ED0A0F58070013813D02A
:104CD000B0F5807F0FD11DE0042A71D0052A7AD06B
:104CE000062A08D18EE05048B4F811104C380180E3
:104CF000B4F8211001828AE0E079A17A227A40EAB0
:104D00000160617A090441EA022108434749091F09
:104D100008607CE0444A14F8070F2C3A1070607861
:104D2000507060885080A0889080E079A179084315
:104D30000002D0802089108160895081607B217BB6
:104D4000084300029081E089D081208A1082608A25
:104D50005082A08A9082E08AD082208B1083A17E2C
:104D6000907E4B0861F30000890863F3410061F312
:104D700082009076E41F4AE04BE0B4F80700A8F800
:104D80000000B4F80900A8F802004146002550468A
:104D90006219D27A42556D1C042DF9DBDAF8000055
:104DA0004860B4F80F000881B4F811004881B4F8E5
:104DB00013008881B4F81500C88128E000E00AE0FB
:104DC0001A49E0790F390A7860F30302000960F3A9
:104DD00007120A701BE0E07989F80000207A89F850
:104DE0000100607A89F80200494600255846621998
:104DF000927A42556D1C042DF9DBDBF80000C9F8EE
:104E0000030004E00949B4F8070008310880641C75
:104E100003E02078401C04F8010B6D1CBD42FFF636
:104E200028AFBDE8F09F0000E804002090000020BB
:104E3000FCF746FEFEF79AFEFEF726F9FEF7A4F809
:104E4000FEF75AF8FEF77CF8FEF704FAFEF7CAF907
:104E5000FEF758F9FEF720FAFEF7A8F9FEF7DEF99B
:104E6000FBF708FCFBF738FCFEF784FBFFF790FA32
:104E7000FFF7E4FE01220B490B48FDF73BFF12222E
:104E80000A490B48FDF736FF0B490A48802209788A
:104E900000EBC1110948FDF72DFFFEF7ABF800F05C
:104EA00015F8FEE7C9010020900F002078020020CD
:104EB000181000204C0E0020C80100204C0F0020CC
:104EC0000021842800D0C11C0846704710B500F0AE
:104ED00037FC002010BD30B585B004460D46616931
:104EE000B4F90800002910D0A16971B1FFF7E8FFFB
:104EF0006269A1690192029100902B4622692168A2
:104F0000606800F0C3FD049010E0FFF7D9FF04A92A
:104F100001910090208A2B4682B22168606800F0DF
:104F20007FFD012802D005B0002030BD049805B0F7
:104F300030BD00002DE9F04104460F46194EF568DA
:104F40003068001D00F0E0FA48B93068012190F89F
:104F50002C0001FA00F0316921EA00003061B4F15F
:104F6000FF3F07D137B13068BDE8F041011D0E4861
:104F700000F011BB2C4430684460AC4206D230686B
:104F8000011DB06BBDE8F04100F0EABA3068011DC8
:104F9000706B00F0E5FAB06A844200D2B462BDE8FA
:104FA000F0810000E40100204413002070B50446A5
:104FB00000F0FEFA1C4DA868401CA860286810B1DB
:104FC000686938B10CE02C60A868012808D100F0AD
:104FD000EDF805E02868E16AC06A884200D82C60D4
:104FE000686A401C6862E06A01212A6981401143B5
:104FF00029610E4900EB800001EB8000211D00F0CB
:10500000CAFA00F0F5FA686900280CD02868E16A4D
:10501000C06A884207D206494FF080500860BFF34B
:105020004F8FBFF36F8F70BDE40100206812002026
:1050300004ED00E070B50D4C6068002815D00C4EF2
:1050400000F0B6FAF068C568281D00F05DFAA068A7
:10505000401EA0606068401E606000F0C9FA2846EB
:1050600000F008F860680028EAD170BDE401002073
:105070003013002010B5044694F8511000290BD0CD
:10508000012911D0022914D0502080F31188BFF3D8
:105090004F8FBFF36F8FFEE7206B00F0BFFA204603
:1050A000BDE8104000F0BABA2046BDE8104000F05C
:1050B000B5BA10BD4FF47051104810F0070F06D06C
:1050C000C01D20F007000D49411AC1F570510C4A6E
:1050D0001060002353600144083921F00701183A99
:1050E00011604B600B600B1A436001604068906078
:1050F00050604FF00040506170470000581300208E
:1051000038020020074E4FF08054074DFFF792FF02
:1051100030680128FAD92C60BFF34F8FBFF36F8F2F
:10512000F4E700006812002004ED00E02DE9F047EC
:105130008146099E089D0A9C9A46521E206B00EBF0
:10514000820020F00708002700290CD00020231837
:105150000A5C83F834200A5C12B1401C1028F6D394
:1051600084F8437001E084F83470072D00D30625DD
:10517000E5626564A764201D00F0EFF904F11800F2
:1051800000F0EBF92461C5F10700A0616462E764F7
:1051900084F8507052464946404600F003F92060BA
:1051A000002E00D03460BDE8F087000070B5002408
:1051B0000F4D04EB840005EB800000F0C3F9641C84
:1051C000072CF6D30B4800F0BDF90B4800F0BAF9F4
:1051D0000A4800F0B7F90A4800F0B4F9094800F0AD
:1051E000B1F90948034941631431816370BD00007E
:1051F00068120020F4120020081300201C13002065
:105200003013002044130020E401002010B414499E
:1052100000E011460A688242FBD34B6803EB010CA5
:10522000844503D140681844486008460C68D0F8AB
:1052300004C00CEB0003A3420CD10A4B1B689A423A
:1052400006D05268624442600A681268026002E056
:10525000036000E00260814200D0086010BC70472B
:1052600038020020200200200749486B006800280F
:1052700005D0486BC068C0684068886270474FF0CE
:10528000FF30886270470000E40100200A4840684F
:10529000B0F1FF3F07D0502080F31188BFF34F8F4C
:1052A000BFF36F8FFEE7502080F31188BFF34F8F5D
:1052B000BFF36F8FFEE70000400200202DE9F041B0
:1052C0000546002600F080FA344F386808B9FFF729
:1052D000F1FE7869054251D19DB1083515F0070FEF
:1052E0000FD005F00700C0F10800054415F0070FC6
:1052F00007D0502080F31188BFF34F8FBFF36F8F1B
:10530000FEE7002D3AD07868854237D82449084610
:10531000046801E0214604466068A84202D2206881
:105320000028F7D13868844228D0086800F10806C0
:10533000206808606068411B10290FD9601910F0BF
:10534000070F07D0502080F31188BFF34F8FBFF3B2
:105350006F8FFEE741606560FFF758FF616878680E
:10536000401A7860BA68904200D2B8607869084301
:10537000606000202060F868401CF86000F026FCA7
:1053800016F0070F07D0502080F31188BFF34F8F1E
:10539000BFF36F8FFEE73046BDE8F08120020020AA
:1053A00038020020001F4FF080730360001F21F0BF
:1053B00001010160001F0549016014380260001FEF
:1053C0006FF0020101602038704700008D52000824
:1053D00010B560B1084C491E89B20BD310F8013BDF
:1053E0005340DBB234F8133083EA1222F3E74FF66E
:1053F000FF7010BD104610BDA25D000810B5054C31
:1054000004E000BF10F8013B5340E25C491EF9D2B2
:10541000104610BDA25C000830B50C46050013D044
:10542000022C11D9A01E81B2094802882846FFF734
:10543000CFFF2919C2B211F8023C9A4206D111F8E5
:10544000011CB1EB102F01D1012030BD002030BD77
:105450001E01002030B50C4605000CD0022C0AD9E4
:10546000FF22611EFFF7CAFF291911F8011C8142B2
:1054700001D1012030BD002030BD0000FEB58020EC
:105480008DF804007F208DF808000020164D8DF85F
:105490000000064685EC050A002405EB860739194D
:1054A000102301221148FDF76DFC641C042CF6DB6F
:1054B000761C052EF0DB1023012269460B48FDF710
:1054C00061FC1023012269460848FDF75BFC1023AC
:1054D000012201A90548FDF755FC1023012202A96C
:1054E0000248FDF74FFCFEBD440300205C10002085
:1054F00000F0FCFA0349486102486421143000F0CE
:10550000D1F8F9E7500100200169436882689A6088
:10551000836842685A604A68824201D182684A6060
:10552000002202610868401E086008687047000099
:10553000034B036003F15400086080201060704743
:105540008C06002000F1080141604FF0FF328260BC
:10555000C160016100210160704700210161704755
:1055600010B4D1F800C0BCF1FF3F02D000F1080236
:1055700002E0026904E01A4653681C686445FAD9DF
:1055800053684B6099608A60516008610168491CEA
:10559000016010BC704742684A6093688B609368F2
:1055A0005960916008610168491C01607047000002
:1055B000502080F31188BFF34F8FBFF36F8F0A49DC
:1055C0004868401C486001280CD10848006810F069
:1055D000FF0F07D0502080F31188BFF34F8FBFF328
:1055E0006F8FFEE7704700004002002004ED00E0EE
:1055F00009494868002806D0401E4860002801D1AB
:1056000080F311887047502080F31188BFF34F8FCB
:10561000BFF36F8FFEE700004002002070B5002846
:105620002AD0A0F10804154D60686969084207D1C5
:10563000502080F31188BFF34F8FBFF36F8FFEE7C9
:1056400022683AB1502080F31188BFF34F8FBFF327
:105650006F8FFEE78843606000F0B6F860686968A5
:10566000084468602046FFF7D1FD2869401C286186
:10567000BDE8704000F0AABA70BD00002002002012
:105680004FF0E02000210161816105494FF47A72F9
:105690000968B1FBF2F1491E4161072101617047C0
:1056A000E001002070B504460D460023002C0BD00D
:1056B00095B1214A106BB8B1502080F31188BFF327
:1056C0004F8FBFF36F8FFEE7502080F31188BFF339
:1056D0004F8FBFF36F8FFEE7502080F31188BFF329
:1056E0004F8FBFF36F8FFEE700F06EF8D268D4F8EB
:1056F00000C00CEB0501944505D98C4508D99142B1
:1057000006D9012304E08C4501D8914200D9012338
:1057100021601BB1881A0021FFF70CFC00F056FA3B
:10572000002807D105494FF080500860BFF34F8F24
:10573000BFF36F8F70BD0000E401002004ED00E0B6
:1057400010B586B000240594049403AA04A905A802
:10575000FFF7EEFE05980499019102900023009452
:1057600015A11748039A00F091F91649C86208B1CB
:10577000012000E0002001280AD0B0F1FF3F19D13C
:10578000502080F31188BFF34F8FBFF36F8FFEE778
:10579000502080F31188BFF34F8FBFF36F8F4FF00E
:1057A000FF30886201204861CC6006B0BDE810403F
:1057B00000F0B4B806B010BD49444C4500000000EC
:1057C00005510008E40100200248016B491C0163F7
:1057D00070470000E4010020154A106B002802D039
:1057E0000120D06170470020D0611069B0FA80F0CC
:1057F000C0F11F000F4900EB800051F8203073B159
:1058000001EB800041684968416000F1080399425A
:1058100001D1496841604068C068106070475020FD
:1058200080F31188BFF34F8FBFF36F8FFEE7000047
:10583000E4010020681200202DED028B00F056F9E3
:105840000B490C4C9FED0C8AC1F80C00D4ED520AA8
:10585000B0EE481A94ED590AB0EE412AF0EE411A22
:10586000FFF70CFE024805210C30FFF71BFFEDE7A8
:1058700050010020E0080020000000002148B2EEA6
:10588000050A9FED211A80ED0F0ADFED200A80ED59
:10589000101AC0ED110ADFED1E1A80ED280AC0EDC6
:1058A000291AC0ED2A0A80ED410A80ED421AC0EDA6
:1058B000430A80ED5A0A9FED170A002280ED5B0A29
:1058C0009FED150AC0ED5C0A002300BF02EBC20188
:1058D00001EB021100EB8101521C81ED160A81EDF2
:1058E0000E0A81ED070A81ED120A81ED130A81ED9E
:1058F000140A81ED150A81ED180AA1F85C30042A1A
:10590000E4DB7047E0080020C3F5A83E0AD7233C3B
:105910003333B33E5C8FC23E0000000010B582B04E
:1059200038480168384A914207D1502080F31188E5
:10593000BFF34F8FBFF36F8FFEE700683349884294
:1059400007D1502080F31188BFF34F8FBFF36F8FC3
:10595000FEE72F4908780190FF2008700878009032
:105960009DF800009DF8002000F0F000904207D064
:10597000502080F31188BFF34F8FBFF36F8FFEE786
:105980009DF80000234C00F0500020700720A0601C
:105990009DF8000010F0800F0BD0A068401EA060A2
:1059A0009DF80000400000909DF8000010F0800F6E
:1059B000F3D1A068032807D0502080F31188BFF3EB
:1059C0004F8FBFF36F8FFEE74FF44070A0600198D8
:1059D00008701148016841F470010160016841F0EC
:1059E00070410160FFF74CFE00206060FAF760FC38
:1059F0000A48016841F040410160FAF745FC02B0F5
:105A0000002010BD00ED00E071C20F4170C20F41D7
:105A100000E400E04002002020ED00E034EF00E070
:105A20002DE9F04F85B081460F9F0E9E8A46904625
:105A30009B464FEA8800FFF741FC054628000AD044
:105A40005420FFF73BFC04460CB1256304E02846D4
:105A5000FFF7E4FD00E000249CB1002084F8510031
:105A600003905B4642465146019700960294484691
:105A7000FFF75CFB2046FFF799FA05B00120BDE86F
:105A8000F08F05B04FF0FF30BDE8F08F70B586B0F5
:105A90000646DDF828C00C9C0B98002816D0ECB107
:105AA000542504952063022084F85100002005ADA0
:105AB0000390CDF800C0019502943046FFF736FB05
:105AC0002046FFF773FA059806B070BD502080F3AA
:105AD0001188BFF34F8FBFF36F8FFEE7502080F325
