:020000040800F2
:10000000405E002029030008A34000088136000854
:10001000A1400008B10600083D4E000800000000A5
:10002000000000000000000000000000690200085D
:10003000F111000800000000C5020008ED450008AD
:100040004303000843030008430300084303000878
:100050004303000843030008430300084303000868
:100060004303000843030008430300081D11000870
:100070004303000829110008430300084303000854
:100080003511000843030008430300084303000838
:1000900079070008430300084303000843030008EE
:1000A0004303000843030008430300084303000818
:1000B0004303000843030008430300084303000808
:1000C00043030008430300084303000843030008F8
:1000D00043030008014E0008254E000843030008B2
:1000E00043030008430300084303000843030008D8
:1000F00043030008C1460008430300084303000807
:1001000043030008430300084303000843030008B7
:100110002949000835490008430300084303000843
:10012000430300084303000841110008430300088B
:100130004303000800000000000000004303000823
:10014000DD070008430300084303000843030008D9
:100150004303000843030008430300084303000867
:100160004303000843030008430300084303000857
:1001700043030008430300080000000000000000E3
:10018000430300084303000800F002F800F05CF8A5
:100190000AA090E8000C82448344AAF10107DA45E2
:1001A00001D100F051F8AFF2090EBAE80F0013F0D8
:1001B000010F18BFFB1A43F001031847807D0000B0
:1001C000A07D00000A444FF0000C10F8013B13F032
:1001D000070408BF10F8014B1D1108BF10F8015BA0
:1001E000641E05D010F8016B641E01F8016BF9D193
:1001F00013F0080F1EBF10F8014BAD1C0C1B09D1EA
:100200006D1E58BF01F801CBFAD505E014F8016B5B
:1002100001F8016B6D1EF9D59142D6D370470000ED
:100220000023002400250026103A28BF78C1FBD8FF
:10023000520728BF30C148BF0B6070471FB507F099
:10024000C8FB1FBD10B510BD00F0D8F91146FFF76F
:10025000F5FF05F01FFF00F0F6F903B4FFF7F2FF1A
:1002600003BC00F0F9F900002C4B19680868B0E8ED
:10027000F04F80F30988BFF36F8F4FF0000080F3D9
:10028000118870470000000008480068006880F38B
:1002900008884FF0000080F3148862B661B6BFF39F
:1002A0004F8FBFF36F8F00DF00BF00BF08ED00E08E
:1002B000DFF80C00016841F470010160704700BF75
:1002C00088ED00E0EFF30980BFF36F8F134B1A68DE
:1002D0001EF0100F08BF20ED108A20E9F04F1060CB
:1002E00009B44FF0500080F31188BFF34F8FBFF374
:1002F0006F8F06F01BFC4FF0000080F3118809BCE3
:1003000019680868B0E8F04F1EF0100F08BFB0EC95
:10031000108A80F30988BFF36F8F7047A80100200F
:10032000EFF30580704700000948804709480047FF
:10033000FEE7FEE7FEE7FEE7FEE7FEE7FEE7FEE795
:10034000FEE7FEE704480549054A064B70470000F2
:10035000B146000889010008404E0020405E0020A0
:10036000405600204056002053EA020C00F06980FD
:100370002DE9F04B4FF00006002B1FBFB3FA83F5B9
:1003800003FA05F424FA05F65E4012BF1643B2FAEA
:1003900082F502FA05F4C5F120051EBF22FA05FC1C
:1003A00044EA0C04203556EA044C4FEA144418BFC2
:1003B000641C4FF000084FF00009904271EB030CF1
:1003C00039D3002919BFB1FA81F701FA07F6B0FA5B
:1003D00080F700FA07F6C7F120071EBF20FA07FCD6
:1003E00046EA0C062037B6FBF4FCA7EB0507103FE6
:1003F00007F01F0BCBF120060CFA0BFB2CFA06F6CC
:1004000044BFB3460026202FA4BF5E464FF0000B2A
:100410005BEA060C08BF4FF0010B19EB0B09ABFBB5
:10042000027C48EB0608C01B06FB02CC0BFB03CC8E
:1004300071EB0C01C1E70B46024641464846BDE858
:10044000F08B13B54FF000004FF00001AFF30080C8
:10045000BDE81C40704710B5431C02E010F8011BBA
:1004600071B18107FAD14FF0013202C88C1A8C4366
:1004700014EAC211F9D0C01A0A0603D0C01E10BD7A
:10048000C01A10BD0A0401D0801E10BD0902FCD0A4
:10049000401E10BD032A40F2308010F0030C00F023
:1004A000158011F8013BBCF1020F624498BF11F8AE
:1004B00001CB00F8013B38BF11F8013BA2F1040267
:1004C00098BF00F801CB38BF00F8013B11F00303DF
:1004D00000F02580083AC0F0088051F8043B083A43
:1004E00051F804CBA0E80810F5E7121D5CBF51F8E5
:1004F000043B40F8043BAFF30080D20724BF11F85F
:10050000013B11F801CB48BF11F8012B24BF00F8C3
:10051000013B00F801CB48BF00F8012B704710B534
:10052000203AC0F00B80B1E81850203AA0E81850EB
:10053000B1E81850A0E81850BFF4F5AF5FEA027CAC
:1005400024BFB1E81850A0E8185044BF18C918C01B
:10055000BDE810405FEA827C24BF51F8043B40F8BC
:10056000043B08BF7047D20728BF31F8023B48BFA1
:1005700011F8012B28BF20F8023B48BF00F8012BDF
:1005800070474FF0000200B5134694469646203956
:1005900022BFA0E80C50A0E80C50B1F12001BFF43C
:1005A000F7AF090728BFA0E80C5048BF0CC05DF8A2
:1005B00004EB890028BF40F8042B08BF704748BFF0
:1005C00020F8022B11F0804F18BF00F8012B704764
:1005D00070477047704710B500F008F8006810BD0C
:1005E00010B5044600F002F8046010BD00487047E2
:1005F000E04D002000487047E04D00207546FFF7B1
:10060000F9FFAE4605006946534620F007008546CF
:1006100018B020B5FFF796FEBDE820404FF0000669
:100620004FF000074FF000084FF0000B21F00701DA
:10063000AC46ACE8C009ACE8C009ACE8C009ACE81D
:10064000C0098D46704710B50446AFF300802046C0
:10065000BDE81040FFF701BE01491820ABBEFEE720
:10066000260002007047000030B50C4605000CD093
:10067000022C0AD90548A11E0288284600F042FE35
:10068000291901F8020D000A487030BD5C000020F5
:1006900030B50C4605000AD0022C08D9601E81B284
:1006A000FF22284600F044FE291901F8010C30BD54
:1006B000FEE7000030B587B04FF4007400940024CA
:1006C00003940294082404940A4C050A257060706F
:1006D000080AA070E170100A20716271180AA071F6
:1006E000E371012322466946034800F0ABFE07B0E0
:1006F00030BD0000400100205009002000B587B047
:1007000040F233310822009104920021094A0391FA
:10071000030A0291137050709170D1701171517170
:100720009171D17101236946034800F08BFE07B037
:1007300000BD0000600100205009002000B58BB012
:100740000020012103900490CDE90601CDE90810B5
:1007500005900090019002906946064800F0E0FE86
:10076000044801F0FBFA0221024800F059FE0BB0E8
:1007700000BD000050090020014800F0CCBF00007F
:10078000500900200548B0F98831B0F92421B0F9AA
:10079000C010B0F95C00FFF78DBF0000E806002034
:1007A00000B58BB00E20059000200121039004902D
:1007B000CDE90601CDE9081000900190029069464C
:1007C000054800F0ADFE044801F0C8FA02210248D5
:1007D00000F026FE0BB000BD78090020014800F0B3
:1007E0009ABF0000780900202DE9F05F0CACDDE92C
:1007F0000A9794E86004DDE90F8B002411F804C027
:1008000000F804C0641CE4B2032CF7D310F8031FF3
:1008100062F3020141F038010170018863F389112C
:1008200020F8011B10F8012B69F3850200F8012C58
:1008300030F8011C67F38E1120F8011C30F8021B00
:1008400065F3CF1120F8021C018866F3090120F836
:10085000011B02886AF38C0220F8012B132230F866
:10086000061B044668F34F1120F8061C0449FFF7E5
:1008700011FE2A4659462046BDE8F05FFFF70ABE42
:10088000DB0000202DE9F04FE64EDFF89CB387B087
:10089000307840F22A3702074FF005044FF019056F
:1008A0004FF001094CD0B04600F00F00022601289D
:1008B0005FD040F2BD6A022879D0032872D0DFF8F9
:1008C000648304286FD005286ED006286DD0474673
:1008D00007286BD0D54907F109024FF4E177097871
:1008E0003031C9B2082878D0092877D00A2876D0C4
:1008F000C1460B2874D04FF407770C2871D04E46B0
:100900000D286FD00E2818D100F022FD08F10D003F
:10091000FFF7A1FD08F10D01CDE90571CDE9034A0D
:1009200098F80110CDE90015029000230222C0A121
:100930005846FFF759FF0020307007B0BDE8F08F30
:10094000B8483430FFF787FD40F28C51CDE90341C0
:10095000B44ACDF800903432CDE90572CDE90150AA
:100960004C4600230122B4A15846FFF73DFF3470E6
:10097000E3E7AC48401DFFF76EFD40F2A46200962D
:10098000CDE90342A7490023491DCDE90571CDE911
:1009900001500122A9A15846FFF726FF88F8006000
:1009A000CBE704E01FE038E05FE075E08DE09D48B4
:1009B000C01DFFF750FD9B490DF10809C91DCDE988
:1009C000057189E81104CDE90065002301229CA18D
:1009D0005846FFF709FF03211CE08FE0A6E0BDE0C9
:1009E000D5E0EBE003E18F48C01CFFF734FD40F297
:1009F000D662CDF80090CDE903428A490023C91C94
:100A0000CDE90571CDE9015001228EA15846FFF7CD
:100A1000EBFE042188F800108FE700F0B9FCDFF846
:100A2000049209F1050999F80000362803D800213D
:100A300088F8011001E088F801607A48401DFFF74E
:100A40000AFD04A940F2A462039481E8840298F8A4
:100A50000110CDE9001502900023022277A158462B
:100A6000FFF7C2FE6F48047067E76E48C01DFFF7CE
:100A7000F2FC6C490023C91DCDE90571CDE9034A9B
:100A800098F80110CDE90015029002226CA1584699
:100A9000FFF7AAFE062115E062482D30FFF7DBFCC8
:100AA0003222CDF80090CDE903425E4900232D317A
:100AB000CDE90571CDE90150012263A15846FFF748
:100AC00093FE07215748017037E756482830FFF753
:100AD000C2FC4FF434723C235249CDE90432283130
:100AE0000691CDE90204CDE900950023012257A12A
:100AF0005846FFF779FE082038701EE749489046AF
:100B000011700930FFF7A7FC0DF1100940F21542F2
:100B100089E88401CDE90204CDE9006500230122C2
:100B20004BA15846FFF760FE0921CBE73D489046B0
:100B300011700930FFF78FFC0DF1100940F21542DA
:100B400089E88401CDE90204CDE900650023022291
:100B50003FA15846FFF748FE0A21B3E731480F305E
:100B6000FFF779FC40F2762340F28C512D4ACDE913
:100B700004130F320692CDE90204CDE9009500235B
:100B8000012234A15846FFF72FFE0B219AE7254892
:100B90000B30FFF760FC40F254620096CDE903424F
:100BA000204900230B31CDE90571CDE90150012227
:100BB00029A15846FFF718FE0C2115E019480D3001
:100BC000FFF749FC174A00960D32CDE9057240F255
:100BD0005461CDE90341CDE901500023012214A164
:100BE0005846FFF701FE0D2189F80010A5E600F038
:100BF000AFFB0C480B30FFF72EFC0A4940F29A621B
:100C00000B31CDE90571CDE9034298F80110CDE92A
:100C100000150290002302220FA15846FFF7E4FDC1
:100C20000E2089E69C00002045040020F4000020EE
:100C3000434C313000000000434C3100434C320043
:100C4000434C3300434C3400434C3500434C360096
:100C5000434C3700434C3800434C390000B50E4834
:100C600002F00FFD0C48643002F00BFD0A48C8305A
:100C700002F007FD094802F004FD07480849B0F8F2
:100C80005C200A80B0F8C0204A80B0F824218A8015
:100C9000B0F88801C88000BDE806002014080020D4
:100CA0005400002070B506463F48404C0D46D0ED3C
:100CB000000A94ED010AF4EEC00AF1EE10FA03D234
:100CC0009FED3B1A70EE810A30EEC00ADFED390A63
:100CD00084ED0B0A20EE200ADFED370A84ED0C0AC2
:100CE00020EE200A84ED0A0A04F092FA00EE906ADF
:100CF000F8EEE00A20EE200A84ED060A94ED0A0AD6
:100D000004F07AF900EE906AF8EEE00A20EE200A8C
:100D100084ED070A94ED0A0A04F07AFA00EE905A7C
:100D2000F8EEE00A20EE200A84ED080A94ED0A0AA3
:100D300004F062F900EE905A2048F8EEE00A60EE06
:100D4000200AC4ED090A94ED050A94ED083AD4EDA1
:100D5000063AB8EEC01AF8EEC01AB8EEC02AF8EE9D
:100D6000C02A94ED070A73EEE00A30EE033AB1EEC2
:100D7000430A70EE603AB1EE400A30EE600A31EE9E
:100D8000231A80ED071A30EEC31A32EE800A31EED4
:100D9000811A80ED201A30EE831A32EE011A80EDAE
:100DA000391A80ED520A70BD7808002060000020DA
:100DB00000F8FF45A005343DA7E78E3CE80600207B
:100DC00070B51A4CA520194D04F8010B3320208072
:100DD0000020643DA070686E286095F86800287156
:100DE00005212846FFF754FC40F20130A0804FF463
:100DF0008870E0800E4890F84A102181B0F8AE006B
:100E00006081FFF73FFD34F8042B2146681D921CDA
:100E1000FFF740FB3C212846FFF726FC2946BDE8AA
:100E2000704050233C22034802F0D0BB380400201D
:100E300020030020180E002070B51B4CA5201A4D71
:100E400004F8010B152020800020A070A03D05F1C2
:100E50008000016A296090F8240028710521284645
:100E6000FFF716FC40F20130A08040F20110E08054
:100E70000E4890F84A102181B0F8AE00608102F06F
:100E8000AFFC34F8042B2146681D921CFFF702FBCF
:100E90001E212846FFF7E8FB2946BDE87040502395
:100EA0001E22034802F092BB74040020200300209D
:100EB000180E00202DE9F04188462DED028B0646E4
:100EC0009FED850A854D8648864C85ED070A85EDA0
:100ED000200A85ED390A85ED520A90ED001AD4ED0D
:100EE000010A814970EEC10A10EE900AC4ED0D0AA4
:100EF000DFED7E1A884202DD70EEE10A06E010EEB8
:100F0000900A7B49884203D970EEA10AC4ED0D0A0C
:100F1000F0EE601A9FED772A7749C1EE820A10EE53
:100F2000900AC4ED0E0A884208DC10EE900A73495C
:100F3000884203D8F0EE400AC4ED0E0A10EE900A83
:100F40006F49884203DDF0EE080AC4ED0E0A10EE88
:100F5000900A10F17F5F03D9F8EE080AC4ED0E0A7B
:100F6000F0EE601ADFED670A11EE100A664901EE35
:100F7000E00A85ED070A85ED200A85ED390A85ED41
:100F8000520A9FED620A884206DADFED610A71EECD
:100F9000200A30EEC00A01E031EE400A84ED0B0A6F
:100FA000DFED5C0A20EE200A84ED0C0ADFED5A0A20
:100FB00020EE200A84ED0A0A10EE100A06F098FCD2
:100FC00041EC100B04F0C0F8B0EE408AF0EE608AFD
:100FD000304606F06EFA0F4647EC110B064653EC0E
:100FE000182B51EC110B06F08FFA06F001F8A061F6
:100FF000A06A06F07DFC41EC100B03F099FF47EC72
:10100000116B53EC102B51EC110B06F07DFA05F02F
:10101000EFFFE061A06A06F06BFC41EC100B04F0FE
:1010200093F8B0EE408AF0EE608A404606F041FA4E
:101030000F4647EC110B064653EC182B51EC110BE5
:1010400006F062FA05F0D4FF2062A06A06F050FCB8
:1010500041EC100B03F06CFF47EC116B53EC102BC1
:1010600051EC110B06F050FA05F0C2FF00EE900AA9
:10107000C4ED090A94ED070A94ED081A70EE011AFE
:1010800094ED061A71EE600AB1EE610A95ED071A49
:1010900030EE602AB1EE400A30EE600A31EE021AFC
:1010A00085ED071A30EEE11A95ED202A32EE011A8D
:1010B00085ED201A30EEA11A95ED392A32EE011A8B
:1010C00085ED391A95ED521A31EE000A85ED520A76
:1010D000BDEC028BBDE8F08100000000E8060020B6
:1010E000780800206000002000F07F4500000046E6
:1010F00000F07FC500001644B81E853EB81E85BEB0
:10110000000040400000964400E0A64400E0A644F1
:1011100000F8FF45A005343DA7E78E3C014800F0EC
:10112000ABBE0000880F0020014800F0A5BE000003
:10113000280F0020014800F09FBE0000481000204A
:10114000014800F099BE0000E80F00200168182354
:10115000CAB2103AB2FBF3F2054B6FF30901032A4E
:101160009B5CC36500D9091D816508467047000076
:10117000907D000810B5014600208B698A6A4FF007
:10118000C07453B1B3F5005F15D072B1012A0CD011
:10119000022A0AD0032A09D104E01AB1012A06D092
:1011A000022A03D1C96AC90100D5012010BDC96A4C
:1011B000A142FAD010BD002AF7D0012AF2D0022AAB
:1011C000F3D0032AF3D010BD30B50468256825F4A8
:1011D00080252560046863608368402B036803D022
:1011E00099600068C26030BD9A600068C16030BD1F
:1011F000704772B6FEE7000070B53A4C20780128BF
:101200000FD13948394902783948B1F90010012A1B
:10121000B0F9000010D0032A0ED0022A61D1FFF7E6
:1012200041FD207802285CD1324A012300215488F4
:101230003148012C03D004E0FFF73CFEF1E795882C
:1012400025B19588012D07D06DB110E0D48974B90E
:10125000C0E9033101701AE04CB9D4893CB9C0E946
:10126000031301701CE014B9D489012C03D0C468A5
:10127000012C04D005E0C1600161037011E0056933
:101280001DB10569012D08D00BE003784BB99FED26
:101290001B0A816080ED010A03E014B9047804B9E7
:1012A0008360D0E90334234302D10378012B03D0B8
:1012B000806801280DD004E09FED110A816080ED67
:1012C000010AB2F91410B2F91600BDE87040FFF738
:1012D000F1BDB2F91410B2F91600BDE87040FFF785
:1012E000E1BC70BD000000200100002006000020CD
:1012F00008000020240200206000002000E0A64436
:1013000000C0104510B558B1084C491E0BD310F859
:10131000013B5340DBB234F8133083EA1222F4E786
:101320004FF6FF7010BD104610BD0000E67A0008B1
:1013300010B5064C04E000BF10F8013B5340E25CDE
:10134000491E89B2F8D2104610BD0000E6790008A7
:101350000D4810B501884FF47A70B1FBF0F2D2B2AB
:101360000A23B2FBF3F403FB1422084B30321A7049
:10137000B1FBF0F200FB12106421B0FBF1F0991CFC
:101380003030087010BD000028010020A7000020A8
:101390001148642190ED020ABCEEC00A10EE100A5A
:1013A00080B2484345F60431B0FBF1F00B493030D0
:1013B000087010EE100A642180B2484340F61A11FA
:1013C000B0FBF1F00A21B0FBF1F201FB120003497E
:1013D000891C303008707047DC080020A100002014
:1013E00005F01CFD0C4D0D4C68612868401C286000
:1013F00094ED592AD4ED401A94ED391AD4ED270A08
:1014000094ED0E0A05F02AF902F04CFE0248022182
:10141000143005F0F1FAE8E7F0000020E8060020BB
:1014200090F82020012A07D0022A05D0416A41F411
:101430008021416201207047006842690A4342618D
:1014400000207047F0B590F820500468A468012D82
:1014500005D0022D03D0416A41F480215DE014F0F3
:10146000406F01D1E50055D5C4F30164022C03D9C6
:10147000416A41F4000150E00125A5401D608D68DE
:101480004FF4C0739DB1CE6835434E6845EAC6053A
:10149000066803EB0417F5514FF4C275076805EBB6
:1014A00004150E697E51097D012905D009E00E88D9
:1014B000CD6845EA4655EBE701684E5946F480761B
:1014C0004E511179D579567941EA056195792D0406
:1014D00045EA062529434FF4C676056806EB04164F
:1014E000A9511178D57841EA0561957852782D0493
:1014F00045EA022211434FF4C475026805EB041556
:101500005151006803EB0411425842F0010242506D
:101510000020F0BD416A41F4001141620120F0BD9C
:1015200010B590F82020012A07D0022A05D0416A80
:1015300041F480214162012010BD3B48D0F80022D7
:1015400042F00102C0F80022D0F8002222F47C52BE
:10155000C0F80022D0F800224B6A42EA0322C0F809
:1015600000220A7D02F01F0301229A40D0F81C32AB
:101570009343C0F81C32CB69B3B9D0F80C32934313
:10158000C0F80C328C894B6864F31F434C6900EB44
:10159000C404C4F840320C890B6864F31F434C69DF
:1015A00000EBC404C4F84432CB69012B16D1D0F847
:1015B0000C321343C0F80C320C884B6864F31F43A1
:1015C0004C6900EBC404C4F840320C89CB6864F366
:1015D0001F434C6900EBC404C4F844328B69002BF0
:1015E000D0F804320ED01343C0F804320B69002B3C
:1015F000D0F8143208D01343C0F81432096A012914
:1016000004D008E09343EFE79343F5E7D0F81C12CA
:101610001143C0F81C12D0F8001221F00101C0F8EB
:101620000012002010BD000000640040704730B57B
:1016300090F82040012C05D0022C03D0416A41F4DF
:1016400080215DE00468002955D02469A40754D0A6
:101650004FF4D874056804EB01142D5915F00405F6
:10166000956005682D594ED0ED08556005682C59D8
:1016700004F00204D4604FF4DA74056804EB01143A
:101680002D5905F00F05156105682D59C5F307257E
:10169000956105682C59240C54614FF4DC72046880
:1016A00002EB0112A4581C700468A458240A5C7050
:1016B0000468A458240C9C700468A258120EDA70B6
:1016C0004FF4DE72046802EB0112A4581C71046826
:1016D000A458240A5C710468A458240C9C71046802
:1016E000A258120EDA71006881B1016941F020013F
:1016F0000161002030BDE468A8E7416A41F40011AF
:101700004162012030BD6D0D1560AFE7C16841F049
:101710002001C160EDE72DE9F05F05460068002477
:101720004669D0F804908768D0F80CB0D0F810A0C3
:10173000D0F81880F10748D0F90714D00121816052
:10174000B80703D5284600F036FB0CE0780702D531
:101750004FF4006407E0380702D54FF4805402E0EC
:10176000284600F027FBF80516D529684FF480704D
:101770008860B80503D5284600F01FFB0CE078050B
:1017800002D544F4005407E0380502D544F48044FF
:1017900002E0284600F010FBF80316D529684FF444
:1017A00080308860B80303D5284600F008FB0CE0C1
:1017B000780302D544F4004407E0380302D544F42A
:1017C000803402E0284600F0F9FA300707D55FEAD6
:1017D000CB6004D52968102044F40074C8607007F9
:1017E0004FF0080707D55FEA0B7004D52868C7607B
:1017F000284600F09BF9B00706D52868C068800726
:1018000002D0284600F094F9700607D55FEACA6056
:1018100004D52968102044F480640861B00607D517
:101820005FEA0A7004D528680761284600F092FA3A
:10183000F00606D528680069800702D0284600F027
:101840008AFAB00308D55FEAC96005D52968102077
:101850004860284600F080FAF00307D55FEA097077
:1018600004D528684760284600F0AAFA300446D517
:101870005FEA497040D5F00504D55FEAC87001D031
:1018800044F00104B00504D55FEA887001D544F046
:101890000204700504D55FEA487001D544F00404E1
:1018A000300529D518F0700F26D008F070004028B8
:1018B00015D006DC102809D020280AD0302816D1EF
:1018C0000AE050280ED0602811D10EE044F0080440
:1018D0000DE044F010040AE044F0200407E044F076
:1018E000400404E044F0800401E044F4807428687B
:1018F000816921F070018161296804204860002C11
:1019000005D0686A204368622846FFF78FFEBDE86D
:10191000F09F70B5040003D094F8200010B104E0EB
:10192000012070BD204600F081F82068016841F078
:101930000101016000F00AFD0546052604E000F003
:1019400005FD401B0A2811D820684068C007F6D062
:101950002068016821F00201016000F0F7FC0546F3
:101960000BE000F0F3FC401B0A2806D9606A40F443
:101970000030606284F82060D2E720684068800709
:10198000EFD4207E0128206801683DD021F080013D
:101990000160607E01282068016838D021F0400194
:1019A0000160A07E01282068016833D021F0200169
:1019B0000160E07E0128206801682ED041F010010E
:1019C0000160207F01282068016829D021F00801EA
:1019D0000160607F01282068016824D021F00401A3
:1019E0000160D4E902010843D4E904121143084319
:1019F0006168491E08432168C861002060620120B7
:101A000084F82000002070BD41F08001C0E741F063
:101A10004001C5E741F02001CAE721F01001CFE7FE
:101A200041F00801D4E741F00401D9E7F0B587B0EF
:101A3000044614216846FEF7A4FD374B3748DFF80B
:101A4000D4E05968D4F800C0344A02250326092797
:101A500010300024491CF44524D15960012907D1D4
:101A6000016841F000710160006800F000700590AD
:101A7000106840F001001060106802AB00F0010037
:101A800005904FF4C050CDE9000583E8D0006946C9
:101A9000234800F063FB00220721142000F0E2FC41
:101AA000142033E0DFF87CE0F44531D1D0F800C0F9
:101AB0004CF0806CC0F800C0D0F800C001290CF0D8
:101AC000806CCDF814C0596007D1016841F00071F5
:101AD0000160006800F000700590106840F002009E
:101AE0001060106802AB00F0020005904FF4405007
:101AF000CDE9000583E8D00069460B4800F02EFBD5
:101B000000220621402000F0ADFC402000F09CFCAB
:101B100007B0F0BD006400402801002030380240CA
:101B200000000240006800400004024070470000CE
:101B30002DE9F041064600688049814C814D88427C
:101B40003DD105F5A27204F150030021A2F16C0011
:101B5000FFF76DFD05F5A27004F15003006803F175
:101B60000801A5F5C877B0F5017F45D008DCA0F5E0
:101B7000007001380DD0012822D002287FD12DE03D
:101B8000A0F50070053845D0A0F58060613876D1A9
:101B900051E06C48883004F07DF9188840BA00B2F2
:101BA00000EE100AB8EEC00A87ED000A588840BA65
:101BB00000B200EE100AB8EEC00A87ED0E0A5EE031
:101BC00060489C3004F066F9588840BA00B200EED4
:101BD000100AB8EEC00A87ED270A50E05948B03025
:101BE00004F058F9588840BA00B200EE100AB8EE76
:101BF000C00A87ED400A42E05248C43004F04AF976
:101C0000588840BA00B200EE100AB8EEC00A87ED5C
:101C1000590A34E0A068401CA0604A48743004F0BF
:101C200014F9188840BA00B200EE100AB8EEC00AE3
:101C300085ED000A23E0188840BA00B200EE100AD1
:101C40004048B8EEC00A643080ED000A598849BAAD
:101C500009B200EE101AB8EEC00A80ED010A9988A8
:101C600049BA09B200EE101AB8EEC00A80ED020AB5
:101C7000997900EE101AB8EE400A80ED030A324955
:101C8000306888422BD12E4B304A58330021A2F1C4
:101C90002800FFF7CCFC2D48294902685831A2F5ED
:101CA0000072053A1DD02A48A2F50072733A25D079
:101CB000B2F5E57F38D0B2F5347F10D1E268521C1E
:101CC000E2600A7802724A7842728A780274CA78AC
:101CD00022618A8852BA0280C98849BA4180BDE827
:101CE000F081A068401CA060088840BA00B200EEF5
:101CF000100AB8EEC00A85ED000AF0E70A8852BA69
:101D000012B200EE102AB8EEC00ABCEEC00A10EE05
:101D1000102A42824A8852BA42818A8852BA828004
:101D2000C98849BAC180DAE70A786261B1F801204E
:101D300052BA2280C9784174D1E7000000640040A3
:101D4000280100207808002000680040A009002039
:101D500010020020704770477047000070B50446BD
:101D600090F82000012804D0606A40F400206062EE
:101D700018E0022084F820002068016821F00101A9
:101D8000016000F0E3FA05460EE000BF00F0DEFA65
:101D9000401B0A2808D9606A40F4003060620520C0
:101DA00084F82000012070BD20684068C007EDD194
:101DB000606270BD704770477047704770477047EA
:101DC00070472DE9F0410446876D00F0BFFA0646E2
:101DD00094F835000025022806D08020606584F83C
:101DE00034500120BDE8F0812068016821F016011F
:101DF00001602068416921F080014161206C08B9CF
:101E0000A06C20B12068016821F008010160206801
:101E1000016821F0010101600CE000F097FA801BDD
:101E2000052807D920206065032084F8350084F850
:101E30003450D7E720680068C007EED194F85C10F2
:101E40003F208840B860012084F8350084F8345081
:101E50000020C7E790F83510022903D080214165A2
:101E600001207047052180F835100068016821F0D5
:101E700001010160002070472DE9F84304464FF04E
:101E80000009CDF8009063484FF41651A56D006825
:101E9000B0FBF1F72E6894F85C10082000FA01F10D
:101EA00031420FD021680A6852070BD50A6822F028
:101EB00004020A6094F85C108840A860606D40F0ED
:101EC0000100606594F85C104FF0010808FA01F019
:101ED000304208D021684969090604D5A860606DC0
:101EE00040F00200606594F85C10042088403042A5
:101EF00008D021680968890704D5A860606D40F0A2
:101F00000400606594F85C1010208840304218D0BE
:101F100021680968090714D5A86020680168490389
:101F200004D50068000308D5A16C07E00168C90565
:101F300003D4016821F008010160216C09B1204639
:101F4000884794F85C1020208840304231D02168C6
:101F50000968C9062DD5A86094F8350005282068C1
:101F6000016806D0490347D5006800031DD4616CA1
:101F70001CE021F0160101602068416921F0800118
:101F80004161206C08B9A06C20B12068016821F083
:101F90000801016094F85C103F208840A86084F834
:101FA000358084F83490216D1FE0E16B09B1204643
:101FB0008847606D00282BD0606DC00714D00520C5
:101FC00084F835002068016821F001010160009863
:101FD000401C0090B84203D820680068C007F6D1C2
:101FE00084F8358084F83490E16C002910D001B079
:101FF0002046BDE8F04308470168C905D5D401680B
:1020000021F01001016084F8358084F83490CCE729
:10201000BDE8F883A40100202DE9F041044600F05A
:1020200095F906465CB1022084F83500002584F855
:1020300034502068016821F0010101600DE00120A9
:10204000BDE8F08100F082F9801B052805D9202029
:102050006065032084F83500F2E720680068C00757
:10206000F0D12268116820480140D4E901031843E7
:10207000D4E903363343184363691843A36918430B
:10208000E3691843236A18430843616A042903D1AA
:10209000D4E90B1319430843106020684069666A4D
:1020A00020F0070130460E43012704280CD1A06A16
:1020B0000643E06A40B12046FFF75CF820B14020BB
:1020C000606584F83570BAE7206846612046FFF7FE
:1020D0003DF894F85C203F2191408160656584F86B
:1020E00035700020ACE700003F8010F02DE9F04192
:1020F0000446866D90F83400002501280DD001209B
:1021000084F8340094F835700020012F07D084F84B
:10211000340002252846BDE8F0810220FBE70227B3
:1021200084F8357060652046FFF74EF894F85C102F
:102130003F208840B0602068016841F016010160CE
:10214000206C20B12068016841F00801016020681E
:10215000016841F001010160DCE700002DE9F84F62
:10216000DFF8BCA10022012503264FF00F090AF178
:10217000040BAAF1040E00BF0B6805FA02F4234019
:10218000A34270D10F7907F00307012F01D0022F6E
:1021900016D187684FEA420806FA08FC27EA0C07BE
:1021A000D1F80CC00CFA08FC4CEA070CC0F808C0C7
:1021B0004768A7430C79C4F3001494403C4344603F
:1021C0000C79E443A4070AD0C4684FEA420C06FA2B
:1021D0000CF7BC438F6807FA0CF72743C7600C79EC
:1021E00004F00304022C12D1D40800EB840CDCF8B8
:1021F00020405707FF0E09FA07F824EA0804D1F82F
:10220000108008FA07F848EA0408CCF8208004682F
:102210004FEA420C06FA0CF7BC430F7907F00307AC
:1022200007FA0CF7274307604C6814F4403F70D05E
:102230003C4C276847F480472760246822F0030756
:1022400004F480440094384C07EB040CDCF8084894
:1022500097074FEA177809FA08F7BC43334FB8429B
:1022600002D1002724E054E0314FB84201D10127C8
:102270001EE0304FB84201D1022719E02E4FB8427C
:1022800001D1032714E02D4FB84201D104270FE0FC
:102290002B4FB84201D105270AE02A4FB84201D19D
:1022A000062705E0284FB84201D1072700E008279C
:1022B00007FA08F72743CCF80878DAF800405746C1
:1022C000D1F804C09C435FEACC2C00D51C433C6091
:1022D000DBF800405F46D1F804C09C435FEA8C2CD9
:1022E00000D51C433C60DEF800407746D1F804C0BE
:1022F0009C435FEA8C3C00D51C433C60084F083F80
:102300003C68D1F804C09C435FEACC3C00D51C4338
:102310003C60521C102AFFF42FAFBDE8F88F00007C
:10232000083C0140443802400030014000000240B7
:102330000004024000080240000C0240001002406D
:102340000014024000180240001C0240014880684E
:10235000704700009801002002488168027811440B
:1023600081607047980100200B4810B5016841F466
:1023700000710160016841F480610160016841F40D
:1023800080710160032000F08DF80F2000F006F846
:1023900000F03EF8002010BD003C024010B50146A0
:1023A00088B000222D2000F05DF82D2000F04CF8C0
:1023B00013480024016841F480710160006805A998
:1023C00000F480700690684600F018F900F036F9C5
:1023D0000C494000B0FBF1F10C480B4A491E026069
:1023E00040F2E732C0E90324C0E9011400F0A2FB87
:1023F00010B1012008B010BD044800F0C9FBF9E796
:102400004038024040420F0000200040A810002049
:102410000C4882B0016841F480410160006800F41A
:10242000804000900748001F016841F08051016022
:102430000068002200F0805000900F21901E02B032
:1024400000F010B844380240002809DB00F01F02F9
:10245000012191404009800000F1E020C0F8001106
:1024600070470000F0B40E4B1B680C46C3F3022308
:10247000C3F10705042D00D90425191D072901D230
:10248000002300E0DB1E012606FA05F1491E21406B
:1024900099409E40761E16403143F0BC02F038BD94
:1024A0000CED00E0064900F0070208684FF6FF0354
:1024B000184040EA0220034A1043086070470000B9
:1024C0000CED00E00000FA052DE9F0470E4605008E
:1024D00065D0DFF81481D8F80000F7B200F00700EB
:1024E000B04207D288F80070D8F8000000F007006A
:1024F000B04254D128683D4C810712D5400703D51E
:10250000206840F4E05020602878000703D5206858
:1025100040F4604020602068A96820F0F000084383
:1025200020602878C0072DD0304968680839012814
:1025300012D0022813D0032811D009688907002976
:102540002DDA216821F0030101432160FFF7FEFE2F
:10255000814641F2883A0EE009688903EFE709688D
:102560008901ECE7FFF7F2FEA0EB0901514502D922
:102570000320BDE8F0872068696800F00C00B0EB2C
:10258000810FEFD1D8F80010404601F00701B142A9
:1025900007D90770006800F00700B04201D00120A1
:1025A000E7E72878400705D52068E96820F4E0507F
:1025B000084320602878000706D52068296920F4A0
:1025C000604040EAC100206000F058F82168084AE5
:1025D000C1F30311515CC840064908600648006811
:1025E000FFF7DCFE0020C4E7003C02400838024050
:1025F000987D0008A40100209C0100200F220260A9
:102600000C4A136803F003034360136803F0F003FC
:102610008360136803F4E053C36012684FF4E0531F
:1026200003EAD20202610448006800F00700086073
:102630007047000008380240003C02400448054949
:1026400000680968044AC1F38221515CC8407047A0
:10265000A401002008380240A87D0008044805496C
:1026600000680968044AC1F34231515CC8407047B0
:10267000A401002008380240A87D0008154810B5C4
:10268000006810F00C02144813D01449042A0FD02B
:10269000082A0ED10F4C241F2268236802F03F0243
:1026A0005B0207D52068C0F38810A0FB010106E09B
:1026B000084610BD2168C1F38811A1FB0001002369
:1026C000FDF752FE2168C1F30141491C4900B0FBEE
:1026D000F1F010BD083802400024F40040787D017C
:1026E0002DE9F84F04006ED02078DFF84C93C00736
:1026F000A9F104054AD009F104000168C1F3810180
:10270000012908D00068C0F3810002280AD1D9F855
:102710000000400206D52868800337D5606800288D
:10272000E1D033E06068B0F5803F10D0B0F5A02F65
:10273000286810D020F480302860286820F4802099
:1027400028606068A8B1FFF701FE06460DE0286822
:1027500040F48030F4E740F480202860F7E700BFC1
:10276000FFF7F4FD801B642873D828688003F7D531
:102770000CE0FFF7EBFD064605E000BFFFF7E6FDC6
:10278000801B6428F0D828688003F7D42078DFF80D
:10279000AC8280074FF0000A3ED5A748001D0168B3
:1027A00011F00C0F08D00068C0F3810002280BD193
:1027B000D9F80000400207D42868800716D5E068E1
:1027C000012800D112E033E1E068B8B10120C8F877
:1027D0000000FFF7BBFD064605E000BFFFF7B6FDB2
:1027E000801B0228C0D828688007F7D5286821698F
:1027F00020F0F80040EAC10028600DE0C8F800A011
:10280000FFF7A4FD064604E0FFF7A0FD801B0228A9
:102810001FD828688007F7D42078000722D5864F74
:1028200087486169703771B101210160FFF78EFD42
:10283000064604E0FFF78AFD801B022809D83868A5
:102840008007F7D50EE0C0F800A0FFF77FFD064631
:1028500005E082E0FFF77AFD801B02287DD838680A
:102860008007F7D42078400768D5DFF8CCB100277F
:102870000BF13C0BDBF80000C0000BD4DBF80010C0
:1028800041F08051CBF80010DBF80000012700F088
:10289000805000906B4E3068C00510D4306840F412
:1028A00080703060FFF752FD009005E0FFF74EFDAD
:1028B0000099401A022850D83068C005F6D55E4EFF
:1028C000A0686C3601280FD00528306810D020F0A1
:1028D00001003060306820F004003060A068B8B1BA
:1028E000FFF734FD00900FE0306840F00100F4E79E
:1028F00040F004003060F7E7FFF728FD0099411A27
:1029000041F28830814266D830688007F4D50EE005
:10291000FFF71CFD009007E0FFF718FD0099411A32
:1029200041F28830814256D830688007F4D42FB104
:10293000DBF8001021F08051CBF80010A069C8B37B
:102940003D49091D0968C1F3810102294AD00228C5
:10295000504607D0C8F8600000E03CE0FFF7F6FC06
:1029600004463BE04746C8F86000FFF7EFFC064628
:1029700005E000BFFFF7EAFC801B02282BD828687F
:102980008001F7D4D4E907010843A16A2E4A490817
:1029900002EB0141626A41EA8211084394F82C106B
:1029A00040EA0161C9F8001001203866FFF7CEFC4B
:1029B000044606E03EE000BFFFF7C8FC001B02280B
:1029C00009D828688001F7D534E000BFFFF7BEFCC6
:1029D000001B022802D90320BDE8F88F2868800177
:1029E000F4D427E00128F7D0D9F80000E26900F418
:1029F000800191421CD1226A00F03F01914217D11F
:102A000047F6C071626A0140B1EB821F10D1A26A21
:102A10004FF0FF3300F4403103EB5202B1EB024FB1
:102A200006D194F82C1000F07060B0EB016F01D06B
:102A30000120D1E70020CFE70438024000004742E0
:102A4000800E4742007000400000FFFF7047704753
:102A500010B590F83C20012A22D0012280F83C20B9
:102A6000CA688C6822F4407222434C6822F4806267
:102A700022430C6822F4006222430C6922F4805243
:102A800022434C6922F400522243C969002322F4F4
:102A900080420A4301684A6480F83C30002010BD3F
:102AA000022010BD70B590F83C20012A32D00124DC
:102AB00080F83C40022280F83D2003685A689D68F7
:102AC00022F070060A6832435A60134B02689A4239
:102AD00014D0B2F1804F11D0104B9A420ED0104B4F
:102AE0009A420BD00F4B9A4208D00F4B9A4205D016
:102AF0000E4B9A4202D00E4B9A4204D1496825F0FF
:102B000080031943916080F83D40002180F83C101B
:102B1000084670BD022070BD000001400004004066
:102B200000080040000C004000040140004001404B
:102B30000018004010B5040003D094F83D0010B117
:102B400007E0012010BD002084F83C00204600F082
:102B50001EF8022084F83D00211D206801F0BEFD12
:102B6000012084F8460084F83E0084F83F0084F891
:102B7000400084F8410084F8420084F8430084F85F
:102B8000440084F8450084F83D00002010BD7047E3
:102B900090F83D10012901D001207047022180F8F2
:102BA0003D100168CA6842F00102CA60006811491C
:102BB000884214D0B0F1804F11D00F4988420ED016
:102BC0000E4988420BD00E49884208D00D498842F0
:102BD00005D00D49884202D00C49884204D1816851
:102BE00001F00701062903D0016841F001010160ED
:102BF0000020704700000140000400400008004031
:102C0000000C00400004014000400140001800405A
:102C1000704770B50446006801694FF00005C9436C
:102C2000890715D4C168C943890711D4E91E016118
:102C300001202077206880698007204602D0FFF7B6
:102C4000E7FF04E000F0C2F8204600F071F92577B4
:102C500020680169C943490717D4C168C9434907B6
:102C600013D46FF00401016102202077206880698D
:102C700010F4407F204602D0FFF7CAFF04E000F0C6
:102C8000A5F8204600F054F9257720680169C9436A
:102C9000090716D4C168C943090712D46FF00801A7
:102CA0000161042020772068C0698007204602D097
:102CB000FFF7AEFF04E000F089F8204600F038F995
:102CC000257720680169C943C90617D4C168C9437B
:102CD000C90613D46FF01001016108202077206825
:102CE000C06910F4407F204602D0FFF791FF04E056
:102CF00000F06CF8204600F01BF925772068016988
:102D0000C943C90708D1C168C943C90704D1891E8D
:102D10000161204600F00EF920680169C9430906E7
:102D200009D4C168C943090605D46FF08001016167
:102D30002046FFF78BFE20680169C943490609D484
:102D4000C168C943490605D46FF0400101612046BE
:102D500000F0FAF820680169C94389060BD4C168FC
:102D6000C943890607D46FF0200101612046BDE800
:102D70007040FFF76CBE70BD10B586B004461421DC
:102D80006846FDF7FEFB0E492068884216D10D48C3
:102D90000021026842F004020260006800F00400B2
:102DA00005904FF4807000900220CDE901010320CE
:102DB000CDE9031069460448FFF7D0F906B010BD0D
:102DC000000401403038024000080240704770B5EE
:102DD000044690F83C0000260D4601280FD0012043
:102DE00084F83C006AB1042A1DD0082A2FD00C2A8E
:102DF0003FD00126002084F83C00304670BD022000
:102E000070BD206801F0CEFC2068816941F00801A6
:102E100081612068816921F00401816120688169F4
:102E20002A69114311E0206801F0ECFC20688169F7
:102E300041F4006181612068816921F480618161D0
:102E4000206881692A6941EA02218161D2E720680C
:102E500001F00EFD2068C16941F00801C1612068E0
:102E6000C16921F00401C1612068C1692A69114367
:102E700011E0206801F030FD2068C16941F4006173
:102E8000C1612068C16921F48061C1612068C169A4
:102E90002A6941EA0221C161ACE710B5040003D000
:102EA00094F83D0010B107E0012010BD002084F827
:102EB0003C00204600F01EF8022084F83D00211D51
:102EC000206801F00BFC012084F8460084F83E00E5
:102ED00084F83F0084F8400084F8410084F8420000
:102EE00084F8430084F8440084F8450084F83D00E9
:102EF000002010BD08B500680B49884212D10B486C
:102F0000016841F0020101600068002200F0020047
:102F100000900F212D20FFF7A5FABDE808402D20D5
:102F2000FFF792BA08BD0000000401404438024097
:102F30007047000000680349884201D1FFF70CBACE
:102F400070470000002000407047704710B50446ED
:102F50000068406994F83D10C0F3C010212911D1D8
:102F600080B12068143050E8001F21F0800140E853
:102F70000012002AF5D1606B08B1FEF722FF20464F
:102F800001F086FD2068406994F83E10C0F380107F
:102F9000222911D180B12068143050E8001F21F09F
:102FA000400140E80012002AF5D1A06B08B1FEF7FD
:102FB00008FF204601F045FD002010BD70470000CD
:102FC000F8B5016804460868CA684B6910F00F0F2D
:102FD0004FF0000559D003F0010602F49077374313
:102FE00065D0C10705D0D10503D5216C41F00101A1
:102FF0002164410705D5D90703D0216C41F00201B6
:103000002164810705D5D90703D0216C41F0040163
:103010002164010707D502F02001314303D0216C60
:1030200041F008012164216C00293AD0800604D5C2
:10303000900602D5204601F05DFD20684069216CB4
:10304000C0F38010090700D460B3204601F0F9FCFA
:1030500020684069400621D52068143050E8001FE0
:1030600021F0400140E80012002AF5D1A06BA8B180
:103070006C490165A06BFEF7EDFE002811D0A06B36
:10308000016D01B0BDE8F040084783060FD59306F7
:103090000DD52046BDE8F84001F02CBD2046FFF7D5
:1030A0008DFFF8BD2046FFF789FF2564F8BD266B2C
:1030B0002023012E79D1C60677D5D60675D50868A6
:1030C000486800904869400640D5A16B0868406890
:1030D0000004000CEAD0A28D8242E7D9E085C869DD
:1030E000B0F5807F2DD020680C3050E8001F21F40F
:1030F000807140E80012002AF5D12068143050E8B1
:10310000001F21F0010140E80012002AF5D12068DB
:10311000143050E8001F21F0400140E80012002A5E
:10312000F5D184F83E30256320680C3050E8001F4C
:1031300021F0100140E80012002AF5D1A06BFEF743
:1031400040FEA08DE18D401A81B229E0A08DE18D75
:10315000401A81B2E08D0028A8D00029A6D02068AE
:103160000C3050E8002F22F4907240E80026002E28
:10317000F5D12068143050E8002F22F0010240E819
:103180000026002EF5D184F83E30256320680C30EF
:1031900050E8002F22F0100240E80023002BF5D168
:1031A0002046FFF7D2FEF8BDFFE705062BD5150632
:1031B00029D594F83D002128F5D1A068B0F5805FAD
:1031C00001D12069B0B1206A411C216221680078D8
:1031D0004860E08C401E0004000CE084E3D12068CD
:1031E000C16821F08001C1602068C16841F04001E0
:1031F000C160D8E7206A0088C0F308004860206AF0
:10320000801C2062E5E74006CDD55006CBD5CA68C4
:10321000204622F04002CA6084F83D3000F02FFAC8
:10322000C1E700004D49000870B5040004D094F8CF
:103230003D00002510B106E0012070BD84F83C502F
:10324000204600F023F8242084F83D002068C1685F
:1032500021F40051C160204601F0ACFC20680169F6
:1032600021F4904101612068416921F02A01416106
:103270002068C16841F40051C1602564202084F8B1
:103280003D0084F83E00002070BD00002DE9F04FA5
:1032900087B0054614216846FDF773F9B248DFF898
:1032A000C48210380222D5F800C00024AE4B03219E
:1032B000DFF8B8E2960607154FF4807B4FF44039EB
:1032C000C4453CD1D3F800C04CF4002CC3F800C076
:1032D0001B6803F400230593036843F001030360B4
:1032E000006800F0010005908DE816000820CDE987
:1032F000031069467046FEF731FFDFF878829C497B
:103300004046C8F80010C0E90164C0E90347C8F8A6
:103310002090C8F81440C8E9064BC8F82440FEF7CE
:103320007BFE08B1FDF765FFC5F838800022082153
:103330003420C8F83850FFF795F834205DE0DFF806
:103340003882C4455ED1D3F800C04CF4801CC3F869
:1033500000C01B6803F480130593036843F0040363
:103360000360036803F004030593036843F0080354
:10337000036000688A4600F0080005904FF4805012
:1033800000904FF0080801AA0220CDF8108082E8D2
:10339000110469467948FEF7E1FE0420009001AA75
:1033A0000220CDF8108082E8110469467448FEF7C7
:1033B000D5FEDFF8C0816E4908F16008303940461B
:1033C000C8F80010C0E90164C0E90347C8F82090BC
:1033D000C8F81440C8E9064BC8F82440FEF71CFEA4
:1033E00008B1FDF706FFC5F8388000220521352019
:1033F000C8F83850FFF736F83520FFF725F807B042
:10340000BDE8F08FDFF87C814FF0070AC44543D157
:10341000554B1B1DD3F800C04CF0100CC3F800C076
:103420001B6803F010030593036843F00103036076
:103430000068CDE9024100F0010005904FF4C06042
:10344000CDE90002CDF810A069467046FEF786FE71
:10345000DFF820814C4908F1C0084046C8F8001048
:10346000C0E90164C0E90347C8F82090C8F81440D7
:10347000C8E9064BC8F82440FEF7CEFD08B1FDF7B9
:10348000B8FEC5F83880002207212520C8F838503A
:10349000FEF7E8FF2520B0E7DFF8F080C44540D113
:1034A000D3F800C04CF4003CC3F800C01B6803F420
:1034B00000330593036843F00103036000680DF1D6
:1034C000080800F0010005900C20CDE90002012061
:1034D00088E8030469467046FEF740FE2449DFF899
:1034E000B08048314046C8F80010C0E90164C0E926
:1034F0000347C8F81440C8F81840C8E90749C8F895
:103500002440FEF789FD08B1FDF773FEC5F8388049
:10351000002207212620C8F83850FEF7A3FF2620F6
:103520006BE71C4DAC457FF46AAF1D6845F4802500
:103530001D601B6803F480230593036843F00203B6
:1035400003600068CDE9024100F0020005904FF4ED
:103550004060CDE90002CDF810A069460E48FEF7A4
:10356000FDFD4CE7004C00404038024000000240A6
:1035700040600240280F0020005000400008024038
:10358000000C024000100140406402400044004032
:1035900048100020004800400004024090F83E30EF
:1035A000202B0ED159B152B190F83C30012B08D0EC
:1035B000012380F83C300023036301F081BB01202C
:1035C0007047022070477047704700002DE9F843AC
:1035D000044690F83D001F4616460D4620284CD163
:1035E000C5B1BEB194F83C00012846D0012084F852
:1035F0003C004FF00008C4F84080212084F83D00D2
:10360000FEF7A4FEA6848146E684A068B0F5805F3C
:1036100003D004E00120BDE8F883206928B12E46DC
:103620005FF0000584F83C800EE00026FAE7802178
:10363000204601F08FFBA0B9AEB116F8010B21684E
:103640004860E08C401EE084E08C4B464FF0000266
:1036500000970028EBD14FF04001204601F07AFBA3
:1036600030B10320D7E735F8020BC0F30800E6E7D6
:10367000202084F83D000020CDE70220CBE77047F2
:10368000FEE790ED070AD0ED0E0AB0EE002A42F2F6
:10369000107230EE600A80ED140A90ED131AD0ED2E
:1036A0000F1A70EE410A60EEA10AD0ED101A41EE39
:1036B000800AF0EE401A41EE421A90ED122A71EEA5
:1036C000821A90ED112A42EE210AC0ED180A80ED0F
:1036D000121A80ED130AB0F95C1000EE101AB8EE61
:1036E000C00A30EE200ABDEEC00A10EE101A09B270
:1036F000A0F85C10914202DA5242914201DCA0F83B
:103700005C20704730B50C4D0C4A00204FF07E54C1
:10371000B7EE000AFFEE000A02EB80010B68A3423D
:1037200001DB81ED000A0B68AB4201D3C1ED000A59
:10373000401C0228F0DB30BD000080BF18000020D4
:103740002DE9F04F0024DDE90C65DDE90A97DDE99C
:10375000108ADDF838E0DDF824B000BF11F804C0AD
:1037600000F804C0641CE4B2032CF7D310F8031F64
:1037700062F3020163F3C501017002886BF38912E1
:103780000280427869F385024270B0F8011067F355
:103790008E11A0F80110418866F3CF114180818815
:1037A00065F309018180B0F805206EF38C02A0F862
:1037B0000520C2880F9961F34F12C280018968F316
:1037C00009010181B0F809206AF38C02A0F80920F0
:1037D0004289129961F34F124281BDE8F08F0000D7
:1037E0002DE9F04FDFF8FC830225042698F802004B
:1037F000FD4F8AB00024E0B340F27A334FF47F7E6D
:1038000001286DD04FF0FA0B02287CD04FF03C0A13
:103810004FF00709032877D0042876D0DFF8CC834F
:103820009FEDF32A40F2E92C9FEDF21ADFEDF20A48
:103830001822D8ED021A4FF4BD61052866D0DFF8D2
:10384000A48306287CD007287BD0DFF8B083082823
:10385000D8F800C076D0092875D0DFF888830A2808
:1038600072D00B2871D0C14640F2822C40F2D66A49
:1038700000E01EE040F20E680C2867D00D287DD0D5
:103880000E2813D140F2A910CDE9060403A9029431
:1038900081E83040CDE90830CDE90056002301220F
:1038A000D7A13846FFF74CFF89F802400AB0BDE8BF
:1038B000F08F4FF4967109914FF46B70CDE907408A
:1038C0004A000294CDE90345CDE90502CDE9004661
:1038D00000230122CBA13846FFF732FF01216FE020
:1038E00040F29510CDE9060403A9029481E8304026
:1038F000CDE90830CDE9005600230122C2A13846A7
:10390000FFF71EFF03E005E021E041E05BE088F8FF
:103910000250CBE740F2DC50CDF824B00694CDE95C
:10392000074005900A210294CDE9034100230122BA
:10393000B6A13846CDE90045FFF702FF0320A5E018
:1039400061E08BE0A5E0DDE037E16BE17EE140F294
:10395000DA2240F2EA614FF43E73CDE9063ACDE94E
:10396000081240F2965302A950464FF48272059312
:1039700081E80502082001231A4600E079E1CDE93B
:103980000040A1A13846FFF7DBFE88F802608DE712
:1039900006AD40F2622340F24A52192140F21B3038
:1039A00085E80F0003A84FF4827280E8040A8DE8CE
:1039B00050040223012296A13846FFF7C1FE0521DB
:1039C00088F8021072E781EE820A864E4FF4B360E7
:1039D000002386ED090A40EE010ACDE906C18DA15A
:1039E000BCEEE00A8DED080A0590CDF824C00294E3
:1039F000CDE9034201223846CDE90045FFF7A0FE9C
:103A00000620B07052E781EE820A10EE100A40EEF6
:103A1000010A88ED090ACDE906C1B0F17D5FBCEE6F
:103A2000E00A4FF4B3608DED080ACDF824C002948B
:103A30000590CDE9034206DA00230094022275A125
:103A40003846019405E00023022272A13846CDE9F0
:103A50000045FFF775FE88F8029027E706AD40F2B3
:103A6000622340F24A5219214FF4327085E80F0068
:103A700003A84FF4827280E8040A8DE85004022300
:103A8000012265A13846FFF75BFE082088F8020096
:103A90000CE7BCF1010F17D10DF1180C40F26223B5
:103AA00040F24A5219214FF432708CE80F0003A8FB
:103AB0004FF4827280E8040A8DE8300402231A462B
:103AC00055A13846FFF73CFED8F80000B0B906AD66
:103AD00040F2622340F24A5219214FF4327085E8D5
:103AE0000F0003A84FF4827280E8040A8DE85004A6
:103AF00002231A4648A13846FFF722FE3948092119
:103B00008170D3E6BCF1010F17D10DF1180C40F212
:103B1000622340F24A52192140F21B308CE80F0018
:103B200003A84FF4827180E8020A8DE85004022352
:103B30001A4637A13846FFF703FED8F80000C0BB8D
:103B400036480078012819D106AE40F2622340F2CF
:103B50004A52192140F21B3086E80F0003A94FF4A6
:103B60008272CDF808A081E8040A0820CDE900405F
:103B700002231A4626A13846FFF7E2FD28480068CE
:103B8000012816D106AE40F2622340F24A521921B2
:103B900040F21B3086E80F0003A84FF4827280E8E1
:103BA000040A8DE8300402231A4619A13846FFF7AB
:103BB000C7FD0C490A20887078E64FF4C370CDE940
:103BC0000604CDE9083003A9029481E830400320BF
:103BD000CDE90050002301220AA13846FFF7B0FDCD
:103BE0000B21EDE69C00002081040020DC08002071
:103BF00000A011450080A7430000B34468000020E6
:103C00004C3500004C4931004C4934004C493300DC
:103C10004C4935004C4936004C49370060000020C3
:103C20006C0000204FF4B970CDE9060403A902949A
:103C300081E83040CDE90830CDE90046002301227B
:103C40001EA13846FFF77CFD0C21B9E6CDE906C17F
:103C5000CDF814800294CDE90342CDE908ACCDE95A
:103C600000460023012216A13846FFF769FD0D2109
:103C700015E014480068CDE906C10128029411D06E
:103C8000CDE9088CCDF81480CDE90342002302224F
:103C90000BA13846CDE90046FFF752FD0E2189F809
:103CA000021003E6CDF81480CDE90342CDE908AC5B
:103CB0000023022202A13846ECE700004C493900FB
:103CC0004C49380038010020104810B50E490160F9
:103CD0000321416000214FF400228160C0E90312FA
:103CE0004FF4401242610176012242768276C1761B
:103CF00001774277FDF70DFE002803D0BDE81040A4
:103D0000FDF777BA10BD00000064004050090020A4
:103D1000104810B50E4901600321416000214FF4A5
:103D200000228160C0E903124FF440124261017623
:103D3000012242768276C27601774277FDF7E9FD6D
:103D4000002803D0BDE81040FDF753BA10BD0000B5
:103D50000068004078090020194808B5016841F45E
:103D600000110160016801F400110091016841F443
:103D7000800101600068002200F4800000900521AD
:103D80000B20FEF76FFB0B20FEF75EFB00220521E8
:103D90000D20FEF767FB0D20FEF756FB00220521E4
:103DA0001020FEF75FFB1020FEF74EFB00220521DE
:103DB0003A20FEF757FBBDE808403A20FEF744BB27
:103DC0003038024010B5AAB01C2221496846FCF7E1
:103DD000A6FB0021684602F0C4F91E4C1C491C22B7
:103DE00020621C3107A8FCF79AFB002107A802F00B
:103DF000B8F9174960621C2238310EA8FCF78FFB16
:103E000000210EA802F0ADF91149A0621C22543124
:103E100015A8FCF784FB002115A802F0A2F90C49B3
:103E2000E0621C2270311CA8FCF779FB00211CA861
:103E300002F097F9064920631C228C3123A8FCF775
:103E40006EFB002123A802F08CF960632AB010BD3C
:103E5000E87C0008F000002000B587B01421684617
:103E6000FCF78FFB19480021026842F080020260D3
:103E7000026802F080020592026842F001020260CC
:103E8000026802F001020592026842F0020202603A
:103E9000026802F002020592026842F00402026027
:103EA000026802F004020592026842F00802026011
:103EB0000068029100F0080005908020CDE9000123
:103EC00069460348FEF74AF907B000BD30380240A2
:103ED0000008024010B592B000240F941C2108A8DD
:103EE0001094FCF74EFB20216846FCF74AFB224861
:103EF00020490160A721C0E9011444F61F61C0E90F
:103F00000314FA21416180218161FEF7C6FF08B1E7
:103F1000FDF76FF90F940FA917481094FEF7C2FD33
:103F200008B1FDF766F96020089040F62410CDE94D
:103F300009040B940C940D94082208A90E480E94C1
:103F4000FEF745FF08B1FDF754F900944FF4005017
:103F5000CDE904400294019403946946064807940D
:103F6000FEF776FD08B1FDF744F90348FEF704FFBC
:103F700012B010BD000401400C0C00200C4810B51C
:103F80000A4901604FF4E1314160002181600C2257
:103F9000C160C0E904128161C161FFF745F90028E1
:103FA00003D0BDE81040FDF724B910BD004C00401F
:103FB000D40D00200C4810B50A4901604FF4E131DE
:103FC0004160002181600C22C160C0E9041281615E
:103FD000C161FFF729F9002803D0BDE81040FDF7C3
:103FE00008B910BD00500040180E00200C4810B554
:103FF0000A4901604FF4E1314160002181600C22E7
:10400000C160C0E904128161C161FFF70DF90028A8
:1040100003D0BDE81040FDF7ECB810BD0010014022
:104020005C0E00200E4810B50C4901600D4941603E
:104030004FF48051816000214FF48062C0E9031287
:104040000C22C0E90521C161FFF7EEF8002803D07A
:10405000BDE81040FDF7CDB810BD000000440040A1
:10406000A00E0020A08601000C4810B50A4901608E
:104070004FF4E1314160002181600C22C160C0E950
:1040800004128161C161FFF7CFF8002803D0BDE8B9
:104090001040FDF7AEB810BD00480040E40E00200F
:1040A000FEE7FEE74C480168491C01604B48007878
:1040B00003287CD100204A4B02469FED4A0A00BFEC
:1040C00000EBC00101EB001103EB8101401C81ED0D
:1040D000070AA1F85C2081ED180A81ED140A81ED30
:1040E000130A40B281ED120A0428E9DB3E48454B31
:1040F000002180ED090A80ED020A80ED080A80EDBA
:10410000060A80ED070A394880ED090A80ED000AA9
:1041100080ED020A80ED080A80ED060A80ED070AAC
:104120003348A0F85C2080ED0E0A80ED070A80ED90
:10413000180A80ED130A80ED120A2E4880ED090A54
:1041400080ED000A80ED020A80ED080A80ED060A83
:1041500080ED070A284880ED090A80ED000A80ED0D
:10416000020A80ED080A80ED060A80ED070A23485E
:1041700080ED090A80ED000A80ED020A80ED080A50
:1041800080ED060A80ED070A1D4880ED090A80EDE2
:10419000020A80ED070A80ED080A80ED000A80ED32
:1041A000060A00BF01EBC10000EB011000E011E0C6
:1041B00003EB8000491C80ED150AA0F85C2080ED1F
:1041C000080A80ED160A80ED140A49B280ED130A40
:1041D0000229E7DB704700005000002000000020AB
:1041E000E806002000000000E00B0020B40B0020D7
:1041F000D8090020880B00205C0B0020300B002029
:10420000040B00203C0A00202DE9F0410024051D8C
:10421000494EB0F8847027E0285DC0283BD012DCFE
:10422000A52829D008DC902822D0A02824D0A128B5
:1042300022D0A22817D11FE0B02824D0B12822D044
:10424000B22810D11FE0D1286BD006DCC12822D0C3
:10425000C22820D0D02806D124E0D92855D0E02883
:1042600068D0F02866D0641CA742D5DCBDE8F08198
:1042700068783070A41CF7E7281950F8011FB16066
:104280008088B0813FE0281950F8011FC6F80E1051
:104290008088708237E0281950F8011F716180888A
:1042A000308330E02819DFED250A4178827801EB70
:1042B000022109B200EE101A2149B8EEC01A81EEAF
:1042C000200A81ED000AC2780379BDEEC00A02EB34
:1042D000032212B201EE102AB8EEC11AC1EE201A62
:1042E000F2EE040AC1ED011A86ED010A42798079E5
:1042F00002EB002000B200EE100AB8EEC00A80EE19
:10430000201A81ED021AE41DAEE70D4829190C3878
:1043100051F8012FC2604A68026189680D34416119
:10432000A2E70748291910220C30491CFCF7B2F803
:10433000113499E7641D97E7200000200000C8426F
:10434000F002002002F02EBC70B5044D0446E96076
:104350008C21FCF716F92C6170BD00003C00002098
:104360001748184A017A1170174A417A1170418A28
:104370004FF6FF72154802EAC133DB0B038002EAF5
:104380008133DB0B038102EA0133DB0B438102EA59
:104390004133DB0BC38002EA4123DB0B438002EA9B
:1043A0000123DB0B8380C1F30023C38102EAC12315
:1043B000DB0B02EA81210382C90B418270470000B6
:1043C0001002002000000020010000202402002034
:1043D000F0B5804D0020804F2978804E012910D003
:1043E00002297CD12881E8809FED7D1A30463188F2
:1043F0000089DFED7C1A05F11804012932D081B360
:104400003DE06969491C6961B0827449F08270833A
:1044100014393083B1F9020000EE100AB8EEC00A78
:104420009FED711AC0EE010A95ED040AF8EEC01A6C
:10443000B8EEC00A60EEA10AFDEEE00A10EE900AA6
:10444000E880B1F9000000EE900AF8EEE01AC1EE43
:10445000810A20EE800ABDEEC00A10EE100A288103
:1044600094E00AE094ED000A012830EE210A84ED80
:10447000000A04D184ED001A01E00028FAD0FFF709
:1044800041F9D5ED040A94ED000AF8EEE00A60EE79
:10449000200AFDEEE00A10EE900AB0823089012871
:1044A00006D130EE610A84ED000A3188012902D07C
:1044B000318819B104E084ED001A01E00028FAD037
:1044C000FFF720F995ED040AD4ED000AB6F91410AF
:1044D000B8EEC00A20EE800ABDEEC00A00E078E027
:1044E00010EE100A01FA80F0B0827089012808D11C
:1044F00094ED010A30EE210A84ED010AF1880129C8
:1045000002D0F18819B104E084ED011A01E000281D
:10451000FAD0FFF7F7F8D5ED040A94ED010AB6F9E1
:104520001610F8EEE00A60EE200AFDEEE00A10EE4A
:10453000900A01FA80F0F082F088012806D130EE6E
:10454000610A84ED010A7189012902D0718919B1CA
:1045500004E084ED011A01E00028FAD0FFF7D2F858
:1045600095ED040AD4ED010AB8EEC00A20EE800AE7
:10457000BDEEC00A10EE100A00B2F08229780129BF
:1045800004D0022925D1B6F9141006E06A78B5F9ED
:104590000800B5F90610022A1BD00A1A00EE102AEC
:1045A00042185342B8EEC00A401A87ED070A00EEDF
:1045B000103AB8EEC00A87ED200A00EE100AB8EEF5
:1045C000C00A87ED390A00EE102AB8EEC00A87ED5E
:1045D000520AF0BD00000020E8060020240200205E
:1045E000000000006F12833A0000254410B55020EF
:1045F00080F31188BFF34F8FBFF36F8F02F01CFC65
:1046000018B104494FF080500860002080F31188F1
:1046100010BD000004ED00E030B593B030216846D5
:10462000FBF7AFFF14210CA8FBF7ABFF1E480025DA
:10463000016841F080510160006800F080501190E5
:104640001A48016841F4804101600068022400F4C6
:104650008040119001200090000401908001CDE97C
:104660000640192008904FF4A870CDE909040420F1
:104670000B906846FEF734F808B172B6FEE70CA955
:104680000F2081E831004FF4A0500F904FF480507C
:10469000109005210CA8FDF717FF002801D072B675
:1046A000FEE713B030BD000040380240007000400B
:1046B0000248016841F470010160704788ED00E034
:1046C00010B50448FEF7A5FABDE810400248FEF711
:1046D000A0BA00000C0C0020A8100020F0B5026861
:1046E000254C264D264E274F274B4FF0804CA0429D
:1046F00009D0604507D0A84205D0B04203D0B842E7
:1047000001D0984204D122F0700E4A6842EA0E02AB
:10471000A0421BD0604519D0A84217D0B04215D096
:10472000B84213D0984211D0184DA8420ED0184D5F
:10473000A8420BD0174DA84208D0174DA84205D06B
:10474000164DA84202D0164DA84203D122F440755E
:10475000CA682A434D6922F080022A4302608A68AF
:10476000C2620A688262A04201D0984201D10969FE
:10477000016301214161F0BD0000014000040040DF
:1047800000080040000C00400004014000400140CF
:10479000004401400048014000180040001C004057
:1047A00000200040F0B5026A22F001020262036AB2
:1047B00042688469124E24F073050C682C4323F080
:1047C00002058B682B430D4DA84201D0B04205D1A4
:1047D00023F00807CB683B4323F00403A84201D031
:1047E000B04205D14D6922F4407215438A692A43CB
:1047F00042608461496841630362F0BD000001408A
:1048000000040140F0B5026A22F010020262026A5E
:10481000436884690D6824F4E64444EA05248D68FD
:1048200022F0200242EA05120F4D104EA84201D09C
:10483000B04206D1CF6822F0800242EA071222F08D
:104840004002A84201D0B04207D14D6923F4406331
:1048500043EA85038D6943EA8503436084614968BF
:1048600081630262F0BD00000000014000040140CD
:10487000F0B5026A22F480720262026A4368C46977
:1048800022F4007224F073050C68124E2C438D68DC
:1048900042EA05220E4DA84201D0B04206D1CF68AF
:1048A00022F4006242EA072222F48062A84201D088
:1048B000B04207D14D6923F4405343EA05138D6993
:1048C00043EA05134360C4614968C1630262F0BDF5
:1048D000000001400004014030B5026A22F4805219
:1048E0000262046A4268C3690D6823F4E64343EA3E
:1048F00005238D6824F4005444EA0534084DA84289
:1049000002D0084DA84204D14D6922F4804242EA07
:1049100085124260C36149680164046230BD0000D1
:1049200000000140000401400148FEF749BB0000BF
:10493000D40D002010B5044800F0B8F8BDE81040D0
:104940000148FEF73DBB0000180E002010B5806B3B
:104950000021C185C184FEF731FB10BD70B5846BA9
:104960002068406994F83D10C0F3C010002521294B
:1049700004D118B1E584204600F08AF82068406927
:1049800094F83E10C0F38010222904D118B1E585B7
:10499000204600F056F8206C40F0100020642046BD
:1049A000FEF70CFB70BD10B50146806B0968096805
:1049B000C9052FD40021C18501680C3151E8002FB1
:1049C00022F4807241E80023002BF5D101681431F4
:1049D00051E8002F22F0010241E80023002BF5D11D
:1049E0000168143151E8002F22F0400241E8002311
:1049F000002BF5D1202180F83E10016B012909D14F
:104A000001680C3151E8002F22F0100241E8002328
:104A1000002BF5D1016B012902D0FEF7D4FD10BDAA
:104A2000818DFEF792FA10BD10B5806B016B0129E4
:104A300002D0FEF7C9FD10BD818D4908FEF785FA49
:104A400010BD01680C3151E8002F22F4907241E84A
:104A50000023002BF5D10168143151E8002F22F01A
:104A6000010241E80023002BF5D1016B012909D196
:104A700001680C3151E8002F22F0100241E80023B8
:104A8000002BF5D1202180F83E10002101637047F2
:104A900001680C3151E8002F22F0C00241E80023E8
:104AA000002BF5D1202180F83D10704738B5044621
:104AB0000E48844219D120680068C043C00614D44F
:104AC0000B4D6868401C6860206801684068009071
:104AD0002046FEF73BFA012028702046BDE838400A
:104AE00002498022C439FEF759BD38BD180E002096
:104AF0008C01002008B590F83E10222901D0022038
:104B000008BD82684FF480539A4201D1016921B1F6
:104B1000816A9A421BD04AB10AE00268816A5268EF
:104B2000C2F308020A80816A891C08E0026972B136
:104B30000268526802F07F020A70816A491C816231
:104B4000C18D491E0904090CC18503D019E0026812
:104B50005268F1E70168CA6822F02002CA60016861
:104B6000CA6822F48072CA6001684A6922F00102B0
:104B70004A61202180F83E10016B012903D0FEF725
:104B800022FD002008BD0021016301680C3151E8BD
:104B9000002F22F0100241E80023002BF5D101681C
:104BA0000A68D20602D50A6849680091818DFEF72D
:104BB000CCF9E6E770B5044600680169E26821F4C3
:104BC0004051114301612169A068E26908436169AC
:104BD000114308432168CA6849F20C639A430243AF
:104BE000CA6020684169A26921F4407111434161A2
:104BF00031492068884202D03049884202D1FDF70D
:104C00002DFD01E0FDF71AFDE2690023192164255D
:104C10003226B2F5004F626828D0A0FB0101930F45
:104C20009200FBF7A1FB0146B0FBF5F06FF0180214
:104C3000504301EB800006EB0010B0FBF5F000F0F4
:104C4000F002B1FBF5F002EB0012B1FBF5F06FF0F2
:104C50001803584301EB800006EB0010B0FBF5F0A1
:104C600000F00F0021681044886070BDA0FB0101B6
:104C700092185B41FBF778FB0146B0FBF5F00201AF
:104C8000B1FBF5F06FF01803584301EB800006EB21
:104C9000C000B0FBF5F000F0F80002EB4002B1FB01
:104CA000F5F0584301EB800006EBC000B0FBF5F0D7
:104CB00000F00700D6E7000000100140001401409A
:104CC00038B581628285002513460446056422209A
:104CD00084F83E00A26B1C48D063A26B1B48106492
:104CE000A26B1B48D064A06B0A4605652168A06BC7
:104CF000091DFDF7FBF9206801684068009084F801
:104D00003C50206948B120680C3050E8001F41F445
:104D1000807140E80012002AF5D12068143050E874
:104D2000001F41F0010140E80012002AF5D120687F
:104D3000143050E8001F41F0400140E80012002A02
:104D4000F5D1002038BD0000A7490008294A000815
:104D50005D4900082DE9F041984617460E46044685
:104D6000069D27E0681C25D02DB1FDF7EFFAA0EBDA
:104D70000800A8421ED920680C3050E8001F21F41A
:104D8000D07140E80012002AF5D12068143050E8B4
:104D9000001F21F0010140E80012002AF5D1202077
:104DA00084F83D0084F83E00002084F83C00032095
:104DB000BDE8F0812068006836EA000004D00020D9
:104DC000B842CFD00020F3E70120F9E7094810B539
:104DD0000078012802D1084801F0A2F800F0B2FFE3
:104DE00006484169491C4161FBF7EAFFBDE81040F4
:104DF000FCF722B88C010020540D00209C000020FC
:104E0000074810B500680068C043C00602D40448D3
:104E1000FFF74CFEBDE810400148FEF7D1B8000096
:104E20005C0E0020044882B0006801684068009071
:104E3000014802B0FEF7C4B8A00E0020FEE7000053
:104E400003480068C16841F01001C160704700006C
:104E5000180E002030B50C46050014D0022C12D9D3
:104E60000A48A11E02882846FCF74CFA2919C2B24A
:104E700011F8023C9A4206D111F8011CB1EB102F37
:104E800001D1012030BD002030BD00005C000020B9
:104E900030B50C4605000ED0022C0CD9601E81B234
:104EA000FF222846FCF744FA291911F8011C814217
:104EB00001D1012030BD002030BD03B40198410074
:104EC000009850EAC12018BF04204A0D18BF40F0D6
:104ED000010040F2FF72B2EB515F08BF40F00200E8
:104EE000012808BF052002B070474100080218BF22
:104EF00004200A0E18BF40F001004FF07F4232EA52
:104F0000010108BF40F00200012808BF05207047DA
:104F10000907090E002804DB00F1E02080F80014E6
:104F2000704700F00F0000F1E02080F8141D70477A
:104F300010B52F499FED2C1B2DED020B84B0059869
:104F400020F000408842D8BF9DED040B2DDD29499B
:104F5000884209D1049840B94FF00100FBF740FBAB
:104F600000F012FE06B010BD05DB9DED040B00F055
:104F7000FFFD06B010BD68469DED040B00F010FA71
:104F800010F0030004BF9DED021B9DED000B0CD043
:104F900001280ED09DED021B9DED000B022817D0BD
:104FA000012000F04DFD06B010BD00F015FC06B06C
:104FB00010BD9DED021B9DED000B012000F040FD9A
:104FC00051EC100B02F008F806B041EC100B10BDCC
:104FD00000F002FC51EC100B01F0FEFF06B041ECBA
:104FE000100B10BD000000000000000000000000D9
:104FF000FB21E93F0000F07F10EE101A08B5444A8B
:105000006846B2EB410F28D94FF0E640B0EB410FB4
:1050100094BF00204FF0FF3000900098002861DB23
:1050200060EE000A10F0010F45D010F0020FDFED26
:10503000391A9FED391A00EEE11ADFED381A40EE09
:10504000811A21EEA01AF0EE400A40EE010A08BFD4
:10505000F1EE600AB0EE600A08BD314B21F000426B
:1050600093423CD911F0004FDFED2E0A20EE201ABA
:10507000DFED2D0A19BF31EE601A71EE200A31EE14
:10508000201A71EE600ABDEEE01A11EE100A9FEDD3
:10509000271A00F0030000EEC10A9FED251A0090C8
:1050A00000EEC10A9FED231A00EEC10A9FED221AFD
:1050B00000EEC10AB1E79FED211A9FED210A10F021
:1050C000020F00EE810A9FED1F1A00EE801AB7EE64
:1050D000000A00EE810A18BFB1EE400A08BD00F0D8
:1050E00087FD9AE710EE100A4000B0F17F4F3CBFF9
:1050F000B7EE000A08BD07D14FF00100FBF770FAC8
:10510000BDE8084000F064BDBDE8084000F05CBDAB
:10511000B61F927E336D4C39DA82083CA0AA2ABEB3
:10512000490E494683F9223F0000004B0000C93F69
:1051300000A0FD390020A2331A61342CB93AB2BA6A
:10514000CA9F2A3DDDFFFFBE10B52F499FED2C1BE6
:105150002DED020B84B0059820F000408842DCBFA2
:1051600000209DED040B32DD2849884209D10498C6
:1051700040B94FF00100FBF733FA00F005FD06B02F
:1051800010BD05DB9DED040B00F0F2FC06B010BD78
:1051900068469DED040B00F003F910F0030011D0F8
:1051A000012818D09DED021B9DED000B02281AD09E
:1051B00000F012FB51EC100B01F00EFF06B041ECB9
:1051C000100B10BD9DED021B9DED000B012000F0AA
:1051D00037FC06B010BD9DED021B9DED000B00F0ED
:1051E000FBFA06B010BD012000F02AFC51EC100BB8
:1051F00001F0F2FE06B041EC100B10BD0000000003
:105200000000000000000000FB21E93F0000F07FEB
:1052100000B510EE101A2DED028B81B0524A68468F
:10522000B2EB410F2ED94FF0E640B0EB410F94BFE7
:1052300000204FF0FF3000900098B0EE408A002828
:105240006ADB10F0010F4BD068EE080A9FED471A99
:105250009FED470A00EE810A9FED461A10F0020FFB
:1052600000EE801AB7EE000A00EE810A02BF01B01C
:10527000BDEC028B00BD00BF01B0B1EE400ABDEC39
:10528000028B00BD3C4B21F00042934241D911F00A
:10529000004FDFED3A0A20EE201ADFED390A19BF80
:1052A00031EE601A71EE200A31EE201A71EE600ABA
:1052B000BDEEE01A11EE100A9FED321A00F0030065
:1052C00000EEC10A9FED301A009000EEC10A9FED7A
:1052D0002F1A00EEC10A9FED2E1A00EEC10AABE7AD
:1052E00028EE080A9FED2B1ADFED2B0A10F0020FB3
:1052F00040EE410A9FED291A00EE201A61EE000AE5
:10530000B0EE480A08EE200AB6D101B0BDEC028B1F
:1053100000BD00F06DFC8FE718EE100A4000B0F100
:105320007F4F0DD218EE100AFFF7DFFD042808BFEB
:1053300000F056FCB0EE480A01B0BDEC028B00BD97
:1053400009D10120FBF74CF901B0BDEC028B5DF8EF
:1053500004EB00F03DBC01B0B0EE480ABDEC028B9E
:105360005DF804EB00F030BCB61F927EB93AB2BAD9
:10537000CA9F2A3DDDFFFFBE490E494683F9223F01
:105380000000004B0000C93F00A0FD390020A233FF
:105390001A61342C336D4C39DA82083CA0AA2ABE3B
:1053A0002DE9F14F04462DED020B2DED088B8AB04F
:1053B0009FEDE70B80ED020B139EE74826F00045BA
:1053C00085420ADC9DED120B002084ED000B0AB033
:1053D000BDEC088B03B0BDE8F08FE0489FEDE0AB7B
:1053E0009FEDE1BBA84247DDE14F9FEDE39B9FEDC1
:1053F000E48B9DED120B53EC1A2B51EC100B002E8D
:105400001CDD02F08BF941EC100BBD4208D053ECCF
:105410001B2B51EC100B02F081F9C4E900010BE0E9
:1054200053EC192B51EC100B02F078F953EC182BBC
:1054300002F074F9C4E900010120C8E701F00AFE96
:1054400041EC100BBD4208D053EC1B2B51EC100B60
:1054500001F000FEC4E900010BE053EC192B51EC04
:10546000100B01F0F7FD53EC182B01F0F3FDC4E92C
:1054700000014FF0FF30AAE7C348A84279DB9DED59
:10548000120B51EC100B00F0D4FC41EC180B9FED0B
:10549000C00B53EC102B02F037F89FEDBF1B53EC01
:1054A000112B01F0D7FD01F0D5FF074602F001F8FE
:1054B00041EC190B53EC1A2B02F026F853EC182B85
:1054C00002F020F941EC180B53EC1B2B51EC190B9B
:1054D00002F01AF8DFF8C8A241EC100B4FEA155899
:1054E0000125FA4453EC102B51EC180B02F016F97D
:1054F000032DC4E900013DD0C1F30A5005EB45116D
:10550000A8EB00001139814234DA0AEB051BB0EE3A
:1055100048AA9BED000BF0EE68AA53EC102B51EC5F
:10552000190B01F0F1FF41EC1B0B51EC1A0B53EC82
:105530001B2B02F0F3F841EC180B51EC1A0B53EC57
:10554000182B02F0EBF853EC1B2B02F0E7F89BED65
:10555000020B41EC1A0B53EC102B51EC190B01F020
:10556000D3FF53EC1A2B02F0D9F841EC100B6D1C51
:10557000B8E70EE0002EA8BF3846BFF628AF94ED7E
:10558000000B51EC100B01F027FDC4E9000178423B
:105590001DE7C6F3130040F4801EC6F30A50A0F2C4
:1055A000F530471100F01F05C5F12000DDF848B0C7
:1055B00008900020069007900520EC467949002DC0
:1055C00007EB0002794408BF51F8221009D051F8C6
:1055D000223001EB8201AB404A68089922FA01F1BE
:1055E0001943A1FB0E26A1FB0B131A449A4234BFA8
:1055F0000123002303EB06080CEB8003D3E901A68B
:105600000E448E4234BF0121002192448A4411B1DC
:10561000924502D903E0924501D2012100E0002128
:10562000C3E901A641444CF82010011EA0F101007D
:10563000C4DC029800F10050850F0298DDE9036791
:105640008000DDF8148001F034FF41EC1A0B304685
:1056500001F046FF9FED541B53EC112B01F054FF5A
:1056600041EC1B0B384601F03BFF9FED511B53EC07
:10567000112B01F049FF41EC180B404601F030FFBF
:105680009FED4D1B53EC112B01F03EFF41EC190B2C
:1056900051EC180B53EC192B01F0DCFC53EC1B2BD9
:1056A00001F0D8FC53EC1A2B01F0D4FCCDE9080131
:1056B000002008909DED080B53EC1A2B51EC100BB9
:1056C00002F02CF853EC1B2B02F028F853EC182BAB
:1056D00002F024F853EC192B02F014F89FED381B5C
:1056E00053EC112B01F010FF9FED370B41EC180B21
:1056F00053EC102B9DED080B51EC100B01F004FF47
:1057000053EC182B01F0A6FC9FED310B41EC180B6C
:1057100053EC102B9DED080B51EC100B01F0F4FE37
:1057200053EC182B01F096FC41EC100B139810F081
:10573000004F06D06D4251EC100B01F04DFC41ECD6
:10574000100B284684ED000B41E60000000000002D
:105750000000000000000000FB21E93F7CD902406E
:1057600000004054FB21F93F3163621A61B4D03D1F
:10577000FB21F93F000000000000601A61B4D03D39
:105780007370032E8A19A33BFB21394100000000EE
:1057900083C8C96D305FE43F000000000000E03FB7
:1057A000FA28000048280000000000000000103E19
:1057B000000000000000103C000000000000103A53
:1057C000182D4454FB21F93D3326A611460B113CFC
:1057D00000000054FB21F93D10B52DED040B2DED1B
:1057E000088B82B0B0EE419AF0EE619A0B9820F0EF
:1057F00000449FED4BABB4F1795F11DA9DED0A0BDC
:1058000051EC100B01F026FE002801BFB0EE4A0A51
:10581000F0EE6A0A02B0BDEC088B04BF04B010BD04
:105820009DED0A0B53EC102B51EC100B01F06CFEAC
:1058300041EC180B3C480621B0EE480AF0EE680A2D
:10584000784400F081F853EC182B51EC100B01F068
:105850005BFE9DED0A0B41EC1B0B53EC192B51EC3D
:10586000100B01F051FE41EC190B53EC1B2B51ECCA
:10587000180B01F049FE53EC192B01F04FFF9FED7F
:105880002C0B41EC190B53EC102B51EC180B01F0C5
:105890003BFE41EC100B2848844210DA53EC192BE4
:1058A00051EC100B01F03AFF53EC1A2B01F02AFFD8
:1058B00041EC100B02B0BDEC088B04B010BD1F48CA
:1058C000A042BCBF9FED1E1B8DED001B06DBA4F5A7
:1058D00000100190002000909DED001B51EC100B7A
:1058E00053EC112B01F01AFF9DED000B41EC180B4E
:1058F00053EC102B51EC1A0B01F010FF41EC1A0B7A
:1059000053EC192B51EC180B01F008FF53EC1A2B38
:1059100001F0F8FE41EC100BCCE7000000000000A5
:10592000000000000000F03F6C25000000000000B7
:10593000000000000000E03F3333D33F0000E93FA8
:10594000000000000000D23F70B504462DED028B30
:105950004D1E00EBC500B0EE408AF0EE608A90ED7F
:10596000000B35F0060017D053EC182B51EC100B40
:1059700001F0CAFD41EC100B6D1E04EBC50090ED6B
:10598000001B51EC100B53EC112B01F063FB41ECAD
:10599000100B35F00600E7D1022D36D0042D1CD0B7
:1059A000062D1CBFBDEC028B70BD53EC182B51ECC7
:1059B000100B01F0A9FD94ED0A1B53EC112B01F023
:1059C00049FB53EC182B01F09FFD94ED081B53ECA1
:1059D000112B01F03FFB41EC100B53EC182B51EC59
:1059E000100B01F091FD94ED061B53EC112B01F00F
:1059F00031FB53EC182B01F087FD94ED040B53ECB5
:105A0000102B01F027FB41EC100B53EC182B51EC41
:105A1000100B01F079FD94ED021B53EC112B01F0FA
:105A200019FB53EC182B01F06FFD94ED001B53ECA8
:105A3000112B01F00FFBBDEC028B41EC100B70BD84
:105A400031B504462DED040B2DED0A8BB0EE41BAB5
:105A5000F0EE61BA0B989DED0A0B20F00040B0F11A
:105A6000795F0DDA51EC100BFFF727FA042808BF15
:105A700000F09AF89DED0A0BBDEC0A8B05B030BD25
:105A800053EC102B51EC100B01F03EFD41EC180BC8
:105A90009DED0A0B53EC182B51EC100B01F034FD6B
:105AA00041EC190B2C48B0EE480AF0EE680A0521CB
:105AB0007844FFF749FF9FED2ACBB0EE40AAF0EE05
:105AC00060AA9CB353EC1C2B51EC190B01F01CFD8C
:105AD00041EC1C0B53EC1A2B51EC190B01F014FD8B
