:020000040800F2
:10000000C85C002029030008473500084D3100086E
:10001000453500080B0600084945000800000000AF
:10002000000000000000000000000000690200085D
:100030005108000800000000C5020008593C0008F3
:100040004303000843030008430300084303000878
:100050004303000843030008430300084303000868
:100060004303000843030008430300084303000858
:100070004303000843030008430300084303000848
:1000800095070008430300084303000843030008E2
:1000900091060008430300084303000843030008D7
:1000A0004303000843030008430300084303000818
:1000B0004303000843030008430300084303000808
:1000C00043030008430300084303000843030008F8
:1000D00043030008014500082545000843030008C4
:1000E00043030008430300084303000843030008D8
:1000F000430300082D3D00084303000843030008A4
:1001000043030008430300084303000843030008B7
:10011000430300081D400008430300084303000890
:100120004303000843030008A10700084303000835
:100130004303000800000000000000004303000823
:100140004107000843030008430300084303000875
:100150004303000843030008430300083D4500082B
:100160004303000843030008430300084303000857
:1001700043030008430300080000000000000000E3
:10018000430300084303000800F002F800F05CF8A5
:100190000AA090E8000C82448344AAF10107DA45E2
:1001A00001D100F051F8AFF2090EBAE80F0013F0D8
:1001B000010F18BFFB1A43F0010318472C60000021
:1001C0004C6000000A444FF0000C10F8013B13F0A3
:1001D000070408BF10F8014B1D1108BF10F8015BA0
:1001E000641E05D010F8016B641E01F8016BF9D193
:1001F00013F0080F1EBF10F8014BAD1C0C1B09D1EA
:100200006D1E58BF01F801CBFAD505E014F8016B5B
:1002100001F8016B6D1EF9D59142D6D370470000ED
:100220000023002400250026103A28BF78C1FBD8FF
:10023000520728BF30C148BF0B6070471FB505F09B
:10024000B7FD1FBD10B510BD00F0AAF91146FFF7AC
:10025000F5FF04F0E7FC00F0C8F903B4FFF7F2FF84
:1002600003BC00F0CBF900002C4B19680868B0E81B
:10027000F04F80F30988BFF36F8F4FF0000080F3D9
:10028000118870470000000008480068006880F38B
:1002900008884FF0000080F3148862B661B6BFF39F
:1002A0004F8FBFF36F8F00DF00BF00BF08ED00E08E
:1002B000DFF80C00016841F470010160704700BF75
:1002C00088ED00E0EFF30980BFF36F8F134B1A68DE
:1002D0001EF0100F08BF20ED108A20E9F04F1060CB
:1002E00009B44FF0500080F31188BFF34F8FBFF374
:1002F0006F8F05F08FF94FF0000080F3118809BC73
:1003000019680868B0E8F04F1EF0100F08BFB0EC95
:10031000108A80F30988BFF36F8F704704010020B3
:10032000EFF30580704700000948804709480047FF
:10033000FEE7FEE7FEE7FEE7FEE7FEE7FEE7FEE795
:10034000FEE7FEE704480549054A064B70470000F2
:100350001D3D000889010008C84C0020C85C002031
:10036000C8540020C854002053EA020C00F06980F1
:100370002DE9F04B4FF00006002B1FBFB3FA83F5B9
:1003800003FA05F424FA05F65E4012BF1643B2FAEA
:1003900082F502FA05F4C5F120051EBF22FA05FC1C
:1003A00044EA0C04203556EA044C4FEA144418BFC2
:1003B000641C4FF000084FF00009904271EB030CF1
:1003C00039D3002919BFB1FA81F701FA07F6B0FA5B
:1003D00080F700FA07F6C7F120071EBF20FA07FCD6
:1003E00046EA0C062037B6FBF4FCA7EB0507103FE6
:1003F00007F01F0BCBF120060CFA0BFB2CFA06F6CC
:1004000044BFB3460026202FA4BF5E464FF0000B2A
:100410005BEA060C08BF4FF0010B19EB0B09ABFBB5
:10042000027C48EB0608C01B06FB02CC0BFB03CC8E
:1004300071EB0C01C1E70B46024641464846BDE858
:10044000F08B13B54FF000004FF00001AFF30080C8
:10045000BDE81C407047032A40F2308010F0030CC6
:1004600000F0158011F8013BBCF1020F624498BF07
:1004700011F801CB00F8013B38BF11F8013BA2F1A4
:10048000040298BF00F801CB38BF00F8013B11F01F
:10049000030300F02580083AC0F0088051F8043BBF
:1004A000083A51F804CBA0E80810F5E7121D5CBF2C
:1004B00051F8043B40F8043BAFF30080D20724BF5F
:1004C00011F8013B11F801CB48BF11F8012B24BFF3
:1004D00000F8013B00F801CB48BF00F8012B704742
:1004E00010B5203AC0F00B80B1E81850203AA0E8CF
:1004F0001850B1E81850A0E81850BFF4F5AF5FEA03
:10050000027C24BFB1E81850A0E8185044BF18C9B5
:1005100018C0BDE810405FEA827C24BF51F8043B5C
:1005200040F8043B08BF7047D20728BF31F8023BB0
:1005300048BF11F8012B28BF20F8023B48BF00F844
:10054000012B70474FF0000200B5134694469646C3
:10055000203922BFA0E80C50A0E80C50B1F12001D6
:10056000BFF4F7AF090728BFA0E80C5048BF0CC084
:100570005DF804EB890028BF40F8042B08BF7047E2
:1005800048BF20F8022B11F0804F18BF00F8012B54
:10059000704770477047704700487047684C0020AC
:1005A0007546FFF7F9FFAE4605006946534620F051
:1005B0000700854618B020B5FFF7C4FEBDE820400F
:1005C0004FF000064FF000074FF000084FF0000B0F
:1005D00021F00701AC46ACE8C009ACE8C009ACE8C2
:1005E000C009ACE8C0098D46704710B50446AFF3AA
:1005F00000802046BDE81040FFF72FBE01491820BB
:10060000ABBEFEE7260002007047FEE730B587B0BC
:1006100040F2FF14009400240394029408240494EC
:100620000A4C050A25706070080AA070E170100A73
:1006300020716271180AA071E37101232246694694
:10064000034800F0C1FB07B030BD0000C40000202B
:10065000C00A002000B58BB0002001210390049057
:10066000CDE90601CDE908100590009001900290B7
:100670006946064800F016FC044801F03FF80221E4
:10068000024800F08FFB0BB000BD0000C00A002044
:10069000014800F002BD0000C00A00200648002307
:1006A0001A4690ED090A1946BDEEC00A10EE100A6E
:1006B00000B2FFF7ABBF0000100B002030B587B0D1
:1006C00040F2FF140094002403940294082404943C
:1006D0000A4C050A25706070080AA070E170100AC3
:1006E00020716271180AA071E371012322466946E4
:1006F000034800F069FB07B030BD0000CC000020CB
:10070000E80A002000B58BB00E20059000200121E2
:1007100003900490CDE90601CDE908100090019006
:1007200002906946054800F0BDFB044800F0E6FF72
:100730000221024800F036FB0BB000BDE80A0020A1
:10074000014800F0AABC0000E80A00200648002387
:100750001A4690ED090ABDEEC00A10EE100A01B269
:100760001846FFF7ABBF00003C0B002010B5084C4B
:10077000002300BF03EBC30000EB031004EB800079
:1007800002F0E5FC5B1C5BB2042BF3DB10BD000048
:100790005C060020014801F03FB80000D00E0020A8
:1007A000014801F039B80000700E002001681823DC
:1007B000CAB2103AB2FBF3F2054B6FF30901032AF8
:1007C0009B5CC36500D9091D816508467047000020
:1007D0008061000810B5014600208B698A6A4FF0DD
:1007E000C07453B1B3F5005F15D072B1012A0CD0BB
:1007F000022A0AD0032A09D104E01AB1012A06D03C
:10080000022A03D1C96AC90100D5012010BDC96AF5
:10081000A142FAD010BD002AF7D0012AF2D0022A54
:10082000F3D0032AF3D010BD30B50468256825F451
:1008300080252560046863608368402B036803D0CB
:1008400099600068C26030BD9A600068C16030BDC8
:100850007047000000EBC00110B5114800EB8104A7
:100860002068606005F058F82060E17C4A0603D5F6
:1008700021F04001E174E060A06958B1804748B1BF
:10088000E07C40F0A000E074206A002806D0BDE8BB
:1008900010400047E07C20F08000E07410BD0000B4
:1008A0006C020020F0B58DB0044630221B4968462A
:1008B000FFF716FE00221A4B10466D4602EB420669
:1008C00002EBC20103EB810135F816C00F8A05EB7C
:1008D00046066CF30B070F82B6F802C0B1F8117030
:1008E000521C6CF30F17A1F811703779CE7C886118
:1008F00067F34406C861086246F0E106CE744861B9
:100900000C604C608C60D2B2CC60082AD6D305490A
:1009100099610549D96118620DB0F0BDC45D000848
:100920006C02002025390008ED5200082DE9F04145
:1009300004F0F2FF374F384EB8600820387096F850
:100940003301002520F0600086F8330105EBC50077
:1009500006EB8004E17CC80757D02268B868238A78
:10096000821AC3F30B039A4222D90DB904F0C1FCD9
:10097000E07C810604D440F06000E074B868A060B8
:100980003978E07C01EBC10106EB8101C0F3430043
:10099000C97CC1F34301884200D93D7096F8330108
:1009A00040F0600086F83301E06970B380472CE0C6
:1009B000E268821AB4F81100B2EB101F21F0400077
:1009C00003D240F02000E0741FE0E074010609D576
:1009D00040F02000E074E06938B17968491C796022
:1009E000804702E020F02000E074206861688842BF
:1009F0000BD9401A00EE100A9FED081AF8EE400AD3
:100A000081EE200A10EE100A60616D1C082D9DDB3E
:100A1000BDE8F0815C0000206C02002000007A44F8
:100A200003F0F4FDFFF782FF392004F031FDF9E710
:100A300072B6FEE700B5044804F09EF802485DF87F
:100A400004EB643004F098B8180900202DE9F04157
:100A50002F482DED028B03F0A1FE2E4803F0F0FE8F
:100A60002B4D2D4C2B4E95ED010A84ED010AB6F964
:100A7000000005F088F89FED298B53EC182B05F04A
:100A800099F805F01FF8274F786095ED020A264D7A
:100A900085ED010AB6F9040005F075F853EC182B42
:100AA00005F088F805F00EF8204EB3EE090A7060E4
:100AB000184894ED001A0838D0ED000A30EE800A8C
:100AC000B4EEC01AF1EE10FA08DABAEE0C0A30EE03
:100AD000800AB4EEC01AF1EE10FA01D884ED000AD3
:100AE000114800F0BBF895ED090A104886ED000AA0
:100AF00000F03EF8084800F0B1F894ED090A094802
:100B000087ED000ABDEC028BBDE8F04100F030B883
:100B10004C02002050000020940B00209A999999D3
:100B20009999B93F3C0B0020680B0020100B002066
:100B300000B503F01FFF5DF804EB03F0CFBE00002B
:100B400004F0EAFE0949486002F072FFFFF77EFFF9
:100B5000FFF770FF02F0E0FF03F064FD02F0F4FC29
:100B600002480221001D04F0BBFCEDE794000020C8
:100B700090EC020A2D4A70EE600AC0ED060A90ED74
:100B8000020A30EE200A10EE101A80ED020A91429D
:100B900003DB9FED270A80ED020A10EE101A254AAA
:100BA000914203D39FED240A80ED020A90ED030ADF
:100BB00090ED041AD0ED021A20EE200A1F4A01EE31
:100BC000210A90ED071AD0ED051A30EEC11A01EE98
:100BD000810A10EE101A80ED080AC0ED070A80EDB8
:100BE000090A914203DB9FED160A80ED090A10EE17
:100BF000101A144A914203D39FED130A80ED090A9B
:100C0000816A032911D110EE101A104A914203DBB8
:100C10009FED0F0A80ED090A10EE101A0D4A91425D
:100C200003D39FED0D0A80ED090A70470050C346BB
:100C30000050C3460050C3C60050C3C60060EA4619
:100C40000060EA460060EAC60060EAC600401C4652
:100C500000401C4600401CC600401CC610B590EC6D
:100C6000020A70EE600AC0ED060A836A012B22D1E7
:100C700010EE904A3C4A9FED3D1A3D4994420ADDF0
:100C800010EE104A944206DC10EE104A8C4202D854
:100C900030EEC10A0DE010EE904A8C420BD910EEF6
:100CA000104A944207DC10EE102A8A4203D830EE34
:100CB000810A80ED060A90ED020AD0ED060A2D4A5F
:100CC00030EE200A10EE101A80ED020A914203DB8A
:100CD0009FED290A80ED020A10EE101A274A914270
:100CE00003D39FED270A80ED020A90ED030A90EDF1
:100CF000041AD0ED021A20EE200A224A01EE210A3F
:100D000090ED071AD0ED051A30EEC11A01EE810AF6
:100D100010EE101A80ED080AC0ED070A80ED090AEE
:100D2000914203DB9FED180A80ED090A10EE101ABC
:100D3000164A914203D39FED160A80ED090A032B50
:100D400011D110EE101A134A914203DB9FED120AE3
:100D500080ED090A10EE101A104A914203D39FED5C
:100D6000100A80ED090A10BD66E633430000B44363
:100D700066E633C30050C3460050C3460050C3C6A6
:100D80000050C3C60060EA460060EA460060EAC65A
:100D90000060EAC600C0DA4500C0DA4500C0DAC526
:100DA00000C0DAC590F82020012A07D0022A05D019
:100DB000416A41F480214162012070470068426924
:100DC0000A43426100207047F0B590F82050046853
:100DD000A468012D05D0022D03D0416A41F4802181
:100DE0005DE014F0406F01D1E50055D5C4F3016416
:100DF000022C03D9416A41F4000150E00125A540CD
:100E00001D608D684FF4C0739DB1CE6835434E6848
:100E100045EAC605066803EB0417F5514FF4C275A1
:100E2000076805EB04150E697E51097D012905D07F
:100E300009E00E88CD6845EA4655EBE701684E5952
:100E400046F480764E511179D579567941EA05619B
:100E500095792D0445EA062529434FF4C6760568A1
:100E600006EB0416A9511178D57841EA0561957809
:100E700052782D0445EA022211434FF4C4750268EA
:100E800005EB04155151006803EB0411425842F080
:100E9000010242500020F0BD416A41F4001141625C
:100EA0000120F0BD10B590F82020012A07D0022AB9
:100EB00005D0416A41F480214162012010BD3B48C8
:100EC000D0F8002242F00102C0F80022D0F800223F
:100ED00022F47C52C0F80022D0F800224B6A42EA89
:100EE0000322C0F800220A7D02F01F0301229A406B
:100EF000D0F81C329343C0F81C32CB69B3B9D0F898
:100F00000C329343C0F80C328C894B6864F31F4356
:100F10004C6900EBC404C4F840320C890B6864F3DC
:100F20001F434C6900EBC404C4F84432CB69012B65
:100F300016D1D0F80C321343C0F80C320C884B6831
:100F400064F31F434C6900EBC404C4F840320C89BD
:100F5000CB6864F31F434C6900EBC404C4F844320B
:100F60008B69002BD0F804320ED01343C0F8043242
:100F70000B69002BD0F8143208D01343C0F8143298
:100F8000096A012904D008E09343EFE79343F5E7AA
:100F9000D0F81C121143C0F81C12D0F8001221F036
:100FA0000101C0F80012002010BD000000640040E4
:100FB000704730B590F82040012C05D0022C03D0AA
:100FC000416A41F480215DE00468002955D024691C
:100FD000A40754D04FF4D874056804EB01142D59BC
:100FE00015F00405956005682D594ED0ED08556043
:100FF00005682C5904F00204D4604FF4DA740568D3
:1010000004EB01142D5905F00F05156105682D59E4
:10101000C5F30725956105682C59240C54614FF4DC
:10102000DC72046802EB0112A4581C700468A45816
:10103000240A5C700468A458240C9C700468A258AC
:10104000120EDA704FF4DE72046802EB0112A4583B
:101050001C710468A458240A5C710468A458240C08
:101060009C710468A258120EDA71006881B101699E
:1010700041F020010161002030BDE468A8E7416A29
:1010800041F400114162012030BD6D0D1560AFE7E4
:10109000C16841F02001C160EDE72DE9F05F054630
:1010A000006800244669D0F804908768D0F80CB036
:1010B000D0F810A0D0F81880F10748D0F90714D064
:1010C00001218160B80703D5284600F044FB0CE0FD
:1010D000780702D54FF4006407E0380702D54FF4D3
:1010E000805402E0284600F035FBF80516D5296843
:1010F0004FF480708860B80503D5284600F02DFBBA
:101100000CE0780502D544F4005407E0380502D518
:1011100044F4804402E0284600F01EFBF80316D594
:1011200029684FF480308860B80303D5284600F062
:1011300016FB0CE0780302D544F4004407E03803C2
:1011400002D544F4803402E0284600F007FB300763
:1011500007D55FEACB6004D52968102044F40074F9
:10116000C86070074FF0080707D55FEA0B7004D519
:101170002868C760284600F09BF9B00706D52868A4
:10118000C068800702D0284600F094F9700607D5A1
:101190005FEACA6004D52968102044F480640861BD
:1011A000B00607D55FEA0A7004D5286807612846AB
:1011B00000F0A0FAF00606D528680069800702D082
:1011C000284600F098FAB00308D55FEAC96005D553
:1011D000296810204860284600F08EFAF00307D5F1
:1011E0005FEA097004D528684760284600F0B8FA1D
:1011F000300446D55FEA497040D5F00504D55FEA72
:10120000C87001D044F00104B00504D55FEA8870CD
:1012100001D544F00204700504D55FEA487001D599
:1012200044F00404300529D518F0700F26D008F0DA
:101230007000402815D006DC102809D020280AD0DC
:10124000302816D10AE050280ED0602811D10EE0C7
:1012500044F008040DE044F010040AE044F02004D7
:1012600007E044F0400404E044F0800401E044F46A
:1012700080742868816921F07001816129680420E7
:101280004860002C05D0686A204368622846FFF752
:101290008FFEBDE8F09F70B5040003D094F82000E5
:1012A00010B104E0012070BD204600F081F82068F4
:1012B000016841F00101016000F018FD05460526B6
:1012C00004E000F013FD401B0A2811D82068406894
:1012D000C007F6D02068016821F00201016000F02B
:1012E00005FD05460BE000F001FD401B0A2806D96C
:1012F000606A40F40030606284F82060D2E72068C1
:1013000040688007EFD4207E0128206801683DD026
:1013100021F080010160607E01282068016838D0DA
:1013200021F040010160A07E01282068016833D0CF
:1013300021F020010160E07E0128206801682ED0A4
:1013400041F010010160207F01282068016829D048
:1013500021F008010160607F01282068016824D025
:1013600021F004010160D4E902010843D4E9041228
:10137000114308436168491E08432168C861002081
:101380006062012084F82000002070BD41F08001DF
:10139000C0E741F04001C5E741F02001CAE721F074
:1013A0001001CFE741F00801D4E741F00401D9E78B
:1013B000F0B587B0044614216846FFF7C3F8374BF1
:1013C0003748DFF8D4E01968D4F800C0344A022561
:1013D0000326092710300024491CF44524D1196044
:1013E000012907D1016841F000710160006800F037
:1013F00000700590106840F001001060106802ABAA
:1014000000F0010005904FF4C050CDE9000583E8DD
:10141000D0006946234800F071FB00220821142007
:1014200000F0F0FC142033E0DFF87CE0F44531D12B
:10143000D0F800C04CF0806CC0F800C0D0F800C0FC
:1014400001290CF0806CCDF814C0196007D1016837
:1014500041F000710160006800F0007005901068B4
:1014600040F002001060106802AB00F0020005902E
:101470004FF44050CDE9000583E8D00069460B48A1
:1014800000F03CFB00220721402000F0BBFC402084
:1014900000F0AAFC07B0F0BD00640040B8000020D6
:1014A0003038024000000240006800400004024062
:1014B0007047000030B50546006888498FB0884203
:1014C00036D1874B6A4600218648FFF772FD844B70
:1014D0000098854C03F10801B0F5017F45D008DC88
:1014E000A0F5007001380DD0012822D002281FD1AC
:1014F0002DE0A0F50070053845D0A0F5806061387A
:101500007AD155E07748783803F075F9188840BAF1
:1015100000B200EE100AB8EEC00A84ED000A588846
:1015200040BA00B200EE100AB8EEC00A84ED0E0A0E
:1015300062E06C48643803F05EF9588840BA00B243
:1015400000EE100AB8EEC00A84ED270A54E06548A0
:10155000503803F050F9588840BA00B200EE100A33
:10156000B8EEC00A84ED400A46E05E483C3803F01D
:1015700042F9588840BA00B200EE100AB8EEC00A2C
:1015800084ED590A38E05748B43803F00FF957484A
:1015900090ED000A80ED020A80ED030A198849BA2D
:1015A00009B200EE101AB8EEC00A80ED000A23E07E
:1015B000188840BA00B200EE100A4A48B8EEC00AD5
:1015C000C43880ED000A598849BA09B200EE101AF1
:1015D000B8EEC00A80ED010A998849BA09B200EE56
:1015E000101AB8EEC00A80ED020A997900EE101ABE
:1015F000B8EE400A80ED030A3D492868884231D19F
:10160000374B3848083307AA00212830FFF7D1FCB0
:10161000334B364C07980833C834A0F500700138B6
:101620003CD001284AD005281ED006281AD11946D8
:1016300004F58E7003F0DFF8188840BA00B200EEAF
:10164000100A04F1C800B8EEC00A80ED000A5888FC
:1016500040BA00B200EE100AA4F59670B8EEC00AC7
:1016600080ED0E0A0FB030BD1D491E481031A03864
:1016700003F09CF81D48643090ED020A80ED030AE7
:1016800090ED000A80ED020A198849BA09B200EE0D
:10169000101AB8EEC00A80ED000AE3E710491148BD
:1016A0000831283803F0A7F8588840BA00B200EE95
:1016B000100AB8EEC00A84ED0E0AD3E708490948BB
:1016C0000831143803F097F8588840BA00B200EE99
:1016D000100AB8EEC00A84ED270AC3E70064004090
:1016E000DC000020C00A00205C060020500800201A
:1016F00000680040704770477047000070B50446AE
:1017000090F82000012804D0606A40F40020606254
:1017100018E0022084F820002068016821F001010F
:10172000016000F0E3FA05460EE000BF00F0DEFACB
:10173000401B0A2808D9606A40F400306062052026
:1017400084F82000012070BD20684068C007EDD1FA
:10175000606270BD70477047704770477047704750
:1017600070472DE9F0410446876D00F0BFFA064648
:1017700094F835000025022806D08020606584F8A2
:1017800034500120BDE8F0812068016821F0160185
:1017900001602068416921F080014161206C08B935
:1017A000A06C20B12068016821F008010160206868
:1017B000016821F0010101600CE000F097FA801B44
:1017C000052807D920206065032084F8350084F8B7
:1017D0003450D7E720680068C007EED194F85C1059
:1017E0003F208840B860012084F8350084F83450E8
:1017F0000020C7E790F83510022903D08021416509
:1018000001207047052180F835100068016821F03B
:1018100001010160002070472DE9F84304464FF0B4
:101820000009CDF8009063484FF41651A56D00688B
:10183000B0FBF1F72E6894F85C10082000FA01F173
:1018400031420FD021680A6852070BD50A6822F08E
:1018500004020A6094F85C108840A860606D40F053
:101860000100606594F85C104FF0010808FA01F07F
:10187000304208D021684969090604D5A860606D26
:1018800040F00200606594F85C100420884030420B
:1018900008D021680968890704D5A860606D40F008
:1018A0000400606594F85C1010208840304218D025
:1018B00021680968090714D5A860206801684903F0
:1018C00004D50068000308D5A16C07E00168C905CC
:1018D00003D4016821F008010160216C09B12046A0
:1018E000884794F85C1020208840304231D021682D
:1018F0000968C9062DD5A86094F835000528206828
:10190000016806D0490347D5006800031DD4616C07
:101910001CE021F0160101602068416921F080017E
:101920004161206C08B9A06C20B12068016821F0E9
:101930000801016094F85C103F208840A86084F89A
:10194000358084F83490216D1FE0E16B09B12046A9
:101950008847606D00282BD0606DC00714D005202B
:1019600084F835002068016821F0010101600098C9
:10197000401C0090B84203D820680068C007F6D128
:1019800084F8358084F83490E16C002910D001B0DF
:101990002046BDE8F04308470168C905D5D4016871
:1019A00021F01001016084F8358084F83490CCE790
:1019B000BDE8F883000100202DE9F041044600F065
:1019C00095F906465CB1022084F83500002584F8BC
:1019D00034502068016821F0010101600DE0012010
:1019E000BDE8F08100F082F9801B052805D9202090
:1019F0006065032084F83500F2E720680068C007BE
:101A0000F0D12268116820480140D4E9010318434D
:101A1000D4E903363343184363691843A369184371
:101A2000E3691843236A18430843616A042903D110
:101A3000D4E90B1319430843106020684069666AB3
:101A400020F0070130460E43012704280CD1A06A7C
:101A50000643E06A40B12046FEF7BCFE20B14020BC
:101A6000606584F83570BAE7206846612046FEF765
:101A70009DFE94F85C203F2191408160656584F86B
:101A800035700020ACE700003F8010F02DE9F041F8
:101A90000446866D90F83400002501280DD0012001
:101AA00084F8340094F835700020012F07D084F8B2
:101AB000340002252846BDE8F0810220FBE702271A
:101AC00084F8357060652046FEF7AEFE94F85C1031
:101AD0003F208840B0602068016841F01601016035
:101AE000206C20B12068016841F008010160206885
:101AF000016841F001010160DCE700002DE9F84FC9
:101B0000DFF8BCA10022012503264FF00F090AF1DE
:101B1000040BAAF1040E00BF0B6805FA02F423407F
:101B2000A34270D10F7907F00307012F01D0022FD4
:101B300016D187684FEA420806FA08FC27EA0C0724
:101B4000D1F80CC00CFA08FC4CEA070CC0F808C02D
:101B50004768A7430C79C4F3001494403C434460A5
:101B60000C79E443A4070AD0C4684FEA420C06FA91
:101B70000CF7BC438F6807FA0CF72743C7600C7952
:101B800004F00304022C12D1D40800EB840CDCF81E
:101B900020405707FF0E09FA07F824EA0804D1F895
:101BA000108008FA07F848EA0408CCF82080046896
:101BB0004FEA420C06FA0CF7BC430F7907F0030713
:101BC00007FA0CF7274307604C6814F4403F70D0C5
:101BD0003C4C276847F480472760246822F00307BD
:101BE00004F480440094384C07EB040CDCF80848FB
:101BF00097074FEA177809FA08F7BC43334FB84202
:101C000002D1002724E054E0314FB84201D101272E
:101C10001EE0304FB84201D1022719E02E4FB842E2
:101C200001D1032714E02D4FB84201D104270FE062
:101C30002B4FB84201D105270AE02A4FB84201D103
:101C4000062705E0284FB84201D1072700E0082702
:101C500007FA08F72743CCF80878DAF80040574627
:101C6000D1F804C09C435FEACC2C00D51C433C60F7
:101C7000DBF800405F46D1F804C09C435FEA8C2C3F
:101C800000D51C433C60DEF800407746D1F804C024
:101C90009C435FEA8C3C00D51C433C60084F083FE6
:101CA0003C68D1F804C09C435FEACC3C00D51C439F
:101CB0003C60521C102AFFF42FAFBDE8F88F0000E3
:101CC000083C01404438024000300140000002401E
:101CD0000004024000080240000C024000100240D4
:101CE0000014024000180240001C024001488068B5
:101CF00070470000F4000020024881680278114417
:101D000081607047F40000200B4810B5016841F471
:101D100000710160016841F480610160016841F473
:101D200080710160032000F08DF80F2000F006F8AC
:101D300000F03EF8002010BD003C024010B5014606
:101D400088B000222D2000F05DF82D2000F04CF826
:101D500013480024016841F480710160006805A9FE
:101D600000F480700690684600F018F900F036F92B
:101D70000C494000B0FBF1F10C480B4A491E0260CF
:101D800040F2E732C0E90324C0E9011400F0A2FBED
:101D900010B1012008B010BD044800F0E7FBF9E7DE
:101DA0004038024040420F0000200040300F002029
:101DB0000C4882B0016841F480410160006800F481
:101DC000804000900748001F016841F08051016089
:101DD0000068002200F0805000900F21901E02B099
:101DE00000F010B844380240002809DB00F01F0260
:101DF000012191404009800000F1E020C0F800116D
:101E000070470000F0B40E4B1B680C46C3F302236E
:101E1000C3F10705042D00D90425191D072901D296
:101E2000002300E0DB1E012606FA05F1491E2140D1
:101E300099409E40761E16403143F0BC02F09CBB98
:101E40000CED00E0064900F0070208684FF6FF03BA
:101E5000184040EA0220034A10430860704700001F
:101E60000CED00E00000FA052DE9F0470E460500F4
:101E700065D0DFF81481D8F80000F7B200F0070051
:101E8000B04207D288F80070D8F8000000F00700D0
:101E9000B04254D128683D4C810712D5400703D584
:101EA000206840F4E05020602878000703D52068BF
:101EB00040F4604020602068A96820F0F0000843EA
:101EC00020602878C0072DD030496868083901287B
:101ED00012D0022813D0032811D0096889070029DD
:101EE0002DDA216821F0030101432160FFF7FEFE96
:101EF000814641F2883A0EE009688903EFE70968F4
:101F00008901ECE7FFF7F2FEA0EB0901514502D988
:101F10000320BDE8F0872068696800F00C00B0EB92
:101F2000810FEFD1D8F80010404601F00701B1420F
:101F300007D90770006800F00700B04201D0012007
:101F4000E7E72878400705D52068E96820F4E050E5
:101F5000084320602878000706D52068296920F406
:101F6000604040EAC100206000F058F82168084A4B
:101F7000C1F30311515CC840064908600648006877
:101F8000FFF7DCFE0020C4E7003C024008380240B6
:101F90008861000800010020F80000200F22026084
:101FA0000C4A136803F003034360136803F0F00363
:101FB0008360136803F4E053C36012684FF4E05386
:101FC00003EAD20202610448006800F007000860DA
:101FD0007047000008380240003C024004480549B0
:101FE00000680968044AC1F38221515CC840704707
:101FF00000010020083802409861000804480549A3
:1020000000680968044AC1F34231515CC840704716
:10201000000100200838024098610008154810B5FA
:10202000006810F00C02144813D01449042A0FD091
:10203000082A0ED10F4C241F2268236802F03F02A9
:102040005B0207D52068C0F38810A0FB010106E001
:10205000084610BD2168C1F38811A1FB00010023CF
:10206000FEF782F92168C1F30141491C4900B0FB28
:10207000F1F010BD083802400024F40040787D01E2
:102080002DE9F84F04006ED02078DFF84C93C0079C
:10209000A9F104054AD009F104000168C1F38101E6
:1020A000012908D00068C0F3810002280AD1D9F8BC
:1020B0000000400206D52868800337D560680028F4
:1020C000E1D033E06068B0F5803F10D0B0F5A02FCC
:1020D000286810D020F480302860286820F4802000
:1020E00028606068A8B1FFF701FE06460DE0286889
:1020F00040F48030F4E740F480202860F7E700BF28
:10210000FFF7F4FD801B642873D828688003F7D597
:102110000CE0FFF7EBFD064605E000BFFFF7E6FD2C
:10212000801B6428F0D828688003F7D42078DFF873
:10213000AC8280074FF0000A3ED5A748001D016819
:1021400011F00C0F08D00068C0F3810002280BD1F9
:10215000D9F80000400207D42868800716D5E06847
:10216000012800D112E033E1E068B8B10120C8F8DD
:102170000000FFF7BBFD064605E000BFFFF7B6FD18
:10218000801B0228C0D828688007F7D528682169F5
:1021900020F0F80040EAC10028600DE0C8F800A077
:1021A000FFF7A4FD064604E0FFF7A0FD801B022810
:1021B0001FD828688007F7D42078000722D5864FDB
:1021C00087486169703771B101210160FFF78EFDA9
:1021D000064604E0FFF78AFD801B022809D838680C
:1021E0008007F7D50EE0C0F800A0FFF77FFD064698
:1021F00005E082E0FFF77AFD801B02287DD8386871
:102200008007F7D42078400768D5DFF8CCB10027E5
:102210000BF13C0BDBF80000C0000BD4DBF8001026
:1022200041F08051CBF80010DBF80000012700F0EE
:10223000805000906B4E3068C00510D4306840F478
:1022400080703060FFF752FD009005E0FFF74EFD13
:102250000099401A022850D83068C005F6D55E4E65
:10226000A0686C3601280FD00528306810D020F007
:1022700001003060306820F004003060A068B8B120
:10228000FFF734FD00900FE0306840F00100F4E704
:1022900040F004003060F7E7FFF728FD0099411A8D
:1022A00041F28830814266D830688007F4D50EE06C
:1022B000FFF71CFD009007E0FFF718FD0099411A99
:1022C00041F28830814256D830688007F4D42FB16B
:1022D000DBF8001021F08051CBF80010A069C8B3E2
:1022E0003D49091D0968C1F3810102294AD002282C
:1022F000504607D0C8F8600000E03CE0FFF7F6FC6D
:1023000004463BE04746C8F86000FFF7EFFC06468E
:1023100005E000BFFFF7EAFC801B02282BD82868E5
:102320008001F7D4D4E907010843A16A2E4A49087D
:1023300002EB0141626A41EA8211084394F82C10D1
:1023400040EA0161C9F8001001203866FFF7CEFCB1
:10235000044606E03EE000BFFFF7C8FC001B022871
:1023600009D828688001F7D534E000BFFFF7BEFC2C
:10237000001B022802D90320BDE8F88F28688001DD
:10238000F4D427E00128F7D0D9F80000E26900F47E
:10239000800191421CD1226A00F03F01914217D185
:1023A00047F6C071626A0140B1EB821F10D1A26A88
:1023B0004FF0FF3300F4403103EB5202B1EB024F18
:1023C00006D194F82C1000F07060B0EB016F01D0D2
:1023D0000120D1E70020CFE7043802400000474247
:1023E000800E4742007000400000FFFF70477047BA
:1023F00010B590F83C20012A22D0012280F83C2020
:10240000CA688C6822F4407222434C6822F48062CD
:1024100022430C6822F4006222430C6922F48052A9
:1024200022434C6922F400522243C969002322F45A
:1024300080420A4301684A6480F83C30002010BDA5
:10244000022010BD70B590F83C20012A32D0012442
:1024500080F83C40022280F83D2003685A689D685D
:1024600022F070060A6832435A60134B02689A429F
:1024700014D0B2F1804F11D0104B9A420ED0104BB5
:102480009A420BD00F4B9A4208D00F4B9A4205D07C
:102490000E4B9A4202D00E4B9A4204D1496825F065
:1024A00080031943916080F83D40002180F83C1082
:1024B000084670BD022070BD0000014000040040CD
:1024C00000080040000C00400004014000400140B2
:1024D0000018004010B5040003D094F83D0010B17E
:1024E00007E0012010BD002084F83C00204600F0E9
:1024F0001FF8022084F83D00211D206801F024FC13
:10250000012084F8460084F83E0084F83F0084F8F7
:10251000400084F8410084F8420084F8430084F8C5
:10252000440084F8450084F83D00002010BD000000
:1025300008B500680B49884212D10B48016841F088
:10254000020101600068002200F0020000900F21EB
:102550002D20FFF757FCBDE808402D20FFF744BCB5
:1025600008BD0000000401404438024090F83D10CE
:10257000012901D001207047022180F83D10016837
:10258000CA6842F00102CA6000681149884214D04A
:10259000B0F1804F11D00F4988420ED00E498842C9
:1025A0000BD00E49884208D00D49884205D00D490C
:1025B000884202D00C49884204D1816801F00701A9
:1025C000062903D0016841F0010101600020704735
:1025D000000001400004004000080040000C0040E2
:1025E00000040140004001400018004070B504465E
:1025F00090F83C000025012817D0012684F83C60A3
:10260000022084F83D002068826822F0770222F4DC
:102610007F4282600868502838D00DDC20284FD0D7
:1026200005DC90B3102811D14AE0022070BD30289B
:1026300046D040280AD13BE060282FD070280DD02A
:10264000B0F5805F03D0B0F5005F12D0012584F8AB
:102650003D60002084F83C00284670BDCB68D1E97D
:102660000121206801F0E1FB2068816841F07701D9
:1026700009E0CB68D1E90121206801F0D6FB206890
:10268000816841F480418160E1E719E0CA684968E6
:10269000206801F09FFC5021206806E0CA68496864
:1026A000206801F0A8FC6021206801F0C8FBCEE79B
:1026B000CA684968206801F08DFC40212068F4E771
:1026C000226801461046F0E7704770B5044600687E
:1026D00001694FF00005C943890715D4C168C94392
:1026E000890711D4E91E01610120207720688069E3
:1026F0008007204602D0FFF7E7FF04E000F0C2F8B1
:10270000204600F054F9257720680169C94349073C
:1027100017D4C168C943490713D46FF0040101619C
:10272000022020772068806910F4407F204602D084
:10273000FFF7CAFF04E000F0A5F8204600F037F9E3
:10274000257720680169C943090716D4C168C943C0
:10275000090712D46FF00801016104202077206876
:10276000C0698007204602D0FFF7AEFF04E000F00A
:1027700089F8204600F01BF9257720680169C943D4
:10278000C90617D4C168C943C90613D46FF0100134
:102790000161082020772068C06910F4407F20463E
:1027A00002D0FFF791FF04E000F06CF8204600F043
:1027B000FEF8257720680169C943C90708D1C168B7
:1027C000C943C90704D1891E0161204600F054F9AC
:1027D00020680169C943090609D4C168C9430906CB
:1027E00005D46FF0800101612046FFF7FFFD2068EE
:1027F0000169C943490609D4C168C943490605D4DA
:102800006FF040010161204600F040F92068016945
:10281000C94389060BD4C168C943890607D46FF040
:10282000200101612046BDE87040FFF7E0BD70BDAA
:1028300010B586B0044614216846FDF783FE0E49A4
:102840002068884216D10D480021026842F0040237
:102850000260006800F0040005904FF48070009062
:102860000220CDE901010320CDE9031069460448A7
:10287000FFF744F906B010BD0004014030380240B3
:1028800000080240704770B5044690F83C000026EE
:102890000D4601280FD0012084F83C006AB1042ABB
:1028A0001DD0082A2FD00C2A3FD00126002084F802
:1028B0003C00304670BD022070BD206801F0C8FAAF
:1028C0002068816941F0080181612068816921F0F7
:1028D00004018161206881692A69114311E020683F
:1028E00001F0E6FA2068816941F4006181612068A5
:1028F000816921F480618161206881692A6941EAE6
:1029000002218161D2E7206801F008FB2068C169DB
:1029100041F00801C1612068C16921F00401C16171
:102920002068C1692A69114311E0206801F02AFB7F
:102930002068C16941F40061C1612068C16921F466
:102940008061C1612068C1692A6941EA0221C161CF
:10295000ACE710B5040003D094F83D0010B107E0D7
:10296000012010BD002084F83C00204600F01EF835
:10297000022084F83D00211D206801F0E5F90120C6
:1029800084F8460084F83E0084F83F0084F8400054
:1029900084F8410084F8420084F8430084F844003D
:1029A00084F8450084F83D00002010BD7047704752
:1029B00010B50446022249B104290ED0082913D0CB
:1029C00094F84100012816D0012010BD94F83E0073
:1029D0000128F9D184F83E200FE094F83F00012847
:1029E000F2D184F83F2008E094F840000128EBD1B0
:1029F00084F8402001E084F841200122206801F0A1
:102A000007FA16492068164A884201D0904203D13D
:102A1000436C43F4004343642068884213D0B0F110
:102A2000804F10D00F4988420DD00F4988420AD0FC
:102A30000E49884207D0904205D00D49884202D005
:102A40000C49884204D1816801F00701062903D0AE
:102A5000016841F001010160002010BD000001404B
:102A6000000401400004004000080040000C004049
:102A7000004001400018004000680349884201D12D
:102A8000FFF73AB9704700000020004070477047D8
:102A900010B504460068406994F83D10C0F3C010BA
:102AA000212911D180B12068143050E8001F21F095
:102AB000800140E80012002AF5D1606B08B1FEF7F2
:102AC00050FE204601F052FB2068406994F83E1009
:102AD000C0F38010222911D180B12068143050E851
:102AE000001F21F0400140E80012002AF5D1A06B40
:102AF00008B1FEF736FE204601F011FB002010BDA4
:102B000070470000F8B5016804460868CA684B6958
:102B100010F00F0F4FF0000559D003F0010602F43A
:102B20009077374365D0C10705D0D10503D5216C17
:102B300041F001012164410705D5D90703D0216C7B
:102B400041F002012164810705D5D90703D0216C2A
:102B500041F004012164010707D502F0200131434F
:102B600003D0216C41F008012164216C00293AD086
:102B7000800604D5900602D5204601F037FB206878
:102B80004069216CC0F38010090700D460B320466F
:102B900001F0C5FA20684069400621D5206814304C
:102BA00050E8001F21F0400140E80012002AF5D152
:102BB000A06BA8B16C490165A06BFEF71BFE002855
:102BC00011D0A06B016D01B0BDE8F040084783064D
:102BD0000FD593060DD52046BDE8F84001F006BBA1
:102BE0002046FFF78DFFF8BD2046FFF789FF2564DB
:102BF000F8BD266B2023012E79D1C60677D5D606DF
:102C000075D50868486800904869400640D5A16BB2
:102C1000086840680004000CEAD0A28D8242E7D91F
:102C2000E085C869B0F5807F2DD020680C3050E871
:102C3000001F21F4807140E80012002AF5D12068BD
:102C4000143050E8001F21F0010140E80012002A72
:102C5000F5D12068143050E8001F21F0400140E811
:102C60000012002AF5D184F83E30256320680C302C
:102C700050E8001F21F0100140E80012002AF5D1B1
:102C8000A06BFEF76EFDA08DE18D401A81B229E0A8
:102C9000A08DE18D401A81B2E08D0028A8D00029D6
:102CA000A6D020680C3050E8002F22F4907240E843
:102CB0000026002EF5D12068143050E8002F22F0B5
:102CC000010240E80026002EF5D184F83E3025634D
:102CD00020680C3050E8002F22F0100240E800235A
:102CE000002BF5D12046FFF7D2FEF8BDFFE7050621
:102CF0002BD5150629D594F83D002128F5D1A068DB
:102D0000B0F5805F01D12069B0B1206A411C216219
:102D1000216800784860E08C401E0004000CE084CC
:102D2000E3D12068C16821F08001C1602068C168DA
:102D300041F04001C160D8E7206A0088C0F3080074
:102D40004860206A801C2062E5E74006CDD5500629
:102D5000CBD5CA68204622F04002CA6084F83D30D4
:102D600000F0F3F9C1E700002940000870B5040045
:102D700004D094F83D00002510B106E0012070BD9C
:102D800084F83C50204600F023F8242084F83D00CD
:102D90002068C16821F40051C160204601F086FA24
:102DA0002068016921F4904101612068416921F0A6
:102DB0002A0141612068C16841F40051C160256465
:102DC000202084F83D0084F83E00002070BD000003
:102DD0002DE9F04F87B0054614216846FDF7B2FB98
:102DE0007548744A2B68002473491038022603275B
:102DF0004FF00808934232D10A6842F480120A6008
:102E0000096801F480110591016841F00401016035
:102E1000016801F004010591016841F008010160B9
:102E2000006802AA00F0080005909814CDE9000699
:102E300082E8900169466148FEF760FE0420CDE912
:102E4000000602AA694682E890015D48FEF756FE38
:102E5000002205213520FEF7D5FF352044E0564AF3
:102E6000DFF860C1121DDFF860E14FF0070A4FF094
:102E7000006B63453DD1116841F01001116011688C
:102E800001F010010591016841F001010160006845
:102E900002AB00F0010005904FF4C060CDE90006E0
:102EA00083E8900469467046FEF728FE484E47487E
:102EB0003060C6E901B40015C6E9034080107461B2
:102EC000C6E906404FF44030C6E908043046FEF734
:102ED00073FD08B1FDF7ACFDAE630022082125208B
:102EE000B563FEF78FFF2520FEF77EFF07B0BDE834
:102EF000F08FDFF8E0C04FF00109634537D10A6871
:102F000042F400320A60096801F400310591016859
:102F100041F0010101600068694600F00100059080
:102F20000C208DE84102CDE9037A7046FEF7E6FDFC
:102F3000274E294860363060C6E901B40015C6E95D
:102F4000034074614FF44030B461C6E90740304635
:102F50007462FEF731FD08B1FDF76AFDAE63002231
:102F600007212620B563FEF74DFF2620BCE71B494D
:102F70008B42BBD1116841F020011160116801F052
:102F800020010591016841F0040101600068694673
:102F900000F004000590C0208DE84102CDE90378DF
:102FA0000648FEF7ABFD002207214720FEF72AFF67
:102FB000472099E700500040403802400008024096
:102FC000000C02400010014000000240406402403A
:102FD000700E002000440040886002400014014050
:102FE00090F83E30202B0ED159B152B190F83C30C0
:102FF000012B08D0012380F83C300023036301F04B
:10300000DBB9012070470220704790F83E30202B3A
:103010000ED159B152B190F83C30012B08D00123A8
:1030200080F83C300023036301F010BA01207047A0
:103030000220704710B504460068114988420AD141
:10304000104800F085FD0020FDF704FC12220D4918
:103050000D48FFF7C5FF0D49206888420FD10C4885
:103060004168491C4160407800F0C0FB08490648AF
:103070000122491CBDE810408838FFF7C6BF10BDCB
:103080000044004080010020E80D00200050004076
:10309000EC000020704700002DE9F843044690F84A
:1030A0003D001F4616460D4620284CD1C5B1BEB185
:1030B00094F83C00012846D0012084F83C004FF0F1
:1030C0000008C4F84080212084F83D00FEF70EFE81
:1030D000A6848146E684A068B0F5805F03D004E052
:1030E0000120BDE8F883206928B12E465FF0000575
:1030F00084F83C800EE00026FAE78021204601F0AB
:10310000C2F9A0B9AEB116F8010B21684860E08C95
:10311000401EE084E08C4B464FF0000200970028F0
:10312000EBD14FF04001204601F0ADF930B1032062
:10313000D7E735F8020BC0F30800E6E7202084F853
:103140003D000020CDE70220CBE77047FEE790ED81
:10315000070AD0ED0E0AB0EE002A43F6982230EEB0
:10316000600A80ED140A90ED131AD0ED0F1A70EE7C
:10317000410A60EEA10AD0ED101A41EE800AF0EE8D
:10318000401A41EE421A90ED122A71EE821A90ED29
:10319000112A42EE210AC0ED180A80ED121A80EDC4
:1031A000130AB0F95C1000EE101AB8EEC00A30EE47
:1031B000200ABDEEC00A10EE101A09B2A0F85C1089
:1031C000914202DA5242914201DCA0F85C20704741
:1031D000104810B50E4901600321416000214FF4F1
:1031E00000228160C0E903124FF44012426101766F
:1031F00041768176C176017701214177FEF74BF860
:10320000002803D0BDE81040FDF712BC10BD00003F
:1032100000640040C00A0020104810B50E4901604B
:103220000321416000214FF400228160C0E90312B4
:103230004FF440124261017641768176C176017782
:1032400001214177FEF727F8002803D0BDE81040A0
:10325000FDF7EEBB10BD000000680040E80A00204A
:10326000114808B5016841F400110160016801F4DA
:1032700000110091016841F48001016000680022A2
:1032800000F48000009005211020FEF7BBFD102007
:10329000FEF7AAFD002205213A20FEF7B3FDBDE8A6
:1032A00008403A20FEF7A0BD3038024010B5A4B067
:1032B0001C221C496846FDF713F90021684601F0FD
:1032C00008FD194C17491C2220611C3107A8FDF785
:1032D00007F9002107A801F0FCFC124960611C22DB
:1032E00038310EA8FDF7FCF800210EA801F0F1FC22
:1032F0000C49A0611C22543115A8FDF7F1F80021FA
:1033000015A801F0E6FC0749E0611C2270311CA8F9
:10331000FDF7E6F800211CA801F0DBFC206224B0D8
:1033200010BD0000F460000894000020154808B5A6
:10333000016841F080010160016801F080010091A5
:10334000016841F001010160016801F00101009193
:10335000016841F002010160016801F00201009181
:10336000016841F004010160016801F0040100916D
:10337000016841F008010160006800F00800009059
:1033800008BD00003038024010B596B000240F94FC
:1033900010941194129413941C2108A81494FDF70E
:1033A000D1F820216846FDF7CDF82A482849016068
:1033B000A721C0E9011444F61F61C0E9031480216C
:1033C000C0E90541FFF786F808B1FDF731FB4FF47E
:1033D00080500F900FA91F48FFF708F908B1FDF7BB
:1033E00027FB1C48FFF7B5FA08B1FDF721FB139442
:1033F00013A918481494FFF725F808B1FDF718FB36
:103400006020089040F62410CDE909040B940C9438
:103410000D94082208A90F480E94FFF734FA08B15A
:10342000FDF706FB00944FF40050CDE904400294F0
:1034300001940394694607480794FEF7D9FF08B141
:10344000FDF7F6FA0348FFF7F3F916B010BD0000D8
:1034500000040140180C00200C4810B50A49016016
:103460004FF461214160002181600C22C160C0E9FC
:1034700004128161C161FFF779FC002803D0BDE827
:103480001040FDF7D5BA10BD00500040600D00207F
:103490000C4810B50A4901604FF4E1314160002148
:1034A00081600C22C160C0E904128161C161FFF733
:1034B0005DFC002803D0BDE81040FDF7B9BA10BD8F
:1034C00000100140A40D00200E4810B50C49016009
:1034D0000D4941604FF48051816000214FF48062BA
:1034E000C0E903120C22C0E90521C161FFF73EFCCF
:1034F000002803D0BDE81040FDF79ABA10BD0000C7
:1035000000440040E80D0020A08601000C4810B5E2
:103510000A4901604FF4E1314160002181600C22D1
:10352000C160C0E904128161C161FFF71FFC00287E
:1035300003D0BDE81040FDF77BBA10BD0014014078
:103540002C0E0020FEE7FEE747480168491C016099
:103550004648007801287CD1002045494FEA000206
:1035600000EBC00303EB001301EB8303401C40B2EC
:10357000A3F85C200428F3DB3F489FED3E0A454B4F
:1035800080ED090A80ED020A80ED080A80ED060A46
:1035900080ED070A394880ED090A80ED000A80EDC8
:1035A000020A80ED080A80ED060A80ED070A344819
:1035B000A0F85C2080ED0E0A80ED070A80ED180A65
:1035C00080ED130A80ED120A2E4880ED090A80ED85
:1035D000000A80ED020A80ED080A80ED060A80EDFF
:1035E000070A294880ED090A80ED000A80ED020AE9
:1035F00080ED080A80ED060A80ED070A234880ED79
:10360000090A80ED000A80ED020A80ED080A80EDCB
:10361000060A80ED070A1E4880ED090A80ED020ABD
:1036200080ED070A80ED080A80ED000A80ED060AA9
:10363000002000BF00EBC00101EB001103EB810192
:1036400081ED150AA1F85C2081ED080A81ED160ACA
:1036500000E007E0401C81ED140A40B281ED130A3E
:103660000228E7DB7047000058000020000000201F
:103670005C06002000000000EC0B0020C00B0020C6
:10368000EC070020940B0020680B00203C0B00206E
:10369000100B0020180900202DE9F0410024051D21
:1036A000494EB0F8847027E0285DC0283BD012DC7A
:1036B000A52829D008DC902822D0A02824D0A12831
:1036C00022D0A22817D11FE0B02824D0B12822D0C0
:1036D000B22810D11FE0D1286BD006DCC12822D03F
:1036E000C22820D0D02806D124E0D92855D0E028FF
:1036F00068D0F02866D0641CA742D5DCBDE8F08114
:1037000068783070A41CF7E7281950F8011FB160E1
:103710008088B0813FE0281950F8011FC6F80E10CC
:103720008088708237E0281950F8011F7161808805
:10373000308330E02819DFED250A4178827801EBEB
:10374000022109B200EE101A2149B8EEC01A81EE2A
:10375000200A81ED000AC2780379BDEEC00A02EBAF
:10376000032212B201EE102AB8EEC11AC1EE201ADD
:10377000F2EE040AC1ED011A86ED010A4279807960
:1037800002EB002000B200EE100AB8EEC00A80EE94
:10379000201A81ED021AE41DAEE70D4829190C38F4
:1037A00051F8012FC2604A68026189680D34416195
:1037B000A2E70748291910220C30491CFCF74BFEE0
:1037C000113499E7641D97E7180000200000C842F3
:1037D0003002002000B501F06FFF00F06FFFFDF731
:1037E000A7F95DF804EB00F099BF00002DE9F04166
:1037F000384C014620462778D0E903200623A61D31
:103800000025072F62D2DFE807F004081A1F272AD5
:1038100031005A295BD1012009E080F88810A529E0
:1038200004D0A62905D0A72951D105E00220207097
:103830004DE0EAB3904749E00560237047E0A0F807
:103840008410B1700320F2E730F8842F42EA01229D
:103850000280F1700420EAE761800520E7E76288D2
:1038600042EA012161800560A580E6E70368061D44
:103870005F1C0760995590F88810A72907D1016847
:10388000082904D30821A0F88410904725702069E6
:10389000B0F884200168914219D390F88800A528D7
:1038A00015D10C490422891D881E00F097FE00E006
:1038B0000CE02169074804C9001D00F08FFEA088B4
:1038C0006188884202D1D4E903108847257000201E
:1038D000BDE8F0813400002070B5044D0446E96075
:1038E0008C21FCF72FFE2C6170BD000034000020FD
:1038F000002801DC404200B2704700000848002167
:103900000122018041808180C180027203224272C3
:1039100041818181C18101744174418270470000FD
:103920006C01002070B5194CB4F90000FFF7E0FFFE
:103930004FF4FA55A84217DCB4F90200FFF7D8FF9C
:10394000A84211DCB4F90400FFF7D2FFA8420BDC57
:10395000B4F90600FFF7CCFFA84205DC207A18B1C5
:10396000607A08B1002070BD002020806080A080B7
:10397000E08001212172032161726081A081E081D8
:10398000207460746082012070BD00006C01002012
:10399000012080F31388BFF34F8F05480168054A63
:1039A00001F4E06111430160BFF34F8F00BFFDE7F9
:1039B0000CED00E00400FA05184810B5B0F9081045
:1039C000B0F9062016488B1800EE103A541A891ADE
:1039D000B8EEC00A80ED070A00EE104AB8EEC00A41
:1039E00080ED200A00EE101A5942B8EEC00A80EDB0
:1039F000390A00EE101A0B49B8EEC00A80ED520ADF
:103A0000497A012907D0032904D19FED070A00BF95
:103A100080ED520A10BD9FED050AF9E70000002075
:103A20005C0600206C0100200000000000803B4587
:103A300070B52F4D4FF42F725342B5F90200B5F90E
:103A4000044000F16401C82903D9904201DC984286
:103A500000DA002004F16401C82903D9944201DC92
:103A60009C4200DA002402F08EF89FED221B53ECFA
:103A7000112B02F09FF802F057F806B2204602F030
:103A800082F89FED1E1B53EC112B02F093F802F00D
:103A90004BF8724201B200EE902A1A4895ED041AD2
:103AA000F8EEE00A90ED000A174A01EE200A00EE57
:103AB000901AF8EEE00A80ED000AD2ED001A10EE3E
:103AC000101A41EE201ADFED120AC2ED001A0F4A59
:103AD000914202DD30EE600A06E010EE101A0D4A47
:103AE000914203D930EE200A80ED000A70BD00003B
:103AF000000000207B14AE47E17A943FFA7E6ABC56
:103B00007493783F680B0020940B002066E63343E3
:103B10000000B44366E633C3084902200860084841
:103B200041780848022906D0032903D19FED060AEF
:103B300080ED070A70479FED050AF9E74C00002069
:103B400000000020EC0700200000000000007A4583
:103B500030B5002876D001880023C1F30A023A4923
:103B6000A2F580620A800B32172A00D20B804278BD
:103B70008478D20842EA4412C2F30A02A2F58062B3
:103B80004A800B32172A00D24B808278C47892097F
:103B900042EA8402047942EA8422C2F30A02A2F5CC
:103BA00080628A800B32172A00D28B800279447996
:103BB000520842EAC412C2F30A02A2F58062CA8025
:103BC0000B32172A00D2CB8042799FED211A95093A
:103BD0000D724279C2F301124A72C3884B81048983
:103BE0008C814489CC81047B0C74447B4C74847B31
:103BF00016484C8205704270CA8882808A8842804A
:103C0000B1F9022000EE102AF8EEC00A80EE810A17
:103C1000DFED100A20EE200ABDEEC00A10EE102AD9
:103C2000C280B1F9001000EE101AB8EEC00AC0EE62
:103C3000011A21EEA00ABDEEC00A10EE101A018191
:103C40004381848130BD00006C0100200000002011
:103C5000000025440000FA4410B5502080F311887C
:103C6000BFF34F8FBFF36F8F01F05CFE18B10449B3
:103C70004FF080500860002080F3118810BD0000D4
:103C800004ED00E030B593B030216846FCF75AFCF3
:103C900014210CA8FCF756FC1E480025016841F0D1
:103CA00080510160006800F0805011901A4801684E
:103CB00041F4804101600068022400F480401190CA
:103CC00001200090000401908001CDE906401920F8
:103CD00008904FF4A870CDE9090404200B906846C1
:103CE000FEF7CEF908B172B6FEE70CA90F2081E805
:103CF00031004FF4A0500F904FF4805010900521E8
:103D00000CA8FEF7B1F8002801D072B6FEE713B098
:103D100030BD000040380240007000400248016899
:103D200041F470010160704788ED00E010B504486F
:103D3000FEF7CBFCBDE810400248FEF7C6BC000011
:103D4000180C0020300F0020F0B50268254C264DDD
:103D5000264E274F274B4FF0804CA04209D060459C
:103D600007D0A84205D0B04203D0B84201D0984253
:103D700004D122F0700E4A6842EA0E02A0421BD023
:103D8000604519D0A84217D0B04215D0B84213D020
:103D9000984211D0184DA8420ED0184DA8420BD011
:103DA000174DA84208D0174DA84205D0164DA8427D
:103DB00002D0164DA84203D122F44075CA682A43A6
:103DC0004D6922F080022A4302608A68C2620A6852
:103DD0008262A04201D0984201D1096901630121A8
:103DE0004161F0BD000001400004004000080040B7
:103DF000000C00400004014000400140004401402C
:103E00000048014000180040001C00400020004015
:103E100010B501F01F030121046A99408C4304622C
:103E2000016A9A401143016210BD10B5846842EAEC
:103E3000032224F47F440A432243826010BD826837
:103E400022F070020A4342F00701816070470000CF
:103E5000F0B5026A22F001020262036A42688469D4
:103E6000124E24F073050C682C4323F002058B6876
:103E70002B430D4DA84201D0B04205D123F00807D5
:103E8000CB683B4323F00403A84201D0B04205D1E4
:103E90004D6922F4407215438A692A434260846165
:103EA000496841630362F0BD000001400004014025
:103EB000F0B5026A22F010020262026A4368846965
:103EC0000D6824F4E64444EA05248D6822F02002BB
:103ED00042EA05120F4D104EA84201D0B04206D161
:103EE000CF6822F0800242EA071222F04002A84284
:103EF00001D0B04207D14D6923F4406343EA850302
:103F00008D6943EA85034360846149688163026285
:103F1000F0BD00000000014000040140F0B5026A5D
:103F200022F480720262026A4368C46922F4007259
:103F300024F073050C68124E2C438D6842EA05226A
:103F40000E4DA84201D0B04206D1CF6822F40062E3
:103F500042EA072222F48062A84201D0B04207D18F
:103F60004D6923F4405343EA05138D6943EA051371
:103F70004360C4614968C1630262F0BD0000014052
:103F80000004014030B5026A22F480520262046AE1
:103F90004268C3690D6823F4E64343EA05238D684C
:103FA00024F4005444EA0534084DA84202D0084DD8
:103FB000A84204D14D6922F4804242EA851242604F
:103FC000C36149680164046230BD00000000014023
:103FD0000004014010B5036A046A24F0010404627D
:103FE000846924F0F00444EA021423F00A020A432C
:103FF0008461026210BD10B5036A23F010030362EE
:104000008369046A23F4704343EA023224F0A00374
:1040100043EA01118261016210BD00000148FEF710
:1040200071BD0000600D002010B5806B0021C185BE
:10403000C184FEF765FD10BD70B5846B20684069D2
:1040400094F83D10C0F3C0100025212904D118B107
:10405000E584204600F08AF82068406994F83E1014
:10406000C0F38010222904D118B1E585204600F064
:1040700056F8206C40F0100020642046FEF740FD0A
:1040800070BD10B50146806B09680968C9052FD459
:104090000021C18501680C3151E8002F22F48072A3
:1040A00041E80023002BF5D10168143151E8002FBD
:1040B00022F0010241E80023002BF5D10168143100
:1040C00051E8002F22F0400241E80023002BF5D1F7
:1040D000202180F83E10016B012909D101680C31C3
:1040E00051E8002F22F0100241E80023002BF5D107
:1040F000016B012902D0FEF79DFF10BD818DFEF7F7
:10410000C6FC10BD10B5806B016B012902D0FEF713
:10411000C1FF10BD818D4908FEF7B9FC10BD0168D3
:104120000C3151E8002F22F4907241E80023002B5B
:10413000F5D10168143151E8002F22F0010241E865
:104140000023002BF5D1016B012909D101680C3145
:1041500051E8002F22F0100241E80023002BF5D196
:10416000202180F83E1000210163704701680C3166
:1041700051E8002F22F0C00241E80023002BF5D1C6
:10418000202180F83D107047F8B51549884226D1A6
:10419000086800250168406800901148FEF778FC27
:1041A0000F48CC30006840680E4CC0F1800081B2EE
:1041B00061800D4E207806EBC01000F0EFFB2078F8
:1041C00008B1257001E0012020702078802206EBE4
:1041D000C011BDE8F84002484438FEF701BFF8BD01
:1041E000A40D0020EC000020600C002008B590F821
:1041F0003E10222901D0022008BD82684FF480536E
:104200009A4201D1016921B1816A9A421BD04AB117
:104210000AE00268816A5268C2F308020A80816A71
:10422000891C08E0026972B10268526802F07F02DC
:104230000A70816A491C8162C18D491E0904090CFA
:10424000C18503D019E002685268F1E70168CA68C5
:1042500022F02002CA600168CA6822F48072CA6033
:1042600001684A6922F001024A61202180F83E106B
:10427000016B012903D0FEF7DDFE002008BD0021FF
:10428000016301680C3151E8002F22F0100241E86F
:104290000023002BF5D101680A68D20602D50A680E
:1042A00049680091818DFEF7F2FBE6E770B50446A0
:1042B00000680169E26821F44051114301612169FC
:1042C000A068E26908436169114308432168CA682C
:1042D00049F20C639A430243CA6020684169A269AB
:1042E00021F440711143416131492068884202D074
:1042F0003049884202D1FDF781FE01E0FDF76EFEF4
:10430000E2690023192164253226B2F5004F626864
:1043100028D0A0FB0101930F9200FCF725F801467D
:10432000B0FBF5F06FF01802504301EB800006EB94
:104330000010B0FBF5F000F0F002B1FBF5F002EB7D
:104340000012B1FBF5F06FF01803584301EB800049
:1043500006EB0010B0FBF5F000F00F0021681044F0
:10436000886070BDA0FB010192185B41FBF7FCFF68
:104370000146B0FBF5F00201B1FBF5F06FF0180358
:10438000584301EB800006EBC000B0FBF5F000F0F5
:10439000F80002EB4002B1FBF5F0584301EB80005E
:1043A00006EBC000B0FBF5F000F00700D6E7000018
:1043B000001001400014014038B58162828500255B
:1043C000134604460564222084F83E00A26B1C4874
:1043D000D063A26B1B481064A26B1B48D064A06B17
:1043E0000A4605652168A06B091DFDF74FFB206893
:1043F00001684068009084F83C50206948B120680A
:104400000C3050E8001F41F4807140E80012002A8F
:10441000F5D12068143050E8001F41F0010140E858
:104420000012002AF5D12068143050E8001F41F036
:10443000400140E80012002AF5D1002038BD0000FC
:1044400083400008054100083940000881628285E8
:10445000C28500210164222280F83E2080F83C10B1
:10446000016921B10168CA6842F48072CA600168BA
:104470004A6942F001024A610068C16841F02001C6
:10448000C160002070472DE9F041984617460E465E
:104490000446069D27E0681C25D02DB1FDF726FCBB
:1044A000A0EB0800A8421ED920680C3050E8001F7D
:1044B00021F4D07140E80012002AF5D120681430B0
:1044C00050E8001F21F0010140E80012002AF5D158
:1044D000202084F83D0084F83E00002084F83C0051
:1044E0000320BDE8F0812068006836EA000004D0AF
:1044F0000020B842CFD00020F3E70120F9E7000008
:10450000074810B500680068C043C00602D40448DC
:10451000FFF73AFEBDE810400148FEF7F3BA00008D
:10452000A40D0020044882B0006801684068009033
:10453000014802B0FEF7E6BAE80D00200148FEF798
:10454000E1BA00002C0E0020FEE7000007480068DA
:10455000C16841F01001C160064905488022097810
:1045600000EBC1110148FEF73BBD0000A40D002087
:10457000600C0020EC0000200907090E002804DB75
:1045800000F1E02080F80014704700F00F0000F107
:10459000E02080F8141D704701F0BEF906498860DC
:1045A000FEF7D2FFFCF77AF8FCF7D0F802480221B8
:1045B000083000F095FFF3E79400002001F0ACF91B
:1045C00005490860FFF7F8F9FCF7D0F80221024826
:1045D00000F086FFF6E7000094000020F0B50388A5
:1045E000002541F221070CE04C5D002683EA0423FC
:1045F0005C001B0400D57C40761C2346082EF7D3B4
:104600006D1C9542F0D30380F0BD000010B501F0A1
:1046100083F90349C860BDE81040FCF743B90000C6
:104620005C0000200249022048600248FEF78FBD6E
:1046300048000020EC0700200E489FED0D0AF2EE26
:10464000040A80ED000A80ED010AC0ED030ADFEDE7
:104650000A0A0321C0ED040A80ED050A80ED020A72
:10466000816280ED080A80ED060A80ED070A704736
:1046700000000000C00B00200AD7233C0D489FED2E
:104680000C0ADFED0D0A80ED000A80ED010AC0ED95
:10469000030A80ED040A80ED050A80ED020A80ED30
:1046A000080A80ED060A80ED070A0321816270473F
:1046B00000000000EC0B00209A999940124800B5C8
:1046C0009FED101A9FED110A80ED071A80ED0E1A6A
:1046D00080ED0F0A9FED0E0A80ED100A9FED0D0A86
:1046E00080ED110A80ED121A80ED141A80ED131A74
:1046F00080ED181AFFF7A0FFFFF7C0FF064880ED16
:10470000061A00BD00000000EC0700209A995940ED
:10471000F4FD543C8FC2753CE00900201B499FED1D
:104720001A0AF2EE000A81ED0F0A9FED190A002223
:1047300081ED100A9FED170A4FEA020381ED110A7D
:10474000C1ED280ADFED140AC1ED290A81ED2A0A1C
:1047500002EBC20000EB021001EB8000521C80ED66
:10476000160A80ED0E0A80ED070A80ED120A80ED30
:10477000130A80ED140A80ED150A80ED180AA0F8DE
:104780005C30022AE4DB70479A9901411809002045
:104790000AD7233D000000000AD7233C024B0ECB72
:1047A00080E80E00002070473002002090ED000AE3
:1047B00080ED040A0A8852BA12B200EE102AB8EE4E
:1047C000C00A80ED000A4A8852BA00EE102AB8EEFC
:1047D000400A80ED010A8A8852BA00EE102AB8EE2B
:1047E000400A80ED020A897900EE101AB8EE400AFC
:1047F00080ED030A704790ED000A80ED040A0A88F4
:1048000052BA12B200EE102AB8EEC00A80ED000AC9
:104810004A8852BA00EE102AB8EE400A80ED010A2A
:104820008A8852BA00EE102AB8EE400A80ED020AD9
:10483000897900EE101AB8EE400A80ED030A70473D
:104840000349D1F80E200260498A81800020704718
:10485000180000200E489FED0D0ADFED0E0A80EDD6
:10486000000A80ED010AC0ED030ADFED0B0AC0ED7E
:10487000040AF0EE000AC0ED050A80ED020A80EDA0
:10488000080A80ED060A80ED070A70470000000064
:104890003C0B00200000014352B89E3F0E489FEDA4
:1048A0000D0AF2EE040A80ED000A80ED010AC0ED67
:1048B000030A80ED040A80ED050A80ED020A80ED0E
:1048C000080A80ED060A80ED070A0021816280ED6A
:1048D000090A704700000000940B002000B5FFF7A4
:1048E000B9FF5DF804EBFFF7D9BF00000E489FED5C
:1048F0000D0ADFED0E0A80ED000A80ED010AC0ED21
:10490000030ADFED0B0AC0ED040AF1EE040AC0ED64
:10491000050A80ED020A80ED080A80ED060A80EDA6
:10492000070A704700000000100B002000009643AB
:10493000295C8F3D0E489FED0D0AF2EE040A80EDD2
:10494000000A80ED010AC0ED030A80ED040A80ED43
:10495000050A80ED020A80ED080A80ED060A80ED66
:10496000070A0121816280ED090A704700000000FA
:10497000680B002000B5FFF7B9FF5DF804EBFFF707
:10498000D9BF000010B503490348FEF7A5FF00207A
:1049900010BD000099360008A40100202DE9F05F49
:1049A000DFF8D0A1724E00250AF10E090446A6F1E7
:1049B0001108A9F10A0BCF1ED4E02078A5283ED11A
:1049C0000521204600F044FC002879D0A078306012
:1049D000617841EA00213160A079B06062790931E3
:1049E00042EA0020B060634810388160204600F041
:1049F00011FC002864D0207840F20221401C207075
:104A0000B068A0F2022288425BD009DC03280ED0F5
:104A1000A0F58070013813D0B0F5807F0FD11DE074
:104A2000042A71D0052A7AD0062A08D18EE050488F
:104A3000B4F807104C380180B4F8171001828AE0EE
:104A4000E079A17A227A40EA0160617A090441EAB8
:104A5000022108434749091F08607CE0444A14F8D2
:104A6000070F2C3A10706078507060885080A088D2
:104A70009080E079A17908430002D08020891081DC
:104A800060895081607B217B084300029081E0892E
:104A9000D081208A1082608A5082A08A9082E08A27
:104AA000D082208B1083A17E907E4B0861F30000A2
:104AB000890863F3410061F382009076E41F4AE0C5
:104AC0004BE0B4F80700A8F80000B4F80900A8F813
:104AD00002004146002550466219D27A42556D1CAB
:104AE000042DF9DBDAF800004860B4F80F00088103
:104AF000B4F811004881B4F813008881B4F81500A7
:104B0000C88128E000E00AE01A49E07910390A7803
:104B100060F30302000960F307120A701BE0E079FA
:104B200089F80000207A89F80100607A89F802008B
:104B30004946002558466219927A42556D1C042D4B
:104B4000F9DBDBF80000C9F8030004E00949B4F818
:104B5000090008310880641C03E02078401C04F838
:104B6000010B6D1CBD42FFF628AFBDE8F09F0000B1
:104B7000FC0300207C00002090ED070AD0ED0E0A17
:104B8000234A30EE600A80ED140AD0ED150A70EE6B
:104B9000800A10EE901AC0ED150A914203DBDFED9A
:104BA0001D0AC0ED150A10EE901A1B4A914203D35C
:104BB000DFED1A0AC0ED150AD0ED0F0A90ED101ABC
:104BC000D0ED151A60EE800A43F6982241EE210AD4
:104BD00090ED131AD0ED111A30EE411A41EE810A10
:104BE000C0ED160A80ED130ABDEEE00A10EE101AB1
:104BF00009B2A0F85C10914201DBA0F85C20B0F98A
:104C00005C2007498A4201DCA0F85C107047000074
:104C100000401C4600401C4600401CC600401CC60C
:104C200068C5FFFFFDF770F8FFF72CF8FEF77EFB75
:104C3000FEF716FBFEF7CCFAFEF7EEFAFEF728FCBD
:104C4000FEF742FCFEF708FCFEF760FCFEF79CFB5B
:104C5000FEF7C0FDFBF7FEFCFBF754FDFFF776FC0B
:104C6000FFF790FE08210D48FDF7A2FE01220C4936
:104C70000C48FEF7CAF912220B490C48FEF7B0F9AE
:104C80000C490B488022097800EBC1110A48FEF755
:104C9000A7F9FEF70BFB00F017F8FEE7180C002051
:104CA000ED000020600D002080010020E80D0020B4
:104CB000600C0020EC000020A40D002000218428BE
:104CC00000D0C11C0846704710B500F057FC00200A
:104CD00010BD30B585B004460D466169B4F90800D1
:104CE000002910D0A16971B1FFF7E8FF6269A169DD
:104CF0000192029100902B4622692168606800F0C1
:104D0000DBFD049010E0FFF7D9FF04A901910090AA
:104D1000208A2B4682B22168606800F097FD012846
:104D200002D005B0002030BD049805B030BD0000B1
:104D30002DE9F04104460F46194EF5683068001D14
:104D400000F0D9FA48B93068012190F82C0001FA36
:104D500000F0316921EA00003061B4F1FF3F07D172
:104D600037B13068BDE8F041011D0E4800F009BBC5
:104D70002C4430684460AC4206D23068011DB06BF0
:104D8000BDE8F04100F0E2BA3068011D706B00F040
:104D9000DDFAB06A844200D2B462BDE8F08100005E
:104DA000040100205410002070B5044600F0F6FA0B
:104DB0001C4DA868401CA860286810B1686938B10B
:104DC0000CE02C60A868012808D100F0EDF805E09F
:104DD0002868E16AC06A884200D82C60686A401C72
:104DE0006862E06A01212A698140114329610E4904
:104DF00000EB800001EB8000211D00F0C2FA00F002
:104E0000EDFA686900280CD02868E16AC06A884217
:104E100007D206494FF080500860BFF34F8FBFF3B1
:104E20006F8F70BD04010020780F002004ED00E0BA
:104E300070B50D4C6068002815D00C4E00F0AEFA2D
:104E4000F068C568281D00F056FAA068401EA060F2
:104E50006068401E606000F0C1FA284600F008F863
:104E600060680028EAD170BD0401002040100020D5
:104E700010B5044694F8511000290BD0012911D027
:104E8000022914D0502080F31188BFF34F8FBFF355
:104E90006F8FFEE7206B00F0B7FA2046BDE81040A8
:104EA00000F0B2BA2046BDE8104000F0ADBA10BD27
:104EB0004FF47051104810F0070F06D0C01D20F0BD
:104EC00007000D49411AC1F570510C4A10600023CA
:104ED00053600144083921F00701183A11604B6012
:104EE0000B600B1A436001604068906050604FF0A7
:104EF00000405061704700006810002058010020F9
:104F0000074E4FF08054074DFFF792FF306801289D
:104F1000FAD92C60BFF34F8FBFF36F8FF4E7000017
:104F2000780F002004ED00E02DE9F0478146099E4E
:104F3000089D0A9C9A46521E206B00EB820020F0CE
:104F40000708002700290CD0002023180A5C83F8EA
:104F500034200A5C12B1401C1028F6D384F8437048
:104F600001E084F83470072D00D30625E5626564FE
:104F7000A764201D00F0E7F904F1180000F0E3F940
:104F80002461C5F10700A0616462E76484F8507091
:104F900052464946404600F003F92060002E00D0FA
:104FA0003460BDE8F087000070B500240F4D04EBBD
:104FB000840005EB800000F0BBF9641C072CF6D3DD
:104FC0000B4800F0B5F90B4800F0B2F90A4800F0C0
:104FD000AFF90A4800F0ACF9094800F0A9F909480E
:104FE000034941631431816370BD0000780F0020D4
:104FF00004100020181000202C1000204010002069
:10500000541000200401002010B4144900E011469F
:105010000A688242FBD34B6803EB010C844503D141
:1050200040681844486008460C68D0F804C00CEB8F
:105030000003A3420CD10A4B1B689A4206D0526867
:10504000624442600A681268026002E0036000E0A5
:105050000260814200D0086010BC704758010020F7
:10506000400100200749486B0068002805D0486BC4
:10507000C068C0684068886270474FF0FF3088623F
:1050800070470000040100200A484068B0F1FF3F6B
:1050900007D0502080F31188BFF34F8FBFF36F8F7D
:1050A000FEE7502080F31188BFF34F8FBFF36F8F5F
:1050B000FEE70000600100202DE9F04105460026D2
:1050C00000F0A0FA344F386808B9FFF7F1FE7869AC
:1050D000054251D19DB1083515F0070F0FD005F0ED
:1050E0000700C0F10800054415F0070F07D0502055
:1050F00080F31188BFF34F8FBFF36F8FFEE7002D52
:105100003AD07868854237D824490846046801E0D7
:10511000214604466068A84202D220680028F7D1E0
:105120003868844228D0086800F1080620680860C2
:105130006068411B10290FD9601910F0070F07D0C4
:10514000502080F31188BFF34F8FBFF36F8FFEE7BE
:1051500041606560FFF758FF61687868401A7860C1
:10516000BA68904200D2B860786908436060002055
:105170002060F868401CF86000F03EFC16F0070F55
:1051800007D0502080F31188BFF34F8FBFF36F8F8C
:10519000FEE73046BDE8F0814001002058010020C4
:1051A000001F4FF080730360001F21F001010160B8
:1051B000001F0549016014380260001F6FF00201F2
:1051C00001602038704700008950000810B560B1B8
:1051D000084C491E89B20BD310F8013B5340DBB297
:1051E00034F8133083EA1222F3E74FF6FF7010BD54
:1051F000104610BDF45E000810B5054C04E000BF79
:1052000010F8013B5340E25C491EF9D2104610BD34
:10521000F45D000830B50C46050013D0022C11D9FE
:10522000A01E81B2094802882846FFF7CFFF29193E
:10523000C2B211F8023C9A4206D111F8011CB1EB3E
:10524000102F01D1012030BD002030BD9200002080
:1052500030B50C4605000CD0022C0AD9FF22611E85
:10526000FFF7CAFF291911F8011C814201D1012061
:1052700030BD002030BD0000FEB580208DF8040058
:105280007F208DF808000020164D8DF8000006469E
:1052900085EC050A002405EB860739191023012245
:1052A0001148FDF7F9FE641C042CF6DB761C052E74
:1052B000F0DB1023012269460B48FDF7EDFE1023B9
:1052C000012269460848FDF7E7FE1023012201A9E3
:1052D0000548FDF7E1FE1023012202A90248FDF76F
:1052E000DBFEFEBD580200202C0E00202420FEF71D
:1052F0004FFBFEF703BB0169436882689A608368CD
:1053000042685A604A68824201D182684A6000223B
:1053100002610868401E086008687047034B03601C
:1053200003F15400086080201060704708040020DA
:1053300000F1080141604FF0FF328260C1600161FD
:1053400000210160704700210161704710B4D1F85D
:1053500000C0BCF1FF3F02D000F1080202E0026988
:1053600004E01A4653681C686445FAD953684B60D8
:1053700099608A60516008610168491C016010BC35
:10538000704742684A6093688B6093685960916087
:1053900008610168491C016070470000502080F3DB
:1053A0001188BFF34F8FBFF36F8F0A494868401CC5
:1053B000486001280CD10848006810F0FF0F07D0A2
:1053C000502080F31188BFF34F8FBFF36F8FFEE73C
:1053D000704700006001002004ED00E009494868C2
:1053E000002806D0401E4860002801D180F31188B3
:1053F0007047502080F31188BFF34F8FBFF36F8F3A
:10540000FEE700006001002070B500282AD0A0F15E
:105410000804154D60686969084207D1502080F37F
:105420001188BFF34F8FBFF36F8FFEE722683AB149
:10543000502080F31188BFF34F8FBFF36F8FFEE7CB
:105440008843606000F0DEF860686968084468605E
:105450002046FFF7D9FD2869401C2861BDE870404F
:1054600000F0CABA70BD0000400100204FF0E020FB
:1054700000210161816105494FF47A720968B1FB2D
:10548000F2F1491E416107210161704700010020CE
:1054900010B502460020002A12D00F48006B38B128
:1054A000502080F31188BFF34F8FBFF36F8FFEE75B
:1054B00000F0A8F800211046FFF73AFC00F09CFA33
:1054C000002807D105494FF080500860BFF34F8F87
:1054D000BFF36F8F10BD00000401002004ED00E059
:1054E00070B504460D460023002C0BD095B1214A1F
:1054F000106BB8B1502080F31188BFF34F8FBFF30A
:105500006F8FFEE7502080F31188BFF34F8FBFF3FA
:105510006F8FFEE7502080F31188BFF34F8FBFF3EA
:105520006F8FFEE700F06EF8D268D4F800C00CEB85
:105530000501944505D98C4508D9914206D9012326
:1055400004E08C4501D8914200D9012321601BB1B0
:10555000881A0021FFF7ECFB00F04EFA002807D173
:1055600005494FF080500860BFF34F8FBFF36F8F36
:1055700070BD00000401002004ED00E010B586B00D
:1055800000240594049403AA04A905A8FFF7C6FE05
:1055900005980499019102900023009415A11748E1
:1055A000039A00F089F91649C86208B1012000E0A9
:1055B000002001280AD0B0F1FF3F19D1502080F31C
:1055C0001188BFF34F8FBFF36F8FFEE7502080F33A
:1055D0001188BFF34F8FBFF36F8F4FF0FF3088629A
:1055E00001204861CC6006B0BDE8104000F0ACB8C6
:1055F00006B010BD49444C4500000000014F0008B2
:10560000040100200248016B491C0163704700003F
:1056100004010020154A106B002802D00120D0613F
:1056200070470020D0611069B0FA80F0C0F11F000F
:105630000F4900EB800051F8203073B101EB80007E
:1056400041684968416000F10803994201D1496805
:1056500041604068C06810607047502080F3118836
:10566000BFF34F8FBFF36F8FFEE7000004010020F0
:10567000780F00202DED028B00F04EF90B490C4CF9
:105680009FED0C8AC1F80C00D4ED590AB0EE481A0F
:1056900094ED520AB0EE412AF0EE411AFFF7ECFD0C
:1056A000024802210C30FFF71BFFEDE794000020B9
:1056B0005C060020000000001D48B2EE050A9FEDC8
:1056C0001D1A80ED0F0ADFED1C0A80ED101AC0EDE7
:1056D000110ADFED1A1A80ED280AC0ED291AC0ED73
:1056E0002A0A80ED410A80ED421AC0ED430A80ED9E
:1056F0005A0A9FED130A002180ED5B0A9FED110A03
:10570000C0ED5C0A01EBC10202EB011200EB820268
:10571000491C82ED070A82ED0E0A82ED120A82ED23
:10572000140A49B282ED130A0429EBDB704700002A
:105730005C060020C3F5A83E0AD7233C3333B33EB2
:105740005C8FC23E0000000010B582B0384801688E
:10575000384A914207D1502080F31188BFF34F8F10
:10576000BFF36F8FFEE700683349884207D15020AE
:1057700080F31188BFF34F8FBFF36F8FFEE72F4980
:1057800008780190FF200870087800909DF80000CC
:105790009DF8002000F0F000904207D0502080F3E8
:1057A0001188BFF34F8FBFF36F8FFEE79DF80000A6
:1057B000234C00F0500020700720A0609DF80000EE
:1057C00010F0800F0BD0A068401EA0609DF8000074
:1057D000400000909DF8000010F0800FF3D1A06809
:1057E000032807D0502080F31188BFF34F8FBFF3F9
:1057F0006F8FFEE74FF44070A06001980870114869
:10580000016841F470010160016841F0704101607C
:10581000FFF72CFE00206060FAF74AFD0A48016895
:1058200041F040410160FAF72FFD02B0002010BDA9
:1058300000ED00E071C20F4170C20F4100E400E0D2
:105840006001002020ED00E034EF00E02DE9F04F92
:1058500085B081460F9F0E9E8A4690469B464FEA32
:105860008800FFF729FC054628000AD05420FFF7DE
:1058700023FC04460CB1256304E02846FFF7C4FD71
:1058800000E000249CB1002084F8510003905B46A6
:10589000424651460197009602944846FFF744FB62
:1058A0002046FFF781FA05B00120BDE8F08F05B072
:1058B0004FF0FF30BDE8F08F70B586B00646DDF8DA
:1058C00028C00C9C0B98002816D0ECB154250495E8
:1058D0002063022084F85100002005AD0390CDF82C
:1058E00000C0019502943046FFF71EFB2046FFF7EB
:1058F0005BFA059806B070BD502080F31188BFF3A5
:105900004F8FBFF36F8FFEE7502080F31188BFF3F6
:105910004F8FBFF36F8FFEE70148C06870470000EC
:10592000040100202DE9F0470026314F386B002894
:1059300005D0B869401CB8613046BDE8F087F8680A
:10594000451CFD609DB9786B006838B1502080F32C
:105950001188BFF34F8FBFF36F8FFEE7786BB96B82
:105960007963B863386A401C3862FFF77BFBB86A1A
:10597000DFF8808085420FD34FF00109786B006813
:1059800038B1786BC068C4686068854212D2B8626A
:1059900002E04FF0FF30B8623868C06A00EB800068
:1059A00058F82000012800D90126F8690028C3D042
:1059B0000126C1E7201DFFF79EFCA06A18B104F183
:1059C0001800FFF798FCE16A3A6909FA01F0104300
:1059D000386101EB810008EB8000211DFFF7D1FC4D
:1059E000E06A3968C96A8842C8D30126C6E7000060
:1059F00004010020780F00202DE9F0470024A04684
:105A00002D4D286B002807D0FFF7C8FC286B401EDF
:105A10002863286B40B149E0502080F31188BFF320
:105A20004F8FBFF36F8FFEE7A86800283ED0234F4B
:105A30003868012600B3A7F1B409F868C46804F116
:105A40001800FFF758FC201DFFF755FCE06A2A6993
:105A500006FA00F11143296100EB800009EB800098
:105A6000211DFFF78EFCE06A2968C96A884200D3CD
:105A7000EE6138680028E0D10CB1FFF7F3FAAC69A9
:105A800044B1FFF74FFF00B1EE61641E002CF8D166
:105A90000020A861E86948B14FF0010808494FF0BB
:105AA00080500860BFF34F8FBFF36F8FFFF796FCF6
:105AB0004046BDE8F0870000040100202C100020C3
:105AC00004ED00E021F00042A2F16052B2F5801F27
:105AD00001F0004328BFD2F17F6C0BD95FEA001CB4
