:020000040800F2
:10000000005F0020290300082B3900082134000874
:10001000293900082B060008354A000800000000B6
:10002000000000000000000000000000690200085D
:10003000090A000800000000C50200089D420008EF
:100040004303000843030008430300084303000878
:100050004303000843030008430300084303000868
:100060004303000843030008430300081D09000878
:10007000430300082909000843030008430300085C
:100080003509000843030008430300084303000840
:1000900089070008430300084303000843030008DE
:1000A0004303000843030008430300084303000818
:1000B0004303000843030008430300084303000808
:1000C00043030008430300084303000843030008F8
:1000D00043030008ED490008114A000843030008E3
:1000E00043030008430300084303000843030008D8
:1000F0004303000875430008430300084303000856
:1001000043030008430300084303000843030008B7
:10011000F94500081D460008430300084303000892
:1001200043030008410900084D0900084303000883
:100130004303000800000000000000004303000823
:10014000D5080008430300084303000843030008E0
:10015000430300085909000843030008294A00081E
:100160004303000843030008430300084303000857
:1001700043030008430300080000000000000000E3
:10018000430300084303000800F002F800F05CF8A5
:100190000AA090E8000C82448344AAF10107DA45E2
:1001A00001D100F051F8AFF2090EBAE80F0013F0D8
:1001B000010F18BFFB1A43F001031847787C0000B9
:1001C000987C00000A444FF0000C10F8013B13F03B
:1001D000070408BF10F8014B1D1108BF10F8015BA0
:1001E000641E05D010F8016B641E01F8016BF9D193
:1001F00013F0080F1EBF10F8014BAD1C0C1B09D1EA
:100200006D1E58BF01F801CBFAD505E014F8016B5B
:1002100001F8016B6D1EF9D59142D6D370470000ED
:100220000023002400250026103A28BF78C1FBD8FF
:10023000520728BF30C148BF0B6070471FB507F099
:10024000ACFC1FBD10B510BD00F0BAF91146FFF7A8
:10025000F5FF06F081F800F0D8F903B4FFF7F2FFDC
:1002600003BC00F0DBF900002C4B19680868B0E80B
:10027000F04F80F30988BFF36F8F4FF0000080F3D9
:10028000118870470000000008480068006880F38B
:1002900008884FF0000080F3148862B661B6BFF39F
:1002A0004F8FBFF36F8F00DF00BF00BF08ED00E08E
:1002B000DFF80C00016841F470010160704700BF75
:1002C00088ED00E0EFF30980BFF36F8F134B1A68DE
:1002D0001EF0100F08BF20ED108A20E9F04F1060CB
:1002E00009B44FF0500080F31188BFF34F8FBFF374
:1002F0006F8F06F0A5FC4FF0000080F3118809BC59
:1003000019680868B0E8F04F1EF0100F08BFB0EC95
:10031000108A80F30988BFF36F8F70475C0100205B
:10032000EFF30580704700000948804709480047FF
:10033000FEE7FEE7FEE7FEE7FEE7FEE7FEE7FEE795
:10034000FEE7FEE704480549054A064B70470000F2
:100350006543000889010008004F0020005F00206D
:10036000005700200057002053EA020C00F069807B
:100370002DE9F04B4FF00006002B1FBFB3FA83F5B9
:1003800003FA05F424FA05F65E4012BF1643B2FAEA
:1003900082F502FA05F4C5F120051EBF22FA05FC1C
:1003A00044EA0C04203556EA044C4FEA144418BFC2
:1003B000641C4FF000084FF00009904271EB030CF1
:1003C00039D3002919BFB1FA81F701FA07F6B0FA5B
:1003D00080F700FA07F6C7F120071EBF20FA07FCD6
:1003E00046EA0C062037B6FBF4FCA7EB0507103FE6
:1003F00007F01F0BCBF120060CFA0BFB2CFA06F6CC
:1004000044BFB3460026202FA4BF5E464FF0000B2A
:100410005BEA060C08BF4FF0010B19EB0B09ABFBB5
:10042000027C48EB0608C01B06FB02CC0BFB03CC8E
:1004300071EB0C01C1E70B46024641464846BDE858
:10044000F08B13B54FF000004FF00001AFF30080C8
:10045000BDE81C407047032A40F2308010F0030CC6
:1004600000F0158011F8013BBCF1020F624498BF07
:1004700011F801CB00F8013B38BF11F8013BA2F1A4
:10048000040298BF00F801CB38BF00F8013B11F01F
:10049000030300F02580083AC0F0088051F8043BBF
:1004A000083A51F804CBA0E80810F5E7121D5CBF2C
:1004B00051F8043B40F8043BAFF30080D20724BF5F
:1004C00011F8013B11F801CB48BF11F8012B24BFF3
:1004D00000F8013B00F801CB48BF00F8012B704742
:1004E00010B5203AC0F00B80B1E81850203AA0E8CF
:1004F0001850B1E81850A0E81850BFF4F5AF5FEA03
:10050000027C24BFB1E81850A0E8185044BF18C9B5
:1005100018C0BDE810405FEA827C24BF51F8043B5C
:1005200040F8043B08BF7047D20728BF31F8023BB0
:1005300048BF11F8012B28BF20F8023B48BF00F844
:10054000012B70474FF0000200B5134694469646C3
:10055000203922BFA0E80C50A0E80C50B1F12001D6
:10056000BFF4F7AF090728BFA0E80C5048BF0CC084
:100570005DF804EB890028BF40F8042B08BF7047E2
:1005800048BF20F8022B11F0804F18BF00F8012B54
:10059000704770477047704710B500F009F8006861
:1005A00010BD10B5044600F003F8046010BD000053
:1005B000004870479C4E0020004870479C4E002029
:1005C0007546FFF7F9FFAE4605006946534620F031
:1005D0000700854618B020B5FFF7B4FEBDE82040FF
:1005E0004FF000064FF000074FF000084FF0000BEF
:1005F00021F00701AC46ACE8C009ACE8C009ACE8A2
:10060000C009ACE8C0098D46704710B50446AFF389
:1006100000802046BDE81040FFF71FBE01491820AA
:10062000ABBEFEE7260002007047FEE730B587B09C
:1006300040F2FF14009400240394029408240494CC
:100640000A4C050A25706070080AA070E170100A53
:1006500020716271180AA071E37101232246694674
:10066000034800F011FD07B030BD0000F00000208D
:10067000C40A002030B587B04FF48F640A9D0094FF
:10068000002403940294082404940A4C207061709E
:10069000100AA070E270180A20716371280AA07114
:1006A000E571012322466946034800F0EDFC07B0DE
:1006B00030BD000020010020C40A002030B587B002
:1006C00040F242640A9D009400240394029408249A
:1006D00004940A4C20706170100AA070E270180A2D
:1006E00020716371280AA071E571012322466946D1
:1006F000034800F0C9FC07B030BD0000280100200D
:10070000C40A002070B586B04FF4E964DDE90A65DB
:10071000009400240394029408240494094C20704B
:100720006170A270E370300A20716671280AA071AE
:10073000E571012322466946034800F0A5FC06B096
:1007400070BD000018010020C40A002000B58BB065
:100750000020012103900490CDE90601CDE90810A5
:1007600005900090019002906946064800F0FAFC5E
:10077000044801F03DF90221024800F073FC0BB07F
:1007800000BD0000C40A0020014800F0E6BD0000E2
:10079000C40A0020002008B5034602460146009026
:1007A0001448008800B2FFF789FF13480168134816
:1007B000022919D001291BD1114991ED090ABDEE79
:1007C000C00A10EE101A0AB290ED090A01B0002317
:1007D000B1EE400A1946BDEEC00A5DF804EB10EE1A
:1007E000100A00B2FFF722BF0649B1F95C20EBE71F
:1007F00008BD0000A40000207C000020300B002079
:10080000E00B0020F007002030B587B040F2FF1465
:100810000094002403940294082404940A4C050ACA
:1008200025706070080AA070E170100A2071627172
:10083000180AA071E371012322466946034800F0BB
:1008400023FC07B030BD0000F8000020EC0A0020B7
:1008500030B587B04FF400740094002403940294E0
:10086000082404940A4C050A25706070080AA070D8
:10087000E170100A20716271180AA071E3710123FE
:1008800022466946034800F0FFFB07B030BD000078
:1008900000010020EC0A002000B58BB00E2005906E
:1008A0000020012103900490CDE90601CDE9081054
:1008B0000090019002906946054800F053FC0448FE
:1008C00001F096F80221024800F0CCFB0BB000BD0D
:1008D000EC0A0020014800F040BD0000EC0A0020B6
:1008E0000C4810B5B0F9C0100023B0F95C001A46EE
:1008F000FFF7AEFF084800231A4690ED090ABDE84D
:100900001040BDEEC00A10EE100A01B21846FFF703
:100910007BBF00001C0900205C0B0020014801F097
:10092000F5B80000840F0020014801F0EFB8000086
:10093000240F0020014801F0E9B800004410002015
:10094000014801F0E3B80000A4100020014801F0C4
:10095000DDB80000E40F0020014801F0D7B8000026
:100960000411002001681823CAB2103AB2FBF3F256
:10097000054B6FF30901032A9B5CC36500D9091D70
:1009800081650846704700006C7C000810B5014680
:1009900000208B698A6A4FF0C07453B1B3F5005FD1
:1009A00015D072B1012A0CD0022A0AD0032A09D12B
:1009B00004E01AB1012A06D0022A03D1C96AC9018A
:1009C00000D5012010BDC96AA142FAD010BD002A8D
:1009D000F7D0012AF2D0022AF3D0032AF3D010BDB7
:1009E00030B50468256825F48025256004686360B7
:1009F0008368402B036803D099600068C26030BDF3
:100A00009A600068C16030BD7047000000EBC00113
:100A100010B5114800EB81042068606006F0A2FA6E
:100A20002060E17C4A0603D521F04001E174E060DA
:100A3000A06958B1804748B1E07C40F0A000E07464
:100A4000206A002806D0BDE810400047E07C20F076
:100A50008000E07410BD0000C8020020F0B58DB029
:100A60000446302220496846FFF73AFD00201F4A1D
:100A700003466D4600EB400600EBC00102EB81012E
:100A800035F816C00F8A05EB46066CF30B070F828C
:100A9000B6F802C0B1F81170401C6CF30F17A1F842
:100AA00011703779CE7C8B6167F34406CB610B62A2
:100AB00046F0E106CE744B610C604C608C60C0B2B5
:100AC000CC600828D6D30A489061D36113620948E4
:100AD000D06309481064536408481066084850669B
:100AE00093660DB0F0BD0000B07B0008C802002086
:100AF000113D0008890C00081D690008650C0008FC
:100B0000116900082DE9F04106F02CFA364F374EF6
:100B100078600820387096F83301002520F06000D6
:100B200086F8330105EBC50006EB8004E07CC107C5
:100B300054D0226879688B1A228AC2F30B0293423E
:100B400022D90DB905F0EBFEE07C810604D440F01B
:100B50006000E0747868A0603978E07C01EBC10146
:100B600006EB8101C0F34300C97CC1F34301884215
:100B700000D93D7096F8330140F0600086F83301EB
:100B8000E06958B3804729E0E26820F040008A1A03
:100B9000B4F81110B2EB111F03D240F02000E07442
:100BA0001CE0E074010606D540F02000E074E06926
:100BB00020B1804702E020F02000E07420686168E6
:100BC00088420BD9401A00EE100A9FED091AF8EE80
:100BD000400A81EE200A10EE100A60616D1C082D9B
:100BE000A0DBBDE8F081000088000020C8020020E2
:100BF00000007A4404F070FE06F0B4F906498861FA
:100C0000FFF780FF04483921183005F07FFF3920B5
:100C100005F054FFF4E70000A000002072B6FEE7E4
:100C20000C4800B50178DFED0C0A0C489FED0C0A6A
:100C300001290AD0022908D0084805F037FB0748E7
:100C40005DF804EB643005F031BBC0ED070A80EDC0
:100C5000200AF1E7000000200020B2C51C09002096
:100C60000020B24506480749826B8A4205DCD0F86D
:100C70009C00884201DC0020704701207047000082
:100C80001C09002000401C460A480B4902688A42A1
:100C900004DC82688A4201DC002070479FED070A6D
:100CA000074980ED000A80ED020A002048800120FB
:100CB00070470000BC02002000007A4400000000E1
:100CC000800000202DE9F04138482DED048B05F01F
:100CD00067F9374805F0DCF9344D364C344F95ED63
:100CE000008A84ED018AB7F9020006F0C6FC9FED88
:100CF000329B53EC192B06F0EBFC06F015FA304E44
:100D00007060D5ED028A2F4DC5ED018AB7F9040058
:100D100006F0B3FC53EC192B06F0DAFC06F004FAEB
:100D2000294F7860224814384168491C41600529E0
:100D300004DA84ED008AC5ED008A03E002DD4FF09D
:100D40000601416090ED000AB3EE081AD4ED000AE6
:100D500030EE011AF4EEC10AF1EE10FA02DB84ED76
:100D6000001A0AE0BBEE021A30EE010AF4EEC00AE5
:100D7000F1EE10FA01D884ED000A124800F0CEF826
:100D800095ED090A104887ED000A00F043F809487C
:100D900000F0C4F894ED090A094886ED000ABDEC9C
:100DA000048BBDE8F04100F035B80000BC02002023
:100DB00080000020B40B00209A9999999999B93F25
:100DC0005C0B0020880B0020300B002000B505F0E4
:100DD0003FFA5DF804EB05F0F1B9000006F0C2F847
:100DE0000B4CE0602068401C206004F09FFE02F085
:100DF000C3FFFFF767FFFFF713FF03F04FF904F09E
:100E000077FD034802210C3005F080FEEAE7000080
:100E1000A000002030B5354A90EC020A70EE600A5E
:100E2000C0ED060A90ED020A30EE200A10EE101A0C
:100E300080ED020A914203DB9FED2D0A80ED020A4C
:100E400010EE101A2B4A914203D39FED2B0A80ED2E
:100E5000020A826A294B9FED2A1A2A4CDFED2A1AD0
:100E6000032A0AD110EE101A994201DB80ED021A12
:100E70008168A14201D3C0ED021A90ED030A90ED02
:100E8000042AD0ED022A20EE200A204D02EE220A8A
:100E900090ED072AD0ED052A30EEC22A02EE820A32
:100EA00010EE101A80ED080AC0ED070A80ED090A5D
:100EB000A94203DB9FED160A80ED090A10EE101A15
:100EC000144DA94203D39FED140A80ED090A032AA9
:100ED0000AD110EE101A994201DB80ED091A416A1D
:100EE000A14201D3C0ED091A30BD00000050C34635
:100EF0000050C3460050C3C60050C3C600401C4645
:100F000000401C4600401CC600401CC60060EA466B
:100F10000060EA460060EAC60060EAC610B590ECE0
:100F2000020A70EE600AC0ED060A836A012B22D124
:100F300010EE904A3C4A9FED3D1A3D4994420ADD2D
:100F400010EE104A944206DC10EE104A8C4202D891
:100F500030EEC10A0DE010EE904A8C420BD910EE33
:100F6000104A944207DC10EE102A8A4203D830EE71
:100F7000810A80ED060A90ED020AD0ED060A2D4A9C
:100F800030EE200A10EE101A80ED020A914203DBC7
:100F90009FED290A80ED020A10EE101A274A9142AD
:100FA00003D39FED270A80ED020A90ED030A90ED2E
:100FB000041AD0ED021A20EE200A224A01EE210A7C
:100FC00090ED071AD0ED051A30EEC11A01EE810A34
:100FD00010EE101A80ED080AC0ED070A80ED090A2C
:100FE000914203DB9FED180A80ED090A10EE101AFA
:100FF000164A914203D39FED160A80ED090A032B8E
:1010000011D110EE101A134A914203DB9FED120A20
:1010100080ED090A10EE101A104A914203D39FED99
:10102000100A80ED090A10BD66E633430000B443A0
:1010300066E633C30050C3460050C3460050C3C6E3
:101040000050C3C60060EA460060EA460060EAC697
:101050000060EAC60000FA440000FA440000FAC446
:101060000000FAC490F82020012A07D0022A05D0F7
:10107000416A41F480214162012070470068426961
:101080000A43426100207047F0B590F82050046890
:10109000A468012D05D0022D03D0416A41F48021BE
:1010A0005DE014F0406F01D1E50055D5C4F3016453
:1010B000022C03D9416A41F4000150E00125A5400A
:1010C0001D608D684FF4C0739DB1CE6835434E6886
:1010D00045EAC605066803EB0417F5514FF4C275DF
:1010E000076805EB04150E697E51097D012905D0BD
:1010F00009E00E88CD6845EA4655EBE701684E5990
:1011000046F480764E511179D579567941EA0561D8
:1011100095792D0445EA062529434FF4C6760568DE
:1011200006EB0416A9511178D57841EA0561957846
:1011300052782D0445EA022211434FF4C475026827
:1011400005EB04155151006803EB0411425842F0BD
:10115000010242500020F0BD416A41F40011416299
:101160000120F0BD10B590F82020012A07D0022AF6
:1011700005D0416A41F480214162012010BD3B4805
:10118000D0F8002242F00102C0F80022D0F800227C
:1011900022F47C52C0F80022D0F800224B6A42EAC6
:1011A0000322C0F800220A7D02F01F0301229A40A8
:1011B000D0F81C329343C0F81C32CB69B3B9D0F8D5
:1011C0000C329343C0F80C328C894B6864F31F4394
:1011D0004C6900EBC404C4F840320C890B6864F31A
:1011E0001F434C6900EBC404C4F84432CB69012BA3
:1011F00016D1D0F80C321343C0F80C320C884B686F
:1012000064F31F434C6900EBC404C4F840320C89FA
:10121000CB6864F31F434C6900EBC404C4F8443248
:101220008B69002BD0F804320ED01343C0F804327F
:101230000B69002BD0F8143208D01343C0F81432D5
:10124000096A012904D008E09343EFE79343F5E7E7
:10125000D0F81C121143C0F81C12D0F8001221F073
:101260000101C0F80012002010BD00000064004021
:10127000704730B590F82040012C05D0022C03D0E7
:10128000416A41F480215DE00468002955D0246959
:10129000A40754D04FF4D874056804EB01142D59F9
:1012A00015F00405956005682D594ED0ED08556080
:1012B00005682C5904F00204D4604FF4DA74056810
:1012C00004EB01142D5905F00F05156105682D5922
:1012D000C5F30725956105682C59240C54614FF41A
:1012E000DC72046802EB0112A4581C700468A45854
:1012F000240A5C700468A458240C9C700468A258EA
:10130000120EDA704FF4DE72046802EB0112A45878
:101310001C710468A458240A5C710468A458240C45
:101320009C710468A258120EDA71006881B10169DB
:1013300041F020010161002030BDE468A8E7416A66
:1013400041F400114162012030BD6D0D1560AFE721
:10135000C16841F02001C160EDE72DE9F05F05466D
:10136000006800244669D0F804908768D0F80CB073
:10137000D0F810A0D0F81880F10748D0F90714D0A1
:1013800001218160B80703D5284600F05EFB0CE020
:10139000780702D54FF4006407E0380702D54FF410
:1013A000805402E0284600F04FFBF80516D5296866
:1013B0004FF480708860B80503D5284600F047FBDD
:1013C0000CE0780502D544F4005407E0380502D556
:1013D00044F4804402E0284600F038FBF80316D5B8
:1013E00029684FF480308860B80303D5284600F0A0
:1013F00030FB0CE0780302D544F4004407E03803E6
:1014000002D544F4803402E0284600F021FB300786
:1014100007D55FEACB6004D52968102044F4007436
:10142000C86070074FF0080707D55FEA0B7004D556
:101430002868C760284600F09BF9B00706D52868E1
:10144000C068800702D0284600F094F9700607D5DE
:101450005FEACA6004D52968102044F480640861FA
:10146000B00607D55FEA0A7004D5286807612846E8
:1014700000F0BAFAF00606D528680069800702D0A5
:10148000284600F0B2FAB00308D55FEAC96005D576
:10149000296810204860284600F0A8FAF00307D514
:1014A0005FEA097004D528684760284600F0D2FA40
:1014B000300446D55FEA497040D5F00504D55FEAAF
:1014C000C87001D044F00104B00504D55FEA88700B
:1014D00001D544F00204700504D55FEA487001D5D7
:1014E00044F00404300529D518F0700F26D008F018
:1014F0007000402815D006DC102809D020280AD01A
:10150000302816D10AE050280ED0602811D10EE004
:1015100044F008040DE044F010040AE044F0200414
:1015200007E044F0400404E044F0800401E044F4A7
:1015300080742868816921F0700181612968042024
:101540004860002C05D0686A204368622846FFF78F
:101550008FFEBDE8F09F70B5040003D094F8200022
:1015600010B104E0012070BD204600F081F8206831
:10157000016841F00101016000F032FD05460526D9
:1015800004E000F02DFD401B0A2811D820684068B7
:10159000C007F6D02068016821F00201016000F068
:1015A0001FFD05460BE000F01BFD401B0A2806D975
:1015B000606A40F40030606284F82060D2E72068FE
:1015C00040688007EFD4207E0128206801683DD064
:1015D00021F080010160607E01282068016838D018
:1015E00021F040010160A07E01282068016833D00D
:1015F00021F020010160E07E0128206801682ED0E2
:1016000041F010010160207F01282068016829D085
:1016100021F008010160607F01282068016824D062
:1016200021F004010160D4E902010843D4E9041265
:10163000114308436168491E08432168C8610020BE
:101640006062012084F82000002070BD41F080011C
:10165000C0E741F04001C5E741F02001CAE721F0B1
:101660001001CFE741F00801D4E741F00401D9E7C8
:10167000F0B587B0044614216846FEF763FF374B88
:101680003748DFF8D4E01968D4F800C0344A02259E
:101690000326092710300024491CF44524D1196081
:1016A000012907D1016841F000710160006800F074
:1016B00000700590106840F001001060106802ABE7
:1016C00000F0010005904FF4C050CDE9000583E81B
:1016D000D0006946234800F08BFB0022052114202E
:1016E00000F03EFD142033E0DFF87CE0F44531D11A
:1016F000D0F800C04CF0806CC0F800C0D0F800C03A
:1017000001290CF0806CCDF814C0196007D1016874
:1017100041F000710160006800F0007005901068F1
:1017200040F002001060106802AB00F0020005906B
:101730004FF44050CDE9000583E8D00069460B48DE
:1017400000F056FB00220521402000F009FD40205A
:1017500000F0F8FC07B0F0BD00640040E00000209D
:10176000303802400000024000680040000402409F
:101770007047000030B505460068934987B088423D
:101780003AD1934A914B0021A2F15000FFF771FD2D
:101790008F488E4B8F4C006803F10801B0F5017F34
:1017A00047D008DCA0F5007001380FD0012824D004
:1017B000022821D12FE0A0F50070053847D002287B
:1017C00053D0A0F58060613816D16AE08048C838EF
:1017D00004F038FC188840BA00B200EE100AB8EEE7
:1017E000C00A84ED000A588840BA00B200EE100A20
:1017F000B8EEC00A84ED0E0A77E07548B43804F0FC
:1018000021FC588840BA00B200EE100AB8EEC00AB7
:1018100084ED270A69E06E48A03804F013FC58886C
:1018200040BA00B200EE100AB8EEC00A84ED400AD9
:101830005BE067488C3804F005FC588840BA00B279
:1018400000EE100AB8EEC00A84ED590A4DE0624875
:1018500004F0AEFB188840BA00B200EE100A5F48F0
:10186000B8EEC00A80ED000A3FE05B4857492830D7
:1018700004F0E8FB188840BA00B200EE100A56489F
:10188000B8EEC00A2C3880ED000A588840BA00B281
:1018900000EE100A5148B8EEC00A643880ED0E0A16
:1018A00023E0188840BA00B200EE100A4A48B8EEA9
:1018B000C00A103880ED000A598849BA09B200EE12
:1018C000101AB8EEC00A80ED010A998849BA09B227
:1018D00000EE101AB8EEC00A80ED020A997900EE07
:1018E000101AB8EE400A80ED030A3D492868884284
:1018F0001CD1364B364808336A4600212838FFF79A
:10190000B8FC324C354D00980834C835A0F500704D
:10191000013827D0012846D0052809D0FF2805D155
:101920002088A4F1580140BA00B2486007B030BD29
:10193000264929481031143004F03AFB2748643016
:1019400090ED020A80ED030A90ED000A80ED020A94
:10195000218849BA09B200EE101AB8EEC00A80ED2B
:10196000000AE3E719491A480831783804F06AFB9D
:1019700020881C4940BA00B200EE100A1448B8EEA4
:10198000C00A783880ED000A002008600220FFF7C6
:101990003DF8608840BA00B200EE100AB8EEC00A06
:1019A00085ED0E0AC2E7094909480831643804F098
:1019B00049FB608840BA00B200EE100AB8EEC00AD7
:1019C00085ED270AB2E700000064004030010020E6
:1019D000140B002060060020100A0020540800208C
:1019E00000680040140000207047704770470000F6
:1019F00070B5044690F82000012804D0606A40F4D5
:101A00000020606218E0022084F82000206801684D
:101A100021F00101016000F0E3FA05460EE000BF8D
:101A200000F0DEFA401B0A2808D9606A40F4003052
:101A30006062052084F82000012070BD20684068A5
:101A4000C007EDD1606270BD704770477047704746
:101A50007047704770472DE9F0410446876D00F0EC
:101A6000BFFA064694F835000025022806D08020EB
:101A7000606584F834500120BDE8F0812068016879
:101A800021F0160101602068416921F08001416167
:101A9000206C08B9A06C20B12068016821F0080111
:101AA00001602068016821F0010101600CE000F094
:101AB00097FA801B052807D920206065032084F849
:101AC000350084F83450D7E720680068C007EED1AD
:101AD00094F85C103F208840B860012084F83500FD
:101AE00084F834500020C7E790F83510022903D05D
:101AF0008021416501207047052180F8351000687C
:101B0000016821F001010160002070472DE9F843D0
:101B100004464FF00009CDF8009063484FF4165189
:101B2000A56D0068B0FBF1F72E6894F85C100820F2
:101B300000FA01F131420FD021680A6852070BD533
:101B40000A6822F004020A6094F85C108840A860D9
:101B5000606D40F00100606594F85C104FF0010882
:101B600008FA01F0304208D021684969090604D515
:101B7000A860606D40F00200606594F85C1004207D
:101B80008840304208D021680968890704D5A860D8
:101B9000606D40F00400606594F85C10102088408F
:101BA000304218D021680968090714D5A860206858
:101BB0000168490304D50068000308D5A16C07E05B
:101BC0000168C90503D4016821F008010160216C96
:101BD00009B12046884794F85C10202088403042A4
:101BE00031D021680968C9062DD5A86094F8350060
:101BF00005282068016806D0490347D5006800031E
:101C00001DD4616C1CE021F016010160206841695F
:101C100021F080014161206C08B9A06C20B12068DE
:101C2000016821F00801016094F85C103F208840B1
:101C3000A86084F8358084F83490216D1FE0E16B52
:101C400009B120468847606D00282BD0606DC00721
:101C500014D0052084F835002068016821F00101C6
:101C600001600098401C0090B84203D820680068CA
:101C7000C007F6D184F8358084F83490E16C0029EF
:101C800010D001B02046BDE8F04308470168C905FF
:101C9000D5D4016821F01001016084F8358084F802
:101CA0003490CCE7BDE8F883580100202DE9F041DD
:101CB000044600F095F906465CB1022084F8350030
:101CC000002584F834502068016821F0010101608A
:101CD0000DE00120BDE8F08100F082F9801B0528AD
:101CE00005D920206065032084F83500F2E72068DC
:101CF0000068C007F0D12268116820480140D4E98B
:101D000001031843D4E90336334318436369184386
:101D1000A3691843E3691843236A18430843616AB7
:101D2000042903D1D4E90B13194308431060206838
:101D30004069666A20F0070130460E4301270428F7
:101D40000CD1A06A0643E06A40B12046FEF71EFEB1
:101D500020B14020606584F83570BAE7206846619C
:101D60002046FEF7FFFD94F85C203F219140816002
:101D7000656584F835700020ACE700003F8010F006
:101D80002DE9F0410446866D90F8340000250128C5
:101D90000DD0012084F8340094F835700020012F14
:101DA00007D084F8340002252846BDE8F0810220DF
:101DB000FBE7022784F8357060652046FEF710FEC9
:101DC00094F85C103F208840B0602068016841F0C2
:101DD00016010160206C20B12068016841F0080103
:101DE00001602068016841F001010160DCE700004A
:101DF0002DE9F84FDFF8BCA10022012503264FF0A2
:101E00000F090AF1040BAAF1040E00BF0B6805FAD2
:101E100002F42340A34270D10F7907F00307012F8A
:101E200001D0022F16D187684FEA420806FA08FC53
:101E300027EA0C07D1F80CC00CFA08FC4CEA070C96
:101E4000C0F808C04768A7430C79C4F30014944055
:101E50003C4344600C79E443A4070AD0C4684FEAC9
:101E6000420C06FA0CF7BC438F6807FA0CF72743BD
:101E7000C7600C7904F00304022C12D1D40800EBE3
:101E8000840CDCF820405707FF0E09FA07F824EA13
:101E90000804D1F8108008FA07F848EA0408CCF8DA
:101EA000208004684FEA420C06FA0CF7BC430F7915
:101EB00007F0030707FA0CF7274307604C6814F490
:101EC000403F70D03C4C276847F480472760246827
:101ED00022F0030704F480440094384C07EB040C10
:101EE000DCF8084897074FEA177809FA08F7BC4367
:101EF000334FB84202D1002724E054E0314FB842BA
:101F000001D101271EE0304FB84201D1022719E06C
:101F10002E4FB84201D1032714E02D4FB84201D112
:101F200004270FE02B4FB84201D105270AE02A4FC2
:101F3000B84201D1062705E0284FB84201D1072752
:101F400000E0082707FA08F72743CCF80878DAF802
:101F500000405746D1F804C09C435FEACC2C00D522
:101F60001C433C60DBF800405F46D1F804C09C4352
:101F70005FEA8C2C00D51C433C60DEF800407746BD
:101F8000D1F804C09C435FEA8C3C00D51C433C6004
:101F9000084F083F3C68D1F804C09C435FEACC3C42
:101FA00000D51C433C60521C102AFFF42FAFBDE843
:101FB000F88F0000083C01404438024000300140E6
:101FC000000002400004024000080240000C0240F1
:101FD000001002400014024000180240001C0240A1
:101FE00001488068704700004C01002070B5040073
:101FF00011D021684CF6CC400860216845F255505C
:102000000860D4E9000141602168A0688860FFF79A
:10201000E7FF05460DE0012070BD00BFFFF7E0FFC0
:10202000401B312805D92068C068800701D00320F3
:1020300070BD2068C0688007F0D121684AF6AA20E8
:102040000860002070BD00684AF6AA2101600020E7
:10205000704700000248816802781144816070472F
:102060004C0100200B4810B5016841F4007101607B
:10207000016841F480610160016841F48071016090
:10208000032000F08DF80F2000F006F800F03EF875
:10209000002010BD003C024010B5014688B000226F
:1020A0002D2000F05DF82D2000F04CF8134800249E
:1020B000016841F480710160006805A900F4807036
:1020C0000690684600F018F900F036F90C49400017
:1020D000B0FBF1F10C480B4A491E026040F2E732B6
:1020E000C0E90324C0E9011400F0A2FB10B10120F3
:1020F00008B010BD044800F0C9FBF9E740380240C1
:1021000040420F0000200040641100200C4882B0C3
:10211000016841F480410160006800F48040009053
:102120000748001F016841F08051016000680022EB
:1021300000F0805000900F21901E02B000F010B807
:1021400044380240002809DB00F01F0201219140C1
:102150004009800000F1E020C0F800117047000045
:10216000F0B40E4B1B680C46C3F30223C3F1070502
:10217000042D00D90425191D072901D2002300E0F0
:10218000DB1E012606FA05F1491E214099409E40BA
:10219000761E16403143F0BC02F07CBC0CED00E032
:1021A000064900F0070208684FF6FF03184040EAAE
:1021B0000220034A10430860704700000CED00E065
:1021C0000000FA052DE9F0470E46050065D0DFF85E
:1021D0001481D8F80000F7B200F00700B04207D22F
:1021E00088F80070D8F8000000F00700B04254D121
:1021F00028683D4C810712D5400703D5206840F47C
:10220000E05020602878000703D5206840F4604043
:1022100020602068A96820F0F0000843206028783A
:10222000C0072DD0304968680839012812D002282B
:1022300013D0032811D00968890700292DDA2168F5
:1022400021F0030101432160FFF7CAFE814641F2FC
:10225000883A0EE009688903EFE709688901ECE72D
:10226000FFF7BEFEA0EB0901514502D90320BDE8EE
:10227000F0872068696800F00C00B0EB810FEFD1A7
:10228000D8F80010404601F00701B14207D90770A5
:10229000006800F00700B04201D00120E7E728788D
:1022A000400705D52068E96820F4E0500843206025
:1022B0002878000706D52068296920F4604040EAA4
:1022C000C100206000F058F82168084AC1F30311EA
:1022D000515CC8400649086006480068FFF7DCFE0C
:1022E0000020C4E7003C024008380240747C00082B
:1022F00058010020500100200F2202600C4A136890
:1023000003F003034360136803F0F0038360136872
:1023100003F4E053C36012684FF4E05303EAD202BF
:1023200002610448006800F0070008607047000080
:1023300008380240003C024004480549006809682A
:10234000044AC1F38221515CC84070475801002003
:1023500008380240847C0008044805490068096880
:10236000044AC1F34231515CC84070475801002013
:1023700008380240847C0008154810B5006810F049
:102380000C02144813D01449042A0FD0082A0ED185
:102390000F4C241F2268236802F03F025B0207D51E
:1023A0002068C0F38810A0FB010106E0084610BDBC
:1023B0002168C1F38811A1FB00010023FDF7D4FFC0
:1023C0002168C1F30141491C4900B0FBF1F010BD87
:1023D000083802400024F40040787D012DE9F84FD0
:1023E00004006ED02078DFF84C93C007A9F10405F3
:1023F0004AD009F104000168C1F38101012908D024
:102400000068C0F3810002280AD1D9F80000400218
:1024100006D52868800337D560680028E1D033E00E
:102420006068B0F5803F10D0B0F5A02F286810D0BC
:1024300020F480302860286820F4802028606068BC
:10244000A8B1FFF7CDFD06460DE0286840F48030C6
:10245000F4E740F480202860F7E700BFFFF7C0FDF5
:10246000801B642873D828688003F7D50CE0FFF739
:10247000B7FD064605E000BFFFF7B2FD801B6428EC
:10248000F0D828688003F7D42078DFF8AC82800782
:102490004FF0000A3ED5A748001D016811F00C0F4F
:1024A00008D00068C0F3810002280BD1D9F80000E1
:1024B000400207D42868800716D5E068012800D1BB
:1024C00012E033E1E068B8B10120C8F80000FFF77E
:1024D00087FD064605E000BFFFF782FD801B02284E
:1024E000C0D828688007F7D52868216920F0F8004F
:1024F00040EAC10028600DE0C8F800A0FFF770FDB9
:10250000064604E0FFF76CFD801B02281FD82868F0
:102510008007F7D42078000722D5864F8748616965
:10252000703771B101210160FFF75AFD064604E0E2
:10253000FFF756FD801B022809D838688007F7D5B9
:102540000EE0C0F800A0FFF74BFD064605E082E074
:10255000FFF746FD801B02287DD838688007F7D436
:102560002078400768D5DFF8CCB100270BF13C0B91
:10257000DBF80000C0000BD4DBF8001041F0805104
:10258000CBF80010DBF80000012700F0805000902D
:102590006B4E3068C00510D4306840F480703060F5
:1025A000FFF71EFD009005E0FFF71AFD0099401AA5
:1025B000022850D83068C005F6D55E4EA0686C364B
:1025C00001280FD00528306810D020F001003060BD
:1025D000306820F004003060A068B8B1FFF700FD5B
:1025E00000900FE0306840F00100F4E740F0040094
:1025F0003060F7E7FFF7F4FC0099411A41F28830A8
:10260000814266D830688007F4D50EE0FFF7E8FC19
:10261000009007E0FFF7E4FC0099411A41F288308E
:10262000814256D830688007F4D42FB1DBF800100F
:1026300021F08051CBF80010A069C8B33D49091DB5
:102640000968C1F3810102294AD00228504607D007
:10265000C8F8600000E03CE0FFF7C2FC04463BE045
:102660004746C8F86000FFF7BBFC064605E000BF20
:10267000FFF7B6FC801B02282BD828688001F7D40E
:10268000D4E907010843A16A2E4A490802EB014137
:10269000626A41EA8211084394F82C1040EA016111
:1026A000C9F8001001203866FFF79AFC044606E0DE
:1026B0003EE000BFFFF794FC001B022809D8286801
:1026C0008001F7D534E000BFFFF78AFC001B022829
:1026D00002D90320BDE8F88F28688001F4D427E0F0
:1026E0000128F7D0D9F80000E26900F48001914296
:1026F0001CD1226A00F03F01914217D147F6C07108
:10270000626A0140B1EB821F10D1A26A4FF0FF3321
:1027100000F4403103EB5202B1EB024F06D194F8C2
:102720002C1000F07060B0EB016F01D00120D1E7F8
:102730000020CFE70438024000004742800E4742A5
:10274000007000400000FFFF7047704710B590F820
:102750003C20012A22D0012280F83C20CA688C68E3
:1027600022F4407222434C6822F4806222430C68B7
:1027700022F4006222430C6922F4805222434C6905
:1027800022F400522243C969002322F480420A4302
:1027900001684A6480F83C30002010BD022010BD62
:1027A00070B590F83C20012A32D0012480F83C40DA
:1027B000022280F83D2003685A689D6822F0700666
:1027C0000A6832435A60134B02689A4214D0B2F13D
:1027D000804F11D0104B9A420ED0104B9A420BD022
:1027E0000F4B9A4208D00F4B9A4205D00E4B9A429B
:1027F00002D00E4B9A4204D1496825F08003194358
:10280000916080F83D40002180F83C10084670BD82
:10281000022070BD0000014000040040000800409C
:10282000000C00400004014000400140001800403E
:1028300010B5040003D094F83D0010B107E001206A
:1028400010BD002084F83C00204600F01EF8022055
:1028500084F83D00211D206801F09AFD012084F8D4
:10286000460084F83E0084F83F0084F8400084F875
:10287000410084F8420084F8430084F8440084F85E
:10288000450084F83D00002010BD704790F83D10D1
:10289000012901D001207047022180F83D10016814
:1028A000CA6842F00102CA6000681149884214D027
:1028B000B0F1804F11D00F4988420ED00E498842A6
:1028C0000BD00E49884208D00D49884205D00D49E9
:1028D000884202D00C49884204D1816801F0070186
:1028E000062903D0016841F0010101600020704712
:1028F000000001400004004000080040000C0040BF
:10290000000401400040014000180040704770B5CD
:102910000446006801694FF00005C943890715D4D2
:10292000C168C943890711D4E91E016101202077DC
:10293000206880698007204602D0FFF7E7FF04E0A7
:1029400000F0C2F8204600F071F92577206801698F
:10295000C943490717D4C168C943490713D46FF065
:1029600004010161022020772068806910F4407F13
:10297000204602D0FFF7CAFF04E000F0A5F8204689
:1029800000F054F9257720680169C943090716D476
:10299000C168C943090712D46FF00801016104201E
:1029A00020772068C0698007204602D0FFF7AEFF7D
:1029B00004E000F089F8204600F038F92577206817
:1029C0000169C943C90617D4C168C943C90613D4EC
:1029D0006FF010010161082020772068C06910F4B1
:1029E000407F204602D0FFF791FF04E000F06CF832
:1029F000204600F01BF9257720680169C943C90703
:102A000008D1C168C943C90704D1891E01612046A4
:102A100000F072F920680169C943090609D4C16848
:102A2000C943090605D46FF0800101612046FFF714
:102A30008BFE20680169C943490609D4C168C943AE
:102A4000490605D46FF040010161204600F05EF9AF
:102A500020680169C94389060BD4C168C943890646
:102A600007D46FF0200101612046BDE87040FFF7F8
:102A70006CBE70BD10B586B0044614216846FDF7E3
:102A800061FD0E492068884216D10D480021026878
:102A900042F004020260006800F0040005904FF468
:102AA000807000900220CDE901010320CDE90310E0
:102AB00069460448FFF79CF906B010BD00040140C8
:102AC0003038024000080240704770B5044690F864
:102AD0003C0000260D4601280FD0012084F83C0060
:102AE0006AB1042A1DD0082A2FD00C2A3FD0012613
:102AF000002084F83C00304670BD022070BD206884
:102B000001F0B8FC2068816941F00801816120680A
:102B1000816921F004018161206881692A6911437A
:102B200011E0206801F0D6FC2068816941F4006161
:102B300081612068816921F48061816120688169F7
:102B40002A6941EA02218161D2E7206801F0F8FC9C
:102B50002068C16941F00801C1612068C16921F0A4
:102B60000401C1612068C1692A69114311E020682C
:102B700001F01AFD2068C16941F40061C16120685B
:102B8000C16921F48061C1612068C1692A6941EA93
:102B90000221C161ACE710B5040003D094F83D00F8
:102BA00010B107E0012010BD002084F83C00204651
:102BB00000F01EF8022084F83D00211D206801F07D
:102BC000E7FB012084F8460084F83E0084F83F00CB
:102BD00084F8400084F8410084F8420084F84300FF
:102BE00084F8440084F8450084F83D00002010BDBE
:102BF00008B500680B49884212D10B48016841F0C2
:102C0000020101600068002200F0020000900F2124
:102C10002D20FFF7A5FABDE808402D20FFF792BA56
:102C200008BD000000040140443802407047000025
:102C300010B50446022249B104290ED0082913D048
:102C400094F84100012816D0012010BD94F83E00F0
:102C50000128F9D184F83E200FE094F83F000128C4
:102C6000F2D184F83F2008E094F840000128EBD12D
:102C700084F8402001E084F841200122206801F01E
:102C8000EBFB16492068164A884201D0904203D1D6
:102C9000436C43F4004343642068884213D0B0F18E
:102CA000804F10D00F4988420DD00F4988420AD07A
:102CB0000E49884207D0904205D00D49884202D083
:102CC0000C49884204D1816801F00701062903D02C
:102CD000016841F001010160002010BD00000140C9
:102CE000000401400004004000080040000C0040C7
:102CF000004001400018004000680349884201D1AB
:102D0000FFF7A8B9704700000020004070477047E7
:102D100070470000F8B5016804460868CA684B6946
:102D200010F00F0F4FF0000559D003F0010602F428
:102D30009077374365D0C10705D0D10503D5216C05
:102D400041F001012164410705D5D90703D0216C69
:102D500041F002012164810705D5D90703D0216C18
:102D600041F004012164010707D502F0200131433D
:102D700003D0216C41F008012164216C00293AD074
:102D8000800604D5900602D5204601F0FEFC20689E
:102D90004069216CC0F38010090700D460B320465D
:102DA00001F0BDFC20684069400621D52068143040
:102DB00050E8001F21F0400140E80012002AF5D140
:102DC000A06BA8B16C490165A06BFEF78DFE0028D1
:102DD00011D0A06B016D01B0BDE8F040084783063B
:102DE0000FD593060DD52046BDE8F84001F0CDBCC7
:102DF0002046FFF78DFFF8BD2046FFF789FF2564C9
:102E0000F8BD266B2023012E79D1C60677D5D606CC
:102E100075D50868486800904869400640D5A16BA0
:102E2000086840680004000CEAD0A28D8242E7D90D
:102E3000E085C869B0F5807F2DD020680C3050E85F
:102E4000001F21F4807140E80012002AF5D12068AB
:102E5000143050E8001F21F0010140E80012002A60
:102E6000F5D12068143050E8001F21F0400140E8FF
:102E70000012002AF5D184F83E30256320680C301A
:102E800050E8001F21F0100140E80012002AF5D19F
:102E9000A06BFEF7E0FDA08DE18D401A81B229E024
:102EA000A08DE18D401A81B2E08D0028A8D00029C4
:102EB000A6D020680C3050E8002F22F4907240E831
:102EC0000026002EF5D12068143050E8002F22F0A3
:102ED000010240E80026002EF5D184F83E3025633B
:102EE00020680C3050E8002F22F0100240E8002348
:102EF000002BF5D12046FFF70AFFF8BDFFE70506D6
:102F00002BD5150629D594F83D002128F5D1A068C8
:102F1000B0F5805F01D12069B0B1206A411C216207
:102F2000216800784860E08C401E0004000CE084BA
:102F3000E3D12068C16821F08001C1602068C168C8
:102F400041F04001C160D8E7206A0088C0F3080062
:102F50004860206A801C2062E5E74006CDD5500617
:102F6000CBD5CA68204622F04002CA6084F83D30C2
:102F700000F055FAC1E700002946000870B50400CA
:102F800004D094F83D00002510B106E0012070BD8A
:102F900084F83C50204600F023F8242084F83D00BB
:102FA0002068C16821F40051C160204601F04EFC48
:102FB0002068016921F4904101612068416921F094
:102FC0002A0141612068C16841F40051C160256453
:102FD000202084F83D0084F83E00002070BD0000F1
:102FE0002DE9F04F87B0054614216846FDF7AAFA8F
:102FF000D049DFF83C831039D5F800C0CD4B032011
:103000000222082700240E154FF0006A4FF4403BBF
:103010004FF48079C44535D1D3F800C04CF4002C6E
:10302000C3F800C01B6803F4002305930B6843F04A
:1030300001030B6009688DE8150001F00101CDE97D
:10304000047103906946BC48FEF7D2FEBC4FBB48F2
:1030500007F118083860C7E901A4C7E903467C6195
:1030600088E8100A38467C62FEF720FE08B1FDF7BA
:10307000D5FDAF63002208213420BD63FFF770F84F
:10308000342052E0DFF8BC82C44553D1D3F800C0ED
:103090004CF4801CC3F800C01B6803F48013059334
:1030A0000B6843F004030B600B6803F00403059303
:1030B0000B6843F008030B600968804601F00801C3
:1030C00005914FF48051009101AA0221049782E8F2
:1030D000120169469C48FEF78BFE0420009001AA6D
:1030E0000220049782E8110169469848FEF780FEA5
:1030F000934F9248603730383860C7E901A4C7E978
:10310000034607F118027C6182E8100A38467C62A7
:10311000FEF7CCFD08B1FDF781FDAF63002205216C
:103120003520BD63FFF71CF83520FFF70BF807B01B
:10313000BDE8F08FDFF818824FF0070EC44538D194
:103140007C4B1B1D1F6847F010071F601B6803F0B6
:10315000100305930B6843F001030B60096801F04D
:10316000010105914FF4C0618DE81600CDE9030E11
:1031700069467148FEF73CFE714F7648C03707F14B
:1031800018033860C7E901A4C7E903467C6183E8F6
:10319000100A38467C62FEF789FD08B1FDF73EFD56
:1031A000AF63002207212520BD63FEF7D9FF25204C
:1031B000BBE7DFF8A481C44537D11F6847F4003767
:1031C0001F601B6803F4003305930B6843F0010391
:1031D0000B600968CDF810E001F0010105910C21A8
:1031E000CDE900120121CDE9021069465248FEF7EF
:1031F000FFFD5248594F48303860C7E901A4C7E97C
:1032000003467C61BC61C7E9074B38467C62FEF728
:103210004DFD08B1FDF702FDAF6300220721262016
:10322000BD63FEF79DFF26207FE7DFF83481C445AC
:103230001AD11D6845F480251D601B6803F48023A6
:1032400005930B6843F002030B60096801F002016B
:1032500005914FF440618DE81600CDE9030E6946F3
:103260004048FEF7C5FD62E73F4B9C45FBD1314B23
:10327000A0461B1DD3F800C04CF0200CC3F800C0C2
:103280001B6803F0200305930B6843F004030B60F5
:10329000096801F004010591C0218DE81600CDE90F
:1032A000030769462848FEF7A3FDDFF8B0A02949C7
:1032B0000AF1600A183950464FF0206BCAF8001026
:1032C000C0E901B4C0E90346CAF81440C0E90649A0
:1032D000CAF820404F46CAF82440FEF7E7FC08B180
:1032E000FDF79CFC1D4C1B48C5F838A0C03460306D
:1032F000CAF83850C4E9000B4020A060C4E9038636
:10330000C4F81480C4E90687C4F820802046C4F8B5
:103310002480FEF7CBFC08B1FDF780FC6C63002233
:1033200009214720A563FEF71BFF4720FDE60000AB
:10333000004C004040380240000002404060024023
:10334000240F00200050004000080240000C024002
:10335000001001404064024000440040441000203E
:1033600000480040000402400014014090F83E3044
:10337000202B0ED159B152B190F83C30012B08D01E
:10338000012380F83C300023036301F0E5BA0120FB
:10339000704702207047000070B504460068194964
:1033A00088420DD1184800F0D7FE0020FDF72EFB13
:1033B0001648FEF748FE122213491548FFF7D6FFBC
:1033C00014492068144D88420BD1A87800F006FCFF
:1033D0000120FDF71BFB0E480122A91C8838FFF7CE
:1033E000C5FF0B48883084420AD1012068700A4921
:1033F000BDE8704006480822C91C8830FFF7B6BFF8
:1034000070BD000000440040F0010020380C002096
:10341000580E0020005000404001002070477047C7
:10342000FEE790ED070AD0ED0E0AB0EE002A42F258
:10343000107230EE600A80ED140A90ED131AD0ED90
:103440000F1A70EE410A60EEA10AD0ED101A41EE9B
:10345000800AF0EE401A41EE421A90ED122A71EE07
:10346000821A90ED112A42EE210AC0ED180A80ED71
:10347000121A80ED130AB0F95C1000EE101AB8EEC3
:10348000C00A30EE200ABDEEC00A10EE101A09B2D2
:10349000A0F85C10914202DA5242914201DCA0F89D
:1034A0005C207047D0ED071AD0ED000A21EEA01A7B
:1034B00080ED011AD0ED080A90ED052A41EE820A4E
:1034C000C0ED030AD0ED091A30EEA12AC0EE821A2F
:1034D00030EE412AB0EE410AB7EE001AC0ED061AEE
:1034E00031EE611A01EE820A61EE200A80ED020AD5
:1034F000C0ED040AC0ED050A80ED000A7047000027
:10350000104810B50E4901600321416000214FF4BD
:1035100000228160C0E903124FF44012426101763B
:10352000012242768276C17601774277FEF713F860
:10353000002803D0BDE81040FDF770BB10BD0000AF
:1035400000640040C40A0020104810B50E49016014
:103550000321416000214FF400228160C0E9031281
:103560004FF4401242610176012242768276C276A1
:1035700001774277FDF7EFFF002803D0BDE8104048
:10358000FDF74CBB10BD000000680040EC0A0020B5
:10359000214808B5016841F400110160016801F497
:1035A00000110091016841F480010160006800226F
:1035B00000F48000009005210B20FEF7D1FD0B20C8
:1035C000FEF7C0FD002205210D20FEF7C9FD0D20EC
:1035D000FEF7B8FD002205211020FEF7C1FD1020E6
:1035E000FEF7B0FD002205213920FEF7B9FD392094
:1035F000FEF7A8FD002205213A20FEF7B1FD3A2092
:10360000FEF7A0FD002205214520FEF7A9FDBDE83B
:1036100008404520FEF796BD3038024010B5A4B0F2
:103620001C221C496846FCF75BFF0021684602F03B
:10363000F2FE194C17491C22E0611C3107A8FCF767
:103640004FFF002107A802F0E6FE124920621C226B
:1036500038310EA8FCF744FF00210EA802F0DBFE73
:103660000C4960621C22543115A8FCF739FF002177
:1036700015A802F0D0FE0749A0621C2270311CA8D8
:10368000FCF72EFF00211CA802F0C5FEE06224B06A
:1036900010BD0000E07B0008A0000020154808B520
:1036A000016841F080010160016801F08001009132
:1036B000016841F001010160016801F00101009120
:1036C000016841F002010160016801F0020100910E
:1036D000016841F004010160016801F004010091FA
:1036E000016841F008010160006800F008000090E6
:1036F00008BD000030380240094810B50749016094
:103700000321416064218160FEF770FC002803D032
:10371000BDE81040FDF782BA10BD00000030004047
:10372000380C002010B592B000240F941C2108A87A
:103730001094FCF707FF20216846FCF703FF22489E
:1037400020490160A721C0E9011444F61F61C0E9C6
:103750000314FA21416180218161FFF71CFA08B14D
:10376000FDF75CFA0F940FA917481094FFF718F8AB
:1037700008B1FDF753FA6020089040F62410CDE917
:1037800009040B940C940D94082208A90E480E9479
:10379000FFF79BF908B1FDF741FA00944FF4005090
:1037A000CDE90440029401940394694606480794C5
:1037B000FEF7CCFF08B1FDF731FA0348FFF75AF9DD
:1037C00012B010BD00040140440C00200C4810B59C
:1037D0000A4901604FF4E1314160002181600C220F
:1037E000C160C0E904128161C161FFF7C7FB002815
:1037F00003D0BDE81040FDF711BA10BD004C0040E9
:103800008C0D00200C4810B50A4901604FF461216D
:103810004160002181600C22C160C0E90412816115
:10382000C161FFF7ABFB002803D0BDE81040FDF7F6
:10383000F5B910BD00500040D00D00200C4810B567
:103840000A4901604FF4E1314160002181600C229E
:10385000C160C0E904128161C161FFF78FFB0028DC
:1038600003D0BDE81040FDF7D9B910BD00100140EC
:10387000140E00200E4810B50C4901600D4941603E
:103880004FF48051816000214FF48062C0E903123F
:103890000C22C0E90521C161FFF770FB002803D0AD
:1038A000BDE81040FDF7BAB910BD0000004400406B
:1038B000580E0020A08601000C4810B50A4901608E
:1038C0004FF4E1314160002181600C22C160C0E908
:1038D00004128161C161FFF751FB002803D0BDE8EC
:1038E0001040FDF79BB910BD004800409C0E002021
:1038F0000C4810B50A4901604FF4E13141600021E4
:1039000081600C22C160C0E904128161C161FFF7CE
:1039100035FB002803D0BDE81040FDF77FB910BD8E
:1039200000140140E00E0020FEE7FEE74A4801686F
:10393000491C01604948007803287CD10020484B8D
:1039400002469FED480A00BF00EBC00101EB0011E9
:1039500003EB8101401C81ED070AA1F85C2081ED99
:10396000180A81ED140A81ED130A40B281ED120AA2
:103970000428E9DB3C48434B002180ED090A80ED37
:10398000020A80ED080A80ED060A80ED070A374832
:1039900080ED090A80ED000A80ED020A80ED080A38
:1039A00080ED060A80ED070A3148A0F85C2080ED22
:1039B0000E0A80ED070A80ED180A80ED130A80EDEB
:1039C000120A2C4880ED090A80ED020A80ED080AEF
:1039D00080ED060A80ED070A274880ED090A80ED90
:1039E000020A80ED080A80ED060A80ED070A2348E6
:1039F00080ED090A80ED000A80ED020A80ED080AD8
:103A000080ED060A80ED070A1D4880ED090A80ED69
:103A1000020A80ED070A80ED080A80ED000A80EDB9
:103A2000060A00BF01EBC10000EB011003EB8000B0
:103A300080ED150A00E00DE0A0F85C2080ED080A9A
:103A400080ED160A491C80ED140A49B280ED130A74
:103A50000229E7DB704700009400002000000020EE
:103A600060060020000000000C0C0020E00B00208D
:103A7000F0070020B40B0020880B00205C0B002016
:103A8000300B00201C0900202DE9F0410024051D09
:103A9000494EB0F8847027E0285DC0283BD012DC86
:103AA000A52829D008DC902822D0A02824D0A1283D
:103AB00022D0A22817D11FE0B02824D0B12822D0CC
:103AC000B22810D11FE0D1286BD006DCC12822D04B
:103AD000C22820D0D02806D124E0D92855D0E0280B
:103AE00068D0F02866D0641CA742D5DCBDE8F08120
:103AF00068783070A41CF7E7281950F8011FB160EE
:103B00008088B0813FE0281950F8011FC6F80E10D8
:103B10008088708237E0281950F8011F7161808811
:103B2000308330E02819DFED250A4178827801EBF7
:103B3000022109B200EE101A2149B8EEC01A81EE36
:103B4000200A81ED000AC2780379BDEEC00A02EBBB
:103B5000032212B201EE102AB8EEC11AC1EE201AE9
:103B6000F2EE040AC1ED011A86ED010A427980796C
:103B700002EB002000B200EE100AB8EEC00A80EEA0
:103B8000201A81ED021AE41DAEE70D4829190C3800
:103B900051F8012FC2604A68026189680D344161A1
:103BA000A2E70748291910220C30491CFCF753FCE6
:103BB000113499E7641D97E73C0000200000C842DB
:103BC000A002002000B503F095F801F073FFFDF7A7
:103BD000FDF85DF804EB01F0EFBF00002DE9F041C6
:103BE000384C014620462778D0E903200623A61D3D
:103BF0000025072F62D2DFE807F004081A1F272AE2
:103C000031005A295BD1012009E080F88810A529EC
:103C100004D0A62905D0A72951D105E002202070A3
:103C20004DE0EAB3904749E00560237047E0A0F813
:103C30008410B1700320F2E730F8842F42EA0122A9
:103C40000280F1700420EAE761800520E7E76288DE
:103C500042EA012161800560A580E6E70368061D50
:103C60005F1C0760995590F88810A72907D1016853
:103C7000082904D30821A0F88410904725702069F2
:103C8000B0F884200168914219D390F88800A528E3
:103C900015D10C490422891D881E01F005FE00E0A3
:103CA0000CE02169074804C9001D01F0FDFDA08852
:103CB0006188884202D1D4E903108847257000202A
:103CC000BDE8F0815800002070B5044D0446E9605D
:103CD0008C21FCF737FC2C6170BD000058000020DF
:103CE000002801DC404200B2704700000748002174
:103CF0000322018041808180C18002724272418131
:103D00008181C1810174417441827047C4010020E6
:103D100070B5184CB4F90000FFF7E2FF4FF4FA5504
:103D2000A84217DCB4F90200FFF7DAFFA84211DC61
:103D3000B4F90400FFF7D4FFA8420BDCB4F9060085
:103D4000FFF7CEFFA84205DC207A18B1607A08B1EF
:103D5000002070BD002020806080A080E0800321D2
:103D6000217261726081A081E08120746074608240
:103D7000012070BDC40100202DE9F04FAA4CDFF8EE
:103D8000ACB22DED068B97B020789FEDA98A002567
:103D9000A84EDFF8A482DFF8A492012868D0022898
:103DA0007ED1DFEDA70A9FEDA70A684602F064FA0C
:103DB000DFEDA50A9FEDA50A0BA802F05DFAB6F9A2
:103DC0000A00B24600EE100A6846B8EEC00AFFF7D5
:103DD00069FBBDEEC00A10EE100AA081B6F90C0016
:103DE00000EE100A0BA8B8EEC00AFFF75BFBBDEEB1
:103DF000C00A10EE100A07B2B4F90C0003F03DFC43
:103E00009FED931B53EC112B03F062FC03F006FCB7
:103E100006B2A681384603F030FC9FED8F1B53ECB1
:103E2000112B03F055FC03F0F9FB714200EE901AE0
:103E300002B2E281F8EEE00A98ED000A94ED041A6D
:103E4000524201EE902A01EE200A4046F8EEE11AB5
:103E5000494688ED000AD9ED000A10EE102A41EE1D
:103E6000210A5A45C9ED000A69DD30EE480A6DE0C5
:103E7000B6F90600E080B6F90410A1804FF42F7364
:103E8000A18101F164025E42E081C82A03D999420E
:103E900001DCB14200DAA58100F16401C82900E02B
:103EA00048E003D9984201DCB04200DAE581B4F978
:103EB0000C0003F0E2FB9FED6A1B53EC112B03F0A7
:103EC00007FC03F0ABFB05B2A581B4F90E0003F0CB
:103ED000D4FB9FED651B53EC112B03F0F9FB03F0B2
:103EE0009DFB6A4200EE902A01B2E181F8EEE00A01
:103EF00098ED000A94ED041A01EE200A00EE901AE3
:103F0000F8EEE00A88ED000AD9ED001A10EE101A5A
:103F100041EE201A5945C9ED001A02DD30EE480A7B
:103F200006E010EE101A524A914203D930EE080A08
:103F300088ED000A17B0BDEC068BBDE8F08F10EEDF
:103F4000102A4B4B9A4203D930EE080A80ED000A42
:103F50009AF81120012A08D194ED0A0AF4EE400AD9
:103F6000F1EE10FA01D0A27002E0A278012AE1D1AC
:103F7000404A1278012ADDD1E2788146521CD2B241
:103F8000E27090ED009A904684ED069A8A4610EE13
:103F9000900A03F091FD41EC180B9FED370B384868
:103FA00053EC102B90ED000B51EC100B03F0A2F929
:103FB0000F4647EC100B9FED331B064653EC112BBD
:103FC00051EC100B03F084FB47EC106B41EC1A0B27
:103FD00053EC102B51EC100B03F07AFB9FED2B1BD5
:103FE00053EC112B03F074FB53EC1A2B03F07AFC07
:103FF0009FED281B53EC112B03F0C8F853EC182B42
:1040000003F0C4F803F090F8A062B8F1010F91D169
:10401000B7EE000ACAF8000039EE400A89ED000A3E
:10402000A570E57086E700000000002066E63343D7
:104030000000B443C4010020880B0020B40B002012
:1040400000401C4700606A4700803B450000FA447E
:10405000333333333333E33F000000000000E03FED
:10406000B81E85EB51B89E3FFA7E6ABC7493783FC8
:1040700066E633C3410100200000000000408F408D
:10408000D800002000000000D7A3E83F0000000097
:10409000D7A3D03F000000C01E8516402DE9F04197
:1040A000264E274C0125356020780327012816D19C
:1040B000607801280BD1E069401CE061012802D141
:1040C000204801F09BFFE069032800DDE7611D48FF
:1040D00001F0E8FF6078032801D101F081FC20782D
:1040E000022817D11848007C012803D0606A0128F3
:1040F00001D00FE06562206A401C2062012802D1D5
:10410000104801F07BFF206A032800DD27620D487C
:1041100001F0C8FF306802280AD120780B49022834
:1041200008D0032804D19FED0A0A00BF81ED070AD9
:10413000BDE8F0819FED070AF8E700007C00002051
:1041400000000020E4090020C4010020F007002046
:1041500000000000000016442DE9FC4100287DD03D
:1041600001884C4CC1F30A01A1F580612180002235
:104170000931132900D2228041788378C90841EAA5
:104180004311C1F30A01A1F580616180093113294E
:1041900000D262808178C378890941EA830103797A
:1041A00041EA8321C1F30A01A1F58061A1800931AF
:1041B000132900D2A28001794379490841EAC31149
:1041C000C1F30A01A1F58061E1800931132900D210
:1041D000E2804179304F8D09257241794FF6FF76A3
:1041E000C1F301116172C28862810289A281428990
:1041F000E281027B2274437B6374807B254B608267
:104200003D7006EAC03C143379704FEADC3CA3F8F9
:1042100000C006EA803C4FEADC3CA3F808C006EA8E
:10422000003C4FEADC3CA3F80AC006EA403C4FEAF7
:10423000DC3CA3F806C006EA402C4FEADC3CA3F8BD
:1042400002C04FEAD01CA3F804C006EAC02C4FEA13
:10425000DC3CA3F80CC006EA802000E018E0C00BAC
:10426000D881B4F90230B4F90000CDE90003B88A6E
:1042700003B22846FCF746FAB4F906000090B4F9F8
:104280000430B4F90A20B4F91210607CFCF7F2F99A
:10429000BDE8FC81C40100200000002010B55020C2
:1042A00080F31188BFF34F8FBFF36F8F02F060FE72
:1042B00018B104494FF080500860002080F3118845
:1042C00010BD000004ED00E030B593B03021684629
:1042D000FCF738F914210CA8FCF734F91F48002525
:1042E000016841F080510160006800F08050119039
:1042F0001B48016841F4804101600068022400F419
:1043000080401190092000904FF4803001900120EE
:10431000CDE9050480050790192008904FF4A87096
:10432000CDE9090404200B906846FEF757F808B160
:1043300072B6FEE70CA90F2081E831004FF4A050BF
:104340000F904FF48050109005210CA8FDF73AFF14
:10435000002801D072B6FEE713B030BD40380240ED
:10436000007000400248016841F47001016070472C
:1043700088ED00E010B50448FEF7C9FABDE810402A
:104380000248FEF7C4BA0000440C0020641100206B
:10439000F0B50268254C264D264E274F274B4FF08F
:1043A000804CA04209D0604507D0A84205D0B04259
:1043B00003D0B84201D0984204D122F0700E4A686E
:1043C00042EA0E02A0421BD0604519D0A84217D085
:1043D000B04215D0B84213D0984211D0184DA8421F
:1043E0000ED0184DA8420BD0174DA84208D0174D3B
:1043F000A84205D0164DA84202D0164DA84203D1BE
:1044000022F44075CA682A434D6922F080022A438B
:1044100002608A68C2620A688262A04201D0984241
:1044200001D10969016301214161F0BD0000014032
:104430000004004000080040000C0040000401405F
:104440000040014000440140004801400018004085
:10445000001C00400020004010B501F01F030121A6
:10446000046A99408C430462016A9A4011430162D4
:1044700010BD0000F0B5026A22F001020262036A78
:1044800042688469124E24F073050C682C4323F0B3
:1044900002058B682B430D4DA84201D0B04205D1D7
:1044A00023F00807CB683B4323F00403A84201D064
:1044B000B04205D14D6922F4407215438A692A43FE
:1044C00042608461496841630362F0BD00000140BD
:1044D00000040140F0B5026A22F010020262026A92
:1044E000436884690D6824F4E64444EA05248D6831
:1044F00022F0200242EA05120F4D104EA84201D0D0
:10450000B04206D1CF6822F0800242EA071222F0C0
:104510004002A84201D0B04207D14D6923F4406364
:1045200043EA85038D6943EA8503436084614968F2
:1045300081630262F0BD0000000001400004014000
:10454000F0B5026A22F480720262026A4368C469AA
:1045500022F4007224F073050C68124E2C438D680F
:1045600042EA05220E4DA84201D0B04206D1CF68E2
:1045700022F4006242EA072222F48062A84201D0BB
:10458000B04207D14D6923F4405343EA05138D69C6
:1045900043EA05134360C4614968C1630262F0BD28
:1045A000000001400004014030B5026A22F480524C
:1045B0000262046A4268C3690D6823F4E64343EA71
:1045C00005238D6824F4005444EA0534084DA842BC
:1045D00002D0084DA84204D14D6922F4804242EA3B
:1045E00085124260C36149680164046230BD000005
:1045F0000000014000040140074810B50068006851
:10460000C043C00602D4044800F0BEF8BDE8104024
:104610000148FEF77FBB00008C0D00200148FEF72B
:1046200079BB0000D00D002010B5806B0021C18542
:10463000C184FEF76DFB10BD70B5846B20684069C6
:1046400094F83D10C0F3C0100025212904D118B101
:10465000E584204600F08AF82068406994F83E100E
:10466000C0F38010222904D118B1E585204600F05E
:1046700056F8206C40F0100020642046FEF748FBFE
:1046800070BD10B50146806B09680968C9052FD453
:104690000021C18501680C3151E8002F22F480729D
:1046A00041E80023002BF5D10168143151E8002FB7
:1046B00022F0010241E80023002BF5D101681431FA
:1046C00051E8002F22F0400241E80023002BF5D1F1
:1046D000202180F83E10016B012909D101680C31BD
:1046E00051E8002F22F0100241E80023002BF5D101
:1046F000016B012902D0FEF74FFE10BD818DFEF740
:1047000006FB10BD10B5806B016B012902D0FEF7CE
:1047100085FE10BD818D4908FEF7F9FA10BD0168CC
:104720000C3151E8002F22F4907241E80023002B55
:10473000F5D10168143151E8002F22F0010241E85F
:104740000023002BF5D1016B012909D101680C313F
:1047500051E8002F22F0100241E80023002BF5D190
:10476000202180F83E1000210163704701680C3160
:1047700051E8002F22F0C00241E80023002BF5D1C0
:10478000202180F83D107047704708B590F83E1022
:10479000222901D0022008BD82684FF480539A423A
:1047A00001D1016921B1816A9A421BD04AB10AE064
:1047B0000268816A5268C2F308020A80816A891C11
:1047C00008E0026972B10268526802F07F020A7062
:1047D000816A491C8162C18D491E0904090CC18589
:1047E00003D019E002685268F1E70168CA6822F054
:1047F0002002CA600168CA6822F48072CA60016837
:104800004A6922F001024A61202180F83E10016BC2
:10481000012903D0FEF7C0FD002008BD002101637F
:1048200001680C3151E8002F22F0100241E800230A
:10483000002BF5D101680A68D20602D50A684968DA
:104840000091818DFEF763FAE6E7000070B504463B
:1048500000680169E26821F4405111430161216956
:10486000A068E26908436169114308432168CA6886
:1048700049F20C639A430243CA6020684169A26905
:1048800021F440711143416131492068884202D0CE
:104890003049884202D1FDF75FFD01E0FDF74CFD94
:1048A000E2690023192164253226B2F5004F6268BF
:1048B00028D0A0FB0101930F9200FBF755FD0146A4
:1048C000B0FBF5F06FF01802504301EB800006EBEF
:1048D0000010B0FBF5F000F0F002B1FBF5F002EBD8
:1048E0000012B1FBF5F06FF01803584301EB8000A4
:1048F00006EB0010B0FBF5F000F00F00216810444B
:10490000886070BDA0FB010192185B41FBF72CFD94
:104910000146B0FBF5F00201B1FBF5F06FF01803B2
:10492000584301EB800006EBC000B0FBF5F000F04F
:10493000F80002EB4002B1FBF5F0584301EB8000B8
:1049400006EBC000B0FBF5F000F00700D6E7000072
:10495000001001400014014038B5816282850025B5
:10496000134604460564222084F83E00A26B1C48CE
:10497000D063A26B1B481064A26B1B48D064A06B71
:104980000A4605652168A06B091DFDF7F9F9206845
:1049900001684068009084F83C50206948B1206864
:1049A0000C3050E8001F41F4807140E80012002AEA
:1049B000F5D12068143050E8001F41F0010140E8B3
:1049C0000012002AF5D12068143050E8001F41F091
:1049D000400140E80012002AF5D1002038BD000057
:1049E000834600080547000839460008074810B507
:1049F00000680068C043C00602D40448FFF7C4FE44
:104A0000BDE810400148FEF785B90000140E0020F3
:104A1000044882B00068016840680090014802B014
:104A2000FEF778B9580E00200148FEF773B9000070
:104A3000E00E0020FEE7000007480068C16841F072
:104A40001001C160064905488022097800EBC111B8
:104A50000148FEF78BBC00008C0D00208C0C002060
:104A60004001002003B401984100009850EAC120A1
:104A700018BF04204A0D18BF40F0010040F2FF7239
:104A8000B2EB515F08BF40F00200012808BF0520CB
:104A900002B070470907090E002804DB00F1E0208E
:104AA00080F80014704700F00F0000F1E02080F85B
:104AB000141D70470000000010B52F499FED2C1BFE
:104AC0002DED020B84B0059820F000408842D8BF3D
:104AD0009DED040B2DDD2949884209D1049840B988
:104AE0004FF00100FBF75DFD00F09EFE06B010BD2B
:104AF00005DB9DED040B00F08BFE06B010BD684693
:104B00009DED040B00F084FA10F0030004BF9DED4E
:104B1000021B9DED000B0CD001280ED09DED021B59
:104B20009DED000B022817D0012000F0C1FD06B05A
:104B300010BD00F089FC06B010BD9DED021B9DED7F
:104B4000000B012000F0B4FD51EC100B02F0E0FA74
:104B500006B041EC100B10BD00F076FC51EC100BD0
:104B600002F0D6FA06B041EC100B10BD00000000B8
:104B70000000000000000000FB21E93F0000F07F82
:104B800070B5D94B00242DED020B2DED108BDDE916
:104B90001010984205DA20F000429A4201D809D15B
:104BA00041B19DED100BBDEC108B02B0BDE8704023
:104BB00000F02EBEB0F5801F26DA11430BD000287E
:104BC00013DA0120FBF7EDFCBDEC108B02B0BDE861
:104BD000704000F029BE0220FBF7E3FC00F000FE6D
:104BE00051EC100B02F094FA9EE06FF035049FED4B
:104BF000C00B53EC102B9DED100B51EC100B02F081
:104C000067FDCDE91001084604EB2051C0F3130401
:104C1000B948A1F2FF31204400F4801080F07F6297
:104C200082F04052224301EB20559FEDB50B1192CB
:104C300053EC102B9DED100B51EC100B02F052FEBB
:104C400041EC180BA01CC0F313009FEDAFDB9FEDF0
:104C5000B0EBB14E7E4403286CD296ED000B51ECC4
:104C6000180B53EC102B02F09DFC1DD1002D01BF41
:104C700096ED000BBDEC108B02B070BD284602F023
:104C8000FCFC41EC180B53EC1D2B02F021FD41EC18
:104C9000190B53EC1E2B51EC180B02F019FD53ECC1
:104CA000192B02F073FA3FE09FED9D0B51EC180BAE
:104CB00053EC102B02F00CFD9FED9B1B53EC112BC2
:104CC00002F004FE41EC190B53EC182B51EC180BBD
:104CD00002F0FEFC53EC192B02F0FAFC41EC190B2C
:104CE000002D04BF53EC192B51EC180B1AD0284699
:104CF00002F0C3FC41EC1A0B53EC1D2B02F0E8FC54
:104D000053EC192B02F0E2FD53EC182B02F0EAFDF4
:104D100041EC180B53EC1E2B51EC1A0B02F0D8FC93
:104D200053EC182B02F0DEFDBDEC108B02B041EC11
:104D3000100B70BD9FED7E0B51EC180B53EC102B3C
:104D400002F024FA41EC100B51EC180B53EC102B31
:104D500002F0D0FA41EC190B284602F08EFC41EC2F
:104D60001B0B53EC192B51EC190B02F0B1FC41EC6D
:104D70001A0B714853EC1A2B261851EC1A0B02F03F
:104D8000A7FC41EC1F0B6D48C4F1510404F5D72476
:104D9000B0EE4F0AF0EE6F0A0321784400F00CFCED
:104DA00053EC1F2B51EC100B02F092FC41EC1C0B4E
:104DB0006348B0EE4F0AF0EE6F0A0421784400F029
:104DC000FBFB53EC1A2B51EC100B02F081FC34432B
:104DD00053EC1C2B02F0DAF941EC1C0B002C4CDDDF
:104DE0009FED510B51EC180B53EC102B02F070FCA3
:104DF00053EC182B02F06CFC41EC1A0B55B353EC3E
:104E00001D2B51EC1B0B02F063FC41EC1D0B53EC12
:104E10001C2B51EC1A0B02F0B9F953EC192B02F0D0
:104E200057FC53EC1D2B02F0B1F953EC1A2B02F096
:104E30004DFD53EC182B02F055FD41EC180B53ECD3
:104E40001E2B51EC1B0B02F043FC53EC182B02F011
:104E500049FD69E753EC1C2B51EC1A0B02F096F953
:104E600053EC192B02F034FC53EC1A2B02F02EFDFC
:104E700053EC182B02F02AFD56E735B353EC1D2BEB
:104E800051EC1B0B02F024FC41EC1A0B53EC1C2BD5
:104E900051EC180B02F026FD53EC192B02F018FC14
:104EA00053EC1A2B02F01EFD53EC182B02F01AFDE6
:104EB00041EC180B53EC1E2B51EC1B0B02F008FCC1
:104EC00053EC182B02F00EFD2EE753EC1C2B51EC8B
:104ED000180B02F007FD53EC192B02F0F9FB53EC11
:104EE000182B02F0F3FC1FE70000F07F0000000029
:104EF0000000000000005043645F09000000000053
:104F0000000000000000F03F763C7935EF39EA3DC3
:104F10000000E0FE422EE63FA0300000000000004E
:104F2000555555555555D53F000000000000E03F50
:104F3000000000000000004086EBF9FFF22E0000A8
:104F4000E82E00000000000010B52F499FED2C1B3B
:104F50002DED020B84B0059820F000408842DCBFA4
:104F600000209DED040B32DD2849884209D10498C8
:104F700040B94FF00100FBF714FB00F055FC06B000
:104F800010BD05DB9DED040B00F042FC06B010BD2A
:104F900068469DED040B00F03BF810F0030011D0C3
:104FA000012818D09DED021B9DED000B02281AD0A0
:104FB00000F04AFA51EC100B02F0AAF806B041ECEE
:104FC000100B10BD9DED021B9DED000B012000F0AC
:104FD0006FFB06B010BD9DED021B9DED000B00F0B8
:104FE00033FA06B010BD012000F062FB51EC100B4B
:104FF00002F08EF806B041EC100B10BD000000006E
:105000000000000000000000FB21E93F0000F07FED
:105010002DE9F14F04462DED020B2DED088B8AB0E2
:105020009FEDE70B80ED020B139EE74826F000454D
:1050300085420ADC9DED120B002084ED000B0AB0C6
:10504000BDEC088B03B0BDE8F08FE0489FEDE0AB0E
:105050009FEDE1BBA84247DDE14F9FEDE39B9FED54
:10506000E48B9DED120B53EC1A2B51EC100B002E20
:105070001CDD02F037FC41EC100BBD4208D053ECB4
:105080001B2B51EC100B02F02DFCC4E900010BE0CE
:1050900053EC192B51EC100B02F024FC53EC182BA1
:1050A00002F020FCC4E900010120C8E702F06EF81C
:1050B00041EC100BBD4208D053EC1B2B51EC100BF4
:1050C00002F064F8C4E900010BE053EC192B51EC39
:1050D000100B02F05BF853EC182B02F057F8C4E900
:1050E00000014FF0FF30AAE7C348A84279DB9DEDED
:1050F000120B51EC100B00F053FD41EC180B9FED1F
:10510000C00B53EC102B02F0E3FA9FEDBF1B53ECE6
:10511000112B02F03BF802F081FA074602F0ADFADB
:1051200041EC190B53EC1A2B02F0D2FA53EC182B6A
:1051300002F0CCFB41EC180B53EC1B2B51EC190B80
:1051400002F0C6FADFF8C8A241EC100B4FEA15587E
:105150000125FA4453EC102B51EC180B02F0C2FB62
:10516000032DC4E900013DD0C1F30A5005EB451100
:10517000A8EB00001139814234DA0AEB051BB0EECE
:1051800048AA9BED000BF0EE68AA53EC102B51ECF3
:10519000190B02F09DFA41EC1B0B51EC1A0B53EC6E
:1051A0001B2B02F09FFB41EC180B51EC1A0B53EC3C
:1051B000182B02F097FB53EC1B2B02F093FB9BED9B
:1051C000020B41EC1A0B53EC102B51EC190B02F0B3
:1051D0007FFA53EC1A2B02F085FB41EC100B6D1C8F
:1051E000B8E70EE0002EA8BF3846BFF628AF94ED12
:1051F000000B51EC100B01F08BFFC4E90001784269
:105200001DE7C6F3130040F4801EC6F30A50A0F257
:10521000F530471100F01F05C5F12000DDF848B05A
:1052200008900020069007900520EC467949002D53
:1052300007EB0002794408BF51F8221009D051F859
:10524000223001EB8201AB404A68089922FA01F151
:105250001943A1FB0E26A1FB0B131A449A4234BF3B
:105260000123002303EB06080CEB8003D3E901A61E
:105270000E448E4234BF0121002192448A4411B170
:10528000924502D903E0924501D2012100E00021BC
:10529000C3E901A641444CF82010011EA0F1010011
:1052A000C4DC029800F10050850F0298DDE9036725
:1052B0008000DDF8148002F0E0F941EC1A0B304672
:1052C00002F0F2F99FED541B53EC112B02F000FA9F
:1052D00041EC1B0B384602F0E7F99FED511B53ECF4
:1052E000112B02F0F5F941EC180B404602F0DCF905
:1052F0009FED4D1B53EC112B02F0EAF941EC190B19
:1053000051EC180B53EC192B01F040FF53EC1B2B05
:1053100001F03CFF53EC1A2B01F038FFCDE90801F6
:10532000002008909DED080B53EC1A2B51EC100B4C
:1053300002F0D8FA53EC1B2B02F0D4FA53EC182BE2
:1053400002F0D0FA53EC192B02F0C0FA9FED381B93
:1053500053EC112B02F0BCF99FED370B41EC180B0D
:1053600053EC102B9DED080B51EC100B02F0B0F933
:1053700053EC182B01F00AFF9FED310B41EC180B99
:1053800053EC102B9DED080B51EC100B02F0A0F923
:1053900053EC182B01F0FAFE41EC100B139810F0AF
:1053A000004F06D06D4251EC100B01F0B1FE41EC04
:1053B000100B284684ED000B41E6000000000000C1
:1053C0000000000000000000FB21E93F7CD9024002
:1053D00000004054FB21F93F3163621A61B4D03DB3
:1053E000FB21F93F000000000000601A61B4D03DCD
:1053F0007370032E8A19A33BFB2139410000000082
:1054000083C8C96D305FE43F000000000000E03F4A
:10541000AA2B0000F82A0000000000000000103E47
:10542000000000000000103C000000000000103AE6
:10543000182D4454FB21F93D3326A611460B113C8F
:1054400000000054FB21F93D10B52DED040B2DEDAE
:10545000088B82B0B0EE419AF0EE619A0B9820F082
:1054600000449FED4BABB4F1795F11DA9DED0A0B6F
:1054700051EC100B02F0D2F8002801BFB0EE4A0A3E
:10548000F0EE6A0A02B0BDEC088B04BF04B010BD98
:105490009DED0A0B53EC102B51EC100B02F018F998
:1054A00041EC180B3C480621B0EE480AF0EE680AC1
:1054B000784400F081F853EC182B51EC100B02F0FB
:1054C00007F99DED0A0B41EC1B0B53EC192B51EC2A
:1054D000100B02F0FDF841EC190B53EC1B2B51ECB7
:1054E000180B02F0F5F853EC192B02F0FBF99FEDC5
:1054F0002C0B41EC190B53EC102B51EC180B02F058
:10550000E7F841EC100B2848844210DA53EC192BD1
:1055100051EC100B02F0E6F953EC1A2B02F0D6F91D
:1055200041EC100B02B0BDEC088B04B010BD1F485D
:10553000A042BCBF9FED1E1B8DED001B06DBA4F53A
:1055400000100190002000909DED001B51EC100B0D
:1055500053EC112B02F0C6F99DED000B41EC180B3A
:1055600053EC102B51EC1A0B02F0BCF941EC1A0B66
:1055700053EC192B51EC180B02F0B4F953EC1A2B25
:1055800002F0A4F941EC100BCCE700000000000091
:10559000000000000000F03F1428000000000000A0
:1055A000000000000000E03F3333D33F0000E93F3C
:1055B000000000000000D23F70B504462DED028BC4
:1055C0004D1E00EBC500B0EE408AF0EE608A90ED13
:1055D000000B35F0060017D053EC182B51EC100BD4
:1055E00002F076F841EC100B6D1E04EBC50090ED57
:1055F000001B51EC100B53EC112B01F0C7FD41ECDB
:10560000100B35F00600E7D1022D36D0042D1CD04A
:10561000062D1CBFBDEC028B70BD53EC182B51EC5A
:10562000100B02F055F894ED0A1B53EC112B01F00E
:10563000ADFD53EC182B02F04BF894ED081B53EC26
:10564000112B01F0A3FD41EC100B53EC182B51EC86
:10565000100B02F03DF894ED061B53EC112B01F0FA
:1056600095FD53EC182B02F033F894ED040B53EC3A
:10567000102B01F08BFD41EC100B53EC182B51EC6F
:10568000100B02F025F894ED021B53EC112B01F0E6
:105690007DFD53EC182B02F01BF894ED001B53EC2E
:1056A000112B01F073FDBDEC028B41EC100B70BDB2
:1056B00031B504462DED040B2DED0A8BB0EE41BA49
:1056C000F0EE61BA0B989DED0A0B20F00040B0F1AE
:1056D000795F0DDA51EC100BFFF7C4F9042808BF0D
:1056E00000F0B2F89DED0A0BBDEC0A8B05B030BDA1
:1056F00053EC102B51EC100B01F0EAFF41EC180BAE
:105700009DED0A0B53EC182B51EC100B01F0E0FF50
:1057100041EC190B2C48B0EE480AF0EE680A05215E
:105720007844FFF749FF9FED2ACBB0EE40AAF0EE98
:1057300060AA9CB353EC1C2B51EC190B01F0C8FF71
:1057400041EC1C0B53EC1A2B51EC190B01F0C0FF70
:105750009FED210B41EC190B53EC102B51EC1B0B63
:1057600001F0B6FF53EC192B02F0BCF853EC182BE8
:1057700001F0AEFF53EC1B2B02F0B4F853EC1C2BE2
:1057800002F0B0F89DED0A1B53EC112B02F09EF8CD
:10579000BDEC0A8B05B041EC100B30BDFFE753ECBC
:1057A0001A2B51EC180B01F093FF53EC1C2B01F05A
:1057B000EDFC53EC192B01F08BFF9DED0A1B53EC14
:1057C000112B01F0E3FCE3E7A42600000000000039
:1057D000495555555555C5BF000000000000E03F34
:1057E0009FED070B10B553EC102B9FED070B51EC01
:1057F000100B01F07FFD41EC100B10BD000000000C
:105800000000000000000000000000000000F03F69
:1058100010B553EC102B51EC100B01F0B7FC41EC20
:10582000100B10BD000000009FED050B10B553ECF0
:10583000102B51EC100B01F05DFD41EC100B10BD75
:1058400000000000000000009FED050B10B553ECB8
:10585000102B51EC100B01F03BFF41EC100B10BD75
:10586000000000000000001001F07CFB0C4C012641
:105870000C4D0027C4F81000FEF758F8E8890128FD
:1058800001D010B102E0666000E06760FAF782FFC5
:10589000FBF726F802480521103001F037F9EBE755
:1058A000A0000020D8010020F0B50388002541F2B7
:1058B00021070CE04C5D002683EA04235C001B04F6
:1058C00000D57C40761C2346082EF7D36D1C9542EC
:1058D000F0D30380F0BD000010B501F043FB034995
:1058E0008860BDE81040FBF7B9B8000088000020D0
:1058F000F0B52E4E306901284FD12D4C2D4D2E483C
:1059000094ED040A2D4F85ED000A94ED030A85ED10
:10591000010A90ED0E0A284687ED010AFBF7FEFA10
:1059200095ED090A384687ED000AFBF773FA24481B
:105930009FED250A01782348012902D0022914D0BD
:105940002BE0D5ED010A95ED001A70EEC10AF0EEDC
:10595000E00A10EE901A81421FDA00BF84ED030ABC
:1059600084ED050A84ED040A17E0D5ED010A95EDF2
:10597000001A70EEC10AF0EEE00A10EE901A8142B1
:105980000BDA1249002008601149086011490860CB
:105990001149086011490860E0E73069022804D124
:1059A000BDE8F0400448FDF73CBDF0BD6C000020B0
:1059B000E40900200C0C0020F0070020E00B002080
:1059C00000000020000070410000000024000020C2
:1059D000380000201C00002020000020340000209F
:1059E0000C4900209FED0C0A08600C48032180ED53
:1059F000030A80ED050A80ED040A094880ED000ADB
:105A000080ED020A8162074880ED000A80ED020AFB
:105A1000816270471C00002000000000E4090020A3
:105A2000E00B00200C0C00200F489FED0E0AF2EE58
:105A30000E0A80ED000A80ED010AC0ED030ADFEDD9
:105A40000B0A0321C0ED040A80ED050A80ED020A6D
:105A500080ED090A816280ED080A80ED060A80ED7A
:105A6000070A704700000000E00B0020CDCCCC3EC0
:105A70000E489FED0D0ADFED0E0A80ED000A80ED65
:105A8000010AC0ED030A80ED040A80ED050A80EDED
:105A9000090A80ED020A80ED080A80ED060A80ED11
:105AA000070A032181627047000000000C0C0020EF
:105AB0009A99A940184800B59FED161AB1EE020A4E
:105AC00080ED071A80ED0E1A80ED0F0A9FED130A84
:105AD000032180ED100A80ED110A80ED121A80ED8D
