:020000040800F2
:1000000020600020090300083B3B00082D36000853
:10001000393B00080B060008F14E00080000000004
:10002000000000000000000000000000490200087D
:10003000A90B000800000000A5020008B146000856
:1000400023030008230300082303000823030008F8
:1000500023030008230300082303000823030008E8
:10006000230300082303000823030008D50A00081F
:1000700023030008E10A0008230300082303000803
:10008000ED0A0008230300082303000823030008E7
:100090006107000823030008230300082303000866
:1000A0002303000823030008230300082303000898
:1000B0002303000823030008230300082303000888
:1000C0002303000823030008230300082303000878
:1000D00023030008B54E0008D94E0008230300088A
:1000E0002303000823030008230300082303000858
:1000F00023030008854700082303000823030008A2
:100100002303000823030008230300082303000837
:10011000094A00082D4A00082303000823030008A9
:100120002303000823030008F90A0008230300083A
:100130002303000800000000000000002303000863
:1001400045080008230300082303000823030008D0
:1001500023030008230300082303000823030008E7
:1001600023030008230300082303000823030008D7
:100170002303000823030008000000000000000023
:10018000230300082303000800F002F800F04CF8F5
:100190000AA090E8000C82448344AAF10107DA45E2
:1001A00001D100F041F8AFF2090EBAE80F0013F0E8
:1001B000010F18BFFB1A43F001031847846C0000BD
:1001C000A46C00000A4410F8014B14F00F0508BF9E
:1001D00010F8015B240908BF10F8014B6D1E05D013
:1001E00010F8013B6D1E01F8013BF9D1641E03D0EC
:1001F000641E01F8015BFBD19142E4D3704700001B
:100200000023002400250026103A28BF78C1FBD81F
:10021000520728BF30C148BF0B6070471FB506F0BA
:100220003DFD1FBD10B510BD00F0BAF91146FFF736
:10023000F5FF05F0A5FC00F0D8F903B4FFF7F2FFD5
:1002400003BC00F0DBF900002C4B19680868B0E82B
:10025000F04F80F30988BFF36F8F4FF0000080F3F9
:10026000118870470000000008480068006880F3AB
:1002700008884FF0000080F3148862B661B6BFF3BF
:100280004F8FBFF36F8F00DF00BF00BF08ED00E0AE
:10029000DFF80C00016841F470010160704700BF95
:1002A00088ED00E0EFF30980BFF36F8F134B1A68FE
:1002B0001EF0100F08BF20ED108A20E9F04F1060EB
:1002C00009B44FF0500080F31188BFF34F8FBFF394
:1002D0006F8F06F00DF94FF0000080F3118809BC14
:1002E00019680868B0E8F04F1EF0100F08BFB0ECB6
:1002F000108A80F30988BFF36F8F70477401002064
:10030000EFF305807047000009488047094800471F
:10031000FEE7FEE7FEE7FEE7FEE7FEE7FEE7FEE7B5
:10032000FEE7FEE704480549054A064B7047000012
:100330007547000889010008205000202060002037
:10034000205800202058002053EA020C00F0698059
:100350002DE9F04B4FF00006002B1FBFB3FA83F5D9
:1003600003FA05F424FA05F65E4012BF1643B2FA0A
:1003700082F502FA05F4C5F120051EBF22FA05FC3C
:1003800044EA0C04203556EA044C4FEA144418BFE2
:10039000641C4FF000084FF00009904271EB030C11
:1003A00039D3002919BFB1FA81F701FA07F6B0FA7B
:1003B00080F700FA07F6C7F120071EBF20FA07FCF6
:1003C00046EA0C062037B6FBF4FCA7EB0507103F06
:1003D00007F01F0BCBF120060CFA0BFB2CFA06F6EC
:1003E00044BFB3460026202FA4BF5E464FF0000B4B
:1003F0005BEA060C08BF4FF0010B19EB0B09ABFBD6
:10040000027C48EB0608C01B06FB02CC0BFB03CCAE
:1004100071EB0C01C1E70B46024641464846BDE878
:10042000F08B13B54FF000004FF00001AFF30080E8
:10043000BDE81C407047032A40F2308010F0030CE6
:1004400000F0158011F8013BBCF1020F624498BF27
:1004500011F801CB00F8013B38BF11F8013BA2F1C4
:10046000040298BF00F801CB38BF00F8013B11F03F
:10047000030300F02580083AC0F0088051F8043BDF
:10048000083A51F804CBA0E80810F5E7121D5CBF4C
:1004900051F8043B40F8043BAFF30080D20724BF7F
:1004A00011F8013B11F801CB48BF11F8012B24BF13
:1004B00000F8013B00F801CB48BF00F8012B704762
:1004C00010B5203AC0F00B80B1E81850203AA0E8EF
:1004D0001850B1E81850A0E81850BFF4F5AF5FEA23
:1004E000027C24BFB1E81850A0E8185044BF18C9D6
:1004F00018C0BDE810405FEA827C24BF51F8043B7D
:1005000040F8043B08BF7047D20728BF31F8023BD0
:1005100048BF11F8012B28BF20F8023B48BF00F864
:10052000012B70474FF0000200B5134694469646E3
:10053000203922BFA0E80C50A0E80C50B1F12001F6
:10054000BFF4F7AF090728BFA0E80C5048BF0CC0A4
:100550005DF804EB890028BF40F8042B08BF704702
:1005600048BF20F8022B11F0804F18BF00F8012B74
:10057000704770477047704710B500F009F8006881
:1005800010BD10B5044600F003F8046010BD000073
:1005900000487047C04F002000487047C04F0020FF
:1005A0007546FFF7F9FFAE4605006946534620F051
:1005B0000700854618B020B5FFF7B4FEBDE820401F
:1005C0004FF000064FF000074FF000084FF0000B0F
:1005D00021F00701AC46ACE8C009ACE8C009ACE8C2
:1005E000C009ACE8C0098D46704710B50446AFF3AA
:1005F00000802046BDE81040FFF71FBE01491820CB
:10060000ABBEFEE7260002007047FEE730B587B0BC
:1006100040F2FF14009400240394029408240494EC
:100620000A4C050A25706070080AA070E170100A73
:1006300020716271180AA071E37101232246694694
:10064000034800F029FE07B030BD0000140100206F
:10065000EC0C002000B587B040F233310822009145
:1006600004920021094A0391030A02911370507009
:100670009170D170117151719171D17101236946DD
:10068000034800F009FE07B000BD00002C01002067
:10069000EC0C002030B587B04FF48F640A9D0094B5
:1006A000002403940294082404940A4C207061707E
:1006B000100AA070E270180A20716371280AA071F4
:1006C000E571012322466946034800F0E5FD07B0C5
:1006D00030BD000044010020EC0C002070B586B055
:1006E0004FF4E964DDE90A65009400240394029460
:1006F00008240494094C20706170A270E370300AE1
:1007000020716671280AA071E571012322466946AD
:10071000034800F0C1FD06B070BD00003C010020A0
:10072000EC0C002000B58BB0002001210390049058
:10073000CDE90601CDE908100590009001900290E6
:100740006946064800F016FE044801F045FA022109
:10075000024800F08FFD0BB000BD0000EC0C002043
:10076000014800F002BF0000EC0C002011491048C5
:1007700091ED090A0068B1EE400A0228BDEEC00AF8
:1007800011D0012813D10C48D0ED090AFDEEE00A82
:1007900010EE900A0FFA80F210EE100A00231946AC
:1007A00000B2FFF733BF0548B0F95C20F4E77047AB
:1007B00070000020580D0020080E0020180A0020AC
:1007C00030B587B040F2FF140094002403940294E3
:1007D000082404940A4C050A25706070080AA07069
:1007E000E170100A20716271180AA071E37101238F
:1007F00022466946034800F04FFD07B030BD0000B7
:100800001C010020140D002000B58BB00E200590B7
:100810000020012103900490CDE90601CDE90810E4
:100820000090019002906946054800F0A3FD04483D
:1008300001F0D2F90221024800F01CFD0BB000BD0E
:10084000140D0020014800F090BE0000140D00209F
:10085000064800231A4690ED090ABDEEC00A10EEC4
:10086000100A01B21846FFF7ABBF0000840D00204C
:1008700000B50E4802F0DBFE0C48643002F0D7FEF3
:100880000A48C83002F0D3FE094802F0D0FE0748FB
:100890000849B0F85C200A80B0F8C0204A80B0F85F
:1008A00024218A80B0F88801C88000BD8808002013
:1008B000B40900208000002070B506463A480D4675
:1008C0003A4990ED000ADFED3A0A10EE100A394C71
:1008D000884203DA9FED381A30EE010A30EE600AE2
:1008E000DFED360A84ED090A20EE200ADFED340A36
:1008F00084ED0A0A20EE200A84ED080A04F00EFCBA
:1009000000EE906AF8EEE00A20EE200A84ED040A78
:1009100094ED080A04F05AFB00EE906AF8EEE00A43
:1009200020EE200A84ED050A94ED080A04F0F6FB97
:1009300000EE905AF8EEE00A20EE200A84ED060A56
:1009400094ED080A04F042FB00EE905A1E48F8EEBF
:10095000E00A60EE200A9FED1B0AC4ED070A94ED41
:10096000051AD4ED061A31EE611AD4ED041A71EEAF
:10097000A00A70EEC11A70EE211AC0ED071AF1EE4E
:10098000411A71EEE01A70EE211AC0ED201A71EED4
:10099000601A71EE200A70EE211A30EE200AC0EDC6
:1009A000391A80ED520A70BD7C0A002000A0AE44C6
:1009B00000A0AE449400002000F8FF45A005343D9F
:1009C000A7E78E3C00803B45880800203248DFEDD9
:1009D000330A344A90ED000A314830EEC00ADFEDA8
:1009E000320A10EE101A80ED0B0A914202DD30EE51
:1009F000600A06E010EE101A2C4A914203D930EE3C
:100A0000200A80ED0B0A0188294A2A4B012907D1C7
:100A100010EE101A914201DA994201D300210180AF
:100A200010EE101A914204DC994202D80121018093
:100A300070470288002AFBD11F4A914202DB9FEDDA
:100A40001F0A04E01E4A914203D39FED1E0A80ED67
:100A50000B0ADFED1D0AB0EE401A1C4881EE200A99
:100A600090ED071ADFED1A0A00EE201A80ED071A42
:100A700090ED201A00EE201A80ED201A90ED391A20
:100A800000EE201A80ED391A90ED521A00EE201A6D
:100A900080ED521A704700007C0A002000A0AE448E
:100AA0009400002000F07F450000004600F07FC564
:100AB00000004842000048C200000744000007440C
:100AC000000007C4000007C4000048438808002055
:100AD00000007A44014801F00DB9000068110020BF
:100AE000014801F007B9000008110020014801F099
:100AF00001B9000028120020014801F0FBB80000F5
:100B0000C811002001681823CAB2103AB2FBF3F2F0
:100B1000054B6FF30901032A9B5CC36500D9091DCE
:100B20008165084670470000A46D000810B50146B5
:100B300000208B698A6A4FF0C07453B1B3F5005F2F
:100B400015D072B1012A0CD0022A0AD0032A09D189
:100B500004E01AB1012A06D0022A03D1C96AC901E8
:100B600000D5012010BDC96AA142FAD010BD002AEB
:100B7000F7D0012AF2D0022AF3D0032AF3D010BD15
:100B800030B50468256825F4802525600468636015
:100B90008368402B036803D099600068C26030BD51
:100BA0009A600068C16030BD7047000000EBC00172
:100BB00010B5114800EB81042068606005F022FE4A
:100BC0002060E17C4A0603D521F04001E174E06039
:100BD000A06958B1804748B1E07C40F0A000E074C3
:100BE000206A002806D0BDE810400047E07C20F0D5
:100BF0008000E07410BD0000F4020020F0B58DB05C
:100C0000044630221D496846FFF75AFC00221C4862
:100C100013466D4602EB420602EBC20100EB810176
:100C200035F816C00F8A05EB46066CF30B070F82EA
:100C3000B6F802C0B1F81170521C6CF30F17A1F88E
:100C400011703779CE7C8B6167F34406CB610B6200
:100C500046F0E106CE744B610C604C608C60D2B201
:100C6000CC60082AD6D3074981610749C161036274
:100C7000064AC263016443640DB0F0BDB06C000865
:100C8000F4020020213F0008A9610008A10E00081D
:100C90002DE9F04105F0B6FD364F374E786008205B
:100CA000387096F83301002520F0600086F8330193
:100CB00005EBC50006EB8004E07CC10754D0226838
:100CC00079688B1A228AC2F30B02934222D90DB99A
:100CD00005F06DFAE07C810604D440F06000E07419
:100CE0007868A0603978E07C01EBC10106EB8101F6
:100CF000C0F34300C97CC1F34301884200D93D7071
:100D000096F8330140F0600086F83301E06958B38B
:100D1000804729E0E26820F040008A1AB4F81110F8
:100D2000B2EB111F03D240F02000E0741CE0E0742D
:100D3000010606D540F02000E074E06920B180474C
:100D400002E020F02000E0742068616888420BD93E
:100D5000401A00EE100A9FED091AF8EE400A81EEE3
:100D6000200A10EE100A60616D1C082DA0DBBDE8A2
:100D7000F081000088000020F402002000007A4486
:100D800004F09AFB05F03EFD06490861FFF780FF7D
:100D900004483921103005F011FB392005F0E6FA3E
:100DA000F4E70000CC00002072B6FEE70C4800B566
:100DB0000178DFED0C0A0C489FED0C0A01290AD0DE
:100DC000022908D0084804F085FE07485DF804EBC6
:100DD000643004F07FBEC0ED070A80ED200AF1E721
:100DE0000000002000C0DAC5440B002000C0DA4536
:100DF00070B5254C207801280DD1244800780128B1
:100E000014D002283FD12248B0F900102148B0F98F
:100E10000000FFF751FD2078022834D11E4A00213E
:100E2000012354881D48012C03D004E0FFF7CEFDB8
:100E3000F1E795881DB19588012D03D003E0C0E945
:100E400002310DE01CB18468012C03D004E0C0E93C
:100E500002130FE0C5681DB1C168012902D002E08C
:100E6000416003E034B14068012804D0BDE870401F
:100E7000FFF7ACBD4360B2F91010B2F91200BDE843
:100E80007040FFF719BD70BD000000200100002078
:100E90000600002008000020F0010020940000203F
:100EA0000A480B4902688A4204DC82688A4201DCF3
:100EB000002070479FED070A074980ED000A80ED8A
:100EC000020A00204880012070470000D402002060
:100ED00000007A4400000000740000202DE9F04179
:100EE00038482DED048B04F075FC374804F0EAFC1B
:100EF000344D364C344F95ED008A84ED018AB7F9B4
:100F0000020005F0B6FD9FED329B53EC192B05F066
:100F1000C7FD05F04DFD304E7060D5ED028A2F4DB6
:100F2000C5ED018AB7F9040005F0A3FD53EC192BB8
:100F300005F0B6FD05F03CFD294F786022481438D5
:100F40004168491C4160052904DA84ED008AC5ED39
:100F5000008A03E002DD4FF00601416090ED000AD7
:100F6000B3EE091AD4ED000A30EE011AF4EEC10A0C
:100F7000F1EE10FA02DB84ED001A0AE0BAEE0C1A68
:100F800030EE010AF4EEC00AF1EE10FA01D884ED59
:100F9000000A124800F0CAF895ED090A104887EDDA
:100FA000000A00F03FF8094800F0C0F894ED090A83
:100FB000094886ED000ABDEC048BBDE8F04100F065
:100FC00031B80000D402002074000020DC0D0020A5
:100FD0009A9999999999B93F840D0020B00D0020F4
:100FE000580D002000B504F04BFD5DF804EB04F053
:100FF000FDBC000005F006FC0949486003F046F915
:10100000FFF76CFFFFF7D2FE03F038FA04F068FA3E
:1010100002F094FD02480221001D05F0CFF9EDE732
:10102000CC00002030B5354A90EC020A70EE600A20
:10103000C0ED060A90ED020A30EE200A10EE101AFA
:1010400080ED020A914203DB9FED2D0A80ED020A3A
:1010500010EE101A2B4A914203D39FED2B0A80ED1C
:10106000020A826A294B9FED2A1A2A4CDFED2A1ABE
:10107000032A0AD110EE101A994201DB80ED021A00
:101080008168A14201D3C0ED021A90ED030A90EDF0
:10109000042AD0ED022A20EE200A204D02EE220A78
:1010A00090ED072AD0ED052A30EEC22A02EE820A20
:1010B00010EE101A80ED080AC0ED070A80ED090A4B
:1010C000A94203DB9FED160A80ED090A10EE101A03
:1010D000144DA94203D39FED140A80ED090A032A97
:1010E0000AD110EE101A994201DB80ED091A416A0B
:1010F000A14201D3C0ED091A30BD00000050C34623
:101100000050C3460050C3C60050C3C600401C4632
:1011100000401C4600401CC600401CC60060EA4659
:101120000060EA460060EAC60060EAC610B590ECCE
:10113000020A70EE600AC0ED060A836A012B22D112
:1011400010EE904A3C4A9FED3D1A3D4994420ADD1B
:1011500010EE104A944206DC10EE104A8C4202D87F
:1011600030EEC10A0DE010EE904A8C420BD910EE21
:10117000104A944207DC10EE102A8A4203D830EE5F
:10118000810A80ED060A90ED020AD0ED060A2D4A8A
:1011900030EE200A10EE101A80ED020A914203DBB5
:1011A0009FED290A80ED020A10EE101A274A91429B
:1011B00003D39FED270A80ED020A90ED030A90ED1C
:1011C000041AD0ED021A20EE200A224A01EE210A6A
:1011D00090ED071AD0ED051A30EEC11A01EE810A22
:1011E00010EE101A80ED080AC0ED070A80ED090A1A
:1011F000914203DB9FED180A80ED090A10EE101AE8
:10120000164A914203D39FED160A80ED090A032B7B
:1012100011D110EE101A134A914203DB9FED120A0E
:1012200080ED090A10EE101A104A914203D39FED87
:10123000100A80ED090A10BD66E633430000B4438E
:1012400066E633C30050C3460050C3460050C3C6D1
:101250000050C3C60060EA460060EA460060EAC685
:101260000060EAC60000FA440000FA440000FAC434
:101270000000FAC490F82020012A07D0022A05D0E5
:10128000416A41F48021416201207047006842694F
:101290000A43426100207047F0B590F8205004687E
:1012A000A468012D05D0022D03D0416A41F48021AC
:1012B0005DE014F0406F01D1E50055D5C4F3016441
:1012C000022C03D9416A41F4000150E00125A540F8
:1012D0001D608D684FF4C0739DB1CE6835434E6874
:1012E00045EAC605066803EB0417F5514FF4C275CD
:1012F000076805EB04150E697E51097D012905D0AB
:1013000009E00E88CD6845EA4655EBE701684E597D
:1013100046F480764E511179D579567941EA0561C6
:1013200095792D0445EA062529434FF4C6760568CC
:1013300006EB0416A9511178D57841EA0561957834
:1013400052782D0445EA022211434FF4C475026815
:1013500005EB04155151006803EB0411425842F0AB
:10136000010242500020F0BD416A41F40011416287
:101370000120F0BD10B590F82020012A07D0022AE4
:1013800005D0416A41F480214162012010BD3B48F3
:10139000D0F8002242F00102C0F80022D0F800226A
:1013A00022F47C52C0F80022D0F800224B6A42EAB4
:1013B0000322C0F800220A7D02F01F0301229A4096
:1013C000D0F81C329343C0F81C32CB69B3B9D0F8C3
:1013D0000C329343C0F80C328C894B6864F31F4382
:1013E0004C6900EBC404C4F840320C890B6864F308
:1013F0001F434C6900EBC404C4F84432CB69012B91
:1014000016D1D0F80C321343C0F80C320C884B685C
:1014100064F31F434C6900EBC404C4F840320C89E8
:10142000CB6864F31F434C6900EBC404C4F8443236
:101430008B69002BD0F804320ED01343C0F804326D
:101440000B69002BD0F8143208D01343C0F81432C3
:10145000096A012904D008E09343EFE79343F5E7D5
:10146000D0F81C121143C0F81C12D0F8001221F061
:101470000101C0F80012002010BD0000006400400F
:10148000704730B590F82040012C05D0022C03D0D5
:10149000416A41F480215DE00468002955D0246947
:1014A000A40754D04FF4D874056804EB01142D59E7
:1014B00015F00405956005682D594ED0ED0855606E
:1014C00005682C5904F00204D4604FF4DA740568FE
:1014D00004EB01142D5905F00F05156105682D5910
:1014E000C5F30725956105682C59240C54614FF408
:1014F000DC72046802EB0112A4581C700468A45842
:10150000240A5C700468A458240C9C700468A258D7
:10151000120EDA704FF4DE72046802EB0112A45866
:101520001C710468A458240A5C710468A458240C33
:101530009C710468A258120EDA71006881B10169C9
:1015400041F020010161002030BDE468A8E7416A54
:1015500041F400114162012030BD6D0D1560AFE70F
:10156000C16841F02001C160EDE72DE9F05F05465B
:10157000006800244669D0F804908768D0F80CB061
:10158000D0F810A0D0F81880F10748D0F90714D08F
:1015900001218160B80703D5284600F04AFB0CE022
:1015A000780702D54FF4006407E0380702D54FF4FE
:1015B000805402E0284600F03BFBF80516D5296868
:1015C0004FF480708860B80503D5284600F033FBDF
:1015D0000CE0780502D544F4005407E0380502D544
:1015E00044F4804402E0284600F024FBF80316D5BA
:1015F00029684FF480308860B80303D5284600F08E
:101600001CFB0CE0780302D544F4004407E03803E7
:1016100002D544F4803402E0284600F00DFB300788
:1016200007D55FEACB6004D52968102044F4007424
:10163000C86070074FF0080707D55FEA0B7004D544
:101640002868C760284600F09BF9B00706D52868CF
:10165000C068800702D0284600F094F9700607D5CC
:101660005FEACA6004D52968102044F480640861E8
:10167000B00607D55FEA0A7004D5286807612846D6
:1016800000F0A6FAF00606D528680069800702D0A7
:10169000284600F09EFAB00308D55FEAC96005D578
:1016A000296810204860284600F094FAF00307D516
:1016B0005FEA097004D528684760284600F0BEFA42
:1016C000300446D55FEA497040D5F00504D55FEA9D
:1016D000C87001D044F00104B00504D55FEA8870F9
:1016E00001D544F00204700504D55FEA487001D5C5
:1016F00044F00404300529D518F0700F26D008F006
:101700007000402815D006DC102809D020280AD007
:10171000302816D10AE050280ED0602811D10EE0F2
:1017200044F008040DE044F010040AE044F0200402
:1017300007E044F0400404E044F0800401E044F495
:1017400080742868816921F0700181612968042012
:101750004860002C05D0686A204368622846FFF77D
:101760008FFEBDE8F09F70B5040003D094F8200010
:1017700010B104E0012070BD204600F081F820681F
:10178000016841F00101016000F01EFD05460526DB
:1017900004E000F019FD401B0A2811D820684068B9
:1017A000C007F6D02068016821F00201016000F056
:1017B0000BFD05460BE000F007FD401B0A2806D98B
:1017C000606A40F40030606284F82060D2E72068EC
:1017D00040688007EFD4207E0128206801683DD052
:1017E00021F080010160607E01282068016838D006
:1017F00021F040010160A07E01282068016833D0FB
:1018000021F020010160E07E0128206801682ED0CF
:1018100041F010010160207F01282068016829D073
:1018200021F008010160607F01282068016824D050
:1018300021F004010160D4E902010843D4E9041253
:10184000114308436168491E08432168C8610020AC
:101850006062012084F82000002070BD41F080010A
:10186000C0E741F04001C5E741F02001CAE721F09F
:101870001001CFE741F00801D4E741F00401D9E7B6
:10188000F0B587B0044614216846FEF74BFE374B8F
:101890003748DFF8D4E01968D4F800C0344A02258C
:1018A0000326092710300024491CF44524D119606F
:1018B000012907D1016841F000710160006800F062
:1018C00000700590106840F001001060106802ABD5
:1018D00000F0010005904FF4C050CDE9000583E809
:1018E000D0006946234800F077FB00220521142030
:1018F00000F0F6FC142033E0DFF87CE0F44531D151
:10190000D0F800C04CF0806CC0F800C0D0F800C027
:1019100001290CF0806CCDF814C0196007D1016862
:1019200041F000710160006800F0007005901068DF
:1019300040F002001060106802AB00F00200059059
:101940004FF44050CDE9000583E8D00069460B48CC
:1019500000F042FB00220521402000F0C1FC4020A5
:1019600000F0B0FC07B0F0BD0064004004010020AE
:10197000303802400000024000680040000402408D
:101980007047000030B5054600688A4987B0884234
:101990003AD18A4A884B0021A2F15000FFF771FD2D
:1019A0008648854B864C006803F10801B0F5017F3D
:1019B00047D008DCA0F5007001380FD0012824D0F2
:1019C000022821D12FE0A0F50070053847D0022869
:1019D00053D0A0F58060613816D16AE07748C838E6
:1019E00003F04AFF188840BA00B200EE100AB8EEC1
:1019F000C00A84ED000A588840BA00B200EE100A0E
:101A0000B8EEC00A84ED0E0A77E06C48B43803F0F3
:101A100033FF588840BA00B200EE100AB8EEC00A90
:101A200084ED270A69E06548A03803F025FF58884F
:101A300040BA00B200EE100AB8EEC00A84ED400AC7
:101A40005BE05E488C3803F017FF588840BA00B25C
:101A500000EE100AB8EEC00A84ED590A4DE059486C
:101A600003F0C0FE188840BA00B200EE100A5648D3
:101A7000B8EEC00A80ED000A3FE052484E492830D7
:101A800003F0FAFE188840BA00B200EE100A4D4882
:101A9000B8EEC00A2C3880ED000A588840BA00B26F
:101AA00000EE100A4848B8EEC00A643880ED0E0A0D
:101AB00023E0188840BA00B200EE100A4148B8EEA0
:101AC000C00A103880ED000A598849BA09B200EE00
:101AD000101AB8EEC00A80ED010A998849BA09B215
:101AE00000EE101AB8EEC00A80ED020A997900EEF5
:101AF000101AB8EE400A80ED030A3449286888427B
:101B00001CD12D4B2D4808336A4600212838FFF799
:101B1000B8FC294B2C4C00980833C834A0F5007051
:101B2000013827D0012835D0052809D0FF2805D154
:101B30001888A3F1500140BA00B2486007B030BD28
:101B40001D4920481031143003F04CFE1E4864300B
:101B500090ED020A80ED030A90ED000A80ED020A82
:101B6000198849BA09B200EE101AB8EEC00A80ED21
:101B7000000AE3E7104911480831783803F07CFE89
:101B8000588840BA00B200EE100AB8EEC00A84EDE0
:101B90000E0AD3E7084909480831643803F06CFE9F
:101BA000588840BA00B200EE100AB8EEC00A84EDC0
:101BB000270AC3E7006400404C0100203C0D0020D0
:101BC00088080020380C00207C0A002000680040B3
:101BD000704770477047000070B5044690F82000C9
:101BE000012804D0606A40F40020606218E00220FE
:101BF00084F820002068016821F00101016000F0F4
:101C0000E3FA05460EE000BF00F0DEFA401B0A28AA
:101C100008D9606A40F400306062052084F8200032
:101C2000012070BD20684068C007EDD1606270BDC2
:101C300070477047704770477047704770472DE98D
:101C4000F0410446876D00F0BFFA064694F835006F
:101C50000025022806D08020606584F834500120D9
:101C6000BDE8F0812068016821F01601016020685C
:101C7000416921F080014161206C08B9A06C20B15C
:101C80002068016821F0080101602068016821F0E6
:101C9000010101600CE000F097FA801B052807D9CC
:101CA00020206065032084F8350084F83450D7E79D
:101CB00020680068C007EED194F85C103F2088408F
:101CC000B860012084F8350084F834500020C7E75C
:101CD00090F83510022903D080214165012070471A
:101CE000052180F835100068016821F001010160CC
:101CF000002070472DE9F84304464FF00009CDF865
:101D0000009063484FF41651A56D0068B0FBF1F7E1
:101D10002E6894F85C10082000FA01F131420FD0CF
:101D200021680A6852070BD50A6822F004020A608B
:101D300094F85C108840A860606D40F00100606518
:101D400094F85C104FF0010808FA01F0304208D016
:101D500021684969090604D5A860606D40F0020059
:101D6000606594F85C1004208840304208D02168F7
:101D70000968890704D5A860606D40F004006065BB
:101D800094F85C1010208840304218D0216809680F
:101D9000090714D5A86020680168490304D50068C4
:101DA000000308D5A16C07E00168C90503D40168E8
:101DB00021F008010160216C09B12046884794F8A0
:101DC0005C1020208840304231D021680968C90663
:101DD0002DD5A86094F8350005282068016806D044
:101DE000490347D5006800031DD4616C1CE021F055
:101DF000160101602068416921F080014161206C79
:101E000008B9A06C20B12068016821F008010160C8
:101E100094F85C103F208840A86084F8358084F8EE
:101E20003490216D1FE0E16B09B120468847606D59
:101E300000282BD0606DC00714D0052084F8350031
:101E40002068016821F0010101600098401C0090A9
:101E5000B84203D820680068C007F6D184F83580FE
:101E600084F83490E16C002910D001B02046BDE820
:101E7000F04308470168C905D5D4016821F0100175
:101E8000016084F8358084F83490CCE7BDE8F883AD
:101E9000700100202DE9F041044600F095F9064656
:101EA0005CB1022084F83500002584F834502068A5
:101EB000016821F0010101600DE00120BDE8F08121
:101EC00000F082F9801B052805D9202060650320D9
:101ED00084F83500F2E720680068C007F0D1226876
:101EE000116820480140D4E901031843D4E90336BE
:101EF0003343184363691843A3691843E3691843DC
:101F0000236A18430843616A042903D1D4E90B13F7
:101F100019430843106020684069666A20F0070191
:101F200030460E43012704280CD1A06A0643E06A1C
:101F300040B12046FEF7FAFD20B14020606584F8EC
:101F40003570BAE7206846612046FEF7DBFD94F85D
:101F50005C203F2191408160656584F835700020E8
:101F6000ACE700003F8010F02DE9F0410446866D9B
:101F700090F83400002501280DD0012084F83400A9
:101F800094F835700020012F07D084F83400022522
:101F90002846BDE8F0810220FBE7022784F835706F
:101FA00060652046FEF7ECFD94F85C103F20884009
:101FB000B0602068016841F016010160206C20B11A
:101FC0002068016841F0080101602068016841F063
:101FD00001010160DCE700002DE9F84FDFF8BCA14A
:101FE0000022012503264FF00F090AF1040BAAF184
:101FF000040E00BF0B6805FA02F42340A34270D11F
:102000000F7907F00307012F01D0022F16D187683F
:102010004FEA420806FA08FC27EA0C07D1F80CC080
:102020000CFA08FC4CEA070CC0F808C04768A74344
:102030000C79C4F3001494403C4344600C79E443AD
:10204000A4070AD0C4684FEA420C06FA0CF7BC4356
:102050008F6807FA0CF72743C7600C7904F0030474
:10206000022C12D1D40800EB840CDCF82040570776
:10207000FF0E09FA07F824EA0804D1F8108008FADC
:1020800007F848EA0408CCF8208004684FEA420CBC
:1020900006FA0CF7BC430F7907F0030707FA0CF7B1
:1020A000274307604C6814F4403F70D03C4C2768CD
:1020B00047F480472760246822F0030704F4804433
:1020C0000094384C07EB040CDCF8084897074FEAFB
:1020D000177809FA08F7BC43334FB84202D10027FA
:1020E00024E054E0314FB84201D101271EE0304FC7
:1020F000B84201D1022719E02E4FB84201D103277F
:1021000014E02D4FB84201D104270FE02B4FB84205
:1021100001D105270AE02A4FB84201D1062705E080
:10212000284FB84201D1072700E0082707FA08F72F
:102130002743CCF80878DAF800405746D1F804C0B5
:102140009C435FEACC2C00D51C433C60DBF800408C
:102150005F46D1F804C09C435FEA8C2C00D51C4339
:102160003C60DEF800407746D1F804C09C435FEA4B
:102170008C3C00D51C433C60084F083F3C68D1F8BC
:1021800004C09C435FEACC3C00D51C433C60521C1D
:10219000102AFFF42FAFBDE8F88F0000083C014083
:1021A0004438024000300140000002400004024078
:1021B00000080240000C02400010024000140240DF
:1021C00000180240001C024001488068704700006F
:1021D00064010020024881680278114481607047E0
:1021E000640100200B4810B5016841F400710160E2
:1021F000016841F480610160016841F4807101600F
:10220000032000F08DF80F2000F006F800F03EF8F3
:10221000002010BD003C024010B5014688B00022ED
:102220002D2000F05DF82D2000F04CF8134800241C
:10223000016841F480710160006805A900F48070B4
:102240000690684600F018F900F036F90C49400095
:10225000B0FBF1F10C480B4A491E026040F2E73234
:10226000C0E90324C0E9011400F0A2FB10B1012071
:1022700008B010BD044800F0C9FBF9E7403802403F
:1022800040420F0000200040881200200C4882B01D
:10229000016841F480410160006800F480400090D2
:1022A0000748001F016841F080510160006800226A
:1022B00000F0805000900F21901E02B000F010B886
:1022C00044380240002809DB00F01F020121914040
:1022D0004009800000F1E020C0F8001170470000C4
:1022E000F0B40E4B1B680C46C3F30223C3F1070581
:1022F000042D00D90425191D072901D2002300E06F
:10230000DB1E012606FA05F1491E214099409E4038
:10231000761E16403143F0BC02F047BE0CED00E0E3
:10232000064900F0070208684FF6FF03184040EA2C
:102330000220034A10430860704700000CED00E0E3
:102340000000FA052DE9F0470E46050065D0DFF8DC
:102350001481D8F80000F7B200F00700B04207D2AD
:1023600088F80070D8F8000000F00700B04254D19F
:1023700028683D4C810712D5400703D5206840F4FA
:10238000E05020602878000703D5206840F46040C2
:1023900020602068A96820F0F000084320602878B9
:1023A000C0072DD0304968680839012812D00228AA
:1023B00013D0032811D00968890700292DDA216874
:1023C00021F0030101432160FFF7FEFE814641F247
:1023D000883A0EE009688903EFE709688901ECE7AC
:1023E000FFF7F2FEA0EB0901514502D90320BDE839
:1023F000F0872068696800F00C00B0EB810FEFD126
:10240000D8F80010404601F00701B14207D9077023
:10241000006800F00700B04201D00120E7E728780B
:10242000400705D52068E96820F4E05008432060A3
:102430002878000706D52068296920F4604040EA22
:10244000C100206000F058F82168084AC1F3031168
:10245000515CC8400649086006480068FFF7DCFE8A
:102460000020C4E7003C024008380240AC6D000880
:1024700070010020680100200F2202600C4A1368DE
:1024800003F003034360136803F0F00383601368F1
:1024900003F4E053C36012684FF4E05303EAD2023E
:1024A00002610448006800F00700086070470000FF
:1024B00008380240003C02400448054900680968A9
:1024C000044AC1F38221515CC8407047700100206A
:1024D00008380240BC6D00080448054900680968D6
:1024E000044AC1F34231515CC8407047700100207A
:1024F00008380240BC6D0008154810B5006810F09F
:102500000C02144813D01449042A0FD0082A0ED103
:102510000F4C241F2268236802F03F025B0207D59C
:102520002068C0F38810A0FB010106E0084610BD3A
:102530002168C1F38811A1FB00010023FDF704FF0E
:102540002168C1F30141491C4900B0FBF1F010BD05
:10255000083802400024F40040787D012DE9F84F4E
:1025600004006ED02078DFF84C93C007A9F1040571
:102570004AD009F104000168C1F38101012908D0A2
:102580000068C0F3810002280AD1D9F80000400297
:1025900006D52868800337D560680028E1D033E08D
:1025A0006068B0F5803F10D0B0F5A02F286810D03B
:1025B00020F480302860286820F48020286060683B
:1025C000A8B1FFF701FE06460DE0286840F4803010
:1025D000F4E740F480202860F7E700BFFFF7F4FD40
:1025E000801B642873D828688003F7D50CE0FFF7B8
:1025F000EBFD064605E000BFFFF7E6FD801B642803
:10260000F0D828688003F7D42078DFF8AC82800700
:102610004FF0000A3ED5A748001D016811F00C0FCD
:1026200008D00068C0F3810002280BD1D9F800005F
:10263000400207D42868800716D5E068012800D139
:1026400012E033E1E068B8B10120C8F80000FFF7FC
:10265000BBFD064605E000BFFFF7B6FD801B022864
:10266000C0D828688007F7D52868216920F0F800CD
:1026700040EAC10028600DE0C8F800A0FFF7A4FD03
:10268000064604E0FFF7A0FD801B02281FD828683B
:102690008007F7D42078000722D5864F87486169E4
:1026A000703771B101210160FFF78EFD064604E02D
:1026B000FFF78AFD801B022809D838688007F7D504
:1026C0000EE0C0F800A0FFF77FFD064605E082E0BF
:1026D000FFF77AFD801B02287DD838688007F7D481
:1026E0002078400768D5DFF8CCB100270BF13C0B10
:1026F000DBF80000C0000BD4DBF8001041F0805183
:10270000CBF80010DBF80000012700F080500090AB
:102710006B4E3068C00510D4306840F48070306073
:10272000FFF752FD009005E0FFF74EFD0099401ABB
:10273000022850D83068C005F6D55E4EA0686C36C9
:1027400001280FD00528306810D020F0010030603B
:10275000306820F004003060A068B8B1FFF734FDA5
:1027600000900FE0306840F00100F4E740F0040012
:102770003060F7E7FFF728FD0099411A41F28830F1
:10278000814266D830688007F4D50EE0FFF71CFD63
:10279000009007E0FFF718FD0099411A41F28830D8
:1027A000814256D830688007F4D42FB1DBF800108E
:1027B00021F08051CBF80010A069C8B33D49091D34
:1027C0000968C1F3810102294AD00228504607D086
:1027D000C8F8600000E03CE0FFF7F6FC04463BE090
:1027E0004746C8F86000FFF7EFFC064605E000BF6B
:1027F000FFF7EAFC801B02282BD828688001F7D459
:10280000D4E907010843A16A2E4A490802EB0141B5
:10281000626A41EA8211084394F82C1040EA01618F
:10282000C9F8001001203866FFF7CEFC044606E028
:102830003EE000BFFFF7C8FC001B022809D828684B
:102840008001F7D534E000BFFFF7BEFC001B022873
:1028500002D90320BDE8F88F28688001F4D427E06E
:102860000128F7D0D9F80000E26900F48001914214
:102870001CD1226A00F03F01914217D147F6C07186
:10288000626A0140B1EB821F10D1A26A4FF0FF33A0
:1028900000F4403103EB5202B1EB024F06D194F841
:1028A0002C1000F07060B0EB016F01D00120D1E777
:1028B0000020CFE70438024000004742800E474224
:1028C000007000400000FFFF7047704710B590F89F
:1028D0003C20012A22D0012280F83C20CA688C6862
:1028E00022F4407222434C6822F4806222430C6836
:1028F00022F4006222430C6922F4805222434C6984
:1029000022F400522243C969002322F480420A4380
:1029100001684A6480F83C30002010BD022010BDE0
:1029200070B590F83C20012A32D0012480F83C4058
:10293000022280F83D2003685A689D6822F07006E4
:102940000A6832435A60134B02689A4214D0B2F1BB
:10295000804F11D0104B9A420ED0104B9A420BD0A0
:102960000F4B9A4208D00F4B9A4205D00E4B9A4219
:1029700002D00E4B9A4204D1496825F080031943D6
:10298000916080F83D40002180F83C10084670BD01
:10299000022070BD0000014000040040000800401B
:1029A000000C0040000401400040014000180040BD
:1029B00010B5040003D094F83D0010B107E00120E9
:1029C00010BD002084F83C00204600F01EF80220D4
:1029D00084F83D00211D206801F0E2FE012084F80A
:1029E000460084F83E0084F83F0084F8400084F8F4
:1029F000410084F8420084F8430084F8440084F8DD
:102A0000450084F83D00002010BD704790F83D104F
:102A1000012901D001207047022180F83D10016892
:102A2000CA6842F00102CA6000681149884214D0A5
:102A3000B0F1804F11D00F4988420ED00E49884224
:102A40000BD00E49884208D00D49884205D00D4967
:102A5000884202D00C49884204D1816801F0070104
:102A6000062903D0016841F0010101600020704790
:102A7000000001400004004000080040000C00403D
:102A8000000401400040014000180040704770B54C
:102A90000446006801694FF00005C943890715D451
:102AA000C168C943890711D4E91E0161012020775B
:102AB000206880698007204602D0FFF7E7FF04E026
:102AC00000F0C2F8204600F071F92577206801690E
:102AD000C943490717D4C168C943490713D46FF0E4
:102AE00004010161022020772068806910F4407F92
:102AF000204602D0FFF7CAFF04E000F0A5F8204608
:102B000000F054F9257720680169C943090716D4F4
:102B1000C168C943090712D46FF00801016104209C
:102B200020772068C0698007204602D0FFF7AEFFFB
:102B300004E000F089F8204600F038F92577206895
:102B40000169C943C90617D4C168C943C90613D46A
:102B50006FF010010161082020772068C06910F42F
:102B6000407F204602D0FFF791FF04E000F06CF8B0
:102B7000204600F01BF9257720680169C943C90781
:102B800008D1C168C943C90704D1891E0161204623
:102B900000F072F920680169C943090609D4C168C7
:102BA000C943090605D46FF0800101612046FFF793
:102BB0008BFE20680169C943490609D4C168C9432D
:102BC000490605D46FF040010161204600F05EF92E
:102BD00020680169C94389060BD4C168C9438906C5
:102BE00007D46FF0200101612046BDE87040FFF777
:102BF0006CBE70BD10B586B0044614216846FDF762
:102C000091FC0E492068884216D10D4800210268C7
:102C100042F004020260006800F0040005904FF4E6
:102C2000807000900220CDE901010320CDE903105E
:102C300069460448FFF7D0F906B010BD0004014012
:102C40003038024000080240704770B5044690F8E2
:102C50003C0000260D4601280FD0012084F83C00DE
:102C60006AB1042A1DD0082A2FD00C2A3FD0012691
:102C7000002084F83C00304670BD022070BD206802
:102C800001F000FE2068816941F00801816120683F
:102C9000816921F004018161206881692A691143F9
:102CA00011E0206801F01EFE2068816941F4006196
:102CB00081612068816921F4806181612068816976
:102CC0002A6941EA02218161D2E7206801F040FED1
:102CD0002068C16941F00801C1612068C16921F023
:102CE0000401C1612068C1692A69114311E02068AB
:102CF00001F062FE2068C16941F40061C161206891
:102D0000C16921F48061C1612068C1692A6941EA11
:102D10000221C161ACE710B5040003D094F83D0076
:102D200010B107E0012010BD002084F83C002046CF
:102D300000F01EF8022084F83D00211D206801F0FB
:102D40002FFD012084F8460084F83E0084F83F00FF
:102D500084F8400084F8410084F8420084F843007D
:102D600084F8440084F8450084F83D00002010BD3C
:102D700008B500680B49884212D10B48016841F040
:102D8000020101600068002200F0020000900F21A3
:102D90002D20FFF7A5FABDE808402D20FFF792BAD5
:102DA00008BD0000000401404438024070470000A4
:102DB00010B50446022249B104290ED0082913D0C7
:102DC00094F84100012816D0012010BD94F83E006F
:102DD0000128F9D184F83E200FE094F83F00012843
:102DE000F2D184F83F2008E094F840000128EBD1AC
:102DF00084F8402001E084F841200122206801F09D
:102E000033FD16492068164A884201D0904203D10A
:102E1000436C43F4004343642068884213D0B0F10C
:102E2000804F10D00F4988420DD00F4988420AD0F8
:102E30000E49884207D0904205D00D49884202D001
:102E40000C49884204D1816801F00701062903D0AA
:102E5000016841F001010160002010BD0000014047
:102E6000000401400004004000080040000C004045
:102E7000004001400018004000680349884201D129
:102E8000FFF7A8B970470000002000407047704766
:102E900010B504460068406994F83D10C0F3C010B6
:102EA000212911D180B12068143050E8001F21F091
:102EB000800140E80012002AF5D1606B08B1FEF7EE
:102EC000BEFE204601F05AFE2068406994F83E108C
:102ED000C0F38010222911D180B12068143050E84D
:102EE000001F21F0400140E80012002AF5D1A06B3C
:102EF00008B1FEF7A4FE204601F019FE002010BD27
:102F000070470000F8B5016804460868CA684B6954
:102F100010F00F0F4FF0000559D003F0010602F436
:102F20009077374365D0C10705D0D10503D5216C13
:102F300041F001012164410705D5D90703D0216C77
:102F400041F002012164810705D5D90703D0216C26
:102F500041F004012164010707D502F0200131434B
:102F600003D0216C41F008012164216C00293AD082
:102F7000800604D5900602D5204601F02FFE206879
:102F80004069216CC0F38010090700D460B320466B
:102F900001F0CDFD20684069400621D5206814303D
:102FA00050E8001F21F0400140E80012002AF5D14E
:102FB000A06BA8B16C490165A06BFEF789FE0028E3
:102FC00011D0A06B016D01B0BDE8F0400847830649
:102FD0000FD593060DD52046BDE8F84001F0FEBDA3
:102FE0002046FFF78DFFF8BD2046FFF789FF2564D7
:102FF000F8BD266B2023012E79D1C60677D5D606DB
:1030000075D50868486800904869400640D5A16BAE
:10301000086840680004000CEAD0A28D8242E7D91B
:10302000E085C869B0F5807F2DD020680C3050E86D
:10303000001F21F4807140E80012002AF5D12068B9
:10304000143050E8001F21F0010140E80012002A6E
:10305000F5D12068143050E8001F21F0400140E80D
:103060000012002AF5D184F83E30256320680C3028
:1030700050E8001F21F0100140E80012002AF5D1AD
:10308000A06BFEF7DCFDA08DE18D401A81B229E036
:10309000A08DE18D401A81B2E08D0028A8D00029D2
:1030A000A6D020680C3050E8002F22F4907240E83F
:1030B0000026002EF5D12068143050E8002F22F0B1
:1030C000010240E80026002EF5D184F83E30256349
:1030D00020680C3050E8002F22F0100240E8002356
:1030E000002BF5D12046FFF7D2FEF8BDFFE705061D
:1030F0002BD5150629D594F83D002128F5D1A068D7
:10310000B0F5805F01D12069B0B1206A411C216215
:10311000216800784860E08C401E0004000CE084C8
:10312000E3D12068C16821F08001C1602068C168D6
:1031300041F04001C160D8E7206A0088C0F3080070
:103140004860206A801C2062E5E74006CDD5500625
:10315000CBD5CA68204622F04002CA6084F83D30D0
:1031600000F063FAC1E70000394A000870B50400B6
:1031700004D094F83D00002510B106E0012070BD98
:1031800084F83C50204600F023F8242084F83D00C9
:103190002068C16821F40051C160204601F07EFD25
:1031A0002068016921F4904101612068416921F0A2
:1031B0002A0141612068C16841F40051C160256461
:1031C000202084F83D0084F83E00002070BD0000FF
:1031D0002DE9F04F87B0054614216846FDF7A2F9A6
:1031E000B248DFF8C48210380222D5F800C00024AB
:1031F000AE4B0321DFF8B8E2960607154FF4807B4B
:103200004FF44039C4453CD1D3F800C04CF4002CF5
:10321000C3F800C01B6803F400230593036843F060
:1032200001030360006800F0010005908DE81600BE
:103230000820CDE9031069467046FEF7CDFEDFF8A1
:1032400078829C494046C8F80010C0E90164C0E992
:103250000347C8F82090C8F81440C8E9064BC8F8DE
:103260002440FEF717FE08B1FDF79EFDC5F8388033
:10327000002208213420C8F83850FFF731F83420F4
:103280005DE0DFF83882C4455ED1D3F800C04CF46D
:10329000801CC3F800C01B6803F480130593036807
:1032A00043F004030360036803F004030593036819
:1032B00043F00803036000688A4600F008000590A8
:1032C0004FF4805000904FF0080801AA0220CDF87A
:1032D000108082E8110469467948FEF77DFE0420DB
:1032E000009001AA0220CDF8108082E811046946FE
:1032F0007448FEF771FEDFF8C0816E4908F160087E
:1033000030394046C8F80010C0E90164C0E90347FD
:10331000C8F82090C8F81440C8E9064BC8F8244003
:10332000FEF7B8FD08B1FDF73FFDC5F83880002273
:1033300005213520C8F83850FEF7D2FF3520FEF7BA
:10334000C1FF07B0BDE8F08FDFF87C814FF0070ABE
:10335000C44543D1554B1B1DD3F800C04CF0100C95
:10336000C3F800C01B6803F010030593036843F023
:10337000010303600068CDE9024100F001000590FF
:103380004FF4C060CDE90002CDF810A06946704648
:10339000FEF722FEDFF820814C4908F1C0084046C4
:1033A000C8F80010C0E90164C0E90347C8F82090DC
:1033B000C8F81440C8E9064BC8F82440FEF76AFD77
:1033C00008B1FDF7F1FCC5F838800022072125205F
:1033D000C8F83850FEF784FF2520B0E7DFF8F0800A
:1033E000C44540D1D3F800C04CF4003CC3F800C041
:1033F0001B6803F400330593036843F00103036083
:1034000000680DF1080800F0010005900C20CDE9DE
:103410000002012088E8030469467046FEF7DCFDDF
:103420002449DFF8B08048314046C8F80010C0E9B0
:103430000164C0E90347C8F81440C8F81840C8E957
:103440000749C8F82440FEF725FD08B1FDF7ACFC9C
:10345000C5F83880002207212620C8F83850FEF72A
:103460003FFF26206BE71C4DAC457FF46AAF1D681B
:1034700045F480251D601B6803F4802305930368D1
:1034800043F0020303600068CDE9024100F002004E
:1034900005904FF44060CDE90002CDF810A06946D8
:1034A0000E48FEF799FD4CE7004C004040380240C2
:1034B000000002404060024008110020005000401F
:1034C00000080240000C024000100140406402402D
:1034D0000044004028120020004800400004024040
:1034E00090F83E30202B0ED159B152B190F83C30BB
:1034F000012B08D0012380F83C300023036301F046
:1035000053BC0120704702207047000010B50446EC
:103510000068134988420AD1124801F027F80020B8
:10352000FDF744FB12220F490F48FFF7D9FF0F495F
:103530002068884212D10E484168491C4160407899
:1035400000F054FC0120FDF731FB09490648012237
:10355000491CBDE810408838FFF7C2BF10BD00000D
:10356000004400400802002080100020005000406D
:103570005C010020704700002DE9F843044690F8F4
:103580003D001F4616460D4620284CD1C5B1BEB1A0
:1035900094F83C00012846D0012084F83C004FF00C
:1035A0000008C4F84080212084F83D00FEF70CFE9E
:1035B000A6848146E684A068B0F5805F03D004E06D
:1035C0000120BDE8F883206928B12E465FF0000590
:1035D00084F83C800EE00026FAE78021204601F0C6
:1035E0002DFCA0B9AEB116F8010B21684860E08C43
:1035F000401EE084E08C4B464FF00002009700280C
:10360000EBD14FF04001204601F018FC30B103200F
:10361000D7E735F8020BC0F30800E6E7202084F86E
:103620003D000020CDE70220CBE77047FEE790ED9C
:10363000070AD0ED0E0AB0EE002A42F2107230EE08
:10364000600A80ED140A90ED131AD0ED0F1A70EE97
:10365000410A60EEA10AD0ED101A41EE800AF0EEA8
:10366000401A41EE421A90ED122A71EE821A90ED44
:10367000112A42EE210AC0ED180A80ED121A80EDDF
:10368000130AB0F95C1000EE101AB8EEC00A30EE62
:10369000200ABDEEC00A10EE101A09B2A0F85C10A4
:1036A000914202DA5242914201DCA0F85C2070475C
:1036B00030B50C4D0C4A00204FF07E54B7EE000A96
:1036C000FFEE000A02EB80010B68A34201DB81EDF3
:1036D000000A0B68AB4201D3C1ED000A401C02286E
:1036E000F0DB30BD000080BF28000020D0ED071ABD
:1036F000D0ED000A21EEA01A80ED011AD0ED080AE3
:1037000090ED052A41EE820AC0ED030AD0ED091AB8
:1037100030EEA12AC0EE821A30EE412AB0EE410A04
:10372000B7EE001AC0ED061A31EE611A01EE820AF8
:1037300061EE200A80ED020AC0ED040AC0ED050A20
:1037400080ED000A70470000104810B50E49016076
:103750000321416000214FF400228160C0E903127F
:103760004FF4401242610176012242768276C176A0
:1037700001774177FDF7F7FF002803D0BDE810403F
:10378000FDF712BB10BD000000640040EC0C0020EF
:10379000104810B50E4901600321416000214FF42B
:1037A00000228160C0E903124FF4401242610176A9
:1037B000012242768276C27601774177FDF7D3FF08
:1037C000002803D0BDE81040FDF7EEBA10BD0000A0
:1037D00000680040140D0020194808B5016841F444
:1037E00000110160016801F400110091016841F4C9
:1037F000800101600068002200F480000090052133
:103800000B20FEF76DFD0B20FEF75CFD002205216D
:103810000D20FEF765FD0D20FEF754FD0022052169
:103820001020FEF75DFD1020FEF74CFD0022052163
:103830003A20FEF755FDBDE808403A20FEF742BDAC
:103840003038024010B5B2B01C2227496846FCF758
:1038500037FE0021684602F0F0F9244C22491C2270
:10386000E0611C3107A8FCF72BFE002107A802F03D
:10387000E4F91D4920621C2238310EA8FCF720FE15
:1038800000210EA802F0D9F9174960621C225431B8
:1038900015A8FCF715FE002115A802F0CEF9124973
:1038A000A0621C2270311CA8FCF70AFE00211CA893
:1038B00002F0C3F90C49E0621C228C3123A8FCF70A
:1038C000FFFD002123A802F0B8F9074920631C225C
:1038D000A8312AA8FCF7F4FD00212AA802F0ADF9CE
:1038E000606332B010BD0000E06C0008CC00002026
:1038F00000B587B014216846FCF714FE1948002172
:10390000026842F080020260026802F080020592C2
:10391000026842F001020260026802F001020592B0
:10392000026842F002020260026802F0020205929E
:10393000026842F004020260026802F0040205928A
:10394000026842F0080202600068029100F008007C
:1039500005908020CDE9000169460348FEF73CFB55
:1039600007B000BD303802400008024010B592B0E8
:1039700000240F941C2108A81094FCF7D3FD2021EB
:103980006846FCF7CFFD224820490160A721C0E925
:10399000011444F61F61C0E90314FA21416180213A
:1039A0008161FFF7B8F908B1FDF7FEF90F940FA98F
:1039B00017481094FEF7B4FF08B1FDF7F5F9602041
:1039C000089040F62410CDE909040B940C940D9452
:1039D000082208A90E480E94FFF737F908B1FDF741
:1039E000E3F900944FF40050CDE9044002940194AF
:1039F0000394694606480794FEF768FF08B1FDF78F
:103A0000D3F90348FFF7F6F812B010BD00040140E7
:103A1000600E00200C4810B50A4901604FF4E131F6
:103A20004160002181600C22C160C0E90412816103
:103A3000C161FFF79BFB002803D0BDE81040FDF7F4
:103A4000B3B910BD004C0040B40F00200C4810B5B5
:103A50000A4901604FF461214160002181600C221C
:103A6000C160C0E904128161C161FFF77FFB0028DA
:103A700003D0BDE81040FDF797B910BD00500040DD
:103A8000F80F00200C4810B50A4901604FF4E131ED
:103A90004160002181600C22C160C0E90412816193
:103AA000C161FFF763FB002803D0BDE81040FDF7BC
:103AB0007BB910BD001001403C1000200E4810B52D
:103AC0000C4901600D4941604FF480518160002133
:103AD0004FF48062C0E903120C22C0E90521C161E4
:103AE000FFF744FB002803D0BDE81040FDF75CB9A8
:103AF00010BD00000044004080100020A08601009E
:103B00000C4810B50A4901604FF4E13141600021D1
:103B100081600C22C160C0E904128161C161FFF7BC
:103B200025FB002803D0BDE81040FDF73DB910BDCE
:103B300000480040C4100020FEE7FEE74A48016844
:103B4000491C01604948007803287CD10020484B7B
:103B500002469FED480A00BF00EBC00101EB0011D7
:103B600003EB8101401C81ED070AA1F85C2081ED87
:103B7000180A81ED140A81ED130A40B281ED120A90
:103B80000428E9DB3C48434B002180ED090A80ED25
:103B9000020A80ED080A80ED060A80ED070A374820
:103BA00080ED090A80ED000A80ED020A80ED080A26
:103BB00080ED060A80ED070A3148A0F85C2080ED10
:103BC0000E0A80ED070A80ED180A80ED130A80EDD9
:103BD000120A2C4880ED090A80ED020A80ED080ADD
:103BE00080ED060A80ED070A274880ED090A80ED7E
:103BF000020A80ED080A80ED060A80ED070A2348D4
:103C000080ED090A80ED000A80ED020A80ED080AC5
:103C100080ED060A80ED070A1D4880ED090A80ED57
:103C2000020A80ED070A80ED080A80ED000A80EDA7
:103C3000060A00BF01EBC10000EB011003EB80009E
:103C400080ED150A00E00DE0A0F85C2080ED080A88
:103C500080ED160A491C80ED140A49B280ED130A62
:103C60000229E7DB704700007C00002000000020F4
:103C70008808002000000000340E0020080E0020FC
:103C8000180A0020DC0D0020B00D0020840D00205B
:103C9000580D0020440B00202DE9F0410024051DA3
:103CA000494EB0F8847027E0285DC0283BD012DC74
:103CB000A52829D008DC902822D0A02824D0A1282B
:103CC00022D0A22817D11FE0B02824D0B12822D0BA
:103CD000B22810D11FE0D1286BD006DCC12822D039
:103CE000C22820D0D02806D124E0D92855D0E028F9
:103CF00068D0F02866D0641CA742D5DCBDE8F0810E
:103D000068783070A41CF7E7281950F8011FB160DB
:103D10008088B0813FE0281950F8011FC6F80E10C6
:103D20008088708237E0281950F8011F71618088FF
:103D3000308330E02819DFED250A4178827801EBE5
:103D4000022109B200EE101A2149B8EEC01A81EE24
:103D5000200A81ED000AC2780379BDEEC00A02EBA9
:103D6000032212B201EE102AB8EEC11AC1EE201AD7
:103D7000F2EE040AC1ED011A86ED010A427980795A
:103D800002EB002000B200EE100AB8EEC00A80EE8E
:103D9000201A81ED021AE41DAEE70D4829190C38EE
:103DA00051F8012FC2604A68026189680D3441618F
:103DB000A2E70748291910220C30491CFCF73BFBED
:103DC000113499E7641D97E7300000200000C842D5
:103DD000B802002000B502F0DDFB01F067FCFDF742
:103DE00001F95DF804EB01F09DBC00002DE9F04104
:103DF000384C014620462778D0E903200623A61D2B
:103E00000025072F62D2DFE807F004081A1F272ACF
:103E100031005A295BD1012009E080F88810A529DA
:103E200004D0A62905D0A72951D105E00220207091
:103E30004DE0EAB3904749E00560237047E0A0F801
:103E40008410B1700320F2E730F8842F42EA012297
:103E50000280F1700420EAE761800520E7E76288CC
:103E600042EA012161800560A580E6E70368061D3E
:103E70005F1C0760995590F88810A72907D1016841
:103E8000082904D30821A0F88410904725702069E0
:103E9000B0F884200168914219D390F88800A528D1
:103EA00015D10C490422891D881E01F0EDFA00E0AD
:103EB0000CE02169074804C9001D01F0E5FAA0885B
:103EC0006188884202D1D4E9031088472570002018
:103ED000BDE8F0814C00002070B5044D0446E96057
:103EE0008C21FCF71FFB2C6170BD00004C000020F2
:103EF000002801DC404200B2704700000748002162
:103F00000322018041808180C1800272427241811E
:103F10008181C1810174417441827047DC010020BC
:103F200070B5184CB4F90000FFF7E2FF4FF4FA55F2
:103F3000A84217DCB4F90200FFF7DAFFA84211DC4F
:103F4000B4F90400FFF7D4FFA8420BDCB4F9060073
:103F5000FFF7CEFFA84205DC207A18B1607A08B1DD
:103F6000002070BD002020806080A080E0800321C0
:103F7000217261726081A081E0812074607460822E
:103F8000012070BDDC010020012080F31388BFF305
:103F90004F8F05480168054A01F4E0611143016053
:103FA000BFF34F8F00BFFDE70CED00E00400FA0502
:103FB0002DE9F043AB4E0020DFF8AC923178DFED15
:103FC000AB1AAB4D012913D002297DD13081F0808D
:103FD0009FEDA82A284629880089A74FDFF89C82F0
:103FE0009FEDA71A06F12804012928D0E1B341E08A
:103FF00028829F496882E8821439A882B1F90200B8
:1040000000EE100AB8EEC01ADFED9E0A81EE200A1B
:1040100020EE210ABDEEC00A10EE100AF080B1F9C0
:10402000000000EE100AB8EEC00A80EE201A21EE61
:10403000210ABDEEC00A10EE100A3081F2E094EDC4
:10404000000A012830EE010A84ED000A12D130EE98
:10405000410A10EE100A84ED000AB8420ADA10EEA6
:10406000100A404506D200E002E084ED002A01E09B
:104070000028F8D0FFF71CFB94ED000A60EE210A3F
:10408000FDEEE00A10EE900A28822889DFED7E2AF4
:10409000012806D130EE410A84ED000A2988012961
:1040A00002D02988F9B121E0B5EEC00AF1EE10FA8C
:1040B00003DD30EE410A84ED000A10EE100AB8422A
:1040C00005DA404503D200E0AAE084ED002A94ED31
:1040D000000AB5EEC00AF1EE10FA07D230EE220A5D
:1040E00084ED000A02E008B984ED002AFFF7E0FA47
:1040F00094ED000AB5F9101020EE210ABDEEC00AB9
:1041000010EE100A01FA80F028826889012808D18F
:1041100094ED010A30EE010A84ED010AE9880129D3
:1041200002D0E98879B110E030EE410A10EE100AB1
:1041300084ED010AB84208DA10EE100A404504D2B4
:1041400084ED012A01E00028FAD0FFF7B1FA94EDDE
:10415000010AB5F9121060EE210AFDEEE00A10EE38
:10416000900A01FA80F06882E888012806D130EED2
:10417000410A84ED010A6989012902D06989E9B1FE
:104180001FE0B5EEC00AF1EE10FA03DD30EE410A91
:1041900084ED010A10EE100AB84203DA404501D25C
:1041A00084ED012A94ED010AB5EEC00AF1EE10FA91
:1041B00007D230EE220A84ED010A02E008B984ED4C
:1041C000012AFFF775FA94ED010A20EE210ABDEEEF
:1041D000C00A10EE100A02B26A823078012821D09B
:1041E00002281DD1B5F91000811A00EE101A13181B
:1041F0005C42B8EEC00A101A89ED070A00EE104AB8
:10420000B8EEC00A89ED200A00EE100AB8EEC00A26
:1042100089ED390A00EE103AB8EEC00A89ED520A6B
:10422000BDE8F0837078B6F90830B6F906200228A8
:10423000F6D0D01A00EE100A99184C42B8EEC00A17
:104240009A1A89ED070A00EE104AB8EEC00A89ED05
:10425000200A00EE102AB8EEC00A89ED390A00EEF5
:10426000101AD9E7000000208808002000007A45D5
:10427000F001002000000000CDCCCC3DCDCCCCBD69
:104280006F12833A000025446F12033B2DE9F0477B
:10429000684D694FDFF8A481DFF8A4912DED028B02
:1042A00096B028789FED678ADFF89CA1674C0128BB
:1042B00069D002287ED1DFED668AF0EE680A9FEDB4
:1042C000650A684601F0F0FBF0EE680A9FED620AAD
:1042D0000BA801F0E9FBB7F90A0000EE100A6846E6
:1042E000B8EEC00AFFF702FABDEEC00A10EE100ADF
:1042F00006B2B7F90C0000EE100A0BA8B8EEC00A1F
:10430000FFF7F4F9BDEEC00A10EE100A07B230460E
:1043100002F0AFFB9FED511B53EC112B02F0C0FBE1
:1043200002F078FB06B2384602F0A3FB9FED4D1B6E
:1043300053EC112B02F0B4FB02F06CFB01B27042A3
:1043400001EE100A94ED000AD5ED030AB8EEC11A89
:10435000494201EE901A00EE810AF8EEE11A84ED6E
:10436000000A98ED001A00EEA11A88ED001A00BFAD
:1043700010EE100A484559DC10EE100A504550D98D
:1043800030EE080A4BE0B7F90660AE80B7F90400DA
:104390004FF42F7200F1640153426880C82903D999
:1043A000904201DC984200DA002006F16401C8293D
:1043B00005D900E035E0964201DC9E4200DA002695
:1043C00002F057FB9FED291B53EC112B02F068FB09
:1043D00002F020FB07B2304602F04BFB9FED251B9D
:1043E00053EC112B02F05CFB02F014FB794200EE5F
:1043F000901A94ED000A95ED031AF8EEE00A00B267
:1044000001EE200A00EE900AF8EEE00A84ED000AC0
:10441000D8ED001A41EE201AC8ED001AA8E784ED85
:10442000000A16B0BDEC028BBDE8F08730EE480AFA
:10443000F5E7000000000020DC010020DC0D00207A
:1044400066E633430000B44366E633C3B00D002094
:10445000000096430000C842000048433333333322
:104460003333E33F000000000000E03FB81E85EB5F
:1044700051B89E3FFA7E6ABC7493783F2DE9F041B3
:10448000DFF8CC80334C0125C8F800502078032693
:10449000012816D1607801280BD12069401C2061C9
:1044A000012802D12C4801F0C3F92069032800DD5E
:1044B0002661294801F010FA6078032801D101F043
:1044C0008BF8207802282ED1244F387C012803D085
:1044D000E069012801D00FE0E5616069401C60617E
:1044E000012802D11C4801F0A3F96069032800DD0E
:1044F0006661194801F0F0F9787C012803D0206A40
:10450000012801D00FE02562A069401CA0610128AC
:1045100002D1114801F044F9A069032800DDA66129
:104520000D4801F0D9F9D8F8000002280AD1207806
:104530000B49022808D0032804D19FED0A0A00BFC6
:1045400081ED070ABDE8F0819FED070AF8E700005A
:1045500070000020000000200C0C0020DC01002076
:10456000180A002000000000000016442DE9FC415C
:1045700000287DD001884C4CC1F30A01A1F580616F
:10458000218000220931132900D2228041788378CA
:10459000C90841EA4311C1F30A01A1F580616180B4
:1045A0000931132900D262808178C378890941EAF0
:1045B0008301037941EA8321C1F30A01A1F58061F6
:1045C000A1800931132900D2A280017943794908D9
:1045D00041EAC311C1F30A01A1F58061E18009310B
:1045E000132900D2E2804179304F8D09257241793B
:1045F0004FF6FF76C1F301116172C28862810289B0
:10460000A2814289E281027B2274437B6374807BB6
:10461000254B60823D7006EAC03C143379704FEA46
:10462000DC3CA3F800C006EA803C4FEADC3CA3F87F
:1046300008C006EA003C4FEADC3CA3F80AC006EAE0
:10464000403C4FEADC3CA3F806C006EA402C4FEAA7
:10465000DC3CA3F802C04FEAD01CA3F804C006EA71
:10466000C02C4FEADC3CA3F80CC006EA802000E036
:1046700018E0C00BD881B4F90230B4F90000CDE9DC
:104680000003B88C03B22846FCF728F8B4F90600FA
:104690000090B4F90430B4F90A20B4F91210607C27
:1046A000FBF7F8FFBDE8FC81DC01002000000020E2
:1046B00010B5502080F31188BFF34F8FBFF36F8F79
:1046C00002F0A6F818B104494FF0805008600020AD
:1046D00080F3118810BD000004ED00E030B593B008
:1046E00030216846FBF71EFF14210CA8FBF71AFFC8
:1046F0001E480025016841F080510160006800F00B
:10470000805011901A48016841F4804101600068AE
:10471000022400F4804011900120009000040190D8
:104720008001CDE90640192008904FF4A870CDE92A
:10473000090404200B906846FDF710FF08B172B61B
:10474000FEE70CA90F2081E831004FF4A0500F9034
:104750004FF48050109005210CA8FDF7F3FD0028C0
:1047600001D072B6FEE713B030BD00004038024001
:10477000007000400248016841F470010160704718
:1047800088ED00E010B50448FEF781F9BDE810405F
:104790000248FEF77CB90000600E0020881200205D
:1047A000F0B50268254C264D264E274F274B4FF07B
:1047B000804CA04209D0604507D0A84205D0B04245
:1047C00003D0B84201D0984204D122F0700E4A685A
:1047D00042EA0E02A0421BD0604519D0A84217D071
:1047E000B04215D0B84213D0984211D0184DA8420B
:1047F0000ED0184DA8420BD0174DA84208D0174D27
:10480000A84205D0164DA84202D0164DA84203D1A9
:1048100022F44075CA682A434D6922F080022A4377
:1048200002608A68C2620A688262A04201D098422D
:1048300001D10969016301214161F0BD000001401E
:104840000004004000080040000C0040000401404B
:104850000040014000440140004801400018004071
:10486000001C00400020004010B501F01F03012192
:10487000046A99408C430462016A9A4011430162C0
:1048800010BD0000F0B5026A22F001020262036A64
:1048900042688469124E24F073050C682C4323F09F
:1048A00002058B682B430D4DA84201D0B04205D1C3
:1048B00023F00807CB683B4323F00403A84201D050
:1048C000B04205D14D6922F4407215438A692A43EA
:1048D00042608461496841630362F0BD00000140A9
:1048E00000040140F0B5026A22F010020262026A7E
:1048F000436884690D6824F4E64444EA05248D681D
:1049000022F0200242EA05120F4D104EA84201D0BB
:10491000B04206D1CF6822F0800242EA071222F0AC
:104920004002A84201D0B04207D14D6923F4406350
:1049300043EA85038D6943EA8503436084614968DE
:1049400081630262F0BD00000000014000040140EC
:10495000F0B5026A22F480720262026A4368C46996
:1049600022F4007224F073050C68124E2C438D68FB
:1049700042EA05220E4DA84201D0B04206D1CF68CE
:1049800022F4006242EA072222F48062A84201D0A7
:10499000B04207D14D6923F4405343EA05138D69B2
:1049A00043EA05134360C4614968C1630262F0BD14
:1049B000000001400004014030B5026A22F4805238
:1049C0000262046A4268C3690D6823F4E64343EA5D
:1049D00005238D6824F4005444EA0534084DA842A8
:1049E00002D0084DA84204D14D6922F4804242EA27
:1049F00085124260C36149680164046230BD0000F1
:104A00000000014000040140074810B5006800683C
:104A1000C043C00602D4044800F0BEF8BDE8104010
:104A20000148FEF76FBA0000B40F00200148FEF7FE
:104A300069BA0000F80F002010B5806B0021C18515
:104A4000C184FEF75DFA10BD70B5846B20684069C3
:104A500094F83D10C0F3C0100025212904D118B1ED
:104A6000E584204600F08AF82068406994F83E10FA
:104A7000C0F38010222904D118B1E585204600F04A
:104A800056F8206C40F0100020642046FEF738FAFB
:104A900070BD10B50146806B09680968C9052FD43F
:104AA0000021C18501680C3151E8002F22F4807289
:104AB00041E80023002BF5D10168143151E8002FA3
:104AC00022F0010241E80023002BF5D101681431E6
:104AD00051E8002F22F0400241E80023002BF5D1DD
:104AE000202180F83E10016B012909D101680C31A9
:104AF00051E8002F22F0100241E80023002BF5D1ED
:104B0000016B012902D0FEF701FD10BD818DFEF77A
:104B1000BEF910BD10B5806B016B012902D0FEF704
:104B200029FD10BD818D4908FEF7B1F910BD01685E
:104B30000C3151E8002F22F4907241E80023002B41
:104B4000F5D10168143151E8002F22F0010241E84B
:104B50000023002BF5D1016B012909D101680C312B
:104B600051E8002F22F0100241E80023002BF5D17C
:104B7000202180F83E1000210163704701680C314C
:104B800051E8002F22F0C00241E80023002BF5D1AC
:104B9000202180F83D10704710B5044600680C498C
:104BA00088420CD10B48FEF773F90A48943800F09C
:104BB000B7F908490C2294390648FEF791FC0548DC
:104BC0008838844203D104484168491C416010BDC3
:104BD000001001403C1000205C01002008B590F856
:104BE0003E10222901D0022008BD82684FF4805374
:104BF0009A4201D1016921B1816A9A421BD04AB11E
:104C00000AE00268816A5268C2F308020A80816A77
:104C1000891C08E0026972B10268526802F07F02E2
:104C20000A70816A491C8162C18D491E0904090C00
:104C3000C18503D019E002685268F1E70168CA68CB
:104C400022F02002CA600168CA6822F48072CA6039
:104C500001684A6922F001024A61202180F83E1071
:104C6000016B012903D0FEF751FC002008BD002193
:104C7000016301680C3151E8002F22F0100241E875
:104C80000023002BF5D101680A68D20602D50A6814
:104C900049680091818DFEF7FAF8E6E770B50446A1
:104CA00000680169E26821F4405111430161216902
:104CB000A068E26908436169114308432168CA6832
:104CC00049F20C639A430243CA6020684169A269B1
:104CD00021F440711143416131492068884202D07A
:104CE0003049884202D1FDF7F7FB01E0FDF7E4FB14
:104CF000E2690023192164253226B2F5004F62686B
:104D000028D0A0FB0101930F9200FBF71DFB014689
:104D1000B0FBF5F06FF01802504301EB800006EB9A
:104D20000010B0FBF5F000F0F002B1FBF5F002EB83
:104D30000012B1FBF5F06FF01803584301EB80004F
:104D400006EB0010B0FBF5F000F00F0021681044F6
:104D5000886070BDA0FB010192185B41FBF7F4FA7B
:104D60000146B0FBF5F00201B1FBF5F06FF018035E
:104D7000584301EB800006EBC000B0FBF5F000F0FB
:104D8000F80002EB4002B1FBF5F0584301EB800064
:104D900006EBC000B0FBF5F000F00700D6E700001E
:104DA000001001400014014038B581628285002561
:104DB000134604460564222084F83E00A26B1C487A
:104DC000D063A26B1B481064A26B1B48D064A06B1D
:104DD0000A4605652168A06B091DFDF7C5F8206826
:104DE00001684068009084F83C50206948B1206810
:104DF0000C3050E8001F41F4807140E80012002A96
:104E0000F5D12068143050E8001F41F0010140E85E
:104E10000012002AF5D12068143050E8001F41F03C
:104E2000400140E80012002AF5D1002038BD000002
:104E3000934A0008154B0008494A00082DE9F04143
:104E4000984617460E460446069D27E0681C25D066
:104E50002DB1FDF7B9F9A0EB0800A8421ED92068D2
:104E60000C3050E8001F21F4D07140E80012002AF5
:104E7000F5D12068143050E8001F21F0010140E80E
:104E80000012002AF5D1202084F83D0084F83E006D
:104E9000002084F83C000320BDE8F0812068006811
:104EA00036EA000004D00020B842CFD00020F3E75B
:104EB0000120F9E7074810B500680068C043C00644
:104EC00002D40448FFF768FEBDE810400148FEF731
:104ED00019B800003C100020044882B00068016846
:104EE00040680090014802B0FEF70CB88010002026
:104EF000FEE7000007480068C16841F01001C1608A
:104F0000064905488022097800EBC1110148FEF7E7
:104F1000E7BA0000B40F0020A80E00205C010020BA
:104F20000CB50178802927D1C17A7F2924D10021AD
:104F300001AA43185B785354491C0429F9DB00216A
:104F40006A4643185B795354491C0429F9DB0B4921
:104F5000427A0A80807A02EBC203488003EB021295
:104F600000EB8200888006489DED000A80ED020A71
:104F70009DED010A80ED010A0CBD0000C400002077
:104F8000280600204100080218BF04200A0E18BF9E
:104F900040F001004FF07F4232EA010108BF40F0CB
:104FA0000200012808BF052070470907090E0028E4
:104FB00004DB00F1E02080F80014704700F00F00DF
:104FC00000F1E02080F8141D7047000010EE101A68
:104FD00008B5444A6846B2EB410F28D94FF0E64085
:104FE000B0EB410F94BF00204FF0FF3000900098CD
:104FF000002861DB60EE000A10F0010F45D010F0D0
:10500000020FDFED391A9FED391A00EEE11ADFEDDC
:10501000381A40EE811A21EEA01AF0EE400A40EE56
:10502000010A08BFF1EE600AB0EE600A08BD314B1C
:1050300021F0004293423CD911F0004FDFED2E0ADF
:1050400020EE201ADFED2D0A19BF31EE601A71EE45
:10505000200A31EE201A71EE600ABDEEE01A11EE60
:10506000100A9FED271A00F0030000EEC10A9FED21
:10507000251A009000EEC10A9FED231A00EEC10A26
:105080009FED221A00EEC10AB1E79FED211A9FEDB4
:10509000210A10F0020F00EE810A9FED1F1A00EEA8
:1050A000801AB7EE000A00EE810A18BFB1EE400A7E
:1050B00008BD00F00FF99AE710EE100A4000B0F1B9
:1050C0007F4F3CBFB7EE000A08BD07D14FF001008B
:1050D000FBF757FABDE8084000F0ECB8BDE808401F
:1050E00000F0E4B8B61F927E336D4C39DA82083C8A
:1050F000A0AA2ABE490E494683F9223F0000004B70
:105100000000C93F00A0FD390020A2331A61342CF1
:10511000B93AB2BACA9F2A3DDDFFFFBE00B510EE14
:10512000101A2DED028B81B0524A6846B2EB410F46
:105130002ED94FF0E640B0EB410F94BF00204FF066
:10514000FF3000900098B0EE408A00286ADB10F033
:10515000010F4BD068EE080A9FED471A9FED470AF2
:1051600000EE810A9FED461A10F0020F00EE801A41
:10517000B7EE000A00EE810A02BF01B0BDEC028B5F
:1051800000BD00BF01B0B1EE400ABDEC028B00BD16
:105190003C4B21F00042934241D911F0004FDFED2A
:1051A0003A0A20EE201ADFED390A19BF31EE601AF3
:1051B00071EE200A31EE201A71EE600ABDEEE01A9F
:1051C00011EE100A9FED321A00F0030000EEC10A42
:1051D0009FED301A009000EEC10A9FED2F1A00EEED
:1051E000C10A9FED2E1A00EEC10AABE728EE080AAD
:1051F0009FED2B1ADFED2B0A10F0020F40EE410A53
:105200009FED291A00EE201A61EE000AB0EE480A5E
:1052100008EE200AB6D101B0BDEC028B00BD00F053
:1052200059F88FE718EE100A4000B0F17F4F0DD209
:1052300018EE100AFFF7A6FE042808BF00F042F897
:10524000B0EE480A01B0BDEC028B00BD09D10120CF
:10525000FBF797F901B0BDEC028B5DF804EB00F0B1
:1052600029B801B0B0EE480ABDEC028B5DF804EB42
:1052700000F01CB8B61F927EB93AB2BACA9F2A3D56
:10528000DDFFFFBE490E494683F9223F0000004B77
:105290000000C93F00A0FD390020A2331A61342C60
:1052A000336D4C39DA82083CA0AA2ABE30EE000ADF
:1052B00070470000DFED020A80EEA00A7047000090
:1052C000000000009FED020A20EE000A7047000077
:1052D000000000102DE9F0014FF07F42B2EB410FCA
:1052E0009FBF4FF0FF310160BDE8F00170474FF004
:1052F000004242EA0123C1F3C752783A551112F035
:105300001F0C434CCCF120067C44C1F3C752A2F1E0
:1053100078024FEA621204EB820254F8254008BF7B
:10532000D2E9015612D0556804FA0CF425FA06F7B2
:105330003C43976805FA0CF527FA06F8D26807FA95
:105340000CFCF24045EA08054CEA0206A4FB034CBB
:10535000A5FB0352A6FB03631D449D4234BF0126F7
:1053600000261319334416B1934202D903E0934245
:1053700001D2012200E00022624402F1200C9206D8
:10538000DC0C42EA443200EE102A5B03DFED210A16
:10539000F8EEC01A00EE103A4FEA9C1C11F0004FD4
:1053A000B8EE400AC0F800C020EE201A00EE105AF5
:1053B000DFED190AB8EE400A20EE200A71EE810AEC
:1053C00070EE800A10EE902A02F500626FF30B0275
:1053D00000EE902A70EEE11A31EEC11ADFED101ADC
:1053E00030EE411A9FED0D0A20EE800A01EE210AEF
:1053F0009FED0C1A00EE810A04BFBDE8F001704772
:10540000CCF180510160BDE8F001B1EE400A704777
:10541000B81A0000000000360000802C22AAFD29E6
:10542000DB0FC92F0000C92F01F0ECF90649886095
:10543000FEF784FBFBF79AF9FBF70AFA024805210D
:10544000083000F0BBFFF3E7CC00002001F0DAF9F0
:1054500006490860FEF7ACFDFBF7CAFCFBF708FA4B
:105460000221024800F0AAFFF4E70000CC0000206F
:1054700001F0C8F90349486102486421143000F082
:105480009DFFF9E7CC000020F0B50388002541F22C
:1054900021070CE04C5D002683EA04235C001B041A
:1054A00000D57C40761C2346082EF7D36D1C954210
:1054B000F0D30380F0BD000010B501F0A3F903495B
:1054C0008860BDE81040FBF799BB00008800002011
:1054D0000248008B801EFBF7BDB800005804002076
:1054E000F0B52F4E3069012850D12E4C2E4D2F484B
:1054F00094ED040A2E4F85ED000A94ED030A85ED24
:10550000010A90ED0E0A284687ED010AFBF70EFE10
:1055100095ED090A384687ED000AFBF783FD25481B
:105520009FED250A0078012802D0022815D02DE031
:10553000D5ED010A95ED001A204970EEC10AF0EE92
:10554000E00A10EE900A884220DA00BF84ED030AD8
:1055500084ED050A84ED040A18E0D5ED010A95ED05
:10556000001A174970EEC10AF0EEE00A10EE900A38
:1055700088420BDA13490020086013490860134978
:1055800008601349086013490860DFE730690228A2
:1055900004D1BDE8F0400548FEF749B8F0BD000071
:1055A000600000200C0C0020340E0020180A00209F
:1055B000080E002000000020000000000000A040B5
:1055C000000020411C0000202000002010000020CE
:1055D00014000020180000200C4900209FED0C0A48
:1055E00008600C48032180ED030A80ED050A80ED78
:1055F000040A094880ED000A80ED020A816207482A
:1056000080ED000A80ED020A8162704710000020E0
:10561000000000000C0C0020080E0020340E0020BA
:105620000F489FED0E0AF2EE0E0A80ED000A80EDA3
:10563000010AC0ED030ADFED0B0A0321C0ED040AE5
:1056400080ED050A80ED020A80ED090A816280ED95
:10565000080A80ED060A80ED070A70470000000086
:10566000080E00209A99993E0E489FED0D0ADFED35
:105670000E0A80ED000A80ED010AC0ED030A80EDFC
:10568000040A80ED050A80ED090A80ED020A80ED2A
:10569000080A80ED060A80ED070A0321816270473F
:1056A00000000000340E00209A99A940184800B567
:1056B0009FED161AB1EE020A80ED071A80ED0E1A60
:1056C00080ED0F0A9FED130A032180ED100A80ED93
:1056D000110A80ED121A80ED141A80ED131A80ED74
:1056E000181A0D4880ED001A80ED021A81620B48ED
:1056F00080ED001A80ED021A8162FFF791FFFFF73B
:10570000B3FF074880ED061A00BD0000000000004E
:10571000180A00208FC2753C080E0020340E0020AD
:105720000C0C00201A49DFED190A9FED1A0AC1ED91
:105730000F0A81ED100A9FED180A002281ED110A6F
:10574000C1ED280ADFED150A4FEA0203C1ED290A6F
:1057500081ED2A0A02EBC20000EB021001EB80008F
:10576000521C80ED160A80ED0E0A80ED070A80EDCE
:10577000120A80ED130A80ED140A80ED150A80EDFF
:10578000180AA0F85C30022AE4DB70473333734018
:10579000440B002096438B3C000000000AD7A33C3A
:1057A00090ED000ADFED080A80ED050A30EE200AD0
:1057B000DFED060A20EE200ADFED050A80EE201A52
:1057C00080ED041A7047000000F8FFC50000B443E4
:1057D00000F8FF45024B0ECB80E80E00002070471A
:1057E000B802002090ED000A80ED040A0A8852BA3F
:1057F00012B200EE102AB8EEC00A80ED000A4A8804
:1058000052BA00EE102AB8EE400A80ED010A8A88EA
:1058100052BA00EE102AB8EE400A80ED020A8979E9
:1058200000EE101AB8EE400A80ED030A704700003F
:1058300090ED000A0C4980ED050A9FED0C1AD1EDA0
:10584000030A60EE810AFDEEE00AF8EEE00A30EEAF
:10585000C00ADFED070A20EE200ADFED060A80EE1F
:10586000201A80ED041A70476000002000D2F6462E
:105870000000B44300F8FF4590ED000A80ED040AF3
:105880000A8852BA12B200EE102AB8EEC00A80EDB1
:10589000000A4A8852BA00EE102AB8EE400A80ED9B
:1058A000010A8A8852BA00EE102AB8EE400A80ED4A
:1058B000020A897900EE101AB8EE400A80ED030A58
:1058C000704700000349D1F80E200260498A8180A8
:1058D000002070473000002010B590ED001AD0ED88
:1058E000010ADFED1F1A31EE600AB4EEE01ABDEED8
:1058F000C00AF1EE10FA02D231EE211A01E031EEC7
:10590000611A10EE101A71EE600AFDEEE00A10EE58
:10591000902A002A01DD134600E05342002901DDF0
:105920000C4600E04C42A34200DA11460D4A93684F
:105930000B4493604FF4B472514341F6FF7291FBF4
:10594000F2F100EE101AD0ED030AB8EEC00A30EE04
:10595000800A80ED030A90ED000A80ED010A10BD77
:1059600000000046600000200D489FED0C0ADFEDAE
:105970000D0A80ED000A80ED010AC0ED030ADFED9B
:105980000A0AC0ED040A80ED050A80ED020A80EDE6
:10599000080A80ED060A80ED070A70470000000043
:1059A000840D002000000243CDCC4C3F0E489FEDFB
:1059B0000D0AF2EE040A80ED000A80ED010AC0ED46
:1059C000030A80ED040A80ED050A80ED020A80EDED
:1059D000080A80ED060A80ED070A0021816280ED49
:1059E000090A704700000000DC0D002000B5FFF739
:1059F000BBFF5DF804EBFFF7D9BF00000D489FED3A
:105A00000C0ADFED0D0A80ED000A80ED010AC0ED01
:105A1000030ADFED0A0AC0ED040A80ED050A80EDF5
:105A2000020A80ED080A80ED060A80ED070A704739
:105A300000000000580D0020000082433333134063
:105A40000E489FED0D0AF2EE040A80ED000A80ED8B
:105A5000010AC0ED030A80ED040A80ED050A80ED1D
:105A6000020A80ED080A80ED060A80ED070A01218E
:105A7000816280ED090A704700000000B00D00202F
:105A800000B5FFF7BBFF5DF804EBFFF7D9BF0000DF
:105A900010B503490348FEF71FFA002010BD0000AF
:105AA000993C00082C0200209FED091A80ED001A95
:105AB00080ED051A80ED080AC0ED090AB7EE000A6C
:105AC00080ED070A80ED0A0A80ED011A7047000098
:105AD0000000000090ED070AD0ED0E0A234A30EED8
