:020000040800F2
:10000000185A0020290300089B2F00089529000892
:10001000992F00084F060008453A0008000000002C
:10002000000000000000000000000000690200085D
:10003000FD07000800000000C502000809330008A1
:100040004303000843030008430300084303000878
:100050004303000843030008430300084303000868
:100060004303000843030008430300080507000892
:100070004303000811070008430300084303000876
:100080001D0700084303000843030008430300085A
:100090009D060008430300084303000843030008CB
:1000A0004303000843030008430300084303000818
:1000B0004303000843030008430300084303000808
:1000C00043030008430300084303000843030008F8
:1000D00043030008F1390008FD3900084303000814
:1000E00043030008430300084303000843030008D8
:1000F00043030008DD330008430300082907000814
:1001000043030008430300084303000843030008B7
:10011000D5340008E1340008430300084303000815
:10012000430300083507000841070008430300089F
:100130004303000800000000000000004303000823
:10014000F9060008430300084303000843030008BE
:10015000430300084D07000843030008213A000844
:100160004303000843030008430300084303000857
:1001700043030008430300080000000000000000E3
:10018000430300084303000800F002F800F05CF8A5
:100190000AA090E8000C82448344AAF10107DA45E2
:1001A00001D100F051F8AFF2090EBAE80F0013F0D8
:1001B000010F18BFFB1A43F0010318470C5C000045
:1001C0002C5C00000A444FF0000C10F8013B13F0C7
:1001D000070408BF10F8014B1D1108BF10F8015BA0
:1001E000641E05D010F8016B641E01F8016BF9D193
:1001F00013F0080F1EBF10F8014BAD1C0C1B09D1EA
:100200006D1E58BF01F801CBFAD505E014F8016B5B
:1002100001F8016B6D1EF9D59142D6D370470000ED
:100220000023002400250026103A28BF78C1FBD8FF
:10023000520728BF30C148BF0B6070471FB505F09B
:1002400044FD1FBD10B510BD00F0CCF91146FFF7FD
:10025000F5FF04F017F800F0EAF903B4FFF7F2FF36
:1002600003BC00F0EDF900002C4B19680868B0E8F9
:10027000F04F80F30988BFF36F8F4FF0000080F3D9
:10028000118870470000000008480068006880F38B
:1002900008884FF0000080F3148862B661B6BFF39F
:1002A0004F8FBFF36F8F00DF00BF00BF08ED00E08E
:1002B000DFF80C00016841F470010160704700BF75
:1002C00088ED00E0EFF30980BFF36F8F134B1A68DE
:1002D0001EF0100F08BF20ED108A20E9F04F1060CB
:1002E00009B44FF0500080F31188BFF34F8FBFF374
:1002F0006F8F04F097FD4FF0000080F3118809BC68
:1003000019680868B0E8F04F1EF0100F08BFB0EC95
:10031000108A80F30988BFF36F8F7047480200206E
:10032000EFF30580704700000948804709480047FF
:10033000FEE7FEE7FEE7FEE7FEE7FEE7FEE7FEE795
:10034000FEE7FEE704480549054A064B70470000F2
:10035000CD33000889010008184A0020185A0020EF
:10036000185200201852002053EA020C00F0698055
:100370002DE9F04B4FF00006002B1FBFB3FA83F5B9
:1003800003FA05F424FA05F65E4012BF1643B2FAEA
:1003900082F502FA05F4C5F120051EBF22FA05FC1C
:1003A00044EA0C04203556EA044C4FEA144418BFC2
:1003B000641C4FF000084FF00009904271EB030CF1
:1003C00039D3002919BFB1FA81F701FA07F6B0FA5B
:1003D00080F700FA07F6C7F120071EBF20FA07FCD6
:1003E00046EA0C062037B6FBF4FCA7EB0507103FE6
:1003F00007F01F0BCBF120060CFA0BFB2CFA06F6CC
:1004000044BFB3460026202FA4BF5E464FF0000B2A
:100410005BEA060C08BF4FF0010B19EB0B09ABFBB5
:10042000027C48EB0608C01B06FB02CC0BFB03CC8E
:1004300071EB0C01C1E70B46024641464846BDE858
:10044000F08B13B54FF000004FF00001AFF30080C8
:10045000BDE81C407047032A40F2308010F0030CC6
:1004600000F0158011F8013BBCF1020F624498BF07
:1004700011F801CB00F8013B38BF11F8013BA2F1A4
:10048000040298BF00F801CB38BF00F8013B11F01F
:10049000030300F02580083AC0F0088051F8043BBF
:1004A000083A51F804CBA0E80810F5E7121D5CBF2C
:1004B00051F8043B40F8043BAFF30080D20724BF5F
:1004C00011F8013B11F801CB48BF11F8012B24BFF3
:1004D00000F8013B00F801CB48BF00F8012B704742
:1004E00010B5203AC0F00B80B1E81850203AA0E8CF
:1004F0001850B1E81850A0E81850BFF4F5AF5FEA03
:10050000027C24BFB1E81850A0E8185044BF18C9B5
:1005100018C0BDE810405FEA827C24BF51F8043B5C
:1005200040F8043B08BF7047D20728BF31F8023BB0
:1005300048BF11F8012B28BF20F8023B48BF00F844
:10054000012B70474FF000020429C0F0128010F018
:10055000030C00F01B80CCF1040CBCF1020F18BF9F
:1005600000F8012BA8BF20F8022BA1EB0C0100F032
:100570000DB85FEAC17C24BF00F8012B00F8012B05
:1005800048BF00F8012B70474FF0000200B513463A
:1005900094469646203922BFA0E80C50A0E80C50A3
:1005A000B1F12001BFF4F7AF090728BFA0E80C5054
:1005B00048BF0CC05DF804EB890028BF40F8042B4D
:1005C00008BF704748BF20F8022B11F0804F18BFBA
:1005D00000F8012B7047704770477047004870471C
:1005E000B84900207546FFF7F9FFAE460500694699
:1005F000534620F00700854618B020B5FFF7A2FE4D
:10060000BDE820404FF000064FF000074FF0000813
:100610004FF0000B21F00701AC46ACE8C009ACE894
:10062000C009ACE8C009ACE8C0098D46704710B5F8
:100630000446AFF300802046BDE81040FFF70DBE32
:1006400001491820ABBEFEE7260002007047FEE716
:1006500000B58BB000200121CDE906010390059083
:100660000090019002900891049069460A4800F0B9
:1006700059FA08B100F0C3F8074800F0C9FD08B105
:1006800000F0BDF80221044800F0CCF9002801D0A8
:1006900000F0B5F80BB000BD54070020014800F091
:1006A0003CBB00005407002000B58BB00E20099021
:1006B000059000200121CDE90601039000900190F2
:1006C00002900891049069460A4800F02BFA08B19C
:1006D00000F095F8074800F09BFD08B100F08FF896
:1006E0000221044800F09EF9002801D000F087F8AC
:1006F0000BB000BD7C070020014800F00EBB0000DD
:100700007C070020014800F011BE00001C0A0020F8
:10071000014800F00BBE0000BC090020014800F0B9
:1007200005BE00003C0B0020014800F0FFBD0000AA
:100730007C0A0020014800F0F9BD00009C0B00205D
:10074000014800F0F3BD0000DC0A0020014800F081
:10075000EDBD0000FC0B002001681823CAB2103A5E
:10076000B2FBF3F2054B6FF30901032A9B5CC365EF
:1007700000D9091D81650846704700006C5D0008BE
:1007800010B5014600208B698A6A4FF0C07453B1DE
:10079000B3F5005F15D072B1012A0CD0022A0AD03D
:1007A000032A09D104E01AB1012A06D0022A03D192
:1007B000C96AC90100D5012010BDC96AA142FAD099
:1007C00010BD002AF7D0012AF2D0022AF3D0032A62
:1007D000F3D010BD30B50468256825F48025256068
:1007E000046863608368402B036803D099600068E5
:1007F000C26030BD9A600068C16030BD704772B69B
:10080000FEE7000070B535482DED048B03F00EFDBA
:100810003248183803F012FD304D314C303DD5EDE3
:100820000D8AC4ED068AE86905F0DEF99FED2D9B7F
:1008300053EC192B05F0DAF805F0A6F8E06095ED19
:100840000E8A84ED078A286A05F0CEF953EC192B3D
:1008500005F0CCF805F098F8A0606068401C606076
:10086000052804DAC4ED058A84ED048A03E002DD7C
:100870004FF006006060F0EE480A94ED040A1B4851
:1008800000F04EF81948D4ED020A90ED0C0A184811
:1008900000F046F8D4ED060A94ED050A154802F07A
:1008A0007DFB1448D4ED030A90ED0C0A124802F0C7
:1008B00075FB0A481C30007A03280CD00E48012230
:1008C00040F2FF1190ED0C0A0220BDEC048BBDE854
:1008D000704003F0FDBABDEC048B70BDA004002095
:1008E0009C0100209A9999999999B93F000000209C
:1008F0003800002070000020A800002008B503F098
:1009000025FD009003F080FC03F064FC02F0D6FBB0
:10091000FFF778FF0221684603F00CFDF2E70000C4
:1009200070EE600A344B9FED351A10EE901A344A7F
:10093000C0ED090A99420ADD10EE101A994206DC50
:1009400010EE101A914202D830EEC10A0DE010EEFE
:10095000901A91420BD910EE101A994207DC10EE52
:10096000101A914203D830EE810A80ED090A90ED09
:10097000000AD0ED090A234A30EE200A10EE101AC0
:1009800080ED000A914203DB9FED1F0A80ED000A13
:1009900010EE101A1D4A914203D39FED1D0A80EDFF
:1009A000000A90ED030A90ED041AD0ED001A20EE33
:1009B000200A184A01EE210A90ED0A1AD0ED051A14
:1009C00030EEC11A01EE810A10EE101A80ED0B0A0A
:1009D000C0ED0A0A80ED0C0A914203DB9FED0E0A7E
:1009E00080ED0C0A10EE101A0C4A914203D39FEDD1
:1009F0000C0A80ED0C0A704766E633430000B443EE
:100A000066E633C30050C3460050C3460050C3C619
:100A10000050C3C60060EA460060EA460060EAC6CD
:100A20000060EAC690F82020012A07D0022A05D0EB
:100A3000416A41F4802141620120704700684269A7
:100A40000A43426100207047F0B590F820500468D6
:100A5000A468012D05D0022D03D0416A41F4802104
:100A60005DE014F0406F01D1E50055D5C4F3016499
:100A7000022C03D9416A41F4000150E00125A54050
:100A80001D608D684FF4C0739DB1CE6835434E68CC
:100A900045EAC605066803EB0417F5514FF4C27525
:100AA000076805EB04150E697E51097D012905D003
:100AB00009E00E88CD6845EA4655EBE701684E59D6
:100AC00046F480764E511179D579567941EA05611F
:100AD00095792D0445EA062529434FF4C676056825
:100AE00006EB0416A9511178D57841EA056195788D
:100AF00052782D0445EA022211434FF4C47502686E
:100B000005EB04155151006803EB0411425842F003
:100B1000010242500020F0BD416A41F400114162DF
:100B20000120F0BD10B590F82020012A07D0022A3C
:100B300005D0416A41F480214162012010BD3B484B
:100B4000D0F8002242F00102C0F80022D0F80022C2
:100B500022F47C52C0F80022D0F800224B6A42EA0C
:100B60000322C0F800220A7D02F01F0301229A40EE
:100B7000D0F81C329343C0F81C32CB69B3B9D0F81B
:100B80000C329343C0F80C328C894B6864F31F43DA
:100B90004C6900EBC404C4F840320C890B6864F360
:100BA0001F434C6900EBC404C4F84432CB69012BE9
:100BB00016D1D0F80C321343C0F80C320C884B68B5
:100BC00064F31F434C6900EBC404C4F840320C8941
:100BD000CB6864F31F434C6900EBC404C4F844328F
:100BE0008B69002BD0F804320ED01343C0F80432C6
:100BF0000B69002BD0F8143208D01343C0F814321C
:100C0000096A012904D008E09343EFE79343F5E72D
:100C1000D0F81C121143C0F81C12D0F8001221F0B9
:100C20000101C0F80012002010BD00000064004067
:100C3000704730B590F82040012C05D0022C03D02D
:100C4000416A41F480215DE00468002955D024699F
:100C5000A40754D04FF4D874056804EB01142D593F
:100C600015F00405956005682D594ED0ED085560C6
:100C700005682C5904F00204D4604FF4DA74056856
:100C800004EB01142D5905F00F05156105682D5968
:100C9000C5F30725956105682C59240C54614FF460
:100CA000DC72046802EB0112A4581C700468A4589A
:100CB000240A5C700468A458240C9C700468A25830
:100CC000120EDA704FF4DE72046802EB0112A458BF
:100CD0001C710468A458240A5C710468A458240C8C
:100CE0009C710468A258120EDA71006881B1016922
:100CF00041F020010161002030BDE468A8E7416AAD
:100D000041F400114162012030BD6D0D1560AFE767
:100D1000C16841F02001C160EDE72DE9F05F0546B3
:100D2000006800244669D0F804908768D0F80CB0B9
:100D3000D0F810A0D0F81880F10748D0F90714D0E7
:100D400001218160B80703D5284600F08EFA0CE037
:100D5000780702D54FF4006407E0380702D54FF456
:100D6000805402E0284600F07FFAF80516D529687D
:100D70004FF480708860B80503D5284600F077FAF4
:100D80000CE0780502D544F4005407E0380502D59C
:100D900044F4804402E0284600F068FAF80316D5CF
:100DA00029684FF480308860B80303D5284600F0E6
:100DB00060FA0CE0780302D544F4004407E03803FD
:100DC00002D544F4803402E0284600F051FA30079E
:100DD00007D55FEACB6004D52968102044F400747D
:100DE000C86070074FF0080707D55FEA0B7004D59D
:100DF0002868C760284600F09BF9B00706D5286828
:100E0000C068800702D0284600F094F9700607D524
:100E10005FEACA6004D52968102044F48064086140
:100E2000B00607D55FEA0A7004D52868076128462E
:100E300000F0EAF9F00606D528680069800702D0BC
:100E4000284600F0E2F9B00308D55FEAC96005D58D
:100E5000296810204860284600F0D8F9F00307D52B
:100E60005FEA097004D528684760284600F002FA56
:100E7000300446D55FEA497040D5F00504D55FEAF5
:100E8000C87001D044F00104B00504D55FEA887051
:100E900001D544F00204700504D55FEA487001D51D
:100EA00044F00404300529D518F0700F26D008F05E
:100EB0007000402815D006DC102809D020280AD060
:100EC000302816D10AE050280ED0602811D10EE04B
:100ED00044F008040DE044F010040AE044F020045B
:100EE00007E044F0400404E044F0800401E044F4EE
:100EF00080742868816921F070018161296804206B
:100F00004860002C05D0686A204368622846FFF7D5
:100F10008FFEBDE8F09F70B5040003D094F8200068
:100F200010B104E0012070BD204600F081F8206877
:100F3000016841F00101016000F070FC05460526E2
:100F400004E000F06BFC401B0A2811D820684068C0
:100F5000C007F6D02068016821F00201016000F0AE
:100F60005DFC05460BE000F059FC401B0A2806D941
:100F7000606A40F40030606284F82060D2E7206844
:100F800040688007EFD4207E0128206801683DD0AA
:100F900021F080010160607E01282068016838D05E
:100FA00021F040010160A07E01282068016833D053
:100FB00021F020010160E07E0128206801682ED028
:100FC00041F010010160207F01282068016829D0CC
:100FD00021F008010160607F01282068016824D0A9
:100FE00021F004010160D4E902010843D4E90412AC
:100FF000114308436168491E08432168C861002005
:101000006062012084F82000002070BD41F0800162
:10101000C0E741F04001C5E741F02001CAE721F0F7
:101020001001CFE741F00801D4E741F00401D9E70E
:10103000F0B587B0044614216846FFF7A5FA374B90
:101040003748DFF8D4E01968D4F800C0344A0225E4
:101050000326092710300024491CF44524D11960C7
:10106000012907D1016841F000710160006800F0BA
:1010700000700590106840F001001060106802AB2D
:1010800000F0010005904FF4C050CDE9000583E861
:10109000D0006946234800F0BBFA00220521142045
:1010A00000F05AFC142033E0DFF87CE0F44531D145
:1010B000D0F800C04CF0806CC0F800C0D0F800C080
:1010C00001290CF0806CCDF814C0196007D10168BB
:1010D00041F000710160006800F000700590106838
:1010E00040F002001060106802AB00F002000590B2
:1010F0004FF44050CDE9000583E8D00069460B4825
:1011000000F086FA00220521402000F025FC402056
:1011100000F014FC07B0F0BD00640040F4010020B2
:1011200030380240000002400068004000040240E5
:101130007047000010B5044600682F498EB0884201
:1011400029D12E4B6A4600212D48FFF772FD0098E9
:101150002A49A0F50070053802D002281BD10DE005
:10116000264A0888283240BA1080488840BA508001
:10117000888840BA9080887990710CE0088842BADB
:101180001E48103002804A8852BA42808A8852BA79
:101190008280897981711B492068884224D1174B4C
:1011A0001748083307AA00212830FFF742FD1348EB
:1011B00007990830A1F50071013908D0012915D02F
:1011C000052911D101884ABA00F1280103E00188FC
:1011D0004ABA0A4918310A80428852BA4A8082883B
:1011E00052BA8A80807988710EB010BD01884ABADF
:1011F00002492031EFE7000000640040F8010020C0
:101200005407002000680040704770477047000096
:1012100070B5044690F82000012804D0606A40F4BC
:101220000020606218E0022084F820002068016835
:1012300021F00101016000F0F1FA05460EE000BF67
:1012400000F0ECFA401B0A2808D9606A40F400302C
:101250006062052084F82000012070BD206840688D
:10126000C007EDD1606270BD70477047704770472E
:101270007047704770472DE9F0410446876D00F0D4
:10128000CDFA064694F835000025022806D08020C5
:10129000606584F834500120BDE8F0812068016861
:1012A00021F0160101602068416921F0800141614F
:1012B000206C08B9A06C20B12068016821F00801F9
:1012C00001602068016821F0010101600CE000F07C
:1012D000A5FA801B052807D920206065032084F823
:1012E000350084F83450D7E720680068C007EED195
:1012F00094F85C103F208840B860012084F83500E5
:1013000084F834500020C7E790F83510022903D044
:101310008021416501207047052180F83510006863
:10132000016821F001010160002070472DE9F843B8
:1013300004464FF00009CDF8009063484FF4165171
:10134000A56D0068B0FBF1F72E6894F85C100820DA
:1013500000FA01F131420FD021680A6852070BD51B
:101360000A6822F004020A6094F85C108840A860C1
:10137000606D40F00100606594F85C104FF001086A
:1013800008FA01F0304208D021684969090604D5FD
:10139000A860606D40F00200606594F85C10042065
:1013A0008840304208D021680968890704D5A860C0
:1013B000606D40F00400606594F85C101020884077
:1013C000304218D021680968090714D5A860206840
:1013D0000168490304D50068000308D5A16C07E043
:1013E0000168C90503D4016821F008010160216C7E
:1013F00009B12046884794F85C102020884030428C
:1014000031D021680968C9062DD5A86094F8350047
:1014100005282068016806D0490347D50068000305
:101420001DD4616C1CE021F0160101602068416947
:1014300021F080014161206C08B9A06C20B12068C6
:10144000016821F00801016094F85C103F20884099
:10145000A86084F8358084F83490216D1FE0E16B3A
:1014600009B120468847606D00282BD0606DC00709
:1014700014D0052084F835002068016821F00101AE
:1014800001600098401C0090B84203D820680068B2
:10149000C007F6D184F8358084F83490E16C0029D7
:1014A00010D001B02046BDE8F04308470168C905E7
:1014B000D5D4016821F01001016084F8358084F8EA
:1014C0003490CCE7BDE8F883440200202DE9F041D8
:1014D000044600F0A3F906465CB1022084F835000A
:1014E000002584F834502068016821F00101016072
:1014F0000DE00120BDE8F08100F090F9801B052887
:1015000005D920206065032084F83500F2E72068C3
:101510000068C007F0D12268116820480140D4E972
:1015200001031843D4E9033633431843636918436E
:10153000A3691843E3691843236A18430843616A9F
:10154000042903D1D4E90B13194308431060206820
:101550004069666A20F0070130460E4301270428DF
:101560000CD1A06A0643E06A40B12046FFF708F9B3
:1015700020B14020606584F83570BAE72068466184
:101580002046FFF7E9F894F85C203F219140816004
:10159000656584F835700020ACE700003F8010F0EE
:1015A0002DE9F0410446866D90F8340000250128AD
:1015B0000DD0012084F8340094F835700020012FFC
:1015C00007D084F8340002252846BDE8F0810220C7
:1015D000FBE7022784F8357060652046FFF7FAF8CC
:1015E00094F85C103F208840B0602068016841F0AA
:1015F00016010160206C20B12068016841F00801EB
:1016000001602068016841F001010160DCE7000031
:101610002DE9F84FDFF8BCA10022012503264FF089
:101620000F090AF1040BAAF1040E00BF0B6805FABA
:1016300002F42340A34270D10F7907F00307012F72
:1016400001D0022F16D187684FEA420806FA08FC3B
:1016500027EA0C07D1F80CC00CFA08FC4CEA070C7E
:10166000C0F808C04768A7430C79C4F3001494403D
:101670003C4344600C79E443A4070AD0C4684FEAB1
:10168000420C06FA0CF7BC438F6807FA0CF72743A5
:10169000C7600C7904F00304022C12D1D40800EBCB
:1016A000840CDCF820405707FF0E09FA07F824EAFB
:1016B0000804D1F8108008FA07F848EA0408CCF8C2
:1016C000208004684FEA420C06FA0CF7BC430F79FD
:1016D00007F0030707FA0CF7274307604C6814F478
:1016E000403F70D03C4C276847F48047276024680F
:1016F00022F0030704F480440094384C07EB040CF8
:10170000DCF8084897074FEA177809FA08F7BC434E
:10171000334FB84202D1002724E054E0314FB842A1
:1017200001D101271EE0304FB84201D1022719E054
:101730002E4FB84201D1032714E02D4FB84201D1FA
:1017400004270FE02B4FB84201D105270AE02A4FAA
:10175000B84201D1062705E0284FB84201D107273A
:1017600000E0082707FA08F72743CCF80878DAF8EA
:1017700000405746D1F804C09C435FEACC2C00D50A
:101780001C433C60DBF800405F46D1F804C09C433A
:101790005FEA8C2C00D51C433C60DEF800407746A5
:1017A000D1F804C09C435FEA8C3C00D51C433C60EC
:1017B000084F083F3C68D1F804C09C435FEACC3C2A
:1017C00000D51C433C60521C102AFFF42FAFBDE82B
:1017D000F88F0000083C01404438024000300140CE
:1017E000000002400004024000080240000C0240D9
:1017F000001002400014024000180240001C024089
:10180000426921EA02030A4043EA024181617047CA
:101810000AB1816170470904FBE700000148806854
:1018200070470000380200200248816802781144A5
:1018300081607047380200200B4810B5016841F400
:1018400000710160016841F480610160016841F448
:1018500080710160032000F09FF80F2000F006F86F
:1018600000F050F8002010BD003C024030B50546A5
:101870001F4887B00024016841F48071016000684E
:1018800006A900F48070009001A800F031F90498D6
:10189000A8B100F04DF940001649174AB0FBF1F12C
:1018A0001648491E026040F2E732C0E90324C0E94D
:1018B0000114846100F046FB040003D015E000F041
:1018C00037F9E9E70D4800F06BFB04000DD12D203E
:1018D00000F034F8102D07D2002229462D2000F008
:1018E0003BF80748056000E0012407B0204630BD02
:1018F0004038024040420F0000200040800C002091
:101900003C0200200C4882B0016841F48041016033
:10191000006800F4804000900748001F016841F013
:10192000805101600068002200F0805000900F217B
:10193000901E02B000F010B844380240002809DBC5
:1019400000F01F02012191404009800000F1E020D9
:10195000C0F8001170470000F0B40E4B1B680C4635
:10196000C3F30223C3F10705042D00D90425191D73
:10197000072901D2002300E0DB1E012606FA05F14B
:10198000491E214099409E40761E16403143F0BCCE
:1019900002F059B80CED00E0064900F007020868B3
:1019A0004FF6FF03184040EA0220034A1043086044
:1019B000704700000CED00E00000FA052DE9F0474B
:1019C0000E46050065D0DFF81481D8F80000F7B2A4
:1019D00000F00700B04207D288F80070D8F8000085
:1019E00000F00700B04254D128683D4C810712D561
:1019F000400703D5206840F4E050206028780007B5
:101A000003D5206840F4604020602068A96820F079
:101A1000F000084320602878C0072DD0304968685E
:101A20000839012812D0022813D0032811D00968E0
:101A3000890700292DDA216821F003010143216083
:101A4000FFF7ECFE814641F2883A0EE0096889030F
:101A5000EFE709688901ECE7FFF7E0FEA0EB090179
:101A6000514502D90320BDE8F0872068696800F07D
:101A70000C00B0EB810FEFD1D8F80010404601F018
:101A80000701B14207D90770006800F00700B042B3
:101A900001D00120E7E72878400705D52068E968EC
:101AA00020F4E050084320602878000706D520681D
:101AB000296920F4604040EAC100206000F058F835
:101AC0002168084AC1F30311515CC8400649086007
:101AD00006480068FFF7CAFE0020C4E7003C024049
:101AE00008380240745D0008440200203C020020D7
:101AF0000F2202600C4A136803F00303436013686B
:101B000003F0F0038360136803F4E053C3601268CA
:101B10004FF4E05303EAD20202610448006800F087
:101B2000070008607047000008380240003C02408F
:101B30000448054900680968044AC1F38221515CE0
:101B4000C84070474402002008380240845D000805
:101B50000448054900680968044AC1F34231515CF0
:101B6000C84070474402002008380240845D0008E5
:101B7000154810B5006810F00C02144813D0144931
:101B8000042A0FD0082A0ED10F4C241F2268236884
:101B900002F03F025B0207D52068C0F38810A0FB6B
:101BA000010106E0084610BD2168C1F38811A1FBC0
:101BB00000010023FEF7D8FB2168C1F30141491C55
:101BC0004900B0FBF1F010BD083802400024F400D9
:101BD00040787D012DE9F84F04006ED02078DFF8C1
:101BE0004C93C007A9F104054AD009F1040001682B
:101BF000C1F38101012908D00068C0F381000228E7
:101C00000AD1D9F80000400206D52868800337D5EC
:101C100060680028E1D033E06068B0F5803F10D004
:101C2000B0F5A02F286810D020F4803028602868F4
:101C300020F4802028606068A8B1FFF7EFFD064619
:101C40000DE0286840F48030F4E740F480202860FC
:101C5000F7E700BFFFF7E2FD801B642873D8286810
:101C60008003F7D50CE0FFF7D9FD064605E000BF7D
:101C7000FFF7D4FD801B6428F0D828688003F7D4D0
:101C80002078DFF8AC8280074FF0000A3ED5A748E5
:101C9000001D016811F00C0F08D00068C0F381002E
:101CA00002280BD1D9F80000400207D42868800729
:101CB00016D5E068012800D112E033E1E068B8B140
:101CC0000120C8F80000FFF7A9FD064605E000BFA7
:101CD000FFF7A4FD801B0228C0D828688007F7D52D
:101CE0002868216920F0F80040EAC10028600DE072
:101CF000C8F800A0FFF792FD064604E0FFF78EFD4E
:101D0000801B02281FD828688007F7D42078000796
:101D100022D5864F87486169703771B10121016012
:101D2000FFF77CFD064604E0FFF778FD801B0228E4
:101D300009D838688007F7D50EE0C0F800A0FFF793
:101D40006DFD064605E082E0FFF768FD801B022876
:101D50007DD838688007F7D42078400768D5DFF849
:101D6000CCB100270BF13C0BDBF80000C0000BD41A
:101D7000DBF8001041F08051CBF80010DBF80000D8
:101D8000012700F0805000906B4E3068C00510D4E1
:101D9000306840F480703060FFF740FD009005E04F
:101DA000FFF73CFD0099401A022850D83068C00562
:101DB000F6D55E4EA0686C3601280FD00528306835
:101DC00010D020F001003060306820F00400306056
:101DD000A068B8B1FFF722FD00900FE0306840F036
:101DE0000100F4E740F004003060F7E7FFF716FD6C
:101DF0000099411A41F28830814266D830688007E4
:101E0000F4D50EE0FFF70AFD009007E0FFF706FDAE
:101E10000099411A41F28830814256D830688007D3
:101E2000F4D42FB1DBF8001021F08051CBF8001072
:101E3000A069C8B33D49091D0968C1F381010229A0
:101E40004AD00228504607D0C8F8600000E03CE0C5
:101E5000FFF7E4FC04463BE04746C8F86000FFF7A4
:101E6000DDFC064605E000BFFFF7D8FC801B02281A
:101E70002BD828688001F7D4D4E907010843A16A68
:101E80002E4A490802EB0141626A41EA8211084385
:101E900094F82C1040EA0161C9F80010012038665E
:101EA000FFF7BCFC044606E03EE000BFFFF7B6FCCF
:101EB000001B022809D828688001F7D534E000BF4C
:101EC000FFF7ACFC001B022802D90320BDE8F88F05
:101ED00028688001F4D427E00128F7D0D9F8000061
:101EE000E26900F4800191421CD1226A00F03F01B6
:101EF000914217D147F6C071626A0140B1EB821F6F
:101F000010D1A26A4FF0FF3300F4403103EB5202CC
:101F1000B1EB024F06D194F82C1000F07060B0EBDA
:101F2000016F01D00120D1E70020CFE70438024043
:101F300000004742800E4742007000400000FFFF53
:101F40007047704710B5040003D094F83D0010B1FD
:101F500007E0012010BD002084F83C00204600F07E
:101F60001EF8022084F83D00211D206801F03CFA93
:101F7000012084F8460084F83E0084F83F0084F88D
:101F8000400084F8410084F8420084F8430084F85B
:101F9000440084F8450084F83D00002010BD7047DF
:101FA00090F83D10012901D001207047022180F8EE
:101FB0003D100168CA6842F00102CA600068114918
:101FC000884214D0B0F1804F11D00F4988420ED012
:101FD0000E4988420BD00E49884208D00D498842EC
:101FE00005D00D49884202D00C49884204D181684D
:101FF00001F00701062903D0016841F001010160E9
:10200000002070470000014000040040000800402C
:10201000000C004000040140004001400018004056
:10202000704770B50446006801694FF00005C94368
:10203000890715D4C168C943890711D4E91E016114
:1020400001202077206880698007204602D0FFF7B2
:10205000E7FF04E000F098F8204600F096F82577B6
:1020600020680169C943490717D4C168C9434907B2
:1020700013D46FF004010161022020772068806989
:1020800010F4407F204602D0FFF7CAFF04E000F0C2
:102090007BF8204600F079F8257720680169C9436C
:1020A000090716D4C168C943090712D46FF00801A3
:1020B0000161042020772068C0698007204602D093
:1020C000FFF7AEFF04E000F05FF8204600F05DF897
:1020D000257720680169C943C90617D4C168C94377
:1020E000C90613D46FF01001016108202077206821
:1020F000C06910F4407F204602D0FFF791FF04E052
:1021000000F042F8204600F040F825772068016989
:10211000C943C90708D1C168C943C90704D1891E89
:102120000161204600F032F820680169C9430906C0
:1021300009D4C168C943090605D46FF08001016163
:102140002046FFF7FDFE20680169C943490609D40E
:10215000C168C943490605D46FF0400101612046BA
:1021600000F01EF820680169C94389060BD4C168D4
:10217000C943890607D46FF0200101612046BDE8FC
:102180007040FFF7DEBE70BD7047704700680349BE
:10219000884201D1FFF748BB704700000020004093
:1021A0007047704710B504460068406994F83D10C8
:1021B000C0F3C010212911D180B12068143050E83B
:1021C000001F21F0800140E80012002AF5D1606B69
:1021D00008B1FFF750F8204601F036FA2068406950
:1021E00094F83E10C0F38010222911D180B12068EC
:1021F000143050E8001F21F0400140E80012002A8E
:10220000F5D1A06B08B1FFF736F8204601F0F5F9DB
:10221000002010BD70470000F8B50168044608684A
:10222000CA684B6910F00F0F4FF0000559D003F04A
:10223000010602F49077374365D0C10705D0D10578
:1022400003D5216C41F001012164410705D5D9076F
:1022500003D0216C41F002012164810705D5D90723
:1022600003D0216C41F004012164010707D502F07D
:102270002001314303D0216C41F008012164216C1D
:1022800000293AD0800604D5900602D5204601F0F8
:1022900043FA20684069216CC0F38010090700D41C
:1022A00060B3204601F0A9F920684069400621D5B5
:1022B0002068143050E8001F21F0400140E800126F
:1022C000002AF5D1A06BA8B16C490165A06BFFF79E
:1022D0001BF8002811D0A06B016D01B0BDE8F040E3
:1022E000084783060FD593060DD52046BDE8F84074
:1022F00001F012BA2046FFF78DFFF8BD2046FFF728
:1023000089FF2564F8BD266B2023012E79D1C606EE
:1023100077D5D60675D508684868009048694006A4
:1023200040D5A16B086840680004000CEAD0A28D7B
:102330008242E7D9E085C869B0F5807F2DD020685A
:102340000C3050E8001F21F4807140E80012002A90
:10235000F5D12068143050E8001F21F0010140E859
:102360000012002AF5D12068143050E8001F21F037
:10237000400140E80012002AF5D184F83E30256380
:1023800020680C3050E8001F21F0100140E80012D6
:10239000002AF5D1A06BFEF76EFFA08DE18D401AEB
:1023A00081B229E0A08DE18D401A81B2E08D002834
:1023B000A8D00029A6D020680C3050E8002F22F4C5
:1023C000907240E80026002EF5D12068143050E8C5
:1023D000002F22F0010240E80026002EF5D184F8FB
:1023E0003E30256320680C3050E8002F22F01002A8
:1023F00040E80023002BF5D12046FFF7D2FEF8BDC0
:10240000FFE705062BD5150629D594F83D002128B0
:10241000F5D1A068B0F5805F01D12069B0B1206A24
:10242000411C2162216800784860E08C401E000455
:10243000000CE084E3D12068C16821F08001C16014
:102440002068C16841F04001C160D8E7206A008877
:10245000C0F308004860206A801C2062E5E740065F
:10246000CDD55006CBD5CA68204622F04002CA60BE
:1024700084F83D3000F08DFAC1E700000535000812
:1024800070B5040004D094F83D00002510B106E0BA
:10249000012070BD84F83C50204600F023F8242031
:1024A00084F83D002068C16821F40051C1602046D5
:1024B00001F092F92068016921F4904101612068DE
:1024C000416921F02A0141612068C16841F400514D
:1024D000C1602564202084F83D0084F83E0000207F
:1024E00070BD00002DE9F04F87B005461421684605
:1024F000FEF74AF8DF48DFF878831038D5F800C0D7
:10250000DC4B032102220827DFF86CE300240615C8
:102510004FF0006A4FF48079C44536D1D3F800C03B
:102520004CF4002CC3F800C01B6803F4002305938F
:10253000036843F001030360006800F001000590A8
:102540008DE81600CDE9031769467046FFF760F87D
:10255000CB4FCA483860C7E901A4C7E903467C618C
:10256000C7E906494FF44030C7E908043846FEF78A
:10257000ADFF08B1FEF743F9AF6300220821342014
:10258000BD63FFF7E9F934206AE0DFF8F882C4455B
:102590006BD1D3F800C04CF4801CC3F800C01B689A
:1025A00003F480130593036843F004030360036896
:1025B00003F004030593036843F008030360006815
:1025C000884600F0080005904FF48050CDE90002E5
:1025D000CDE90248934669460497AB48FFF718F8DF
:1025E0000420CDE9000BCDE9024869460497A748CD
:1025F000FFF70EF8A24FA1496037303938463960ED
:10260000C0E901A4C0E903467C61C0E90649B046BF
:102610003C624E467C62FEF759FF08B1FEF7EFF8C8
:10262000AF63BD63964F9548C0377830E7E8020A3C
:102630004020A7E81101924847F81449C030C7E983
:1026400006463C627C62FEF741FF08B1FEF7D7F810
:102650006F63002205213520BD63FFF77DF935202A
:10266000FFF76CF907B0BDE8F08FDFF824824FF078
:10267000070BC4453AD17F4B1B1D1F6847F010075D
:102680001F601B6803F010030593036843F0010308
:1026900003600068CDE9024100F0010005904FF4AD
:1026A000C060CDE90002CDF810B069467046FEF773
:1026B000AFFF794F77483860C7E901A4C7E90346FF
:1026C0007C61C7E906494FF44030C7E90804384641
:1026D000FEF7FCFE08B1FEF792F8AF630022072177
:1026E0002520BD63FFF738F92520B9E7DFF8AC8175
:1026F000C44539D11F6847F400371F601B6803F4D5
:1027000000330593036843F001030360006802AFE0
:1027100000F0010005900C20CDE90002012087E8BF
:10272000030869467046FEF773FF5B4F53486037F6
:1027300048303860C7E901A4C7E903467C614FF41B
:102740004030BC61C7E9074038467C62FEF7BEFEF8
:1027500008B1FEF754F8AF63002207212620BD63BD
:10276000FFF7FAF826207BE7DFF83481C4451CD157
:102770001D6845F480251D601B6803F480230593C4
:10278000036843F0020303600068CDE9024100F0F2
:10279000020005904FF44060CDE90002CDF810B082
:1027A00069464048FEF734FF5CE73F4B9C45FBD150
:1027B000304BA0461B1DD3F800C04CF0200CC3F8D2
:1027C00000C01B6803F020030593036843F0040373
:1027D00003600068CDE9024100F004000590C020CC
:1027E000CDE90002049769462748FEF711FFDFF89C
:1027F000A8A028490AF1C00A183950464FF0206BAA
:10280000CAF80010C0E901B4C0E90346CAF8144090
:10281000C0E90649CAF820404F46CAF82440FEF7EE
:1028200055FE08B1FDF7EBFF1A48204CC5F838A05B
:102830006030CAF83850C4E9000B4020A060C4E9F9
:102840000386C4F81480C4E90687C4F820802046B3
:10285000C4F82480FEF73AFE08B1FDF7D0FF6C63A0
:10286000002205214720A563FFF776F84720F7E609
:10287000004C0040403802400000024040600240EE
:10288000BC0900200050004000080240000C02403B
:102890000010014040640240DC0A00200044004077
:1028A000004800400004024000140140FC0B0020DE
:1028B00090F83E30202B0ED159B152B190F83C30F7
:1028C000012B08D0012380F83C300023036301F082
:1028D00009B8012070470220704770477047000018
:1028E0002DE9F843044690F83D001F4616460D4674
:1028F00020284CD1C5B1BEB194F83C00012846D087
:10290000012084F83C004FF00008C4F840802120EA
:1029100084F83D00FEF782FFA6848146E684A06825
:10292000B0F5805F03D004E00120BDE8F8832069A2
:1029300028B12E465FF0000584F83C800EE00026AA
:10294000FAE78021204601F017F8A0B9AEB116F8D9
:10295000010B21684860E08C401EE084E08C4B460F
:102960004FF0000200970028EBD14FF040012046C5
:1029700001F002F830B10320D7E735F8020BC0F3BD
:102980000800E6E7202084F83D000020CDE7022083
:10299000CBE77047FEE70000F8B505460020ADF82C
:1029A0000000044628785A287ED16878A5287BD173
:1029B0006F88AE8804222946684601F065F83A46D9
:1029C000A91D684601F060F8BDF80000B0426BD167
:1029D000A9794D48902902D1E97941700224291939
:1029E0008A79A02A20D131F9072F00EE102AF8EEBB
:1029F000C00A9FED460AE41D80EE801A80ED031A9E
:102A0000B1F9022000EE902AF8EEE00A80EE801A7A
:102A100080ED041AB1F9041000EE901AF8EEE00A05
:102A200080EE801A80ED051A2919B2EE040A8A791F
:102A3000B02A1ED131F9072FE41D00EE902AF8EEDE
:102A4000E00A80EE801A80ED061AB1F9022000EE4D
:102A5000902AF8EEE00A80EE801A80ED071AB1F9AC
:102A6000041000EE901AF8EEE00A80EE801A80ED75
:102A7000081A29198A79C02A20D131F9072F00EEC6
:102A8000902AF8EEE00A80EE801A80ED091AB1F97A
:102A9000022000EE902AF8EEE00A80EE801A80ED27
:102AA0000A1AB1F9041000E02CE000EE901AE41DBF
:102AB000F8EEE00A80EE801A80ED0B1A29198A7967
:102AC000D02A1FD131F9072F00EE902AB8EEE01A74
:102AD000DFED0F0AC1EE201AC0ED0D1AB1F9022088
:102AE00001EE102AB8EEC11AC1EE201AC0ED0C1A80
:102AF000B1F9041000EE901AF8EEE00A80EE801AA8
:102B000080ED0E1AF8BD0000BC03002000007A44DE
:102B10000000C842FFF740BF30EE600A80ED020AB5
:102B2000D0ED030A90ED001A70EE600A60EE810AA3
:102B3000C0ED040A90ED011A20EE011A80ED051A8D
:102B400070EE810A90ED061A70EE810AC0ED060A59
:102B500080ED030A90ED070AF4EEC00AF1EE10FAD8
:102B600001DD80ED060AD0ED060AB1EE400AF4EE72
:102B7000C00AF1EE10FA01D280ED060A7047D0EDDE
:102B8000071AD0ED000A21EEA01A80ED011AD0ED4F
:102B9000080A90ED052A41EE820AC0ED030AD0ED45
:102BA000091A30EEA12AC0EE821A30EE412AB0EEA8
:102BB000410AB7EE001AC0ED061A31EE611A01EEB5
:102BC000820A61EE200A80ED020AC0ED040AC0ED1F
:102BD000050A80ED000A7047104810B50E490160E3
:102BE0000321416000214FF400228160C0E90312FB
:102BF0004FF4401242610176012242768276C1761C
:102C000001774277FEF787F9002803D0BDE810402E
:102C1000FDF7F5BD10BD0000006400405407002022
:102C2000104810B50E4901600321416000214FF4A6
:102C300000228160C0E903124FF440124261017624
:102C4000012242768276C27601774277FEF763F9F7
:102C5000002803D0BDE81040FDF7D1BD10BD000035
:102C6000006800407C070020254808B5016841F451
:102C700000110160016801F400110091016841F444
:102C8000800101600068002200F4800000900521AE
:102C90000B20FEF761FE0B20FEF750FE00220521FF
:102CA0000D20FEF759FE0D20FEF748FE00220521FB
:102CB0001020FEF751FE1020FEF740FE00220521F5
:102CC0002F20FEF749FE2F20FEF738FE00220521B7
:102CD0003920FEF741FE3920FEF730FE00220521A3
:102CE0003A20FEF739FE3A20FEF728FE00220521A1
:102CF0004520FEF731FEBDE808404520FEF71EBE28
:102D00003038024030B5A9B000252395012123A811
:102D1000249501F027FB244C01216061259525A80D
:102D2000269501F01FFBA0612795012127A8289572
:102D300001F018FBE0611C221C496846FDF7D0FB3E
:102D40000021684601F088FB184920601C221C31D4
:102D500007A8FDF7C5FB002107A801F07DFB13497B
:102D600060601C2238310EA8FDF7BAFB00210EA8C6
:102D700001F072FB0D49A0601C22543115A8FDF72B
:102D8000AFFB002115A801F067FB0849E0601C2299
:102D900070311CA8FDF7A4FB00211CA801F05CFB0E
:102DA000206129B030BD0000D4010020E05C0008A3
:102DB00030B587B014216846FDF7E6FB1D480024B6
:102DC000016841F080010160016801F08001059116
:102DD000016841F001010160016801F00101059104
:102DE000016841F002010160016801F002010591F2
:102DF000016841F004010160016801F004010591DE
:102E0000016841F00801016000680B4D00F0080006
:102E10000590002204212846FEF7FAFC04200090C9
:102E20000120CDE90104694628460394FEF7F0FB32
:102E300007B030BD30380240000402400C4810B5E5
:102E40000A4901604FF4E1314160002181600C22A8
:102E5000C160C0E904128161C161FFF711FB002864
:102E600003D0BDE81040FDF7CABC10BD004C0040C7
:102E7000240800200C4810B50A4901604FF4612174
:102E80004160002181600C22C160C0E904128161AF
:102E9000C161FFF7F5FA002803D0BDE81040FDF747
:102EA000AEBC10BD00500040680800200C4810B5B2
:102EB0000A4901604FF4E1314160002181600C2238
:102EC000C160C0E904128161C161FFF7D9FA00282D
:102ED00003D0BDE81040FDF792BC10BD00100140CA
:102EE000AC0800200E4810B50C4901600D49416046
:102EF0004FF48051816000214FF48062C0E90312D9
:102F00000C22C0E90521C161FFF7BAFA002803D0FD
:102F1000BDE81040FDF773BC10BD00000044004048
:102F2000F0080020A08601000C4810B50A49016095
:102F30004FF4E1314160002181600C22C160C0E9A1
:102F400004128161C161FFF79BFA002803D0BDE83C
:102F50001040FDF754BC10BD00480040340900206B
:102F60000C4810B50A4901604FF4E131416000217D
:102F700081600C22C160C0E904128161C161FFF768
:102F80007FFA002803D0BDE81040FDF738BC10BD23
:102F90000014014078090020FEE7FEE770EE600AA9
:102FA000C0ED090A90ED021AF0EEE00AF4EEC10A53
:102FB000F1EE10FA02D3D0ED090A03E0DFED3B0A8F
:102FC000C0ED090A10EE903A394A9FED3A1A3A4993
:102FD00093420ADD10EE103A934206DC10EE103AEE
:102FE0008B4202D830EEC10A0DE010EE903A8B42CF
:102FF0000BD910EE103A934207DC10EE102A8A42E9
:1030000003D830EE810A80ED090AD0ED000A90ED78
:10301000090A30EE801A80ED001AD0ED010AB4EEF4
:10302000E01AF1EE10FA01DBC0ED000A90ED001A93
:10303000F1EE600AB4EEE01AF1EE10FA01D8C0ED3C
:10304000000AD0ED030A60EE201AC0ED061AD0ED9A
:10305000000A90ED041A20EE811A80ED071AD0EDD7
:103060000A0A90ED052A31EE811A70EE600A60EED0
:10307000820AC0ED080A71EE200AC0ED0C0A80ED4C
:103080000A0A90ED0D0AF4EEC00AF1EE10FA01DD25
:1030900080ED0C0AD0ED0C0AB1EE400AF4EEC00A45
:1030A000F1EE10FA01D280ED0C0A7047000000002A
:1030B00066E633430000B44366E633C3F0B57848B0
:1030C0002DED028B97B001F00BF8754801F038F840
:1030D000734D287ADFED738A734E9FED748A744FB7
:1030E000744C012866D002287BD1DFED730A9FED76
:1030F000730A684601F0B0F8DFED710A9FED710ABE
:103100000BA801F0A9F8B5F90A0000EE100A68460C
:10311000B8EEC00AFFF733FDBDEEC00A10EE100A8C
:103120002080B5F90C0000EE100A0BA8B8EEC00A1A
:10313000FFF725FDBDEEC00AB4F9001010EE100A2D
:1031400000EE101A00B2B8EEC00ADFED5F0A20EE02
:10315000200AF6EE000ABDEEC00A10EE101A00EECC
:10316000100A09B2B8EEC00A2180494220EE200AB6
:1031700000EE901ABDEEC00AF8EEE00A10EE100A5A
:1031800000B2608094ED040A404201EE100A00EEA5
:10319000A80AB8EEC11A84ED040AD4ED050A10EEAF
:1031A000100A41EE280AB042C4ED050A6EDD30EE89
:1031B000480A71E0B5F90400B5F9061000EE100AEE
:1031C000B8EEC00ADFED410A20EE200ABDEEC00ACB
:1031D00010EE100A00EE101A02B22280B8EEC00AF9
:1031E00000E049E0DFED3A0A514220EE200A00EE0D
:1031F000901ABDEEC00AF8EEE00A10EE100A00B216
:10320000608094ED040A01EE100A00EEA80AB8EE00
:10321000C11A84ED040AD4ED050A10EE100A41EE3D
:10322000280AB042C4ED050A02DD30EE480A05E086
:1032300010EE100AB84203D930EE080A84ED040AF1
:1032400010EE900A2349884202DBB3EE080A06E03A
:1032500010EE900A2049884203D3BBEE020A84EDA7
:10326000050A687A01280BD003280CD0022803D164
:10327000BAEE0E0A84ED050A17B0BDEC028BF0BD64
:10328000B2EE040AF6E79FED150AF3E710EE100A16
:10329000B842F1D930EE080A84ED040AECE70000E8
:1032A000BC0400200AD7233C66E633430000B44345
:1032B00066E633C39C01002000401C4700606A475B
:1032C00000803B450000FA449A99193F8FC2F53CB3
:1032D000A69BC43B0000C041000090C1000000005C
:1032E00008B501F033F80090064800F0F9FE00F050
:1032F000E3FB00F089FC00F05DFE0221684601F06E
:1033000019F8F1E7D004002010B5502080F311889F
:10331000BFF34F8FBFF36F8F02F0A2F918B10449CA
:103320004FF080500860002080F3118810BD00002D
:1033300004ED00E030B593B030216846FDF724F984
:1033400014210CA8FDF720F91E480025016841F062
:1033500080510160006800F0805011901A480168A7
:1033600041F4804101600068022400F48040119023
:1033700001200090000401908001CDE90640192051
:1033800008904FF4A870CDE9090404200B9068461A
:10339000FEF720FC08B172B6FEE70CA90F2081E809
:1033A00031004FF4A0500F904FF480501090052141
:1033B0000CA8FEF703FB002801D072B6FEE713B09D
:1033C00030BD0000403802400070004002480168F3
:1033D00041F470010160704788ED00E00148FEF79C
:1033E00020BE0000800C0020F0B50268254C264D60
:1033F000264E274F274B4FF0804CA04209D0604506
:1034000007D0A84205D0B04203D0B84201D09842BC
:1034100004D122F0700E4A6842EA0E02A0421BD08C
:10342000604519D0A84217D0B04215D0B84213D089
:10343000984211D0184DA8420ED0184DA8420BD07A
:10344000174DA84208D0174DA84205D0164DA842E6
:1034500002D0164DA84203D122F44075CA682A430F
:103460004D6922F080022A4302608A68C2620A68BB
:103470008262A04201D0984201D109690163012111
:103480004161F0BD00000140000400400008004020
:10349000000C004000040140004001400044014095
:1034A0000048014000180040001C0040002000407F
:1034B00008B500F04BFF064C4FF4C875009004218E
:1034C0002046FEF79DF92946684600F033FFF6E7EF
:1034D000000402400148FEF79FBE000024080020BF
:1034E00010B50748FEF798FE054800680068C0431D
:1034F000C00604D4BDE81040014800F0B3B810BDC8
:103500006808002010B5806B0021C185C184FEF7DA
:1035100081FE10BD70B5846B2068406994F83D1041
:10352000C0F3C0100025212904D118B1E58420463C
:1035300000F08AF82068406994F83E10C0F38010CB
:10354000222904D118B1E585204600F056F8206CF8
:1035500040F0100020642046FEF75CFE70BD10B500
:103560000146806B09680968C9052FD40021C1850F
:1035700001680C3151E8002F22F4807241E80023E9
:10358000002BF5D10168143151E8002F22F001021F
:1035900041E80023002BF5D10168143151E8002FD8
:1035A00022F0400241E80023002BF5D1202180F8D1
:1035B0003E10016B012909D101680C3151E8002F3F
:1035C00022F0100241E80023002BF5D1016B012904
:1035D00002D0FFF782F910BD818DFEF7E2FD10BD2C
:1035E00010B5806B016B012902D0FFF777F910BD90
:1035F000818D4908FEF7D5FD10BD01680C3151E8F9
:10360000002F22F4907241E80023002BF5D10168CD
:10361000143151E8002F22F0010241E80023002B71
:10362000F5D1016B012909D101680C3151E8002F56
:1036300022F0100241E80023002BF5D1202180F870
:103640003E1000210163704701680C3151E8002FE2
:1036500022F0C00241E80023002BF5D1202180F8A0
:103660003D10704708B50068214988420FD12148B4
:1036700000680168406800901E48FEF793FD1E48F0
:10368000006800F08FFE12221C491A482AE01C49EB
:10369000884212D11748883000680168406800905D
:1036A00014488830FEF77EFD1648006800F07AFE68
:1036B000104808221449883014E01449884215D172
:1036C0000C488838006801684068009009488838CC
:1036D000FEF768FD0E48006800F064FE0D49802288
:1036E00001F1C400BDE80840FFF7E2B808BD0000E2
:1036F00000440040F0080020EC0100205C0C002099
:1037000000140140F0010020300200200050004071
:10371000E8010020A407002008B590F83E102229F7
:1037200001D0022008BD82684FF480539A4201D133
:10373000016921B1816A9A421BD04AB10AE002684C
:10374000816A5268C2F308020A80816A891C08E013
:10375000026972B10268526802F07F020A70816ADF
:10376000491C8162C18D491E0904090CC18503D021
:1037700019E002685268F1E70168CA6822F0200285
:10378000CA600168CA6822F48072CA6001684A6926
:1037900022F001024A61202180F83E10016B0129CC
:1037A00003D0FFF79AF8002008BD002101630168EB
:1037B0000C3151E8002F22F0100241E80023002BC9
:1037C000F5D101680A68D20602D50A6849680091F5
:1037D000818DFEF7E6FCE6E770B5044600680169F6
:1037E000E26821F44051114301612169A068E26956
:1037F00008436169114308432168CA6849F20C63B0
:103800009A430243CA6020684169A26921F4407169
:103810001143416131492068884202D030498842D1
:1038200002D1FEF795F901E0FEF782F9E269002383
:10383000192164253226B2F5004F626828D0A0FB1A
:103840000101930F9200FCF78FFD0146B0FBF5F0EC
:103850006FF01802504301EB800006EB0010B0FB44
:10386000F5F000F0F002B1FBF5F002EB0012B1FB55
:10387000F5F06FF01803584301EB800006EB0010E1
:10388000B0FBF5F000F00F0021681044886070BDB7
:10389000A0FB010192185B41FCF766FD0146B0FBFD
:1038A000F5F00201B1FBF5F06FF01803584301EB9E
:1038B000800006EBC000B0FBF5F000F0F80002EB72
:1038C0004002B1FBF5F0584301EB800006EBC0006D
:1038D000B0FBF5F000F00700D6E700000010014053
:1038E0000014014038B581628285002513460446E4
:1038F0000564222084F83E00A26B1C48D063A26BB2
:103900001B481064A26B1B48D064A06B0A46056577
:103910002168A06B091DFDF743FE2068016840681F
:10392000009084F83C50206948B120680C3050E881
:10393000001F41F4807140E80012002AF5D1206890
:10394000143050E8001F41F0010140E80012002A45
:10395000F5D12068143050E8001F41F0400140E8E4
:103960000012002AF5D1002038BD00005F350008A4
:10397000E1350008153500082DE9F0419846174655
:103980000E460446069D27E0681C25D02DB1FDF7A4
:1039900045FFA0EB0800A8421ED920680C3050E873
:1039A000001F21F4D07140E80012002AF5D12068F0
:1039B000143050E8001F21F0010140E80012002AF5
:1039C000F5D1202084F83D0084F83E00002084F8E2
:1039D0003C000320BDE8F0812068006836EA000062
:1039E00004D00020B842CFD00020F3E70120F9E74F
:1039F0000148FEF711BC0000AC08002010B50748D4
:103A0000FEF70AFC054800680068C043C00604D4FD
:103A1000BDE810400148FFF725BE10BDF0080020AA
:103A200010B50748FEF7F8FB054800680068C0437A
:103A3000C00604D4BDE810400148FFF713BE10BD16
:103A400078090020FEE70907090E002804DB00F1D1
:103A5000E02080F80014704700F00F0000F1E02033
:103A600080F8141D7047000008B500F06FFC00904E
:103A700000F010FA034800F0B5F90221684600F0A2
:103A800059FCF5E74C040020F0B50388002541F20D
:103A900021070CE04C5D002683EA04235C001B0434
:103AA00000D57C40761C2346082EF7D36D1C95422A
:103AB000F0D30380F0BD00001D4810B5007A9FEDE3
:103AC0001D0A1D4C01282FD002282DD01B48B0F90B
:103AD000020000EE100A1A48F8EEC00A94ED010A3E
:103AE000B1EE400AFFF718F81648B0F9020000EEF0
:103AF000100A1548F8EEC00A94ED010AFFF70CF819
:103B00000F484FF40074002290ED060A214602206F
:103B100000F0DEF90C482146012290ED060ABDE8CE
:103B20001040022000F0D4B984ED010ACEE7000075
:103B3000D00400200020B245BC010020100200206B
:103B400050010020180200207001002024489FED41
:103B5000230A80ED000A80ED060A80ED070A80ED59
:103B6000080A80ED090A80ED0A0A80ED0B0A80ED53
:103B70000C0A1C4880ED000A80ED060A80ED070A59
:103B800080ED080A80ED090A80ED0A0A80ED0B0A33
:103B900080ED0C0A144880ED000A80ED060A80EDE5
:103BA000070A80ED080A80ED090A80ED0A0A80ED17
:103BB0000B0A80ED0C0A0D4880ED000A80ED060A24
:103BC00080ED070A80ED080A80ED090A80ED0A0AF7
:103BD00080ED0B0A80ED0C0A704700000000000029
:103BE000000000207000002038000020A800002005
:103BF00010B514210348FCF7A5FC0248032101720B
:103C0000417210BD0804002070B52A4D03262A4CCD
:103C1000287A01282BD1687A284A05F11403012853
:103C200014D16078401CC0B2607001280AD1B2F98A
:103C3000000000EE100A1846B8EEC00A83ED000A34
:103C400000F05AFA6078032800D96670B2F90000D3
:103C500000EE100A1748B8EEC00A143083ED000ACF
:103C600000F07AFA687A032801D100F0FFF9287A87
:103C700002281DD1287C012809D02078012817D1DD
:103C8000A078401CC0B2A070012803D006E001203B
:103C90002070F5E70748143000F02EFAA0780328CA
:103CA00000D9A670BDE870400248143000F054BA44
:103CB00070BD0000D0040020BC01002008020020DC
:103CC00010B4002870D001880023C1F30A023749DC
:103CD000A2F580620A800932132A00D20B80427852
:103CE0008478D20842EA4412C2F30A02A2F5806242
:103CF0004A800932132A00D24B808278C478920914
:103D000042EA8402047942EA8422C2F30A02A2F55A
:103D100080628A800932132A00D28B80027944792A
:103D2000520842EAC412C2F30A02A2F58062CA80B3
:103D30000932132A00D2CB80427992090A72427961
:103D4000C2F301124A72C2884A8102898A81428979
:103D5000CA81027B0A74427B4A74807B4882134981
:103D60004FF6FF7202EAC0331431DB0B0B8002EA1C
:103D70008033DB0B0B8102EA0033DB0B4B8102EA61
:103D80004033DB0BCB8002EA4023DB0B4B80C309C3
:103D90008B8002EAC023DB0B02EA80208B81C00B00
:103DA000C88110BC00F0BEB810BC704708040020E9
:103DB0002DE9F0410D46074600244FF47A78084E6D
:103DC0000AE03919434601220548FEF789FD3068AB
:103DD00001680906FCD5641CAC42F2DBBDE8F08149
:103DE0002408002000B589B040F2FF1102910021A3
:103DF000059104910821069190ED000A01236A467D
:103E0000BDEEC00A10EE101A09128DF8001090EDE8
:103E1000000ABDEEC00A10EE101A8DF8011090EDE8
:103E2000010ABDEEC00A10EE101A09128DF8021038
:103E300090ED010ABDEEC00A10EE101A8DF80310C5
:103E400090ED020ABDEEC00A10EE101A09128DF8AC
:103E5000041090ED020ABDEEC00A10EE101A8DF8A3
:103E6000051090ED030ABDEEC00A10EE101A0912FB
:103E70008DF8061090ED030A02A9BDEEC00A10EEFF
:103E8000100A8DF807000248FCF7DEFD09B000BDFE
:103E90007C07002010B50D4800F022F90B48007A8D
:103EA000032812D109493039002008604860886031
:103EB000C860086148618861C861086248628862B8
:103EC000C862BDE81040FFF741BE10BD5C04002091
:103ED00040F2FF13012808D0022811D1B1F5007F6C
:103EE00008D099420CD1074806E0994208D105480C
:103EF000203801E00348103800EB820080ED000A12
:103F0000704700004C04002010B54FF4867104483F
:103F1000FCF73AFB0249002081F8040110BD0000C3
:103F2000B002002030B521484FF4A5640123B0F958
:103F300000101F4A01F52571A14200D91370B0F994
:103F4000021001F52571A14200D913701749B0F98B
:103F50000450B1F90610B5F5257F02DC11F5257F77
:103F600000DA137001F52571A14200D91370017AAE
:103F7000012904D0022902D0032900D01370417A0C
:103F8000012905D0022903D0032901D0137002E0D2
:103F90001178012908D10021018041808180C180F0
:103FA000032303724372117030BD00000804002027
:103FB0009001002070B5264D264C274895ED040A47
:103FC00084ED050AD5ED030AC4ED020AB0F902003A
:103FD00001EE100A2148B8EEC11A84ED031AFEF76B
:103FE000DDFF1E48D4ED030A90ED0C0A1C48FEF7D5
:103FF000D5FFA5F114009FED1C0A017A194801298B
:1040000012D0022922D1D4ED020A94ED051A70EEE5
:10401000C10AF0EEE00A10EE901A814216DA002092
:104020002070A07060700BE0D4ED020A94ED051AC8
:1040300070EEC10AF0EEE00A10EE901A814205DA45
:1040400085ED030A85ED050A85ED040A70BD0000C3
:10405000E4040020BC01002008020020E000002051
:1040600018010020000070410000000010B50A4C4B
:1040700000201C2160700948FCF786FA9FED080AB1
:10408000084884ED050A80ED000A80ED0C0A064818
:1040900080ED000A10BD0000BC010020E4040020F7
:1040A00000000000E0000020180100201CB508A15D
:1040B0001023D1E90001CDE9000105226946064837
:1040C000FEF70EFC05490220C1F808011CBD0000E6
:1040D000A55A0400FB00000078090020B00200206F
:1040E00004490A6802604A68426009890181002027
:1040F000704700000804002090ED000A0C4980ED94
:10410000050A9FED0C1AD1ED040A60EE810AFDEE5E
:10411000E00AF8EEE00A30EEC00ADFED070A20EE12
:10412000200ADFED060A80EE201A80ED041A70479F
:10413000BC01002000D2F6460000B44300F8FF4561
:10414000044951F80A2F40F80A2F496841600020BD
:10415000704700000804002010B5DFED1D1AD0ECF8
:10416000020A30EEC10AF4EEC10ABDEEC00AF1EE59
:1041700010FA02D270EEA11A01E070EEE11A10EE10
:10418000101A31EEC11ABDEEC11A11EE102A002A22
:1041900001DD134600E05342002901DD0C4600E03A
:1041A0004C42A34200DA11464FF4B472514341F637
:1041B000FF7291FBF2F100EE101A90ED031AB8EEC7
:1041C000C00A31EE000A80ED030AC0ED010A10BDFD
:1041D00000000046064810B50121006800F00AF909
:1041E000002804D1BDE810400248FEF793BC10BD82
:1041F000E8010020A407002010B5FFF785FEBDE808
:104200001040FFF753BF0000064810B501210068B9
:1042100000F0F0F8002804D1BDE810400248FFF794
:104220004FBD10BDEC0100205C0C0020024B0ECBFA
:1042300080E80E0000207047EC030020024B0ECBFC
:1042400080E80E0000207047D4030020EFF30580C3
:10425000002800D0012070479FED091A80ED001A58
:1042600080ED051A80ED080AC0ED090AB7EE000AD4
:1042700080ED070A80ED0A0A80ED011A7047000000
:1042800000000000FDF7D8FAFFF754F8FEF790FDA4
:10429000FEF7EAFCFEF7A0FCFEF7C2FCFEF722FEEA
:1042A000FEF7E8FDFEF740FEFEF7C8FDFEF7FEFD57
:1042B000FEF756FEFCF7CCF9FCF7F6F9FFF798FC91
:1042C00013480068C16841F01001C1601222114911
:1042D0000F48FEF7EDFA10480068C16841F0100180
:1042E000C16080220D490C48FEF7E2FA0C480068D4
:1042F000C16841F01001C16008220A490848FEF770
:10430000D7FAFFF779FFFEF7FDFC00F01AF8FEE799
:10431000F00800205C0C002068080020A4070020A2
:10432000780900203002002001460020842900D0B6
:10433000C81C704710B501B9012100F079FC0020BC
:1043400010BD10B500F030FD002010BD10B5FFF716
:104350007DFF18B1BDE8104001F07AB9BDE810400A
:1043600001F070B938B543684BB1012909D1032078
:10437000002200901146012000F045FE38BD0129C1
:1043800001D0002038BD03220021012000F01AFED8
:10439000040004D000231A46194600F0ABFE204664
:1043A00038BD000038B5002405460094FFF74EFFE5
:1043B00090B16946284600F04DFF012801D0FF204A
:1043C00038BD009888B10A494FF080500860BFF3AB
:1043D0004F8FBFF36F8F08E000231A461946284617
:1043E00000F088FE012800D0FF24204638BD0000E0
:1043F00004ED00E038B505004FF0000000900FD04C
:104400000024481C0ED001B10C46FFF71FFFB8B1C5
:104410006A460021284600F06BFF012816D104E00F
:10442000802038BD4FF0FF34EFE7009880B1094994
:104430004FF080500860BFF34F8FBFF36F8F07E0DE
:104440002146284600F0A2FF012801D0FF2038BDF8
:10445000002038BD04ED00E07FB50D4604464169FB
:10446000B0F9080081B1A16971B1FFF75DFFD4E92E
:1044700005128DE80700D4E900102B46226901F0EF
:10448000A8F8039004B070BDFFF74EFF03A9CDE973
:104490000001208A2B4682B2D4E9001001F06CF8AA
:1044A000012801D00020EDE70398EBE72DE9F0416A
:1044B000184C0F460546E6682068001D00F0C6FA55
:1044C00038B9206890F82C10012088402169814378
:1044D0002161681C07D137B12168BDE8F0410E4861
:1044E000091D00F0F7BA20683544B54245602168DF
:1044F00005D2A06BBDE8F041091D00F0D3BA606B96
:10450000091D00F0CFFAA06A854200D2A562BDE87D
:10451000F081000048020020A40D00202DE9F041A8
:10452000054600F0E3FA2E4CA068401CA06020680D
:104530002C4F10B1606940B32DE02560A0680128C0
:1045400029D1002606EB860007EB800000F09CFADC
:10455000761C072EF6D323488C3000F095FA2148BC
:10456000A03000F091FA1F48B43000F08DFA1D48D9
:10457000C83000F089FA1B48DC3000F085FA194891
:104580008C3060631430A06305E02068E96AC06A7B
:10459000884200D82560606A401C6062E96A012098
:1045A000226988401043206101EB810007EB800005
:1045B000291D00F08FFA00F0B9FA606900280CD0CC
:1045C0002068E96AC06A884207D207494FF08050E4
:1045D0000860BFF34F8FBFF36F8FBDE8F08100001D
:1045E00048020020C80C002004ED00E030B4026C4A
:1045F0000B46002A0BD0C1681144C1608468A142F7
:1046000001D30168C16030BC1846FBF724BF30BC41
:1046100070472DE9F041856B174604460026026C71
:1046200082B1C7B1E068FBF716FFE168206C091A98
:10463000E1602268914202D2A168081AE060022F6C
:1046400016D017E02068A8B9A06801F06FF80646F8
:104650000020A0600EE06068FBF7FDFE216C606842
:1046600008446060A168884204D32068606001E06B
:1046700005B16D1E6D1CA5633046BDE8F08110B517
:10468000044690F8510058B101280CD002280FD0F0
:10469000502080F31188BFF34F8FBFF36F8FFEE779
:1046A000206B00F057FA2046BDE8104000F052BAE7
:1046B00010BD000010484FF47051420706D0C01DD5
:1046C0000D4920F00700411AC1F570510B4A002333
:1046D0000144C2E900030839183A21F007011160CA
:1046E0004B600B600B1AC0E9001393604FF0004061
:1046F0005360506170470000B80D00209C020020FC
:10470000144E154CA6F1C8074FF08058DFF84C90B6
:1047100012E000BF00F0EAF9F068C568281D00F05B
:1047200095F9A068401EA0606068401E606000F0BF
:10473000FDF92846FFF7A3FF60680028EAD1386832
:104740000128F9D9C9F80080BFF34F8FBFF36F8FED
:10475000F2E70000900D00204802002004ED00E088
:104760000346009829B10260C0E90F31012100F031
:104770007DBC0060F8E72DE9F0479A46DDE9098441
:1047800081466FF00303206B03EB82021044089E06
:1047900020F00707780707D0502080F31188BFF377
:1047A0004F8FBFF36F8FFEE7002561B10020231804
:1047B0000A5C83F834200A5C12B1401C1028F6D33E
:1047C00084F8435001E084F83450072E00D30626C5
:1047D000E662C4E91165201D00F061F904F11800DA
:1047E00000F05DF92461C6F107006462A061E56430
:1047F00084F8505052464946384600F011F920607E
:10480000B8F1000F01D0C8F80040BDE8F087000003
:1048100030B5114900E011460A688242FBD34B686B
:104820005C18844203D140681844486008464368D5
:104830001C18944209D1084C183C2468A24209D0A3
:1048400052681A4442600A6812680260814200D0CD
:10485000086030BD0460F9E79C02002010B50446F2
:1048600000F044F9A06B28B15FF0000400F05EF99D
:10487000204610BD0124F9E70648416B096829B1BB
:10488000416BC968C9684968816270474FF0FF3160
:10489000FAE700004802002008484068401C4FF03A
:1048A000500080F3118804D0BFF34F8FBFF36F8F98
:1048B000FEE7BFF34F8FBFF36F8FFEE7A402002028
:1048C0002DE9F041044600F011F994F9455004F146
:1048D000240609E0606A48B1304600F0B9FF08B12B
:1048E00000F0F4F96D1E6DB2002DF3DC4FF0FF36D1
:1048F00084F8456000F01AF900F0F8F894F9445093
:1049000004F1100709E0206948B1384600F0A0FF23
:1049100008B100F0DBF96D1E6DB2002DF3DC84F8F8
:104920004460BDE8F04100F001B900002DE9F0411C
:104930000546002700F06EFA324E306808B9FFF7DE
:10494000B9FE706905424ED1C5B3083568070ED06F
:1049500005F00700C0F108000544680707D05020A3
:1049600080F31188BFF34F8FBFF36F8FFEE72DB336
:104970007068854237D82348183001460C6801E03A
:1049800020460C466168A94202D221680029F7D16D
:1049900031688C4227D00768216801606068083759
:1049A000411B10290FD96019420708D0502080F30D
:1049B0001188BFF34F8FBFF36F8FFEE713E04160A5
:1049C0006560FFF725FF61687068401A7060B26823
:1049D000904200D2B060706901430020C4E9000138
:1049E000F068401CF06000F06DFF780707D05020A1
:1049F00080F31188BFF34F8FBFF36F8FFEE7384608
:104A0000BDE8F081840200200449086818B10868F4
:104A1000826C521C826408687047000048020020C3
:104A200010B5031F4FF080741C601B1F21F00101A3
:104A30001960191F044B0B6014390A60091F6FF0CD
:104A4000020244380A6010BD99480008D0E90132DA
:104A500001699A60D0E901235A604A68824201D113
:104A600082684A60002202610868401E0860086887
:104A700070470000034B036003F15400086080207E
:104A8000106070470005002000F108014FF0FF3270
:104A9000C0E90112C160016100210160704700217D
:104AA0000161704730B50B685A1C02D000F1080252
:104AB00002E0026904E02246546825689D42FAD962
:104AC00053684B6099608A60516008610168491CB5
:104AD000016030BD42684A6093688B60936859609A
:104AE000916008610168491C01607047502080F3A3
:104AF0001188BFF34F8FBFF36F8F0A494868401C7E
:104B0000486001280CD10848006810F0FF0F07D05A
:104B1000502080F31188BFF34F8FBFF36F8FFEE7F4
:104B200070470000A402002004ED00E00849486836
:104B300028B1401E486001D180F311887047502091
:104B400080F31188BFF34F8FBFF36F8FFEE7000034
:104B5000A402002070B500282AD0164DA0F1080448
:104B600060686969084207D1502080F31188BFF35B
:104B70004F8FBFF36F8FFEE722683AB1502080F36A
:104B80001188BFF34F8FBFF36F8FFEE788436060DC
:104B900000F040F960686968084468602046FFF7E3
:104BA00037FE2869401C2861BDE8704000F08ABECD
:104BB00070BD0000840200204FF0E0200021016160
:104BC000816105494FF47A720968B1FBF2F1491E1F
:104BD00041610721016170474402002010B5FBF7D5
:104BE0009FFB114910280ED300F1E02090F8F0034C
:104BF0000A78904207D2502080F31188BFF34F8F7C
:104C0000BFF36F8FFEE709480068896800F4E06031
:104C1000884207D9502080F31188BFF34F8FBFF32C
:104C20006F8FFEE710BD0000A40200200CED00E035
:104C300070B50D4604000BD095B11E4A106BB8B18B
:104C4000502080F31188BFF34F8FBFF36F8FFEE7C3
:104C5000502080F31188BFF34F8FBFF36F8FFEE7B3
:104C6000502080F31188BFF34F8FBFF36F8FFEE7A3
:104C700000F0D0F8D26823685919934204D98B42C6
:104C80000AD9914202D807E08B42FAD9881A2160EA
:104C90000021FFF70BFC00E0216000F013FE00286C
:104CA00007D105494FF080500860BFF34F8FBFF325
:104CB0006F8F70BD4802002004ED00E002490A6ACF
:104CC0000260C96841607047480200200149012024
:104CD000C86170474802002010B50C4650B1094920
:104CE00009681831FFF7DEFE2046BDE810400121BB
:104CF000FFF7DCBB502080F31188BFF34F8FBFF369
:104D00006F8FFEE74802002070B5040047D0A26C08
:104D1000A2B1606C884200D30146E06A88423ED06E
:104D2000012A3CD11E4D2A6894420FD1502080F3B5
:104D30001188BFF34F8FBFF36F8FFEE7502080F3D2
:104D40001188BFF34F8FBFF36F8FFEE7E162A26957
:104D5000002A02DBC1F10701A161124E00EB8000C5
:104D6000616906EB8000814219D1201DFFF76EFEBC
:104D7000012130B994F82C002A6901FA00F082432D
:104D80002A61E06A2A6981401143296100EB8000B1
:104D900006EB8000211DBDE87040FFF79BBE70BD93
:104DA00048020020C80C002010B586B000240394EF
:104DB00005AA04A903A80494FFF75CFEDDE903013A
:104DC0000094CDE9011000230EA11048059A00F0CF
:104DD00000FC0F490028C86211D0502080F31188D0
:104DE000BFF34F8FBFF36F8F4FF0FF30886201200A
:104DF0004861CC6006B0BDE8104000F069B806B06C
:104E000010BD000049444C45000000000147000867
:104E1000480200200248016B491C016370470000F2
:104E2000480200201448016B11B10121C161704793
:104E30000021C1610169B1FA81F1C1F11F0101EBEA
:104E400081020E4951F822306BB101EB820101F170
:104E500008034A6852684A609A4201D152684A601F
:104E6000D16801607047502080F31188BFF34F8FE5
:104E7000BFF36F8FFEE7000048020020C80C00203F
:104E80001CB5FFF763FA0E4D0E4C0F4ECDF8000027
:104E900095ED000A082184ED000A96ED000A094804
:104EA00084ED010AFEF784FF08A004210068019048
:104EB00001A8FEF77DFF02216846FFF73BFAE7E70E
:104EC000B001002094010020B40100200000807F88
:104ED0001CB537480168374A914207D1502080F30A
:104EE0001188BFF34F8FBFF36F8FFEE70068314922
:104EF000491E884207D1502080F31188BFF34F8F9D
:104F0000BFF36F8FFEE72C4908780190FF200870EF
:104F100008788DF800009DF800009DF8002000F052
:104F2000F000904207D0502080F31188BFF34F8FDC
:104F3000BFF36F8FFEE79DF80000204C00F050009B
:104F400020700720A06005E09DF8002052008DF839
:104F50000020401E9DF800201206F5D4A060032812
:104F600007D0502080F31188BFF34F8FBFF36F8FAE
:104F7000FEE74FF44070A060019808700C482030A4
:104F8000016841F470010160016841F07041016005
:104F9000FFF712FE00206060FBF78AF908480168FD
:104FA00041F040410160FBF76FF900201CBD00009B
:104FB00000ED00E071C20F4100E400E0A402002017
:104FC00034EF00E0F8B517460E46050013D005FB98
:104FD00006F04830FFF7AAFC04000AD0002084F84D
:104FE000460004F148023B46314628460094FFF74C
:104FF000B7FB2046F8BD502080F31188BFF34F8FD8
:10500000BFF36F8FFEE738B5049D18B153B1CAB135
:1050100081B120E0502080F31188BFF34F8FBFF3A0
:105020006F8FFEE7502080F31188BFF34F8FBFF3DF
:105030006F8FFEE7502080F31188BFF34F8FBFF3CF
:105040006F8FFEE739B1502080F31188BFF34F8F87
:10505000BFF36F8FFEE748241C46012384F84630D7
:105060002B460094FFF77CFB204638BD70B50D46FB
:10507000040025D0FFF73AFDD4E90F20216802FB98
:105080000011A1600021A163216861600A46D4E992
:105090000F01401E00FB0121E16021464FF0FF306F
:1050A00001F8440F487004F110008DB1FFF7ECFCDB
:1050B00004F12400FFF7E8FCFFF738FD012070BD84
:1050C000502080F31188BFF34F8FBFF36F8FFEE73F
:1050D00021690029F0D000F0BBFB0028ECD0044986
:1050E0004FF080500860BFF34F8FBFF36F8FE3E73F
:1050F00004ED00E02DE9FF4782B01D468A464FF0DF
:105100000008040003D0BAF1000F08D011E05020CD
:1051100080F31188BFF34F8FBFF36F8FFEE7206CD2
:1051200038B1502080F31188BFF34F8FBFF36F8FDA
:10513000FEE7022D0AD1E06B012807D0502080F352
:105140001188BFF34F8FBFF36F8FFEE700F06CFA4B
:105150003F4F4FF000094FF0805648B9049838B1DE
:10516000502080F31188BFF34F8FBFF36F8FFEE79E
:10517000FFF7BCFCA06BE16B884207D3022D05D082
:105180000498D0B1B8F1000F1AD01EE02A4651465B
:105190002046FFF73EFA616A19B104F1240000F0DD
:1051A00057FB20B13E60BFF34F8FBFF36F8FFFF708
:1051B000BDFC012006B0BDE8F087FFF7B7FC22E098
:1051C0006846FFF77BFD4FF00108FFF7AFFCFFF7E4
:1051D00021FEFFF78BFC94F94400401C01D184F8B8
:1051E000449094F94500401C01D184F84590FFF7A4
:1051F0009DFC04A9684600F085F930B12046FFF710
:105200005FFB00F05FFB0020D4E7FFF76FFCA06BB3
:10521000E16B884213D1FFF789FC04F11000049977
:10522000FFF75AFD2046FFF74BFB00F04BFB002831
:105230009ED13E60BFF34F8FBFF36F8F98E7FFF7AC
:1052400075FC2046FFF73CFB00F03CFB90E70000BC
:1052500004ED00E070B50E46040009D0206C78B172
:10526000502080F31188BFF34F8FBFF36F8FFEE79D
:10527000502080F31188BFF34F8FBFF36F8FFEE78D
:10528000206848B9A06838B1502080F31188BFF376
:105290004F8FBFF36F8FFEE7FFF7A0FC5020EFF3B7
:1052A000118580F31188BFF34F8FBFF36F8FA16B10
:1052B000E06B884218D994F94500491CA163411C50
:1052C00004D0401C84F8450001200EE0606A0028EC
:1052D000FAD004F1240000F0BBFA0028F4D0002E2C
:1052E000F2D001203060EFE7002085F3118870BD17
:1052F0002DE9F04790468946040003D0B9F1000F2C
:1053000008D011E0502080F31188BFF34F8FBFF316
:105310006F8FFEE7206C38B1502080F31188BFF307
:105320004F8FBFF36F8FFEE7FFF758FC5020EFF36E
:10533000118680F31188BFF34F8FBFF36F8FA76B78
:10534000F7B194F9445049462046FFF74FF97F1EC4
:10535000A763681C04D06D1C84F84450012010E041
:1053600020690028FAD004F1100000F071FA00283A
:10537000F4D0B8F1000FF1D00121C8F80010EDE72A
:10538000002086F31188BDE8F08700002DE9F34383
:10539000002683B00400354609D0206C78B1502037
:1053A00080F31188BFF34F8FBFF36F8FFEE750205C
:1053B00080F31188BFF34F8FBFF36F8FFEE700F0CC
:1053C00033F9DFF83C814FF000094FF0805748B9BE
:1053D000049838B1502080F31188BFF34F8FBFF38A
:1053E0006F8FFEE7FFF782FBA06BC8B1401EA06382
:1053F000206810B9FFF708FBA060206950B104F1E4
:10540000100000F025FA28B1C8F80070BFF34F8FE4
:10541000BFF36F8FFFF78AFB012005B0BDE8F08373
:10542000049808B166B10FE03DB1502080F31188B7
:10543000BFF34F8FBFF36F8FFEE7FFF777FB5DE0A2
:105440006846FFF73BFC0126FFF770FBFFF7E2FC25
:10545000FFF74CFB94F94400401C01D184F84490C0
:1054600094F94500401C01D184F84590FFF75EFB9C
:1054700004A9684600F046F80028204612D0FFF73D
:105480001FFA00F01FFA2046FFF7E8F90028A9D01C
:105490009DB3FFF72BFB606A50B3206B0068C0F12F
:1054A000070126E0FFF7DAF9E0B1206838B9FFF725
:1054B0001DFBA06800F086F90546FFF737FB04F1F5
:1054C00024000499FFF708FC2046FFF7F9F900F0E3
:1054D000F9F9002886D1C8F80070BFF34F8FBFF3E9
:1054E0006F8F7FE72046FFF7EBF900F0EBF979E7E4
:1054F0000021A068FFF708FC9FE7FFE700208CE78A
:1055000004ED00E02DE9F0410C46050011D0C4B1D6
:10551000FFF7ECFA174BDA686E682068911B471C9E
:1055200017D02F681B6A9F4219D0964217D80124C2
:1055300010E0502080F31188BFF34F8FBFF36F8FBF
:10554000FEE7502080F31188BFF34F8FBFF36F8FBA
:10555000FEE70024FFF7EAFA2046BDE8F081884222
:1055600005D9401A20602846FFF7A8FBF1E7002084
:105570002060DCE7480200202DE9FF5F8346DDE97B
:105580000E87994616468A469000FFF7CFF9050028
:105590001CD05420FFF7CAF9040014D00020256362
:1055A00084F85100CDE90240CDE900874B463246F0
:1055B00051465846FFF7DFF82046FEF7AFFF0120BF
:1055C00004B0BDE8F09F2846FFF7C4FA4FF0FF3063
:1055D000F6E7F0B585B0DDE90B640A9DA6B1DCB154
:1055E000542700972663022684F85160002604AFF2
:1055F000CDE90246CDE90057FFF7BDF82046FEF79A
:105600008DFF049805B0F0BD502080F31188BFF3E2
:105610004F8FBFF36F8FFEE7502080F31188BFF3E9
:105620004F8FBFF36F8FFEE70548416919B1006BDB
:1056300018B1002070470120704702207047000019
:10564000480200200148C06870470000480200205E
:1056500010B5FFF7C3FA0148C06810BD480200202A
:105660002DE9F0412F4C0026206B28B1A069401C89
:10567000A0613046BDE8F081E5686D1CE56013D19E
:10568000606B006838B1502080F31188BFF34F8FF2
:10569000BFF36F8FFEE7606BA16B6163A063206A4D
:1056A000401C2062FFF7E8F8A06ADFF87C808542A2
:1056B00009D3606B0068A0B1606BC068C768786888
:1056C000854211D2A0622068C06A00EB800158F8C0
:1056D0002100012800D90126E0690028C9D001264F
:1056E000C7E74FF0FF30EDE7381DFFF7AFF9B86AB5
:1056F00018B107F11800FFF7A9F9F96A012022692A
:1057000088401043206101EB810108EB8100391DC5
:10571000FFF7E0F9F86A2168C96A8842C9D301260F
:10572000C7E7000048020020C80C002070B5040044
:105730004FF0000140D0214D2868844207D050200E
:1057400080F31188BFF34F8FBFF36F8FFEE7A06C1C
:1057500038B1401EA064636CE26A9A422CD040B11A
:105760002AE0502080F31188BFF34F8FBFF36F8F73
:10577000FEE7201DFFF76AF9114A012150B9E06ADE
:1057800000EB800352F8233023B92B6901FA00F0B3
:1057900083432B61606CE062C0F10700A061E06AA6
:1057A0002B6981401943296100EB800002EB8000E6
:1057B000211DFFF78FF90121084670BD4802002026
:1057C000C80C002070B504004FF0000034D01E4D0E
:1057D000E16A2A68D26A91422FD2A069002804DBCC
:1057E0002868C06AC0F10700A061184E01EB810172
:1057F000606906EB810188421AD1201DFFF726F966
:10580000012130B994F82C002A6901FA00F0824392
:105810002A612868C06AE0622A69814011432961CF
:1058200000EB800006EB8000211DFFF753F902E03A
:105830002868C06AE062012070BD616C2A68D26A83
:105840009142F8D370BD000048020020C80C00202F
:105850002DE9F041C068C468ACB104F118000746F6
:10586000FFF7F4F8154D286B0126A0B1394614480E
:10587000FFF730F9E06A2968C96A88421CD901201B
:10588000EE61BDE8F081502080F31188BFF34F8FA7
:10589000BFF36F8FFEE7201DFFF7D8F8E16A2A6992
:1058A00006FA01F01043286101EB81000449B43984
:1058B00001EB8000211DDBE70020E2E74802002029
:1058C0007C0D00202DE9F0472C4D00242746286B45
:1058D00038B1FFF70BF9286B401E2863286B40B1E5
:1058E00046E0502080F31188BFF34F8FBFF36F8FD6
:1058F000FEE7A968224E0120D1B3A6F1B409804683
:105900003068E8B1F068C46804F11800FFF79EF849
:10591000201DFFF79BF8E06A2A6908FA00F111439D
:10592000296100EB800109EB8100211DFFF7D2F80E
:10593000E06A2968C96A8842E2D3C5F81C80DFE7BB
:105940000CB1FEF799FFAC6944B14646FFF788FEFB
:1059500000B1EE61641EF9D10020A861E86938B198
:105960000849012738070860BFF34F8FBFF36F8FD7
:10597000FFF7DCF83846BDE8F08700004802002059
:105980007C0D002004ED00E021F00042A2F1605205
:10599000B2F5801F01F0004328BFD2F17F6C0BD914
:1059A0005FEA001C43EAC20242EB507018BF704726
:1059B00028BF20F001007047B2F5801FBCBF184619
:1059C00070474FEA410C1CF5001F02D2084600F058
:1059D00081B970B500F0B4F800000089FFF7F6BF98
:1059E0004FF00040A0F5800070470000DFF848C18C
:1059F00070B51CEA111E1EBF1CEA13159EEA0C0F9F
:105A000095EA0C0F00F06F8081EA030423EA4C133F
:105A10004EEAD47E21EA4C1141F4801143F4801304
:105A2000AE44A1FB024CA0FB0365AEF17F7E3619AC
:105A300055EB0C05A1FB034C4CF10003A0FB021C31
:105A400016EB0C06654153F10003094218BF46F0FE
:105A5000010613F4007F0BD14FEA03314FEA053002
:105A6000340341EA155140EA16506FF003020AE090
:105A70004FEAC3214FEAC520F40241EA555140EAFA
:105A800056506FF0020202EB2E4201EB025585EAFE
:105A9000CE710AD05FEA440C18BF24F0004450F1E4
:105AA000000041F1000120EAD47040F2FE7C624522
:105AB00000D270BDA84214BF4FF080444FF0404464
:105AC000002E08BF0024BEF1806FA8BFA1F1C04125
:105AD000BDE8704080F282804FF0000001F1C041CB
